:020000040800F2
:10000000FCFF0020A5F5000801F6000801F6000835
:1000100001F6000801F6000801F6000800000000E3
:1000200000000000000000000000000001F60008D1
:1000300001F600080000000001F6000801F60008C3
:1000400001F6000801F6000801F6000881A1000889
:1000500001F6000801F6000801F6000801F60008A4
:1000600001F6000801F6000801F6000801F6000894
:1000700001F6000801F6000801F6000801F6000884
:1000800001F6000801F6000801F6000801F6000874
:1000900001F6000801F6000801F60008C1D00008CA
:1000A00001F6000801F6000801F6000801F6000854
:1000B00091A00008F9A1000801F6000801F6000867
:1000C00001F6000801F6000801F6000801F6000834
:1000D00001F600087DEE000801F6000801F60008B0
:1000E00001F6000801F6000801F600080000000013
:1000F0000000000000000000000000000000000000
:10010000000000000000000001F6000801F60008F1
:1001100039FA000801F6000801F6000801F60008A7
:1001200001F6000801F6000801F6000801F60008D3
:1001300001F6000801F6000801F6000801F60008C3
:1001400001F6000801F6000801F6000801F60008B3
:100150005FF808F141B14FF42053C4F200031A884C
:1001600092B21043188070474FF42053C4F200033A
:100170001A8892B222EA0000188070474FF4205388
:10018000C4F200039A8892B242F010029A8070473B
:100190004FF42052C4F20002938823F010034FEA78
:1001A00003434FEA13439380704700BF4FF420533B
:1001B000C4F20003988B80B21B8B40EA0340704767
:1001C00010B50446FFF7DAFF4FEA14424FF420530C
:1001D000C4F200031A83A4B29C83FFF7D9FF10BDB9
:1001E00010B50446FFF7CAFFC4F303424FF420538F
:1001F000C4F200031A81A4B29C81FFF7C9FF10BDAD
:100200004FF42052C4F20002938813F0200FFBD069
:10021000704700BF4FF42052C4F20002938823F0CD
:1002200008034FEA03434FEA134393804FF42052ED
:10023000C4F20002938813F0080FFBD0704700BF90
:100240004FF42053C4F200039A8892B21B881842DC
:1002500006D0024012F0FF0F0CBF002001207047B3
:100260004FF00000704700BF4FF42053C4F200036A
:100270009A8892B222EA0000988070478378A3F1AE
:100280000302D2B2072A11D80279C178891A182933
:1002900008DD12B94279012A04D9B3F10A0018BF66
:1002A00001207047D81E18BF012070474FF0000092
:1002B000704700BF70B448F68902C8F68802A2FBF6
:1002C00000434FEA5313C3EB0314A0EB8400C8713F
:1002D000A2FB03024FEA5212C2EB0210A3EB80030F
:1002E0008B714AF6AB23CAF6AA23A3FB02434FEA5B
:1002F000131303EB4300A2EBC0024A719BB203F15C
:10030000060242F29340C9F2492080FB0240801865
:100310004FEAA000C0EBC000121A0A714FF00104AE
:100320004FF0000240F26D154FF4B77612F0030F54
:100330000DD11AB1642A01D0C82A0AD104F1FF34C0
:10034000E4B2002C14BF28464FF4B77002E02846F0
:1003500000E03046834205D31B1A9BB202F1010232
:10036000D2B2E3E71C4602F5FA620A8010F0010FF0
:1003700003D03A2B84BF01339BB21E2B12D94FF00E
:100380001F004FF0010241F2E414C0F601041B1AF1
:100390009BB202F10102D2B2A01810F8010C9842EF
:1003A000F5D901E04FF001028A7003F10103CB702F
:1003B00070BC70472DE9F0410446FFF7F7FE054693
:1003C000FFF7F4FE8542F8D128462146FFF772FF79
:1003D00094F80580E6782579A7782046FFF74EFF48
:1003E00030B34FF00103237298445FFA88F8B8F1F4
:1003F000180F17D1ED18EDB2072D08BF002541F2F7
:10040000E413C0F60103DB1913F8013CB34204D135
:1004100007F10107FFB24FF0000606F10106F6B240
:100420004FF00008A77084F80580E670257102E09F
:100430004FF0000323724FF00000BDE8F08100BFD1
:10044000F0B585B0068840F26D1303FB06F39EB14C
:1004500006F1FF3206F1030548F21F51C5F2EB1118
:1004600081FB02414FEAE272C2EBE11404EBA50406
:10047000E318C2EB61129B1A4DF68B22CFF6F47291
:100480009A18877807F1FF34A4B264B14FF00003E3
:1004900041F2E415C0F60105E95C521803F10103CD
:1004A000DBB29C42F8D848F21F53C5F2EB13A3FB12
:1004B00006134FEAD3134FF4C87101FB13639BB2C9
:1004C000A3B116F0030F0DD148F21F53C5F2EB1381
:1004D000A3FB06434FEA53134FF0640101FB13667D
:1004E000B6B21EB9012F88BF02F1FF32C379A3F55E
:1004F000A833A3F5C07341794FF4616404FB013163
:100500008379C3EB031301EB8301C47814194FF40F
:10051000A343C0F2010303FB0414204601A9FFF723
:10052000C9FE01A8FFF7AAFE08B1A4F561644FF067
:10053000010000F0C7F8FFF763FE2046FFF740FE1A
:10054000FFF75EFE4FF0000000F0BCF805B0F0BD14
:1005500082B04FF48053C4F202031A6842F00102E1
:100560001A6059684FF00002CFF2FF020A405A6049
:100570001A6822F0847222F480321A601A6822F417
:1005800080221A605A6822F4FE025A601A6822F029
:10059000A0521A604FF47F029A604FF00002DA62B4
:1005A000009201921A6842F480321A604FF480522D
:1005B000C4F20202136803F400330193009B03F1B9
:1005C00001030093019B1BB9009BB3F5A06FF1D110
:1005D0004FF48053C4F202031B6813F4003F14BFAE
:1005E000012300230193019B012B61D14FF40053A0
:1005F000C4F202031A6842F010021A601A6822F06C
:1006000003021A601A6842F002021A604FF4805323
:10061000C4F202035A685A605A685A605A6842F42F
:1006200080625A60D96A4FF47042CFF6FE720A4077
:10063000DA62DA6A42F4823242F41172DA621A68D9
:1006400042F080621A604FF48052C4F202021368D2
:1006500013F0006FFBD04FF48053C4F202035A68CA
:1006600022F47C125A605A6842F4E8125A601A68FE
:1006700042F080721A604FF48052C4F20202136892
:1006800013F0007FFBD04FF48053C4F202035A688A
:1006900022F003025A605A6842F002025A604FF494
:1006A0008052C4F20202536803F00C03082BFAD103
:1006B0004FF46D43CEF200034FF000629A6002B037
:1006C000704700BF4FF02003C4F20E23186070473C
:1006D0002DE9F003CB7803F00F0513F0100F1CBFCA
:1006E0008B781D430B782BB3D0F800C04FF000037C
:1006F0004FF001064FF00F0806FA03F20C88144081
:10070000944211D14FEA830708FA07F92CEA090C41
:1007100005FA07F74CEA070CCF78282F01D144617E
:1007200002E0482F08BF026103F10103082BE3D167
:10073000C0F800C00B88FF2B27D9D0F804C04FF0B9
:1007400000034FF001064FF00F0803F1080206FA0C
:1007500002F20C881440944211D14FEA830708FA40
:1007600007F92CEA090C05FA07F74CEA070CCF78D1
:10077000282F08BF4461CC78482C08BF026103F1E0
:100780000103082BE1D1C0F804C0BDE8F0037047B5
:100790004FF6FF7303804FF0020383704FF00403A2
:1007A000C3707047806880B2704700BFC06880B275
:1007B000704700BF0AB1016170474161704700BFD7
:1007C000C160704730B400284FF00003C4F2010349
:1007D000B4BFDB695B6884B200F44012B2F5401F1D
:1007E0000AD123F070634FF00002C4F20102556891
:1007F00025F07065556017E010F4801F0AD0C0F333
:1008000003424FF0030505FA02F223EA020343F024
:10081000706309E04FEA50524FEA021204FA02F202
:1008200023EA020343F0706331B14FEA50524FEABA
:10083000021204FA02F4234300284FF00002C4F22B
:100840000102B4BFD361536030BC704730B401F0D3
:1008500003024FEA82024FEA91014FF00003C4F213
:10086000010301F1020153F821504FF00F0404FA83
:1008700002F425EA040443F8214053F8214000FA29
:1008800002F2224343F8212030BC704782B001902D
:10089000019B33B1019B03F1FF330193019B002BBB
:1008A000F8D102B0704700BF70B584B04FF00900B6
:1008B0004FF001010EF032FE4FF40076ADF80C60FF
:1008C0004FF004038DF80F304FF003038DF80E3016
:1008D0004FF44064C4F20104204603A9FFF7F8FE78
:1008E0004FF48073ADF80C304FF014038DF80F30D7
:1008F000204603A9FFF7ECFE4FF47063ADF80C300F
:100900004FF40060C4F2010003A9FFF7E1FE4FF4C9
:10091000E06010F003FA4FF017038DF800304FF04D
:1009200000058DF801508DF802504FF001048DF84C
:100930000340684610F0FCF920464FF00901FFF72C
:1009400085FF01968DF808504FF008038DF80930A7
:100950008DF80A4001A80EF055FE04B070BD00BF2E
:1009600038B54BF23434C2F200042B4D256040F20E
:10097000BF23A38010F02EFC05F5506303F109039B
:10098000C4F80930E3684FF4FA6262F31723E360B6
:1009900010F020FC05F50A5303F15903C4F8123096
:1009A0004FF48D73E38205F5D65303F11903C4F8B0
:1009B0001B306FF03F03E3774FF0010384F82030E2
:1009C00005F5E45303F1190363624FF4C86323850B
:1009D00005F5307303F10503C4F82D30236B4FF494
:1009E0001C6262F31723236305F5486303F10503D3
:1009F000C4F836304FF08403638705F5A65505F13A
:100A00001905C4F83F504FF0000384F843304FF00D
:100A1000060384F8443038BDDA5C0020F8B54BF2A8
:100A20009854C2F200043C4D256041F2DC27A780B7
:100A300005F55C5606F10C06C4F8066040F2CA23C0
:100A4000638105F5884303F11A03E3604FF4FA6309
:100A5000238205F5B24303F1EA03C4F812304FF4E0
:100A60008D73E38205F5A24303F1EA03A3614FF41A
:100A7000E073A38305F5A64303F1AA03C4F81E306F
:100A80004FF4C863638405F5665303F1560363624C
:100A900040F64422228505F5864303F19603C4F807
:100AA0002A30E28505F5964303F1EA0323634FF408
:100AB000C063A38610F08EFB05F5044303F1AA037F
:100AC000C4F836304FF4DB636387E563A4F8407005
:100AD00005F5B64505F10405C4F8425042F6A613E3
:100AE000A4F8463042F2C855C2F2000505F55C5440
:100AF0004FF0110333704FF01A03A3734FF0180334
:100B0000E37310F067FB05F5665595F847302374DD
:100B10004FF048036374F8BDC925002008B529B11A
:100B20004FF0000300F8013B0139FBD110F052FBFC
:100B300008BD00BFF0B40346D9B14FF0000422460F
:100B40004FF4887043F2C155C8F20E154FF6E856BF
:100B50001C5D001980B2A5FB00744FEAD43406FB7B
:100B6000140080B202F1010292B214468A42EFD31D
:100B700001E04FF48870F0BC704700BF10B442F23F
:100B80006853C2F200031B6801EB41029A18127904
:100B900082B901EB41029B18B3F902404BF28C324F
:100BA000C2F2000200EB400001EB400122F81140CC
:100BB000588812E001EB41029B18B3F9023053B19F
:100BC0004BF28C33C2F2000300EB400001EB40011A
:100BD00033F8110001E04FF0000000B210BC704784
:100BE0002DE9F04F85B0804642F2C853C2F20003AF
:100BF0004FF0560202FB003303F55C5393F841B00B
:100C00004FF00004A246A14641F2883203920294BA
:100C1000264601944BF3050747FA04F313F0010F3E
:100C200027D0E5B240462946FFF7A8FF08B3404663
:100C30002946FFF7A3FF039A13B29842B8BF0346B1
:100C40009BB20393029A13B29842A8BF03469BB289
:100C5000029381441FFA89F90AF1010A5FFA8AFABC
:100C600046F3460606F12006F6B24FF00103019363
:100C700002E046F34606F6B204F10104062CCBD19D
:100C8000019A002A3CD04BF3811B5FFA8BFB5FFA81
:100C90008BF242F2C853C2F200034FF4147101FB0D
:100CA000083306EB821683F8E8610FFA89F999FB9D
:100CB000FAFAA3F8EBA112F0010F08D042F2C853E0
:100CC000C2F2000301FB0833039AA3F8EB211BF0E7
:100CD000020F0AD042F2C853C2F200034FF414725A
:100CE00002FB0833029AA3F8EB2142F2C853C2F286
:100CF00000034FF4147202FB0838B8F8EB010FE060
:100D000042F2C853C2F200034FF4147202FB0838D7
:100D10004FF0000088F8E80188F8EB0188F8EC0152
:100D200000B205B0BDE8F08F2DE9F04F85B08046E8
:100D300042F2C853C2F200034FF0560202FB0033E6
:100D400003F55C5393F840B04FF00004A246A1466F
:100D500041F2883203920294264601944BF3050730
:100D600047FA04F313F0010F27D0E5B240462946B5
:100D7000FFF704FF08B340462946FFF7FFFE039A3A
:100D800013B29842B8BF03469BB20393029A13B2C0
:100D90009842A8BF03469BB2029381441FFA89F987
:100DA0000AF1010A5FFA8AFA46F3460606F12006BE
:100DB000F6B24FF00103019302E046F34606F6B2A5
:100DC00004F10104062CCBD1019A002A3ED04BF34A
:100DD000811B5FFA8BFB5FFA8BF242F2C853C2F2BF
:100DE00000034FF4147101FB083306EB821683F8FD
:100DF000E7610FFA89F94FFA8AFA99FBFAF9A3F831
:100E0000E99112F0010F08D042F2C853C2F2000378
:100E100001FB0833039AA3F8E9211BF0020F0AD063
:100E200042F2C853C2F200034FF4147202FB0833BB
:100E3000029AA3F8E92142F2C853C2F200034FF428
:100E4000147202FB0838B8F8E90111E042F2C85305
:100E5000C2F200034FF4147202FB08384FF0000096
:100E600088F8E701D8F8E83160F31723C8F8E831CB
:100E700000B205B0BDE8F08F2DE9F041804642F2A6
:100E8000C853C2F200034FF0560202FB003303F5D1
:100E90005C5393F941704FF00004264647F3050771
:100EA00047FA04F313F0010F0FD0E5B2404629468C
:100EB000FFF764FE48B140462946FFF75FFE46F360
:100EC000460606F12006F6B202E046F34606F6B202
:100ED00004F10104062CE3D170B2BDE8F08100BF3B
:100EE0002DE9F041804642F2C853C2F200034FF0B0
:100EF000560202FB003303F55C5393F940704FF048
:100F00000004264647F3050747FA04F313F0010FE0
:100F10000FD0E5B240462946FFF730FE48B14046C3
:100F20002946FFF72BFE46F3460606F12006F6B2E9
:100F300002E046F34606F6B204F10104062CE3D1C2
:100F400070B2BDE8F08100BF41F60C13C2F200039D
:100F500033F81000704700BF48B141F60C13C2F2DD
:100F6000000333F81120801823F81100704741F670
:100F70000C13C2F200034FF0000223F81120704757
:100F800041F60C13C2F2000303EB4003188A7047CA
:100F900048B141F60C13C2F2000303EB41031A8A75
:100FA00080181882704741F60C13C2F2000303EB5D
:100FB00041034FF000021A82704700BF08B5014696
:100FC00042F2C853C2F200034FF4147202FB003322
:100FD0004FF0010083F87C0241F60C13C2F20003CB
:100FE00003EB41031884FFF7B7FF08BD38B504468B
:100FF00042F2C853C2F200034FF4147202FB0033F2
:101000004FF0000583F87C5228462146FFF7C0FFC9
:1010100028462146FFF7A0FF4FF001002146FFF7C9
:101020009BFF41F60C13C2F2000303EB440425843A
:1010300038BD00BFF8B54FF00004254641F60C1648
:10104000C2F200062746A75306F11003E75206F145
:101050002003E7522846FFF7C9FF05F10105EDB26D
:1010600004F10204082DEED1F8BD00BF70B5254D86
:101070004FF00004244E35F9023B012B1AD12046D3
:10108000FFF77EFFB6F9EF3048F21F52C5F2EB12C0
:1010900082FB03124FEAE373C3EB62131BB2984265
:1010A00003DB2046FFF7A2FF04E04FF001002146DA
:1010B000FFF76EFF35F9023CEBB92046FFF744FF1E
:1010C000B6F9F13048F21F52C5F2EB1282FB03125F
:1010D0004FEAE373C3EB62131BB2984205DB4FF098
:1010E00000002146FFF738FF05E020B14FF0010076
:1010F0002146FFF731FF04F10104E4B2082CBAD114
:1011000070BD00BF2C190020C87F002070B50446B8
:101110004BF28033C2F200031B6893F83E3013F0A9
:10112000010F59D1FFF700FE42F2C853C2F200038B
:101130004FF4147202FB0433B3F99F50A84204DA4F
:101140002D1AAEB24FF0000501E0451BADB20028EC
:1011500028DD224BB3F9003036B2B34206DC20461C
:10116000FFF7F2FE10B92046FFF728FF1C4BB3F93A
:1011700000302DB2AB4215DC2046FFF701FF194BC2
:10118000B3F9003048F21F52C5F2EB1282FB031292
:101190004FEAE373C3EB62131BB2984202DB2046B3
:1011A000FFF724FF42F2C853C2F200034FF4147257
:1011B00002FB043241F60C13C2F2000303EB4404B9
:1011C000238A03EB830303EB83034FEA8303A2F831
:1011D000EF31238CA2F8ED3170BD00BFB18000204B
:1011E000B3800020B5800020002801DD002904DC48
:1011F000002805DA4FEAD17070474FF001007047C0
:101200004FF00000704700BF10B442F26852C2F2C3
:1012100000024FF4147101FB00F142F2C853C2F214
:101220000003CC1804F1490414604BF2F032C2F20E
:10123000000240F22E5404FB003404F5B64404F1DD
:10124000050414604BF23C62C2F200024FF05604F7
:1012500004FB003404F55C5404F1120414604BF2F6
:101260008032C2F20002C91801F50E7101F10501C8
:10127000116042F2F842C2F2000200EB400103EBBF
:10128000811101F5964101F1EB0111604BF23862D9
:10129000C2F200024FF0C80101FB003101F5A64186
:1012A00001F1AB0111604BF21442C2F2000248F2AC
:1012B000AB4159184FF0D00404FB0011116042F209
:1012C0005052C2F20002C0EBC00003F5A24303F18A
:1012D000EB0303EBC003136010BC7047F0B583B0A1
:1012E0004FF0000742F2C856C2F20006F8B2FFF70C
:1012F0008BFF4FF000044FF0640505FB07F52B1939
:1013000003F5285303F10A0306EB4303B3F8070080
:101310000DF107010FF06EF868B142F26853C2F2A6
:1013200000031B684FF0010202FA04F2B3F95010F7
:101330000A43A3F8502004F10104072CDFD107F180
:101340000107082FD2D103B0F0BD00BF2DE9F8434B
:1013500004460FF03FFF4FF064000FF03BFC4BF2F0
:101360001A33C2F200034FF000021A70022C04D9A3
:10137000CF4841F2DC21FFF7D1FBCE4C204641F6AD
:10138000B631FFF7CBFB0FF025FF04F5A65000F1B7
:101390001E004FF46351FFF7C1FB04F5A84000F1B4
:1013A00076004FF4DB71FFF7B9FB0FF013FF42F249
:1013B000C852C2F200024FF0010182F84710536C8C
:1013C00040F2011060F3172353644FF000036FF0F5
:1013D0001F0082F8430082F84410517841F0200148
:1013E00051704BF22C62C2F2000213705370937072
:1013F000D370137153719371D371137253729372CB
:101400004BF22662C2F2000213804BF28432C2F227
:101410000002138042F2C854C2F2000440F20000FD
:10142000C2F2000003F5325202F1740203EB4301F1
:10143000415A04EB4202A2F8031003F10103792B95
:10144000F0D142F20253C2F200034FF079021A8047
:10145000994B4FF0010283F842204FF0C00183F80E
:1014600043104FF0A80183F8441083F845204FF053
:10147000650183F846104FF0090183F849104FF0D9
:10148000040183F84A104FF0060183F8471083F8EF
:1014900048204FF06F0283F84C204FF0280283F869
:1014A0004B20864F3C464FF0000342F2C85EC2F22A
:1014B000000E40F20006C2F2000603EB43010EEB01
:1014C000810101F5864101F1970203F11A00C0EB99
:1014D000C005C0EBC5003018B0F99751A1F89D5078
:1014E000B0F99951A1F8A150B0F99351A1F89B50CE
:1014F000B0F99501A1F89F0094F8B70581F897001D
:1015000094F8B815917003F1010304F137040B2B23
:10151000D3D14BF20843C2F200034FF000021A800D
:1015200042F20254C2F2000440F20005C2F2000589
:1015300005F51666D0B2FFF767FE4FF00003238073
:101540004BF2EE31C2F200019E469C46A1F800C06B
:10155000734642F25050C2F200001BB2B4F90020B0
:10156000D0F80080C2EBC202904403EB060919F8E0
:10157000022008F803200B8803F101039BB20B80C3
:101580009AB2062AE9D9238803F101039BB223808A
:101590001BB2072BDADD4BF20843C2F20003B3F9AA
:1015A00000204BF28853C2F200034FF0010199541E
:1015B0004BF23863C2F20003D3F800E04FF0B401FD
:1015C0003F4B01FB0232A2F102024FF000030EEB8F
:1015D000430132F8020F888203F101035A2BF6D13E
:1015E0004FF0000323804BF2386EC2F2000E4BF234
:1015F0000840C2F20000DEF800101BB2B0F9002073
:1016000002EB820203EB420205EB4202B2F8982998
:1016100021F81320238803F101039BB223801AB21F
:10162000092AE8DD4BF2F033C2F20003D3F8008060
:101630004FF0000213464FF02C0C4FF0010EC2EB9E
:10164000C20102EB8101414481F8BCC181F8BDE1D6
:1016500081F8BE3181F8BF3181F8C13181F8C231E2
:1016600081F8C33181F8C43102F10102182AE6D1B0
:101670004FF0000323804BF23C60C2F2000002688E
:101680001BB205EB4301B1F8381A22F81310238876
:1016900003F101039BB223809AB2172AEFD94FF0CE
:1016A0000003238042F2F842C2F200020AE000BFC7
:1016B000C9250020D55C0020485F00206C01002077
:1016C0003C19002011681BB2B5F8680A21F83300F4
:1016D0001068238819B24FEAC1014018D5F874EA9E
:1016E00080F806E0B5F86CEAA0F802E0106841184E
:1016F000B5F8700A888003F101039BB2238019B208
:101700001729DFDD4BF20843C2F20003B3F90030C2
:10171000264A4FF49C7101FB032338464FF0000228
:10172000C2EBC201C2EBC1016918B1F997E1A3F89C
:1017300006E0B1F999E1A3F80AE0B1F993E1A3F861
:1017400004E0B1F99511198190F82210997090F880
:10175000211003F80C1B02F1010200F137001A2AD4
:10176000DED14BF2EE33C2F200031A804BF2084393
:10177000C2F200031A8802F1010292B21A8013B277
:10178000072B7FF7D7AE0FF025FD4BF21433C2F2D3
:1017900000034FF019021A7042F2C853C2F200035C
:1017A0004FF050021A70BDE8F88300BF9F5F002021
:1017B00010B442F25853C2F2000342F26851C2F22E
:1017C00000014FEA40021418096801EBC40101F15D
:1017D000D60119604BF21C33C2F200034BF2F03118
:1017E000C2F20001096801EBC40119604BF23443F5
:1017F000C2F200034BF28031C2F2000109688A187C
:101800001A604BF21033C2F2000342F25052C2F29D
:1018100000024FEAC0010C1A126812191A604BF24A
:101820001063C2F200034BF23862C2F20002126887
:1018300002EB400000F11400186042F2FC43C2F2D7
:10184000000342F2F842C2F2000212685118196015
:1018500010BC7047F0B442F2C853C2F2000303F563
:101860000442B2F97750D2F896406419C2F8964013
:10187000D2F89C104FF4487606FB01F644F6D3509C
:10188000C1F2620080FB06714FEAE676C6EBA11654
:101890004FF0C80101FB0561C2F89C1080FB0120DC
:1018A0004FEAE171C1EB9011A3F83D1003F5A84395
:1018B00003F15F031B889BB142F2C853C2F20003DD
:1018C00004EB44044FEA440444F6D352C1F26202EA
:1018D00082FB04724FEAE474C4EB9214A3F82F4025
:1018E00042F2C853C2F20003B3F93F0003F50442C9
:1018F00002F17902B2F900204FF0C80101FB02F1B8
:101900004FF4487202FB001244F6D351C1F2620157
:1019100081FB02014FEAE272C2EB9112A3F83F2071
:10192000F0BC7047184B1B88C3B142F2C853C2F2D7
:10193000000303F5044202F19602126802EB420230
:101940004FEA420244F6D351C1F2620181FB020127
:101950004FEAE272C2EB9112A3F82F2042F2C85371
:10196000C2F2000303F50442D2F89C2044F6D3519E
:10197000C1F2620181FB02014FEAE272C2EB9112F5
:10198000A3F83D20704700BF277A0020B0F900304F
:101990008B42B8BF01807047B0F900308B42C8BF9E
:1019A000018070472DE9F00105464BF21C33C2F26D
:1019B0000003D3F800C04FF000038CF816304BF250
:1019C0001063C2F200031C68238833B34FF0000396
:1019D000184642F2C857C2F200074FF064064FF0B3
:1019E000010806FB035202F5265202F15C0207EBE6
:1019F0004202B2F807102288914209D108FA03F294
:101A00001043C0B29CF8162002F101028CF8162097
:101A100003F10103082BE4D101E04FF00000BDE821
:101A2000F001704710B404464BF21C33C2F20003BD
:101A30001B6893F9131011F0010F0DD14FF0010342
:101A4000D8B241FA03F212F0010F07D103F10103FA
:101A5000082BF5D1204601E04FF0000010BC704784
:101A600030B404464BF22C45C2F20005B5F90050E3
:101A7000854201DD884207D142F2C652C2F200021D
:101A80004FF00003138012E08D4205DD42F2C65193
:101A9000C2F200010A800AE042F2C650C2F200001F
:101AA0002D1B02FB05F20C1B92FBF4F20280184680
:101AB00030BC704710B442F2C853C2F20003B3F90D
:101AC000411001F00101A3F8411003F5B443B3F94B
:101AD000DB00B42808D142F2C853C2F200031A6CEA
:101AE0006FF317221A6475E042F2C853C2F2000382
:101AF00003F5B442B3F93F40B2F95F309C4269DB71
:101B000042F2C853C2F2000303F5044202F17B0221
:101B1000B2F90020101800B246F2B702CBF20B6205
:101B200082FB004212184FEAE074C4EB22224FF409
:101B3000B47404FB120080B242F2C652C2F2000238
:101B4000108003F5BE4383F8F41051B903B25F2B44
:101B500007DDB3F5847F04DC4FF001021E4B83F8F0
:101B6000F42042F2C853C2F20003B3F9413073B11A
:101B700042F2C653C2F200031B88A3F155039BB285
:101B8000BE2B04D94FF00002134B83F8F42042F22D
:101B9000C853C2F2000303F5BE4292F9F420B3F930
:101BA000413011469A4210D00B4A92F8F53003F1B9
:101BB0000103DBB282F8F5305BB2042B0ADD42F29E
:101BC000C853C2F20003A3F841104FF00002024BC9
:101BD00083F8F52010BC7047C884002010B582B08F
:101BE00004460EF05DFA38B14FF0010021460DF1C8
:101BF00007020EF0ABFA14E09CB104F1FF34A4B27A
:101C00004F2C0ED84FEAD4024BF22C63C2F20003E1
:101C100004F007044FF0010101FA04F4995C0C434D
:101C20009C5402B010BD00BF10B582B004460EF047
:101C300037FA38B14FF0000021460DF107020EF0DF
:101C400085FA13E094B104F1FF34A4B24FEAD40250
:101C50004BF22C63C2F2000304F007044FF00101C1
:101C600001FA04F4995C21EA04049C5402B010BD0A
:101C700010B582B004460EF013FA28B120460DF1DB
:101C800007010EF011FB17E0A4B104F1FF34A4B278
:101C900004F007034FF0010202FA03F24BF22C6347
:101CA000C2F200034FEAD4041B5D1A420CBF0020AD
:101CB000012001E04FF0000002B010BD70B582B00D
:101CC00016461D4642F2C853C2F200034FF06402AA
:101CD00002FB001101F5265101F15C0103EB410308
:101CE000B3F8074074B320460EF0DAF950B1D6F1DC
:101CF000010038BF00202C19A1B20DF106020EF030
:101D000025FA1FE004F1FF346519ADB24FEAD5039F
:101D100005F007054FF0010202FA05F5ADB20A2BF6
:101D200010D846B14BF22C62C2F20002D15C21EA1B
:101D30000505D55406E04BF22C62C2F20002D15CDC
:101D40000D43D55402B070BD4BF27C33C2F2000398
:101D50001B78012B05D14BF22863C2F200031B68EC
:101D600018704BF27C33C2F200031B78022B05D1B2
:101D70004BF22863C2F200031B681860704700BF73
:101D8000194B93F948304BB1034601E0232A04D0A4
:101D900013F8012B002AF9D100E0184603780BB3A1
:101DA000232B1FD041F60C12C2F2000292F8D0256C
:101DB0004BF23C41C2F200018B5402F10102D2B25B
:101DC00010F8013F33B941F60C13C2F2000383F857
:101DD000D0257047232BEFD141F60C13C2F200033C
:101DE00083F8D025704700BF485F00202DE9F041FF
:101DF00005460C4642F2B653C2F200031B7893B973
:101E00004BF22863C2F20003186041F60C13C2F2D1
:101E1000000393F8D02583F8D12583F8D21501F07B
:101E20000F0283F8D3250FF0D5F9A4F10403412B59
:101E300000F2C983DFE813F00102A401C703C7035E
:101E40008D02C703C703C703C703C703C7037803CC
:101E5000C703CD00C7030102FB003502C7035401CD
:101E6000C703C703C703C703C703C703C703C70322
:101E7000C7034200C703C703C7038D02C703C703D5
:101E8000C703C703C703C703C703C703C703C70302
:101E9000C703C703C703C703C703F602C703C703C4
:101EA000C703C703C703C703C703C703C703C703E2
:101EB000C703C703C703C703C70337032C8841F60B
:101EC0000C13C2F2000393F8D0154BF23C42C2F25D
:101ED00000024FF03D00505401F1010183F8D0158C
:101EE0000FF078F942F2B653C2F200031B7863B9DF
:101EF00042F2EE43C2F200031C8041F60C13C2F220
:101F0000000393F8D02583F8D1252046FFF7B0FED3
:101F100088B141F60C13C2F2000393F8D0154BF2CE
:101F20003C42C2F200024FF03100505401F1010175
:101F300083F8D01510E041F60C13C2F2000393F8B9
:101F4000D0154BF23C42C2F200024FF03000505428
:101F500001F1010183F8D01541F60C11C2F2000124
:101F600091F8D0254CF6CD40CCF6CC40A0FB023207
:101F70004FEA121202EB82024FEA8202D2B24BF215
:101F80003C43C2F2000302F11A05EDB24FF05B06CA
:101F90005E5502F11B05EDB2A0FB04604FEAD000D4
:101FA00000F130065E5502F11C05EDB200EB800039
:101FB000A4EB400404F130045C5502F11D00C0B2F2
:101FC0004FF05D041C5402F11E0281F8D025BDE8DB
:101FD000F08142F2B653C2F200031B784BB94BF2C8
:101FE0001A63C2F200034BF20842C2F200021288E6
:101FF0001A702A784BF20843C2F20003B3F900309A
:102000001A4241F60C13C2F2000393F8D0154BF2BA
:102010003C42C2F2000214BF31203020505401F182
:10202000010183F8D0150FF0D5F8BDE8F081B5F9BE
:102030000030002B15DA41F60C13C2F2000393F8BE
:10204000D0154BF23C42C2F200024FF02D0050542A
:1020500001F1010183F8D0152988C1F1000189B28D
:1020600000E0298801F1050189B24CF6CD46CCF695
:10207000CC46A6FB01714FEAD10141F60C14C2F225
:10208000000494F8D0254BF23C45C2F20005AA1892
:10209000A6FB01834FEAD30303EB8300A1EB4001CE
:1020A00001F13001D1709BB2A6FB03C64FEAD60600
:1020B00006EB8601A3EB410303F1300353700FF0ED
:1020C00089F894F8D03506F13006EE54ED184FF04B
:1020D0002E02AA7003F1040384F8D035BDE8F08124
:1020E0002E8841F60C14C2F2000494F8D0554BF23D
:1020F0003C41C2F200014B194CF6CD42CCF6CC4229
:10210000A2FB06704FEAD00000EB8007A6EB470663
:1021100006F130069E7186B2A2FB06804FEAD0001F
:1021200000EB8007A6EB470606F130065E7186B22B
:10213000A2FB06C04FEAD00000EB8007A6EB4706E3
:1021400006F13006DE7080B2A2FB00624FEAD202D6
:1021500002EB8206A0EB460000F13000987002F11D
:1021600030024A554FF02E025A701A710FF032F8B1
:1021700094F8D03503F1070384F8D035BDE8F08139
:102180002D8841F60C13C2F2000393F8D0054BF2F0
:102190003C42C2F2000213184CF6CD44CCF6CC44BB
:1021A000A4FB05714FEAD10101EB8106A5EB4605C1
:1021B00005F130051D718DB2A4FB05814FEAD101F7
:1021C00001EB8106A5EB460505F13005DD7089B20E
:1021D000A4FB01C44FEAD40404EB8405A1EB450140
:1021E00001F130015970A4B204F1300111544FF0E3
:1021F0002E029A700EF0EEFF092C12D941F60C1344
:10220000C2F2000393F8D0254BF23C43C2F2000324
:102210004FF0210199549B184FF030025A70DA7038
:102220001A7141F60C13C2F2000393F8D02502F1A3
:10223000050283F8D025BDE8F081298814F00F0449
:1022400022D041F60C13C2F2000393F8D02502F11C
:10225000FF3223464BF23C46C2F20006B6184CF65B
:10226000CD45CCF6CC45A5FB01024FEAD20202EBEC
:102270008200A1EB400101F13001F15491B203F170
:10228000FF33DBB2002BEED141F60C13C2F2000398
:1022900093F8D025A41883F8D0450EF09BFFBDE835
:1022A000F0812E8842F2F443C2F200031B7813F04F
:1022B000010F0DD04BF23C43C2F2000341F60C1269
:1022C000C2F2000292F8D0259B184FF03A029A70A1
:1022D00041F60C13C2F2000393F8D0154BF23C42C6
:1022E000C2F2000254184CF6CD40CCF6CC40A0FB14
:1022F00006754FEAD50505EB8507A6EB470606F1FF
:1023000030062671AEB24AF6AB25CAF6AA25A5FB61
:1023100006854FEA950505EB4507A6EB470606F14E
:102320003006E670ADB2A0FB05C04FEAD00000EB6E
:102330008006A5EB460505F13005657000F130001B
:10234000505401F1050183F8D0150EF043FFBDE8AC
:10235000F0812F8841F60C13C2F2000393F8D005E8
:102360004BF23C41C2F200010A184FF02F05957064
:102370005FFA87FE4CF6CD45CCF6CC45A5FB0E8624
:102380004FEAD60606EB860CAEEB4C0E0EF1300E85
:1023900082F801E006F130060E544FEA1726A5FB3D
:1023A00006C14FEAD10101EB8105A6EB450606F116
:1023B0003006167101F13001D17000F1050083F88B
:1023C000D0050EF007FF082C40F0328141F60C13C7
:1023D000C2F2000393F8D0154BF23C42C2F2000265
:1023E0004FF02F00505442F2C850C2F2000090F853
:1023F000474052184CF6CD40CCF6CC40A0FB0450E0
:102400004FEAD00000EB8005A4EB450404F1300452
:10241000947000F13000507001F1030183F8D01581
:10242000BDE8F0812E8841F60C13C2F2000393F848
:10243000D0454BF23C42C2F2000211194FF02E007F
:10244000C8704CF6CD40CCF6CC40A0FB06754FEAE8
:10245000D50505EB8507A6EB470606F130060E719C
:10246000AEB2A0FB06854FEAD50505EB8507A6EBC6
:10247000470606F130068E70ADB2A0FB05C04FEAEC
:10248000D00000EB8006A5EB460505F130054D7048
:1024900000F13000105504F1050483F8D0450EF02A
:1024A00099FEBDE8F0812E8841F60C13C2F20003BC
:1024B00093F8D0454BF23C42C2F2000211194FF0A2
:1024C0002E0048704CF6CD40CCF6CC40A0FB0675F3
:1024D0004FEAD50505EB8507A6EB470606F1300662
:1024E0000E71AEB2A0FB06854FEAD50505EB850758
:1024F000A6EB470606F13006CE70ADB2A0FB05C0D4
:102500004FEAD00000EB8006A5EB460505F130054B
:102510008D7000F13000105504F1050483F8D045AA
:102520000EF058FEBDE8F08141F60C13C2F2000334
:1025300093F8D01501F102034BF23C42C2F20002C3
:102540009B1802F112077F184CF6CD40CCF6CC4018
:102550004FF02D0615F8011BA0FB01424FEAD202F5
:1025600002EB8204A1EB440101F130011970D1B2F8
:10257000A0FB01824FEAD20202EB8204A1EB4401EC
:1025800001F1300103F8011C02F1300203F8022CC2
:102590005E7003F10403BB42DCD141F60C13C2F2BE
:1025A000000393F8D02502F10F02D2B283F8D025B0
:1025B0004BF23C43C2F200034FF0200199540EF05D
:1025C00009FEBDE8F0812A7814F00F0427D041F607
:1025D0000C13C2F2000393F8D0C50CF1FF3C234664
:1025E0004BF23C47C2F200074CF6CD45CCF6CC4549
:1025F000FE18D1B2A5FB01804FEAD00000EB8000AD
:10260000A1EB400101F1300106F80C10A5FB02021C
:102610004FEAD20203F1FF33DBB2002BE8D141F6DF
:102620000C13C2F2000393F8D025A41883F8D04508
:10263000BDE8F0812DE9F84388464BF2F031C2F253
:10264000000100F19107096801EBC70707F10404D5
:10265000B4F9069019F1000918BF4FF0010942F2D0
:102660006851C2F2000109680C2894BF0B1801F1EF
:102670000C0393F86E3059B2012905DCB9F1000F53
:1026800002D1A3704FF001091046FEF74DFB4BF24B
:102690002C43C2F2000342F26852C2F200021268F6
:1026A000B2F95820801A188042F2C856C2F20006C9
:1026B00006F5B445B5F9BD00B5F9BF10B5F9C120AF
:1026C0004FF00003FFF7CCF9B5F9751042F2C6538D
:1026D000C2F20003B3F90020891A06F50446B6F9E0
:1026E000752006F175061A80B8F1000F04D0B8F114
:1026F000010F40F00A81C1E0B9F1000F47D1AA4BA8
:10270000B3F9000013B29842C4BF0123A370A64BD3
:10271000B3F9003098B212B21BB203F1C8039A4267
:1027200000DC10B94FF00003A370A04BB3F90030E8
:102730009AB262B142F2C852C2F20002B2F93D202E
:102740001BB29A420ADD4FF00003A37006E042F28A
:102750005C53C2F200031B7803B9A37042F26853C2
:10276000C2F200031B681B7913F0080F1CBF012382
:10277000A3708F4BB3F900304BB142F2C853C2F291
:102780000003B3F93D309942BCBF0123A37094F913
:10279000022094F903309A4216D04BF2F033C2F281
:1027A00000031B6893F8E72422F0010283F8E72472
:1027B000804AB2F90020E28094F9022022B97E4AD0
:1027C00092F8202083F8F324A378E3704BF2F033DF
:1027D000C2F200031A6892F8F33403F1FF33DBB25C
:1027E00082F8F3345BB2002B00F3DB804FF0000380
:1027F00082F8F3344BF22C42C2F2000242F26855E6
:10280000C2F20005296891F82C0091F82D1040EAD9
:1028100001211180684AB2F94300B2F94510B2F9BA
:102820004720FFF71DF92B6893F82E3013F0200F87
:102830000BD042F2C653C2F200035F4A92F847102F
:1028400092F8482041EA02221A804BF23C63C2F21D
:1028500000031B68B3F9242042F2C653C2F20003FE
:10286000B3F90010554BB3F90030CB1AD31894F9D3
:10287000022002FB03F3BB80BDE8F883B9F1000F2F
:102880002BD14F4BB3F9000013B29842C4BF0123C0
:10289000A3704BF2F033C2F200031B6893F98E343D
:1028A00053B1474BB3F9003098B212B21BB203F1E7
:1028B000C8039A4200DC10B94FF00003A3703C4BF0
:1028C000B3F900304BB142F2C853C2F20003B3F97E
:1028D0003D309942BCBF0123A370A37894F9031043
:1028E0005AB2914203D0334AB2F90020E280E37039
:1028F0004BF23C62C2F200021268B2F926205BB2CF
:1029000002FB03F3BB80BDE8F883B9F1000F35D1BA
:102910004BF20843C2F200034FF00001198042F26B
:10292000A653C2F200031980264BB3F9001013B26C
:102930009942C4BF0123A370224BB3F9003099B26E
:1029400012B21BB203F1C8039A4200DC11B94FF076
:102950000003A37042F2C853C2F2000303F5B4426D
:1029600002F18102B2F9002091B2B3F93D3012B206
:10297000934203DD11B14FF00003A370A37894F9E3
:1029800003105AB2914203D00A4AB2F90020E28001
:10299000E3705BB203EB830303EB83034FEA830330
:1029A000BB80BDE8F88300BF418000203F8000204D
:1029B0003D8000209F800020C87F00200F800020E5
:1029C000458000204380002010B503460A464BF2A4
:1029D000F031C2F200010C684BF23861C2F2000122
:1029E000096800F1120001EB40018988E1B104EBB4
:1029F000C30404F5906404F10C04B4F9061001F169
:102A0000FF3189B2E18011F4004F05D10748B0F9D8
:102A1000000009B2884203DA4FF00001A171E171B0
:102A200018461946FFF706FE10BD00BF9F80002024
:102A3000F0B44BF2F033C2F200031C684BF2803367
:102A4000C2F2000300F10A021B6803EB420113F813
:102A5000123013F0010F40F0D98004EBC00303F5EE
:102A6000906303F10C03B3F90450AEB22AB2002A0A
:102A700004DA4FF000021A715A7104E01EB105F138
:102A8000FF359D80C2E04F783D464BF20842C2F2CE
:102A900000021780B3F9006042F2C652C2F200028F
:102AA000168070BB42F26852C2F200021268B2F99C
:102AB000D4C1CCEB06061FFA86FC1FFA8CF642F254
:102AC000C652C2F20002168094F8E72412F0010FF9
:102AD00017D0CCEB0707BFB242F20253C2F2000399
:102AE0001F8066B133B2642B09D03FB2002FB8BF4C
:102AF0007F42474BB3F900309F4240F387804E70CE
:102B000084E0444AB2F900402AB2944218DC424AB6
:102B1000B2F900202DB2AA4215DD404AB2F9914027
:102B2000E4B2B2F993209A8093F90220012A0CD1E1
:102B300058B93B4AB2F9002004FB02F4E4B204E0C5
:102B40004FF0000401E04FF000044BF20842C2F2E3
:102B50000002314DB5F90050B2F90020954211DC68
:102B60002E4AB2F99740E4B2B2F999209A8093F9CB
:102B70000220012A06D128B9294AB2F9002004FB13
:102B800002F4E4B24BF20840C2F2000042F2C65234
:102B9000C2F2000200881288801A80B242F2025209
:102BA000C2F20002108002B2002A07DD4B781B1B24
:102BB0004B705CBB4FF000034B7027E010F4004FEC
:102BC00020D04A78A2184A701CB9124AB2F90020E3
:102BD0004A7042F2C652C2F2000212884C78D0B259
:102BE000844213D393F9023083B14A704BF2F0332D
:102BF000C2F200031B6893F8E72442F0010283F855
:102C0000E72403E04FF000021A715A71F0BC7047DC
:102C100063800020578000205D800020C87F002056
:102C2000AF80002010B44BF28033C2F200031B6867
:102C300093F90D1093F90F208A18002A0DDD4C4AE4
:102C4000B2F900204AB14BF2F032C2F2000212682F
:102C50004FF0010182F8BC1408E04BF2F032C2F2EE
:102C6000000212684FF0000182F8BC1442F2A65232
:102C7000C2F200024FF00001118042F26852C2F22B
:102C80000002126892F96D1049B193F90D1093F991
:102C90000F30C918374BB3F90030994209DD4BF2B8
:102CA000F033C2F200031B684FF0000283F8762471
:102CB0005CE04BF22C43C2F200034FF0000119809C
:102CC000B2F9053099B299B1B2F90220D31A9BB288
:102CD00099B24BF22C42C2F20002118011F4004F63
:102CE00006D04BF22C42C2F20002C3F10003138063
:102CF00042F26853C2F200031A681F4BB3F9003066
:102D0000A2F88A304BF22C43C2F200031888A2F8D2
:102D10008C004BF2F033C2F200031B68B3F9CF14FE
:102D20008CB224B101F1FF31A3F8CF141EE093F966
:102D3000761449B1114AB2F90020A3F8CF244FF01C
:102D4000000283F8762411E0B2F98A1000B28142C1
:102D500003DD92F96D20012A08D14FF0010283F8BA
:102D60007624074AB2F90020A3F8CF2410BC70479C
:102D7000BB7F00208F8000207B8000207F80002090
:102D80007D80002010B50446FDF7CEFF42F2685367
:102D9000C2F200031B68B3F958203E4BB3F9003070
:102DA000D31A98420ADA4BF2F033C2F200031B68DE
:102DB00093F8D12442F0010283F8D1242046FDF794
:102DC000B3FF42F26853C2F200031968B1F9582008
:102DD000314BB3F90030D318984203DC2D4BB3F9D3
:102DE000003053B94BF2F033C2F200031B6893F882
:102DF000D12422F0010283F8D12442F2C853C2F256
:102E0000000303F5B24202F1F302B2F9002090B2DE
:102E100003F5044303F17503B3F90030B1F95A1017
:102E200012B28A1893420BDD50B14BF2F033C2F26A
:102E300000031B6893F8D12442F0020283F8D124E6
:102E400042F2C853C2F2000303F5B24202F1F302A8
:102E5000B2F9002090B203F50443B3F9751042F2C1
:102E60006853C2F200031B68B3F95A3012B29A18C1
:102E7000A2F16402914200DB50B94BF2F033C2F28E
:102E800000031B6893F8D12422F0020283F8D124B6
:102E900010BD00BF81800020838000202DE9F00359
:102EA0004BF2F033C2F200031D684BF23863C2F2FA
:102EB00000031B6800F1080403EB44039B88002B0C
:102EC00000F0288100EBC00404F585642C1904F19E
:102ED00005074FEA40064BF28033C2F200031B683D
:102EE00003EB060C13F8103013F0010F04D04FF071
:102EF000000363717B700DE101B1C2B910280AD1E2
:102F00004FF0000385F87E3485F87F34834BB3F9A6
:102F10000030A5F800354FF0000363717B704BF271
:102F20008032C2F20002126896197370F2E0102823
:102F300052D1914209DD42F26853C2F200031B688C
:102F4000C2EB0108A3F8B4800AE042F26853C2F26F
:102F500000031B684FF0000883F8B48083F8B58045
:102F600042F26853C2F200031B68B3F9B480B8F1AF
:102F7000000F05D14FF0FF3883F8B48083F8B58097
:102F8000C2EB0108664B93F96A3018EB030F07D5C3
:102F90004FF0000385F87E3485F87F348CF80130DB
:102FA0004BF2F033C2F200031D68B5F900C51FFAF9
:102FB0008CF80FFA8CF3002B06DA4FF0000385F83B
:102FC000003585F8013507E0B8F1000F04D00CF1A9
:102FD000FF3CA5F800C59DE0891A42F2F843C2F211
:102FE00000031A6802EBC003B3F9023003FB01F3DC
:102FF00044F6D355C1F2620585FB03854FEAE373BE
:10300000C3EBA515ADB242F20253C2F200031D801C
:10301000B7F9003048F21F5CC5F2EB1C8CFB038C47
:103020004FEAE373C3EB6C1C1FFA8CFC4BF22C438E
:10303000C2F20003A3F800C042F2C653C2F200037A
:103040004FF06408A3F800804BF23C63C2F2000327
:103050001B681B8D012B07D942F2C653C2F2000335
:103060004FF0C808A3F800800FFA8CFC42F2C65358
:10307000C2F20003B3F800802BB20FFA88F9C3EB59
:103080000909CC4507DD4BF22C43C2F20003C5EB26
:1030900008051D801FE01CEB030F07D54BF22C43E6
:1030A000C2F20003C5F100051D8014E002EBC0026E
:1030B000B2F9043003FB01F144F6D353C1F26203C9
:1030C00083FB01C34FEAE171C1EBA313B7F9002001
:1030D000D318A4F805304BF22C42C2F2000242F29F
:1030E0000253C2F2000312881B88D21892B24BF22C
:1030F000F033C2F200031B68A3F87E2413B2642BE2
:103100004BF28033C2F200031B681E44C6BF642327
:1031100073707270BDE8F003704700BFBF7F00207E
:10312000C87F00202DE9F0014BF2F033C2F200031A
:103130001A68B2F97E144BF23C63C2F200031B68BA
:103140001B8D002B00F0AF80102840F0AC8009B23E
:10315000012B88BF643900EBC000121802F58462AD
:1031600002F10D024BF22C40C2F200004FF00004BD
:10317000048042F2A650C2F200000480032B4DD11D
:1031800042F26853C2F200031B68B3F966004BF2C7
:103190008034C2F20004256895F90D6095F90F405E
:1031A0003419424DB5F9006035B2AC421BDB404FDB
:1031B000B7F900700FFA87FC644519DCDFF8F4807A
:1031C000B8F90080404517DD2E4667466545B4BF17
:1031D000C5EB0C0C4FF0000C641B04FB08F494FBD3
:1031E000FCF4001B08E0324DB5F90050AC4203DDA1
:1031F000304CB4F90040001B4FF0000483F8A841A4
:1032000083F8A941B3F91740A04249DD001BA3F898
:10321000A801294BB3F90030984241DB21EAE17162
:10322000264B93F96930938019B94FF0000313715D
:103230005371224890F9673090F96800181A01FB21
:1032400000F148F21F50C5F2EB1080FB01404FEA3D
:10325000E171C1EB60115B1A9BB298B25080B2F978
:1032600007108CB224B101F1FF31A2F807101AE067
:1032700092F9061041B138B14FF00001917103F19C
:10328000FF33A2F807300EE0B2F9043099B251B121
:103290004FF00101917103F1FF33A2F8073002E012
:1032A0004FF00001C1E7BDE8F0017047BD8000208C
:1032B000BF800020C1800020BB800020C87F00208C
:1032C00042F26853C2F200031B68B3F9622091B264
:1032D00039B1B3F90E0083B233B100B212B2801A21
:1032E00070474FF0000070474FF00000704700BF7C
:1032F00042F25853C2F200031B681A7C42F00102EA
:103300001A744BF21C33C2F200031B684FF0000228
:103310009A731A725A72704710B5044642F25853A3
:10332000C2F200031A684BF23C63C2F200031B684E
:1033300033F910305380032813D142F25853C2F2AC
:10334000000319684BF23C62C2F200021268B2F943
:1033500012008880B2F918200A801B68B3F9042093
:10336000DA8042F25853C2F200031868B0F9043010
:103370004BB94BF23443C2F200031B6893F8303070
:1033800013F0010F03D0437C43F00403437400F1B6
:10339000060042F26853C2F200031B68B3F95830CA
:1033A00046F26761C6F2666181FB03214FEAE3736F
:1033B000C3EBA10101F1140109B2FEF7E7FA42F2F1
:1033C0005853C2F200031B68B3F90220B3F9060098
:1033D00011B28842C8BFDA80042C40F09E8042F2CD
:1033E0006852C2F20002126892F82E1011F0200FFB
:1033F0002BD1B2F92C204949B1F9001014B208B20E
:10340000844222DA4BF22C40C2F200000280444A8D
:10341000B2F9000009B2B3F90220A2F1FA024FF0AA
:103420000003FEF71DFB42F25853C2F200031B6873
:10343000B3F9021042F2C652C2F2000212888A1A8E
:10344000DA815A7C42F004025A74364B93F8A83061
:1034500013F0020F2FD04BF22C42C2F2000242F2C4
:10346000C853C2F2000303F50441496F41F30F2131
:10347000118003F5B443B3F9210042F25854C2F26B
:1034800000042268B2F90220B3F91730D21A4FF4BF
:10349000C8714FF00003FEF7E3FA2368B3F9021096
:1034A00042F2C652C2F2000212888A1ADA815A7CAB
:1034B00042F004025A744BF2F033C2F200031B686C
:1034C00093F9F3343BB942F2C853C2F2000393F8C4
:1034D0003630092B0BD142F25853C2F200031B685D
:1034E0005A7C42F004025A74B3F90220DA8142F2A3
:1034F0005854C2F20004236803F10E00B3F9061019
:10350000FEF744FA23685A7C12F0040F05D14FF0FD
:1035100000029A73DA739A70DA7010BDDB7F0020B4
:10352000EB7F0020C8A90020F0B583B042F26853B9
:10353000C2F20003186890F8682053B2012B09DD2D
:103540004BF2F033C2F200031B6893F8D13413F04E
:10355000020F21D052B1B0F96C31A0F868314FF0B0
:10356000060380F8783180F8903105E000F5B370FB
:103570004FF01801FDF7D2FA4BF2F033C2F200031C
:103580001B684FF0000283F8B02083F8B12083F865
:10359000982083F89920A7E24FF0010380F890313A
:1035A00080F87831FFF78CFE4BF22C46C2F2000611
:1035B000308042F2C855C2F2000505F5B444B4F9B2
:1035C0000900B4F90B1094F911204FF00003FEF735
:1035D00047FA42F26853C2F20003186800F5B67069
:1035E00042F2C657C2F20007B7F90010FEF7CEF953
:1035F00005F504456B6F43F30F233380B4F96B007B
:10360000B4F96D1034F96F2FA2F57A724FF0000300
:10361000FEF726FA4BF2F033C2F200031B68B4F94E
:1036200000103A888A1AA3F80A25B4F90020B2F5E6
:103630007A7F07DA6FF0170283F80A254FF003024A
:1036400083F80B254BF23C63C2F200031B68B3F90D
:103650000C300193454AB2F90020934212DD444BED
:1036600093F9A83073B142F26853C2F200031B68A9
:103670004FF01A0283F8902183F878213B4BB3F97D
:10368000003001934BF22C46C2F2000642F2C854BD
:10369000C2F2000404F504435B6F43F30F2333804D
:1036A00004F5B447B7F9630000F5FA714FF0C802AA
:1036B0004FF00003FEF7D4F942F20253C2F20003C6
:1036C00042F2C655C2F200052A881A8094F83F30AB
:1036D00094F8402043EA02233380B7F95D10A1F546
:1036E000FA704FF064024FF00003FEF7B9F94BF2A5
:1036F000F033C2F200031B682A8893F9790411B2EF
:10370000884207DA07F16101B1F9001083F8F1147A
:1037100083F8792493F8F12451B200290ADD02F1EB
:10372000FF3283F8F12442F2C652C2F2000293F94A
:103730007934138042F20253C2F200031B881AB29A
:10374000642A17DD4BF22C42C2F2000242F2C6514B
:10375000C2F200010988C1F16401118042F20252F3
:10376000C2F20002A3F16403138015E02D80002053
:10377000C8A900204BF22C42C2F2000242F2C6510C
:10378000C2F2000109885B1A138042F20253C2F2AE
:1037900000034FF000021A804BF22C44C2F20004E6
:1037A00020464FF00001FEF7F1F8BDF90410204665
:1037B000FEF7F2F842F26853C2F200031B68228857
:1037C000A3F868214BF23C63C2F200031B68B3F913
:1037D0000E3002AD45F8043DFFF772FDC0F1000068
:1037E0002080C24CB4F90D00B4F90F1094F91220E6
:1037F0004FF00003FEF734F942F2C653C2F2000361
:103800001988C1F1640109B22846FEF7C5F8B4F978
:103810006530019A934205DA04F5285292F9A820FE
:1038200002B101934BF22C42C2F2000242F2C853A1
:10383000C2F2000393F83F1093F8400041EA0021E0
:10384000118003F5B443B3F95B10A1F5FA704FF0A2
:1038500064024FF00003FEF703F94BF2F033C2F2BB
:1038600000031B6842F2C652C2F20002128893F9AA
:10387000780411B2884206DD9D49B1F9001083F841
:10388000F21483F8782493F8F22451B200290ADD67
:1038900002F1FF3283F8F22442F2C652C2F2000271
:1038A00093F9783413804BF22C44C2F2000442F2B4
:1038B0000252C2F2000242F2C653C2F20003128860
:1038C0001B88D31A238020464FF00001FEF75EF8D4
:1038D000BDF904102046FEF75FF842F26853C2F2C9
:1038E00000031B682288A3F8802193F99011132903
:1038F0002BDC4BF2F031C2F200010968B1F9B000E3
:1039000046F26764C6F2666484FB00544FEAE070D6
:10391000C0EBA40012B200B2824204BF092283F8B5
:103920009021B1F9B02046F26761C6F2666181FB71
:1039300002014FEAE272C2EBA102B3F9840112B2B2
:10394000904204BF0A2283F8902142F26853C2F2E7
:1039500000031B6893F97821132A2CDC4BF2F03218
:10396000C2F200021268B2F9981046F26760C6F21D
:10397000666080FB01404FEAE171C1EBA001B3F941
:10398000684109B28C4204BF092183F87811B2F969
:10399000982046F26761C6F2666181FB02514FEAE8
:1039A000E272C2EBA102B3F96C0112B2904204BF01
:1039B0000A2283F878214BF2F033C2F200031B682D
:1039C00042F2C852C2F20002B2F9415029B201F1EA
:1039D000060202EB420003EBC00090F9130048B16D
:1039E0004BF28030C2F20000006810F8120010F0B4
:1039F000010F1CD04FF0000483F8B04083F8B140B1
:103A000042F26850C2F20000006880F8804180F8FD
:103A1000814180F8844180F8854190F88E4144F0DE
:103A2000010480F88E414FF0150480F89041C1F1F7
:103A3000070101EB410003EBC00090F9130060B1F6
:103A40002DB24BF28030C2F200000068C5F10705CC
:103A500010F8150010F0010F1CD042F26850C2F2AD
:103A60000000006890F8764144F0010480F8764147
:103A70004FF0000483F8984083F8994080F868413B
:103A800080F8694180F86C4180F86D414FF0150471
:103A900080F8784142F26850C2F200000068B0F845
:103AA000504014F0010F05D04FF01E0480F878410B
:103AB00080F89041C1EBC10401EB8401591891F8E1
:103AC000C01111F0080F1CBF1F2180F87811C2EB44
:103AD000C20102EB81029B1893F8C03113F0080F6A
:103AE0001CBF1F2380F8903103B0F0BDC87F0020B9
:103AF000298000202DE9F041054642F25853C2F2D8
:103B000000031A684FF0000393744BF21C33C2F2A7
:103B10000003196891F913301BB9FFF7E9FBBDE801
:103B2000F0814BF2EE33C2F200034FF00000188038
:103B3000B1F9143093812E464BF23C63C2F200037C
:103B40001B6833F915304BB94FF0190393744BF2DE
:103B5000EE33C2F200034FF0010119804BF23443FF
:103B6000C2F200031B6893F8301011F0010F0DD062
:103B700093F9313053B94FF0150393744BF2EE3390
:103B8000C2F200031A8802F101021A804BF2EE33EE
:103B9000C2F200031C881CB1FFF7AAFBBDE8F0814C
:103BA00042F25853C2F200031B68B3F90C2052B919
:103BB0004FF020029A741A7C42F002021A74FFF746
:103BC00097FBBDE8F0812846FFF7A6FB4BF2EE33EA
:103BD000C2F200034FF000021A8006EB46064FEADD
:103BE000C6064BF21C3CC2F2000C4FF4147764483A
:103BF00042F25851C2F200014BF2EE33C2F200031E
:103C000024B2DCF8002092F90F2007FB026202F5D3
:103C10008C72A21812F800800A6802F804801C88CE
:103C200004F10104A4B21C8022B2072AE8DD4BF2A1
:103C30001C33C2F200031A6842F2C851C2F20001FA
:103C400092F90F3005EB450040F22E5404FB03F3CC
:103C500003EBC003CB1803F5B643B3F90D1003F122
:103C600008031181DB7A9373B2F908303BB142F259
:103C70005853C2F200031B684FF00101997442F2DD
:103C8000C853C2F2000392F90F1005EB45054FF43B
:103C9000147000FB01F101EBC5055B1993F830319D
:103CA00013F0040F0BD042F25853C2F200031B680A
:103CB0004FF002019974597C41F00401597442F2A9
:103CC0005853C2F200031B68B2F9081046F267604D
:103CD000C6F2666080FB01404FEAE171C1EBA001D2
:103CE000B3F9024009B28C4204BF09219974B2F9B8
:103CF000082046F26761C6F2666181FB02014FEA65
:103D0000E272C2EBA102B3F9060012B2904204BF04
:103D10000A229A74B3F90E2012B14FF006029A7477
:103D2000B3F90610B3F90220A2F164029142C4BFB4
:103D300018229A74B3F90C10B3F90220A2F13202DE
:103D400091420ADA4BF23442C2F20002126892F94E
:103D50000120642A04BF14229A744BF23443C2F245
:103D600000031B681B7813F0010F07D042F2585371
:103D7000C2F200031B684FF015029A74BDE8F0818F
:103D8000CF25002038B505464BF21C33C2F20003A4
:103D90001C6894F90E3013B9A371E37138BDB4F9FE
:103DA000083046F26762C6F2666282FB03124FEA8F
:103DB000E373C3EBA202B4F91410521A92B291B297
:103DC00042F20253C2F20003198002F109039BB2CE
:103DD000082B04D902F1FF3292B2082A0CD842F221
:103DE0000253C2F200034FF000021A804BF2284344
:103DF000C2F200031A6005E008B24BF22843C2F297
:103E0000000318604FF00003A371E3714BF22C42E2
:103E1000C2F2000213804FF496704FF47A714FF0A3
:103E20006402FDF71DFE42F25853C2F200031A6805
:103E300042F2C653C2F200031B8813721BB2502B0E
:103E400012DD4BF2F033C2F200031968C5EBC50373
:103E500005EB8303CB1893F8C03113F0010F03D0A7
:103E6000537C43F0100353744BF22C43C2F2000313
:103E70001A88C2F100021A804FF496704FF47A71DA
:103E80004FF064024FF00003FDF7EAFD42F2585391
:103E9000C2F200031A6842F2C653C2F200031B8842
:103EA000117A591811721BB2502B12DD4BF2F033FC
:103EB000C2F200031B68C5EBC50105EB81055D1966
:103EC00095F8C03113F0010F03D0537C43F0100379
:103ED000537438BDF8B506464BF21C33C2F20003EA
:103EE0001F6807EB40074BF21033C2F200031C6857
:103EF00094F901504BF22C43C2F200031D80FFF7EE
:103F0000DFF92DB2C0F1000000B200FB05F544F668
:103F1000D351C1F2620181FB05314FEAE575C5EB72
:103F2000A11189B242F2C653C2F20003198042F2D3
:103F30000253C2F200034FF000021A8042F25853BB
:103F4000C2F200031A68B2F9003098B2E0B1B2F9D7
:103F50000E209B1A94F902004BF22C42C2F200028E
:103F6000108042F20252C2F2000200B21BB203FB06
:103F700000F348F21F50C5F2EB1080FB03504FEAEC
:103F8000E373C3EB6013138094F9000042F2025212
:103F9000C2F20002B2F9003009B2C3185B18012B5B
:103FA000B8BF0123C7F80230CEB94BF21033C2F2CA
:103FB00000031B6893F90010C1F16401B2F90020FD
:103FC000891A42F2C653C2F20003B3F900208B1AD9
:103FD000C7F80230002BDCBF0123C7F80230F8BD60
:103FE00070B54BF23443C2F200031B681B7813F028
:103FF000010F08D042F25853C2F200031B685A7CEA
:1040000042F002025A744BF21C33C2F200031A68E7
:1040100042F2C853C2F2000392F90F404FF4947574
:1040200005FB040403EB440393F93E424BF22C439B
:10403000C2F200031C8042F25853C2F200031B6814
:10404000B3F90E60B3F90250AE420CDA5D7C15F0A4
:10405000020F08D192F90E202AB124B2632CDCBFE2
:1040600045F020055D744BF21C33C2F200031B685F
:1040700093F90E30002B40F089804BF2F033C2F2FE
:1040800000031B68B3F99431002B40F3C38003286D
:1040900000F2C08042F2C853C2F2000303F5B442FA
:1040A000B3F93D00B2F92D30984219DA42F2685363
:1040B000C2F200031B68B3F95C0042F2C853C2F2BB
:1040C000000303F5044202F17502B2F90020821ADE
:1040D00003F5B44303F12F03B3F900309A422DDC0A
:1040E0000846FCF721FE42F26853C2F200031B6847
:1040F000B3F95830C01A00283FDA4BF23C63C2F2E1
:1041000000031B68B3F91C3048F21F52C5F2EB12D2
:1041100082FB03124FEAE371C1EB62124FF06401BC
:1041200001FB12331BB2592B08DD4BF2F033C2F204
:1041300000031B6893F9D334002B1EDD42F2585361
:10414000C2F200031B685A7C42F008025A744BF218
:104150001C33C2F200031B6893F91620012A0CD10C
:104160004BF2F032C2F200021268B2F9A02122B979
:10417000B3F9042002F164029A804BF21C33C2F2BC
:1041800000031B6893F90E30002B43D042F25853C2
:10419000C2F200031B68B3F90E10B3F90620914276
:1041A0000EDD5A7C12F0020F0AD14BF22C41C2F202
:1041B0000001B1F900100029C4BF42F040025A7456
:1041C00042F25853C2F200031B685A7C12F0440FAB
:1041D00020D14BF21C31C2F20001096891F917108D
:1041E000C1B94BF2F031C2F200010968B1F9941182
:1041F00000290FDA4BF22C41C2F20001B1F9001094
:1042000041B91A49B1F90010B1F5FA7FC4BF42F0C3
:1042100008025A7442F25853C2F200031B685A7CD7
:1042200012F0400F0BD04BF2F031C2F200010968DE
:10423000B1F994110029BCBF62F07F025A7442F2B6
:104240005853C2F200031B685A7C12F0200F0BD0A7
:104250004BF2F031C2F200010968B1F99411002962
:10426000C4BF62F07F025A7470BD00BF3DAA002037
:1042700010B442F2A653C2F200034FF000021A80BB
:1042800042F25853C2F200031B685A7C12F0280F06
:1042900008D14BF21C32C2F2000212684FF0000447
:1042A000147154715B7C13F0480F08D14BF21C332E
:1042B000C2F200031B684FF000029A70DA7042F2FB
:1042C0005853C2F200031B685B7C13F0880F6FD059
:1042D00013F0800F13D04BF21C33C2F200031B68A3
:1042E00093F91630012B0AD14BF2F033C2F20003DE
:1042F0001B6893F8022502F1010283F802254BF2B4
:104300001C33C2F200031A684BF2F033C2F200030E
:104310001B6893F9033502EB4303B3F902300A68D3
:104320009A4207DA0B604BF2F033C2F200031B68CB
:1043300083F86F044BF21C33C2F200031A684BF28D
:10434000F033C2F200031B6893F9033502EB430319
:10435000B3F902304A689A4209DA42F25852C2F27C
:1043600000021268527C12F0080F08BF4B604BF23B
:104370001C33C2F200031A684BF2F033C2F200039E
:104380001B6893F9033502EB4303B3F902308868E5
:1043900098420DDA92F91620012A09D142F25852B8
:1043A000C2F200021268527C12F0080F08BF8B6044
:1043B00010BC70474BF2F033C2F200031B68B3F934
:1043C0009E212AB342F25852C2F200021268127CB5
:1043D00012F0400F1FD04FF0000283F8D224B3F93F
:1043E0009401B3F99E3190FBF3F04FF0320303FBDD
:1043F00000F04BF21033C2F200031B6893F9043053
:1044000090FBF3F042F2E443C2F2000318607047FD
:104410004FF0000070474FF0000070474BF2F03350
:10442000C2F200031968B1F9A02193B203B342F2BA
:104430005853C2F200031B6893F91030002B1ADAAC
:10444000B1F9940112B290FBF2F24FF0320000FB8E
:1044500002F04BF21033C2F200031B6893F90430F0
:1044600090FBF3F042F2E443C2F20003186070479D
:104470004FF0000070474FF0000070474BF2F033F0
:10448000C2F200031B68B3F992214FF0640000FBF5
:1044900002F248F21F50C5F2EB1080FB02104FEA07
:1044A000E272C2EB2010C0EB00104FEA4000B3F9FB
:1044B0000A3590FBF3F042F2E443C2F200031860C5
:1044C000704700BF4BF2F032C2F200021368B3F93A
:1044D0000A3500FB03F048F68903C8F6880383FB1E
:1044E00000131B184FEAE070C0EB23104FF03203AB
:1044F00003FB00F342F2E442C2F20002136048F20E
:104500001F52C5F2EB1282FB03124FEAE373C3EBB7
:10451000621070472DE9F04F83B0009042F268536B
:10452000C2F200031B68B3F984210192B3F96C91C4
:10453000B3F98071B3F968414BF2F033C2F2000372
:10454000D3F80080D8F89A2092B24BF22C43C2F2F2
:1045500000031A8012F4004F06D04BF22C43C2F233
:1045600000034FF000021A804BF22C43C2F200030A
:10457000B3F800E0984890F85020114690F84F00AA
:10458000C2EB0E0505FB00F5ADB21D8015F4004F22
:1045900006D04BF22C43C2F200034FF000051D8001
:1045A0004BF22C43C2F200031D880FFA85FC8A4BA4
:1045B00093F852309E1AB44507DC0FFA8EF6B242D9
:1045C000D4BF0CEB0206664400E01E46DFF808E2AA
:1045D0009EF851E04D19ED1A2DB20EFB05F595FB35
:1045E000F0F5ADB24BF22C41C2F200010D8015F492
:1045F000004F06D04BF22C41C2F200014FF00005F3
:104600000D804BF22C41C2F200010D880FFA85FC9F
:10461000714991F85410C3EB010AD445D4BF6644E4
:104620000E46DFF8B4C19CF853C05D196D1A2DB267
:104630000CFB05F595FBFEF5ADB24BF22C4AC2F230
:10464000000AAAF8005015F4004F04D055464FF068
:10465000000AA5F800A04BF22C4AC2F2000ABAF9EF
:104660000050AE195C4D95F91F50AAF800500FFA92
:1046700085FA564508DBCAEB060606EBD6764FEA06
:1046800066050AEB050601E04FF00005A642C4BF2F
:10469000C4EB060A5544BD42C4BFC7EB050A5644E5
:1046A00007EB040AC1EB0A0B9BFBFCFCBCF1000FFF
:1046B000BCBF51464FF0000CC91A91FBFEF111EB43
:1046C0000C0C44BF53464FF0000C9B1A93FBF0F0C8
:1046D00010EB0C0044BF524600208018FFF7F2FE9A
:1046E000A8F8A201019B9D42B8BF1D464E45B8BF28
:1046F0004E46A642A8BF2646BD42A8BF3D464BF245
:104700002C43C2F200034FF000021A800098FCF71D
:1047100067FA38B94BF22C43C2F200034FF00002A3
:104720001A800FE00098FCF75BFA4BF22C43C2F2C0
:10473000000342F26852C2F200021268B2F95A2033
:10474000801A1880B44209D1AF4207D14BF22C43F2
:10475000C2F20003B3F90030002B0CDCB14516D1D6
:10476000019AAA4213D14BF22C43C2F20003B3F9CF
:104770000030002B0BDA4BF2F033C2F200031B685F
:1047800093F8D32402F1010283F8D32408E04BF21A
:10479000F033C2F200031B684FF0000283F8D32409
:1047A0004BF2F033C2F200031B6893F9D324142AAE
:1047B000C4BF142283F8D324A3F89860A3F8B050A0
:1047C00042F26853C2F200031B68A3F87461A3F8B5
:1047D0008C5103B0BDE8F08FC87F00204BF210333E
:1047E000C2F200031B6893F9043000FB03F048F2A7
:1047F0001F53C5F2EB1383FB00234FEAE070C0EBBD
:1048000023107047F8B54FF000030B6042F2585385
:10481000C2F200031D686B7C13F0040F07D04BF24B
:104820001C33C2F200031B684FF001029A734BF273
:104830001C33C2F200031C6894F90E3023B92372B2
:104840006372AB73EB73F8BD94F91230002B40F038
:1048500097804BF2F033C2F200031B68B3F9940166
:10486000B4F90610FCF7C0FC00283BD16B7C13F0B8
:10487000100F37D0B4F90870B4F91430284620F876
:104880000E3FB5F90610FDF781F842F25854C2F216
:104890000004236803F10E00B3F90210FDF77CF861
:1048A0002368B3F90E6006EB86064FEA46064BF224
:1048B0001C33C2F200031C684FF00003A371E371C4
:1048C0004BF2F033C2F200031D68B81BFFF786FFFE
:1048D000D5F88E316FF0630202FB0030C5F88E010F
:1048E0002681F8BDB4F908303BB9B4F9003019B2EB
:1048F00041F287329142D8BF23814BF21C33C2F27E
:1049000000031B68D3F80A20B3F90800801880B2AE
:10491000188142F25852C2F20002126800B246F206
:104920006761C6F2666181FB00414FEAE070C0EB4F
:10493000A10189B2D181B2F9060009B2814204DC39
:1049400000EB80004FEA40001881B2F90210B2F982
:104950000E00884204DB01EB81014FEA410119811D
:10496000B3F9081046F26760C6F2666080FB01404A
:104970004FEAE171C1EB9001D181B3F908201A80AF
:10498000F8BD00BF2DE9F8434BF20843C2F2000323
:104990004FF000061E8030464BF21C37C2F2000773
:1049A00041F2873942F26855C2F200051C46C0B296
:1049B000FCF7FEFE3B68B3F9080082B242B100B2D8
:1049C000FFF70CFF2B68B3F95830C01A361814E003
:1049D000B3F9000003B24B450FDC2B68B3F95880E4
:1049E00002B20FFA88F39A4207DD1046FFF7F6FE8F
:1049F0000FFA88F8C8EB00003618208800F1010093
:104A000080B2208003B2032BD1DD3046BDE8F883AD
:104A10002DE9F04F85B04FF000054BF2F038C2F2AF
:104A200000082E4642F26857C2F200074BF20844D3
:104A3000C2F200042846FCF7E7FBD8F8003083F800
:104A40000365B3F99421002AC4BF012283F803252A
:104A50003B68B3F958309BB126803046C0B2FCF7B2
:104A6000A7FE0CF0B7FB2078FFF744F8208800F190
:104A7000010080B2208003B2052BEFDDFEF754FD6C
:104A800005F10105EDB2082DD4D14FF000084BF22D
:104A9000F036C2F2000642F2C85AC2F2000A4BF2E5
:104AA0000844C2F200045FFA88F94846FCF7ACFB00
:104AB0004FF0000503950295019533684FF0FF0212
:104AC00083F86F240CF086FB336883F802554FF4AB
:104AD000147303FB08A3B3F9A130002B00F0DA80B4
:104AE000284625804BF21C35C2F2000542F2585789
:104AF000C2F20007C0B2FCF75BFE2078FFF742F974
:104B00002B684FF000029A740CF064FB3B681A7C2F
:104B100012F0010F43D1B3F90E2062B12A684FF0B1
:104B2000010191739174B3F90E3003EB830303FA1F
:104B300001F3138133E02A68B2F9082046F2676175
:104B4000C6F2666181FB02014FEAE272C2EB91029A
:104B5000DA810CF03FFB4FF00000FFF7BBF94FF09C
:104B60000100FFF7B7F90CF035FB20784946FFF755
:104B700037FA207801A9FFF77BFB33682A6893F99D
:104B8000031502EB4102B2F902103A685181BDF8F7
:104B90000820A3F87024BDF80C20A3F87224208804
:104BA00000F1010080B2208003B2052BA2DD336842
:104BB000B3F90C2542F26853C2F200031B68A3F854
:104BC00066213568FFF75AFCC5F89A004846FFF79A
:104BD000A1FC33684FF0000083F89E0183F89F0129
:104BE00083F8A00183F8A101208042F25857C2F255
:104BF00000074BF21C35C2F20005C0B2FCF7D8FD2D
:104C00003B681A7C12F0010F3CD13168B1F9700495
:104C10001FFA80FCD5F800E091F903950EEB490EE0
:104C2000BEF902E000B286450BDBBCF1000F08D0F4
:104C300042F040021A74B1F99E3103F10103A1F868
:104C40009E3129683368B3F972241FFA82FE93F902
:104C5000030501EB4000B0F9020012B2904211DBF3
:104C6000BEF1000F0ED091F91620012A0AD13A6840
:104C7000117C61F07F011174B3F9A02102F10102EE
:104C8000A3F8A021208800F1010080B2208003B2A7
:104C9000052BB2DD08F10108B8F1080F7FF403AF6E
:104CA00042F2C853C2F2000303F50442B3F94130A3
:104CB00082F89A304FF0000442F26855C2F20005C3
:104CC0004BF2F038C2F2000842F2C859C2F20009B1
:104CD0002046FCF799FA2B68B3F95820002A00F017
:104CE000B780D8F8002092F86F1411F0800F40F0D0
:104CF000AF8049B201EB410003EBC00090F8E70040
:104D000010F0080F00F0A48001EB410103EBC10398
:104D100093F8E63013F0080F40F09A804BF2EE3132
:104D2000C2F200014FF000030B8082F89E3182F83E
:104D30009F3182F8A03182F8A131B2F99431002B71
:104D40003ADA4FF000073E460CF044FAD8F800205B
:104D500092F96F3403EB430102EBC10191F9131097
:104D600041FA06F111F0010F1ED003EB43034FF49B
:104D7000147101FB06F101EBC3034B4493F830318E
:104D800013F0080F10D107EB090303F5C04393F9A3
:104D9000073013B192F9023533B14BF2EE33C2F260
:104DA00000034FF001021A8006F1010607F5A4671F
:104DB00007F10E07082EC7D14BF2EE33C2F2000303
:104DC000B3F90030002B43D1D8F8001040F22E5E2A
:104DD0004FF014074FF4147691F96F2402EB420060
:104DE00001EBC00090F9130040FA03F010F0010F3E
:104DF0002AD04FEA420A0AEB02000EFB03FC0CEB3E
:104E0000C000484400F5B640524401EBC202927B18
:104E1000C2F10102C27491F96F2402EB42020CEB61
:104E2000C2024A4402F5B642177791F96F2402EBA9
:104E3000420206FB03F000EBC2024A4492F82F0143
:104E400040F0080082F82F0103F10103082BC3D1C1
:104E500004F10104E4B2082C7FF43AAF0CF0BAF983
:104E60004BF20843C2F200034FF000021A801E46C4
:104E70004BF2F039C2F20009C7E00CF0ABF9204662
:104E8000FCF7C2F93078FCF793FCD9F800304FF00A
:104E9000000283F8F42483F8F52483F8F62483F8D9
:104EA000F7243A68127C12F0010F1AD14BF21C322F
:104EB000C2F200021268917D83F80F1592F90F205B
:104EC00042F2C853C2F2000340F22E5808FB0238E7
:104ED00008F5BE48D8F8F950FFF76CFA2D18C8F855
:104EE000F95004F10104E4B2082CC6D14FF00004DB
:104EF00042F25855C2F200054BF21C382046FCF72E
:104F000083F93078FCF754FC2B681B7C13F0010FFD
:104F10006ED14346C2F200031B6893F91620012AA2
:104F200066D093F90F3042F2C852C2F2000240F24A
:104F30002E5101FB032303F5BE42D2F8F91003F50D
:104F4000C04393F914204BF27E33C2F200031A805F
:104F500042F2E443C2F2000312B291FBF2F21A6091
:104F60000CF038F9D9F80070B7F994A1D34697F945
:104F7000023553B142F2E443C2F200031868FFF76E
:104F80002DFCC0EB0A0AA7F894A1B7F99411584672
:104F9000FCF72AF928B94FF0000387F8943187F815
:104FA00095314346C2F200031A6842F2E443C2F26A
:104FB00000031B68C2F80A3030784BF22C41C2F271
:104FC0000001FFF71FFC0CF005F942F26853C2F232
:104FD00000031B682A68B2F90E20B3F9E00111B290
:104FE000884205DAB6F900100529D8BFA3F8E021F8
:104FF00004F10104E4B2082C80D1338803F10103E9
:105000009BB233801BB2052B06DC4FF0000442F24A
:105010005857C2F2000730E70CF0DCF84FF00008F8
:105020004BF20844C2F20004C14642F25855C2F2A3
:1050300000054BF2F03AC2F2000A4046FCF7E4F8F1
:10504000A4F8009048464BF21C37C2F20007C0B2E9
:10505000FCF7AEFB0CF0BEF82B681B7C13F0010FC5
:1050600022D13E6896F91630012B1DD1FFF7D6F9F3
:10507000C6F80A0020784BF22C41C2F20001FFF77B
:10508000C1FB42F26853C2F200031B682A68B2F9FE
:105090000E20B3F9E00111B2884205DAB4F900102C
:1050A0000529D8BFA3F8E021208800F1010080B2D3
:1050B000208003B2052BCADDDAF8003093F902250F
:1050C00052B993F8D22402F10102D2B283F8D22469
:1050D00052B2142A03DC08E083F8D29405E0DAF82F
:1050E00000304FF0140283F8D22408F101085FFA6F
:1050F00088F8B8F1080FA0D105B0BDE8F08F00BF67
:1051000070B54FF000044BF2F035C2F2000542F2E8
:105110006856C2F200062046FCF776F82B68B3F911
:105120008C3423B13368B3F9D421A3F888204FF02D
:105130000000FDF77DFC4FF00100FDF779FC4FF01A
:105140000200FDF775FC4FF00300FDF771FC4FF016
:105150000400FDF76DFC4FF00500FDF769FC04F15C
:105160000104E4B2082CD6D170BD00BF2DE9F04F88
:1051700085B042F2C853C2F20003B3F94130DBB24A
:10518000C3F107028DF80C2003F106038DF80D30F2
:105190004FF0000101914BF20844C2F2000442F2C8
:1051A000A65BC2F2000B019BD8B2FCF72DF84FF0C2
:1051B0000602228042F26855C2F2000542F25857B8
:1051C000C2F200074BF2F036C2F200064BF21C3876
:1051D000C2F200084FF4947ADDF804C00AFB0CFA1E
:1051E000A2F106039BB2ABF8003012B202EB42020E
:1051F000296801EBC20202F1D6023A601BB204A98F
:10520000CB1813F8043C03EB4300316801EBC000FA
:10521000C8F80000534403F58E7342F2C85CC2F232
:10522000000C0CEB430303F105014BF2344CC2F2CA
:10523000000CCCF80010B0F910C01FFA8CF9B9F1CD
:10524000000F08D00CF1FF3C20F810CF4FF0000108
:10525000FCF79CFB0EE0B2F90E001FFA80FC42F254
:105260000252C2F2000210805B7913F0010F08BFF6
:1052700081F801C0228802F1010292B2228013B2A9
:10528000072BADDD019901F10101019108298AD1B6
:1052900005B0BDE8F08F00BF2DE9F0414BF20843A7
:1052A000C2F200034FF0000018804BF23445C2F206
:1052B00000054BF21C36C2F200064FF014074FF007
:1052C00028081C46C0B2FCF773FA2B685B7803F120
:1052D000FF33DBB2622B08D83368DF75B3F90820DF
:1052E000B2F57A6FC8BF83F817803368DA7D51B2A0
:1052F0000029CCBF02F1FF320022DA75208800F1CC
:10530000010080B2208003B2052BDBDDBDE8F08117
:1053100030B40E4B93F84700A8B14FF0000242F2B0
:10532000C855C2F2000540F22E54114604FB025348
:1053300003F5BE4383F88D1083F88E1002F101024D
:10534000D3B28342F2D330BC704700BF485F002025
:105350002DE9F84304464BF23C63C2F200031B689C
:105360005B8D002B00F02A8142F26853C2F20003E9
:10537000D3F800C04BF2F033C2F20003D3F8008040
:10538000B8F97434ACF88E308D4B93F8470060B3A5
:105390004FF00002134642F2C855C2F200054FF02A
:1053A000C80606FB045707F5A647D9B2A14213D099
:1053B00006FB035101F5A64101F1FA01B7F801918D
:1053C000B1F80710894507D1511901F5BE4191F98E
:1053D0009010002940F0F28003F1010302F5A4626D
:1053E00002F10E02D9B28142DFD3BCF96930002B41
:1053F00000F0E480B8F9883403F10103A8F8883498
:1054000042F20253C2F200034FF000021A80BCF9CC
:105410000E20BCF9623098B211B21BB2CB1A6949A6
:10542000B1F900108B4203DC12B2B2F5165F02DD57
:10543000002840F0C380BCF958502046FBF774FCAC
:105440002D1A614BB3F900309D4200F3B78020461E
:10545000FBF76AFC42F26853C2F200031B68B3F91F
:105460005820811A594AB2F9002091420FDAB3F953
:105470000E2091B2B3F9623012B29A1A544BB3F9BA
:1054800000309A42C0F29A80002900F097802046AE
:10549000FBF74AFC4BF22C48C2F2000842F2685774
:1054A000C2F200073B68B3F95830C31AA8F80030BD
:1054B000484DB5F99D00B5F9A1102E4636F99F2F3C
:1054C000B5F9A330D21A4FF00003FCF7C9FA42F243
:1054D0000253C2F20003B6F9001042F2C656C2F2FD
:1054E000000632888A1A1A803B68B3F96220B3F941
:1054F0000E30D31AA8F80030B5F9A700B5F9AB10F3
:10550000A84638F9A92FB5F9AD30D21A4FF00003EB
:10551000FCF7A6FAB8F900203388D31A9BB233807F
:105520003A68B2F90E1081B1B2F962206AB142F262
:105530000252C2F20002B2F900101AB2914204DD26
:1055400042F20252C2F2000213804BF2F033C2F276
:1055500000031A68B2F988144BF24C53C2F20003EC
:1055600023F8141009B242F20253C2F20003B3F955
:105570000030C3EB0313B1EB830F1FDB42F2AC53DC
:10558000C2F200031B7813F0020F17D14FF0010392
:1055900082F88B3442F26853C2F200031B68B3F9FD
:1055A0006910B2F97434CB18A2F874344FF00003C8
:1055B00082F8883482F8893482F88A34BDE8F88326
:1055C000485F0020778000206D80002065800020EB
:1055D0006F800020C87F002030B44BF28033C2F2CD
:1055E00000031B6893F8442012F0010F40F0B380D1
:1055F0004FF0000283F845204BF23C62C2F20002F9
:105600001268528D042A94BFD5B204254BF2F032B1
:10561000C2F20002146842F29052C2F2000294F9FF
:105620008B1422F8101001F1FF32032A00F293804C
:10563000DFE802F048022A7894F98A144FF0030256
:10564000C8F200020A40002A05DA02F1FF3262F0D5
:10565000030202F1010252B24FF0010101FA02F21B
:1056600092B242F20251C2F200010A8083F8452050
:10567000B4F9FA3443B942F26853C2F200031B682A
:10568000B3F96930A4F8FA344BF2F033C2F20003F4
:105690001B68B3F9FA24AAB94FF0060283F8FA247A
:1056A0004FF0000283F8FB2493F88A2402F10102F0
:1056B000D2B283F88A2442F23C53C2F2000352B2BF
:1056C00023F810204BF28033C2F200031B684FF026
:1056D000010283F843204BF2F033C2F200031B684F
:1056E000B3F9FA2494B284B94BF22032C2F2000228
:1056F0004FF0060122F810104FF0050283F8FA244B
:105700004FF0000283F8FB2425E04BF22034C2F274
:10571000000424F8102002F1FF3292B2A3F8FA2418
:105720003AB118E04FF0000284F88B2483F843204C
:1057300011E093F88B2451B2032908D193F98A140C
:10574000A94204DA4FF0020283F88B2403E002F14D
:10575000010283F88B2430BC704700BF10B40428CA
:105760003ED8DFE800F03E03082025008B4237DBFF
:10577000591A09B235E05A18B2F5B46F10DD46F285
:10578000B703CBF20B6383FB020189184FEAE27087
:10579000C0EBA1214FF4B46303FB112109B220E057
:1057A000591809B21DE091421ADC511A09B218E0E9
:1057B0005318B3F5B46F10DD46F2B702CBF20B62AB
:1057C00082FB0341C9184FEAE370C0EBA1214FF4FB
:1057D000B46202FB113109B203E0511809B200E0D2
:1057E00000E0084610BC704710B422B101B110B9F6
:1057F00000FB03F01EE0091A89B242F2C652C2F25F
:105800000002118042F20252C2F2000214884BF2EE
:105810002C42C2F20002128812B900FB03F009E028
:1058200009B224B201FB04F112B291FBF2F280182A
:1058300003FB00F010BC70472DE9F04F8BB00990CE
:105840008B4642F2C851C2F200014FF4147303FBBD
:10585000021202F1490242F26853C2F200031A60D6
:105860004FF0000382F8563082F8573042F2C650AB
:10587000C2F20000B1F84320099CA21812B246F20D
:10588000B701CBF20B6181FB024189184FEAE27448
:10589000C4EBA1244FF4B46101FB142202801C4626
:1058A00006930591009101934FF0FF000290049040
:1058B00042F2C856C2F200064BF23C58C2F200084F
:1058C00042F21259C2F200094BF2163AC2F2000A31
:1058D00042F2C653C2F200030393E7B24FF0320321
:1058E00003FB046303F5884303F11B03C8F800308E
:1058F000D878B3F90110B9F90020BAF90030FFF7F0
:105900002DFF05460BF066FC2DB34FF0320303FB71
:10591000046303F58843DA7E0BF101039A421AD13E
:1059200000998D42BCBF00950797019A9542C4BF6C
:10593000019508970BF04EFC0398B0F90030AB428C
:1059400004DC05998D42C0F2658104E0069A954217
:10595000C4BF0695029704F10104282CBDD1029B17
:10596000009CB4F5B46F00F05881049C62B20798B3
:1059700034EA220428BF044604945BB2029C0898CF
:1059800034EA230428BF0446029464B24FF0320381
:1059900042F2C856C2F2000603FB046404F58844D0
:1059A00004F11B0404994DB203FB056303F588451C
:1059B00005F11B050BF00EFC42F21252C2F200027E
:1059C0004BF21633C2F20003E078B4F90110B2F9D9
:1059D0000070B3F900803A464346FFF7BFFE8146A8
:1059E0004BF23C53C2F200031D60E878B5F9011098
:1059F0003A464346FFF7B2FE1FFA89F942F20253D4
:105A0000C2F20003B6F84320C9EB02021A804BF23F
:105A10002C46C2F20006C9EB0009A6F800900BF074
:105A2000D9FB338813F4004F02D003F5B4633380FD
:105A300042F20253C2F200031B8813F4004F06D057
:105A400042F20252C2F2000203F5B4631380099AD3
:105A500062B342F26853C2F200031E68B4F8050054
:105A6000B5F805104FF001021346FFF7BDFEA6F88A
:105A70005C00B4F8070018B9B4F8050000F1640040
:105A800042F26856C2F200063768B5F807104FF0C8
:105A900001021346FFF7A8FEA7F85E003368A27E56
:105AA00083F87120E27E83F87220B6E00BF092FB5F
:105AB00042F26853C2F200031E68B4F80500B5F85C
:105AC00005104FF001021346FFF78EFEA6F85600B0
:105AD000B4F8070018B9B4F8050000F1640042F208
