:020000040800F2
:100000007CFE002045DE0008A1DE0008A1DE00081D
:10001000A1DE0008A1DE0008A1DE0008000000004B
:10002000000000000000000000000000A1DE000849
:10003000A1DE000800000000A1DE0008A1DE00082B
:10004000A1DE0008A1DE0008A1DE0008A98C0008DE
:10005000A1DE0008A1DE0008A1DE0008A1DE000884
:10006000A1DE0008A1DE0008A1DE0008A1DE000874
:10007000A1DE0008A1DE0008A1DE0008A1DE000864
:10008000A1DE0008A1DE0008A1DE0008A1DE000854
:10009000A1DE0008A1DE0008A1DE0008F5B9000815
:1000A000A1DE0008A1DE0008A1DE0008A1DE000834
:1000B000B98B0008218D0008A1DE0008A1DE000830
:1000C000A1DE0008A1DE0008A1DE0008A1DE000814
:1000D000A1DE00081DD70008A1DE0008A1DE00088F
:1000E000A1DE0008A1DE0008A1DE0008000000007B
:1000F0000000000000000000000000000000000000
:100100000000000000000000A1DE0008A1DE0008E1
:10011000D9E20008A1DE0008A1DE0008A1DE000887
:10012000A1DE0008A1DE0008A1DE0008A1DE0008B3
:10013000A1DE0008A1DE0008A1DE0008A1DE0008A3
:10014000A1DE0008A1DE0008A1DE0008A1DE000893
:100150005FF808F141B14FF42053C4F200031A884C
:1001600092B21043188070474FF42053C4F200033A
:100170001A8892B222EA0000188070474FF4205388
:10018000C4F200039A8892B242F010029A8070473B
:100190004FF42052C4F20002938823F010034FEA78
:1001A00003434FEA13439380704700BF4FF420533B
:1001B000C4F20003988B80B21B8B40EA0340704767
:1001C00010B50446FFF7DAFF4FEA14424FF420530C
:1001D000C4F200031A83A4B29C83FFF7D9FF10BDB9
:1001E00010B50446FFF7CAFFC4F303424FF420538F
:1001F000C4F200031A81A4B29C81FFF7C9FF10BDAD
:100200004FF42052C4F20002938813F0200FFBD069
:10021000704700BF4FF42052C4F20002938823F0CD
:1002200008034FEA03434FEA134393804FF42052ED
:10023000C4F20002938813F0080FFBD0704700BF90
:100240004FF42053C4F200039A8892B21B881842DC
:1002500006D0024012F0FF0F0CBF002001207047B3
:100260004FF00000704700BF4FF42053C4F200036A
:100270009A8892B222EA0000988070478378A3F1AE
:100280000302D2B2072A11D80279C178891A182933
:1002900008DD12B94279012A04D9B3F10A0018BF66
:1002A00001207047D81E18BF012070474FF0000092
:1002B000704700BF70B448F68902C8F68802A2FBF6
:1002C00000434FEA5313C3EB0314A0EB8400C8713F
:1002D000A2FB03024FEA5212C2EB0210A3EB80030F
:1002E0008B714AF6AB23CAF6AA23A3FB02434FEA5B
:1002F000131303EB4300A2EBC0024A719BB203F15C
:10030000060242F29340C9F2492080FB0240801865
:100310004FEAA000C0EBC000121A0A714FF00104AE
:100320004FF0000240F26D154FF4B77612F0030F54
:100330000DD11AB1642A01D0C82A0AD104F1FF34C0
:10034000E4B2002C14BF28464FF4B77002E02846F0
:1003500000E03046834205D31B1A9BB202F1010232
:10036000D2B2E3E71C4602F5FA620A8010F0010FF0
:1003700003D03A2B84BF01339BB21E2B12D94FF00E
:100380001F004FF001024FF68424C0F600041B1A30
:100390009BB202F10102D2B2A01810F8010C9842EF
:1003A000F5D901E04FF001028A7003F10103CB702F
:1003B00070BC70472DE9F0410446FFF7F7FE054693
:1003C000FFF7F4FE8542F8D128462146FFF772FF79
:1003D00094F80580E6782579A7782046FFF74EFF48
:1003E00030B34FF00103237298445FFA88F8B8F1F4
:1003F000180F17D1ED18EDB2072D08BF00254FF6E5
:100400008423C0F60003DB1913F8013CB34204D186
:1004100007F10107FFB24FF0000606F10106F6B240
:100420004FF00008A77084F80580E670257102E09F
:100430004FF0000323724FF00000BDE8F08100BFD1
:10044000F0B585B0068840F26D1303FB06F39EB14C
:1004500006F1FF3206F1030548F21F51C5F2EB1118
:1004600081FB02414FEAE272C2EBE11404EBA50406
:10047000E318C2EB61129B1A4DF68B22CFF6F47291
:100480009A18877807F1FF34A4B264B14FF00003E3
:100490004FF68425C0F60005E95C521803F101030C
:1004A000DBB29C42F8D848F21F53C5F2EB13A3FB12
:1004B00006134FEAD3134FF4C87101FB13639BB2C9
:1004C000A3B116F0030F0DD148F21F53C5F2EB1381
:1004D000A3FB06434FEA53134FF0640101FB13667D
:1004E000B6B21EB9012F88BF02F1FF32C379A3F55E
:1004F000A833A3F5C07341794FF4616404FB013163
:100500008379C3EB031301EB8301C47814194FF40F
:10051000A343C0F2010303FB0414204601A9FFF723
:10052000C9FE01A8FFF7AAFE08B1A4F561644FF067
:10053000010000F0C7F8FFF763FE2046FFF740FE1A
:10054000FFF75EFE4FF0000000F0BCF805B0F0BD14
:1005500082B04FF48053C4F202031A6842F00102E1
:100560001A6059684FF00002CFF2FF020A405A6049
:100570001A6822F0847222F480321A601A6822F417
:1005800080221A605A6822F4FE025A601A6822F029
:10059000A0521A604FF47F029A604FF00002DA62B4
:1005A000009201921A6842F480321A604FF480522D
:1005B000C4F20202136803F400330193009B03F1B9
:1005C00001030093019B1BB9009BB3F5A06FF1D110
:1005D0004FF48053C4F202031B6813F4003F14BFAE
:1005E000012300230193019B012B61D14FF40053A0
:1005F000C4F202031A6842F010021A601A6822F06C
:1006000003021A601A6842F002021A604FF4805323
:10061000C4F202035A685A605A685A605A6842F42F
:1006200080625A60D96A4FF47042CFF6FE720A4077
:10063000DA62DA6A42F4823242F41172DA621A68D9
:1006400042F080621A604FF48052C4F202021368D2
:1006500013F0006FFBD04FF48053C4F202035A68CA
:1006600022F47C125A605A6842F4E8125A601A68FE
:1006700042F080721A604FF48052C4F20202136892
:1006800013F0007FFBD04FF48053C4F202035A688A
:1006900022F003025A605A6842F002025A604FF494
:1006A0008052C4F20202536803F00C03082BFAD103
:1006B0004FF46D43CEF200034FF000629A6002B037
:1006C000704700BF4FF02003C4F20E23186070473C
:1006D0002DE9F003CB7803F00F0513F0100F1CBFCA
:1006E0008B781D430B782BB3D0F800C04FF000037C
:1006F0004FF001064FF00F0806FA03F20C88144081
:10070000944211D14FEA830708FA07F92CEA090C41
:1007100005FA07F74CEA070CCF78282F01D144617E
:1007200002E0482F08BF026103F10103082BE3D167
:10073000C0F800C00B88FF2B27D9D0F804C04FF0B9
:1007400000034FF001064FF00F0803F1080206FA0C
:1007500002F20C881440944211D14FEA830708FA40
:1007600007F92CEA090C05FA07F74CEA070CCF78D1
:10077000282F08BF4461CC78482C08BF026103F1E0
:100780000103082BE1D1C0F804C0BDE8F0037047B5
:100790004FF6FF7303804FF0020383704FF00403A2
:1007A000C3707047806880B2704700BFC06880B275
:1007B000704700BF0AB1016170474161704700BFD7
:1007C000C160704730B400284FF00003C4F2010349
:1007D000B4BFDB695B6884B200F44012B2F5401F1D
:1007E0000AD123F070634FF00002C4F20102556891
:1007F00025F07065556017E010F4801F0AD0C0F333
:1008000003424FF0030505FA02F223EA020343F024
:10081000706309E04FEA50524FEA021204FA02F202
:1008200023EA020343F0706331B14FEA50524FEABA
:10083000021204FA02F4234300284FF00002C4F22B
:100840000102B4BFD361536030BC704730B401F0D3
:1008500003024FEA82024FEA91014FF00003C4F213
:10086000010301F1020153F821504FF00F0404FA83
:1008700002F425EA040443F8214053F8214000FA29
:1008800002F2224343F8212030BC704782B001902D
:10089000019B33B1019B03F1FF330193019B002BBB
:1008A000F8D102B0704700BF70B584B04FF00900B6
:1008B0004FF001010DF082FA4FF40076ADF80C60B4
:1008C0004FF004038DF80F304FF003038DF80E3016
:1008D0004FF44064C4F20104204603A9FFF7F8FE78
:1008E0004FF48073ADF80C304FF014038DF80F30D7
:1008F000204603A9FFF7ECFE4FF47063ADF80C300F
:100900004FF40060C4F2010003A9FFF7E1FE4FF4C9
:10091000E0600EF053FE4FF017038DF800304FF0FB
:1009200000058DF801508DF802504FF001048DF84C
:10093000034068460EF04CFE20464FF00901FFF7D9
:1009400085FF01968DF808504FF008038DF80930A7
:100950008DF80A4001A80DF0A5FA04B070BD00BFE3
:1009600038B54BF23424C2F200042B4D256040F21E
:10097000BF23A3800FF07EF805F5506303F1090350
:10098000C4F80930E3684FF4FA6262F31723E360B6
:100990000FF070F805F50A5303F15903C4F812304B
:1009A0004FF48D73E38205F5D65303F11903C4F8B0
:1009B0001B306FF03F03E3774FF0010384F82030E2
:1009C00005F5E45303F1190363624FF4C86323850B
:1009D00005F5307303F10503C4F82D30236B4FF494
:1009E0001C6262F31723236305F5486303F10503D3
:1009F000C4F836304FF08403638705F5A65505F13A
:100A00001905C4F83F504FF0000384F843304FF00D
:100A1000060384F8443038BDEA5B0020F8B54BF299
:100A20002044C2F200043E4D256041F2CC27A7804D
:100A300005F55A5606F17C06C4F8066040F2CA2352
:100A4000638105F5884303F10A03E3604FF4FA6319
:100A5000238205F5B24303F1DA03C4F812304FF4F0
:100A60008D73E38205F5A24303F1DA03A3614FF42A
:100A7000E073A38305F5A64303F19A03C4F81E307F
:100A80004FF4C863638405F5665303F1460363625C
:100A900040F64422228505F5864303F18603C4F817
:100AA0002A30E28505F5964303F1DA0323634FF418
:100AB000C063A3860EF0DEFF05F5044303F19A033D
:100AC000C4F836304FF4DB636387E563A4F8407005
:100AD00005F5B44505F1F405C4F8425042F6A613F5
:100AE000A4F8463042F2E844C2F2000404F55A5336
:100AF0004FF0100232704FF01A0283F87E204FF050
:100B0000180283F87F200EF0B5FF04F55C5304F55E
:100B1000665494F837201A704FF045025A70F8BDA9
:100B2000E924002008B529B14FF0000300F8013B8B
:100B30000139FBD10EF09EFF08BD00BFF0B40346A3
:100B4000D9B14FF0000422464FF4887043F2C155EA
:100B5000C8F20E154FF6E8561C5D001980B2A5FBD1
:100B600000744FEAD43406FB140080B202F1010293
:100B700092B214468A42EFD301E04FF48870F0BC81
:100B8000704700BF002801DD002904DC002805DAD9
:100B90004FEAD17070474FF0010070474FF00000EE
:100BA000704700BF10B442F2A042C2F2000240F20D
:100BB0004E2101FB00F142F2E843C2F20003CC18DF
:100BC00004F1490414604BF29022C2F2000240F298
:100BD0002E5404FB003404F5B44404F1F50414600D
:100BE0004BF2BC42C2F200024FF0560404FB003448
:100BF00004F55C5404F1020414604BF28022C2F24A
:100C00000002C91801F50E7101F10301116042F2F1
:100C10006C42C2F2000200EB400103EB811101F5CE
:100C2000964101F1DB0111604BF2B842C2F20002C1
:100C30004FF0C80101FB003101F5A64101F19B0114
:100C400011604BF2B422C2F2000248F29B415918E3
:100C50004FF0D00404FB0011116042F29042C2F246
:100C60000002C0EBC00003F5A24303F1DB0303EB7A
:100C7000C003136010BC7047F0B583B04FF000079D
:100C800042F2E846C2F20006F8B2FFF78BFF4FF0DF
:100C900000044FF0640505FB07F52B1903F52853F5
:100CA00003F1020306EB4303B3F807000DF107015C
:100CB0000DF0F0FF68B142F2A043C2F200031B68DE
:100CC0004FF0010202FA04F2B3F950100A43A3F8FC
:100CD000502004F10104072CDFD107F10107082F90
:100CE000D2D103B0F0BD00BF2DE9F84304460EF0A9
:100CF000C1FE4FF064000EF0BDFB4BF22823C2F2A0
:100D000000034FF000021A70022C04D9CD4841F2C2
:100D1000CC21FFF707FFCC4C204641F6B631FFF758
:100D200001FF0EF0A7FE04F5A65000F11E004FF4DF
:100D30006351FFF7F7FE04F5A84000F176004FF489
:100D4000DB71FFF7EFFE0EF095FE42F2E842C2F2D1
:100D500000024FF0010182F84710536C40F201107D
:100D600060F3172353644FF000036FF01F0082F805
:100D7000430082F84410517841F0200151704BF249
:100D8000AC42C2F20002137053709370D3701371AF
:100D900053719371D3711372537293724BF2A542D4
:100DA000C2F2000213704BF28422C2F200021370EE
:100DB00042F2E844C2F2000440F20000C2F2000035
:100DC00003F5325202F16C0203EB4301415A04EB8A
:100DD0004202A2F8031003F10103792BF0D142F291
:100DE0007643C2F200034FF079021A80974B4FF01E
:100DF000010283F832204FF0C00183F833104FF026
:100E0000A80183F8341083F835204FF0650183F88A
:100E100036104FF0090183F839104FF0040183F8C0
:100E20003A104FF0060183F8371083F838204FF05E
:100E30006F0283F83C204FF0280283F83B20844F58
:100E400038464FF0000342F2E84EC2F2000E40F284
:100E50000006C2F2000603EB43040EEB840404F523
:100E6000874403F11A01C1EBC105C1EBC50171183B
:100E7000B1F99751A4F80D50B1F99951A4F8115056
:100E8000B1F99351A4F80B50B1F99511A4F80F10D2
:100E900090F8B715E17190F8B815617203F101038C
:100EA00000F137000B2BD6D14BF2A823C2F200037E
:100EB0004FF00000187042F27644C2F2000440F293
:100EC0000006C2F2000606F51665FFF76BFE4FF04E
:100ED000000323804BF28D21C2F200019C4698460C
:100EE00081F80080634642F2904EC2F2000EB4F9DF
:100EF0000020DEF80000C2EBC202801803EB0509F7
:100F000019F80220C2540B7803F10103DBB20B7015
:100F1000062BECD9238803F101039BB223801BB27B
:100F2000072BDDDD4BF2A823C2F200031A784BF247
:100F30001043C2F200034FF0010199544BF2B84341
:100F4000C2F20003D3F800E04FF0B40303FB0262E7
:100F500002F5186202F116024FF000030EEB430196
:100F600032F8020F888203F101035A2BF6D14FF0B9
:100F7000000323804BF2B84EC2F2000E4BF2A820C1
:100F8000C2F20000DEF800101BB2027802EB82020F
:100F900003EB420206EB4202B2F8382F21F813208D
:100FA000238803F101039BB223801AB2092AE9DDE9
:100FB0004BF29023C2F20003D3F800804FF00002FE
:100FC00013464FF02C0C4FF0010EC2EBC20102EBA6
:100FD0008101414481F8BCC181F8BDE181F8BE3195
:100FE00081F8BF3181F8C13181F8C23181F8C33154
:100FF00081F8C43102F10102182AE6D14FF0000352
:1010000023804BF2BC40C2F2000002681BB206EB28
:101010004301B1F8D81F22F81310238803F101030C
:101020009BB223809AB2162AEFD94FF00002228099
:1010300042F26C41C2F2000141F2F803C2F2000335
:1010400008E000BFE9240020E55B0020685E002086
:101050006C010020086812B233F8F0EC20F832E09E
:10106000D1F800E0228810B24FEAC000864453F85D
:10107000E4CC8EF806C033F8ECCCAEF802C0D1F860
:1010800000E0704433F8E8ECA0F804E002F101025B
:1010900092B2228010B21728DCDD4BF2A823C2F2F4
:1010A00000031B78254A4FF49C7101FB032338464B
:1010B0004FF00002C2EBC201C2EBC1017118B1F9DD
:1010C00097E1A3F806E0B1F999E1A3F80AE0B1F9D4
:1010D00093E1A3F804E0B1F99511198190F8221079
:1010E000997090F8211003F80C1B02F1010200F135
:1010F00037001A2ADED14BF28D23C2F200031A7098
:101100004BF2A823C2F20003187800F10100C0B22C
:10111000187007287FF6D9AE0EF0ACFC4BF22423F2
:10112000C2F200034FF019021A7042F2E843C2F211
:1011300000034FF050021A70BDE8F883AF5E002044
:1011400010B442F29843C2F2000342F2A041C2F24C
:1011500000014FEA40021418096801EBC40101F1D3
:10116000D60119604BF22C23C2F200034BF29021FE
:10117000C2F20001096801EBC40119604BF2D423EB
:10118000C2F200034BF28021C2F2000109688A1802
:101190001A604BF22023C2F2000342F29042C2F2E4
:1011A00000024FEAC0010C1A126812191A604BF2C1
:1011B0009043C2F200034BF2B842C2F2000212683E
:1011C00002EB400000F11400186042F27043C2F2DA
:1011D000000342F26C42C2F2000212685118196018
:1011E00010BC7047F0B442F2E843C2F2000303F5CA
:1011F0000442B2F96750D2F886406419C2F88640BA
:10120000D2F88C104FF4487606FB01F644F6D35022
:10121000C1F2620080FB06714FEAE676C6EBA116CA
:101220004FF0C80101FB0561C2F88C1080FB012062
:101230004FEAE171C1EB9011A3F83D1003F5A8430B
:1012400003F14F031B889BB142F2E843C2F2000353
:1012500004EB44044FEA440444F6D352C1F2620260
:1012600082FB04724FEAE474C4EB9214A3F82F409B
:1012700042F2E843C2F20003B3F93F0003F504422F
:1012800002F16902B2F900204FF0C80101FB02F13E
:101290004FF4487202FB001244F6D351C1F26201CE
:1012A00081FB02014FEAE272C2EB9112A3F83F20E8
:1012B000F0BC7047184B1B88C3B142F2E843C2F23E
:1012C000000303F5044202F18602126802EB4202B7
:1012D0004FEA420244F6D351C1F2620181FB02019E
:1012E0004FEAE272C2EB9112A3F82F2042F2E843D8
:1012F000C2F2000303F50442D2F88C2044F6D35125
:10130000C1F2620181FB02014FEAE272C2EB91126B
:10131000A3F83D20704700BF37790020B0F90030B6
:101320008B42B8BF01807047B0F900308B42C8BF14
:10133000018070472DE9F00105464BF22C23C2F2E3
:101340000003D3F800C04FF000038CF816304BF2C6
:101350009043C2F200031C68238833B34FF00003AC
:10136000184642F2E847C2F200074FF064064FF019
:10137000010806FB035202F5265202F1540207EB64
:101380004202B2F807102288914209D108FA03F20A
:101390001043C0B29CF8162002F101028CF816200E
:1013A00003F10103082BE4D101E04FF00000BDE898
:1013B000F001704710B404464BF22C23C2F2000334
:1013C0001B6893F9131011F0010F0DD14FF00103B9
:1013D000D8B241FA03F212F0010F07D103F1010371
:1013E000082BF5D1204601E04FF0000010BC7047FB
:1013F00030B404464BF2CC25C2F20005B5F90050DA
:10140000854201DD884207D142F2E642C2F2000283
:101410004FF00003138012E08D4205DD42F2E641F9
:10142000C2F200010A800AE042F2E640C2F2000085
:101430002D1B02FB05F20C1B92FBF4F202801846F6
:1014400030BC704710B442F2E843C2F20003B3F973
:10145000411001F00101A3F8411003F5B443B3F9C1
:10146000CB00B42808D142F2E843C2F200031A6C60
:101470006FF317221A6475E042F2E843C2F20003E8
:1014800003F5B442B3F93F40B2F94F309C4269DBF7
:1014900042F2E843C2F2000303F5044202F16B0298
:1014A000B2F90020101800B246F2B702CBF20B627C
:1014B00082FB004212184FEAE074C4EB22224FF480
:1014C000B47404FB120080B242F2E642C2F200029F
:1014D000108003F5BE4383F8E41051B903B25F2BCB
:1014E00007DDB3F5847F04DC4FF001021E4B83F867
:1014F000E42042F2E843C2F20003B3F9413073B191
:1015000042F2E643C2F200031B88A3F155039BB2EB
:10151000BE2B04D94FF00002134B83F8E42042F2B3
:10152000E843C2F2000303F5BE4292F9E420B3F9A6
:10153000413011469A4210D00B4A92F8E53003F13F
:101540000103DBB282F8E5305BB2042B0ADD42F224
:10155000E843C2F20003A3F841104FF00002024B2F
:1015600083F8E52010BC7047E883002010B582B0F6
:1015700004460DF0E5F938B14FF0010021460DF1B8
:1015800007020DF033FA14E09CB104F1FF34A4B269
:101590004F2C0ED84FEAD4024BF2AC43C2F20003F8
:1015A00004F007044FF0010101FA04F4995C0C43C4
:1015B0009C5402B010BD00BF10B582B004460DF0BF
:1015C000BFF938B14FF0000021460DF107020DF0D0
:1015D0000DFA13E094B104F1FF34A4B24FEAD4023F
:1015E0004BF2AC43C2F2000304F007044FF00101D8
:1015F00001FA04F4995C21EA04049C5402B010BD81
:1016000010B582B004460DF09BF928B120460DF1CB
:1016100007010DF099FA17E0A4B104F1FF34A4B268
:1016200004F007034FF0010202FA03F24BF2AC435D
:10163000C2F200034FEAD4041B5D1A420CBF002023
:10164000012001E04FF0000002B010BD70B582B083
:1016500016461D4642F2E843C2F200034FF0640210
:1016600002FB001101F5265101F1540103EB410386
:10167000B3F8074074B320460DF062F950B1D6F1CB
:10168000010038BF00202C19A1B20DF106020DF0A7
:10169000ADF91FE004F1FF346519ADB24FEAD5038F
:1016A00005F007054FF0010202FA05F5ADB20A2B6D
:1016B00010D846B14BF2AC42C2F20002D15C21EA32
:1016C0000505D55406E04BF2AC42C2F20002D15CF3
:1016D0000D43D55402B070BD4BF27C23C2F200031F
:1016E0001B78012B05D14BF2A843C2F200031B6803
:1016F00018704BF27C23C2F200031B78022B05D139
:101700004BF2A843C2F200031B681860704700BF89
:10171000174B93F938304BB1034601E0232A04D02C
:1017200013F8012B002AF9D100E018460378F3B131
:10173000232B1CD041F65062C2F2000212784BF209
:10174000DC21C2F200018B5402F10102D2B210F886
:10175000013F2BB941F65063C2F200031A70704783
:10176000232BF0D141F65063C2F200031A70704788
:10177000685E00202DE9F04105460C4642F2D64352
:10178000C2F200031B7873B94BF2A843C2F2000304
:10179000186041F65063C2F200031A785A709970CB
:1017A00001F00F02DA700EF065F9A4F10403412B89
:1017B00000F29F83DFE813F0E8018F019D039D0392
:1017C0006E029D039D039D039D039D039D03510395
:1017D0009D03C3009D03E801EE0019029D03420131
:1017E0009D039D039D039D039D039D039D039D03F9
:1017F0009D0342009D039D039D036E029D039D0377
:101800009D039D039D039D039D039D039D039D03D8
:101810009D039D039D039D039D03D3029D039D0393
:101820009D039D039D039D039D039D039D039D03B8
:101830009D039D039D039D039D0312032C8841F688
:101840005063C2F2000319784BF2DC22C2F20002AC
:101850004FF03D00505401F1010119700EF00AF9EA
:1018600042F2D643C2F200031B7853B942F26243FC
:10187000C2F200031C8041F65063C2F200031A78E2
:101880005A702046FFF7BCFE78B141F65063C2F2B1
:10189000000319784BF2DC22C2F200024FF0310053
:1018A000505401F1010119700EE041F65063C2F28B
:1018B000000319784BF2DC22C2F200024FF0300034
:1018C000505401F10101197041F65061C2F200015A
:1018D0000A784CF6CD40CCF6CC40A0FB02324FEA61
:1018E000121202EB82024FEA8202D2B24BF2DC23E6
:1018F000C2F2000302F11A05EDB24FF05B065E552D
:1019000002F11B05EDB2A0FB04604FEAD00000F12C
:1019100030065E5502F11C05EDB200EB8000A4EB31
:10192000400404F130045C5502F11D00C0B24FF0D8
:101930005D041C5402F11E020A70BDE8F08142F2FF
:10194000D643C2F200031B784BB94BF29A43C2F262
:1019500000034BF2A822C2F2000212781A704BF276
:10196000A823C2F200032A781B781A4241F650637A
:10197000C2F2000319784BF2DC22C2F2000214BF5B
:1019800031203020505401F1010119700EF072F82D
:10199000BDE8F081B5F90030002B13DA41F6506351
:1019A000C2F2000319784BF2DC22C2F200024FF0BF
:1019B0002D00505401F1010119702988C1F1000175
:1019C00089B200E0298801F1050189B24CF6CD46C3
:1019D000CCF6CC46A6FB01714FEAD10141F650642A
:1019E000C2F2000422784BF2DC25C2F20005AA18EC
:1019F000A6FB01834FEAD30303EB8300A1EB400175
:101A000001F13001D1709BB2A6FB03C64FEAD606A6
:101A100006EB8601A3EB410303F1300353700EF094
:101A200029F8237806F13006EE54ED184FF02E0217
:101A3000AA7003F104032370BDE8F0812E8841F6FB
:101A40005064C2F2000425784BF2DC21C2F200019E
:101A50004B194CF6CD42CCF6CC42A2FB06704FEAB5
:101A6000D00000EB8007A6EB470606F130069E711A
:101A700086B2A2FB06804FEAD00000EB8007A6EBFF
:101A8000470606F130065E7186B2A2FB06C04FEA39
:101A9000D00000EB8007A6EB470606F13006DE70AB
:101AA00080B2A2FB00624FEAD20202EB8206A0EBF8
:101AB000460000F13000987002F130024A554FF0B4
:101AC0002E025A701A710DF0D5FF237803F1070327
:101AD0002370BDE8F0812D8841F65063C2F2000307
:101AE00018784BF2DC22C2F2000213184CF6CD44F7
:101AF000CCF6CC44A4FB05714FEAD10101EB810681
:101B0000A5EB460505F130051D718DB2A4FB0581DD
:101B10004FEAD10101EB8106A5EB460505F1300541
:101B2000DD7089B2A4FB01C44FEAD40404EB840540
:101B3000A1EB450101F130015970A4B204F130016B
:101B400011544FF02E029A700DF094FF092C11D908
:101B500041F65063C2F200031A784BF2DC23C2F262
:101B600000034FF0210199549B184FF030025A7036
:101B7000DA701A7141F65063C2F200031A7802F16A
:101B800005021A70BDE8F081298814F00F0421D0F5
:101B900041F65063C2F200031A7802F1FF32234685
:101BA0004BF2DC26C2F20006B6184CF6CD45CCF658
:101BB000CC45A5FB01024FEAD20202EB8200A1EB69
:101BC000400101F13001F15491B203F1FF33DBB276
:101BD000002BEED141F65063C2F200031A78A4182C
:101BE0001C700DF047FFBDE8F0812E8842F268437B
:101BF000C2F200031B7813F0010F0CD04BF2DC2370
:101C0000C2F2000341F65062C2F2000212789B1841
:101C10004FF03A029A7041F65063C2F2000319780D
:101C20004BF2DC22C2F2000254184CF6CD40CCF646
:101C3000CC40A0FB06754FEAD50505EB8507A6EB62
:101C4000470606F130062671AEB24AF6AB25CAF653
:101C5000AA25A5FB06854FEA950505EB4507A6EBEA
:101C6000470606F13006E670ADB2A0FB05C04FEAAC
:101C7000D00000EB8006A5EB460505F13005657048
:101C800000F13000505401F1050119700DF0F2FE21
:101C9000BDE8F0812F8841F65063C2F20003187846
:101CA0004BF2DC21C2F200010A184FF02F059570AB
:101CB0005FFA87FE4CF6CD45CCF6CC45A5FB0E86EB
:101CC0004FEAD60606EB860CAEEB4C0E0EF1300E4C
:101CD00082F801E006F130060E544FEA1726A5FB04
:101CE00006C14FEAD10101EB8105A6EB450606F1DD
:101CF0003006167101F13001D17000F10500187045
:101D00000DF0B8FE082C40F0278141F65063C2F276
:101D1000000319784BF2DC22C2F200024FF02F00D0
:101D2000505442F2E840C2F2000090F84740521886
:101D30004CF6CD40CCF6CC40A0FB04504FEAD0008E
:101D400000EB8005A4EB450404F13004947000F12D
:101D50003000507001F103011970BDE8F0812E8848
:101D600041F65063C2F200031C784BF2DC22C2F24F
:101D7000000211194FF02E00C8704CF6CD40CCF681
:101D8000CC40A0FB06754FEAD50505EB8507A6EB11
:101D9000470606F130060E71AEB2A0FB06854FEA8B
:101DA000D50505EB8507A6EB470606F130068E70D4
:101DB000ADB2A0FB05C04FEAD00000EB8006A5EB5A
:101DC000460505F130054D7000F13000105504F165
:101DD00005041C700DF04EFEBDE8F0812E8841F622
:101DE0005063C2F200031C784BF2DC22C2F2000204
:101DF00011194FF02E0048704CF6CD40CCF6CC4077
:101E0000A0FB06754FEAD50505EB8507A6EB47064F
:101E100006F130060E71AEB2A0FB06854FEAD5057D
:101E200005EB8507A6EB470606F13006CE70ADB28E
:101E3000A0FB05C04FEAD00000EB8006A5EB4605ED
:101E400005F130058D7000F13000105504F10504E6
:101E50001C700DF00FFEBDE8F08141F65063C2F238
:101E60000003197801F102034BF2DC22C2F20002F6
:101E70009B1802F112077F184CF6CD40CCF6CC40EF
:101E80004FF02D0615F8011BA0FB01424FEAD202CC
:101E900002EB8204A1EB440101F130011970D1B2CF
:101EA000A0FB01824FEAD20202EB8204A1EB4401C3
:101EB00001F1300103F8011C02F1300203F8022C99
:101EC0005E7003F10403BB42DCD141F65063C2F201
:101ED00000031A7802F10F02D2B21A704BF2DC231F
:101EE000C2F200034FF0200199540DF0C3FDBDE88C
:101EF000F0812A7814F00F0427D041F65063C2F223
:101F0000000393F800C00CF1FF3C23464BF2DC27A2
:101F1000C2F200074CF6CD45CCF6CC45FE18D1B246
:101F2000A5FB01804FEAD00000EB8000A1EB40014F
:101F300001F1300106F80C10A5FB02024FEAD202B3
:101F400003F1FF33DBB2002BE8D141F65063C2F25C
:101F500000031A78A4181C70BDE8F0812DE9F8433D
:101F600088464BF29023C2F2000300F191071B68F0
:101F700003EBC70707F10404B4F9069019F100094F
:101F800018BF4FF0010942F2A043C2F200031B68E0
:101F90000C2894BF181803F10C0090F86E305AB258
:101FA000012A05DCB9F1000F02D1A3704FF001093D
:101FB00042F2A043C2F200031A684BF2CC23C2F2F1
:101FC0000003B2F90210B2F958208A1A1A8042F2BC
:101FD000E846C2F2000606F5B445B5F9AD00B5F91C
:101FE000AF10B5F9B1204FF00003FFF701FAB5F9D2
:101FF000651042F2E643C2F20003B3F90020891AE9
:1020000006F50446B6F9652006F165061A80B8F1B2
:10201000000F04D0B8F1010F40F00981C0E0B9F120
:10202000000F47D1A94BB3F9000013B29842C4BFC7
:102030000123A370A54BB3F9003098B212B21BB2C2
:1020400003F1C8039A4200DC10B94FF00003A370FB
:102050009F4BB3F900309AB262B142F2E842C2F249
:102060000002B2F93D201BB29A420ADD4FF0000394
:10207000A37006E042F29C43C2F200031B7803B94E
:10208000A37042F2A043C2F200031B681B7913F055
:10209000080F1CBF0123A3708E4BB3F900304BB166
:1020A00042F2E843C2F20003B3F93D309942BCBFAB
:1020B0000123A37094F9022094F903309A4215D0B9
:1020C0004BF29023C2F200031B6893F8E72422F03E
:1020D000010283F8E724804AB2F90020E28094F9F3
:1020E00002201AB97D4A127C83F8F324A378E370A6
:1020F0004BF29023C2F200031A6892F8F33403F112
:10210000FF33DBB282F8F3345BB2002B00F3DB80E9
:102110004FF0000382F8F3344BF2CC22C2F20002FB
:1021200042F2A045C2F20005296891F82C0091F80E
:102130002D1040EA01211180684AB2F93300B2F94A
:102140003510B2F93720FFF753F92B6893F82E308A
:1021500013F0200F0BD042F2E643C2F200035F4AB5
:1021600092F8371092F8382041EA02221A804BF296
:10217000BC43C2F200031B68B3F9242042F2E643D9
:10218000C2F20003B3F90010554BB3F90030CB1A7B
:10219000D31894F9022002FB03F3BB80BDE8F88357
:1021A000B9F1000F2BD14F4BB3F9000013B2984295
:1021B000C4BF0123A3704BF29023C2F200031B683B
:1021C00093F98E3453B1474BB3F9003098B212B241
:1021D0001BB203F1C8039A4200DC10B94FF00003B0
:1021E000A3703C4BB3F900304BB142F2E843C2F26A
:1021F0000003B3F93D309942BCBF0123A370A3781B
:1022000094F903105AB2914203D0334AB2F9002034
:10221000E280E3704BF2BC42C2F200021268B2F9F3
:1022200026205BB202FB03F3BB80BDE8F883B9F163
:10223000000F35D14BF2A823C2F200034FF000018A
:10224000197042F2C543C2F200031970264BB3F96C
:10225000001013B29942C4BF0123A370224BB3F9FB
:10226000003099B212B21BB203F1C8039A4200DCEB
:1022700011B94FF00003A37042F2E843C2F2000329
:1022800003F5B44202F17102B2F9002091B2B3F940
:102290003D3012B2934203DD11B14FF00003A37041
:1022A000A37894F903105AB2914203D00A4AB2F9C2
:1022B0000020E280E3705BB203EB830303EB830354
:1022C0004FEA8303BB80BDE8F88300BF517F002045
:1022D0004F7F00204D7F0020AF7F0020E87E002050
:1022E0001F7F0020557F0020537F002008B5014646
:1022F0004BF29023C2F2000318684BF2B843C2F2CB
:1023000000031B6801F1120203EB42039B88DBB15F
:1023100000EBC10000F5906000F10C00B0F9063050
:1023200003F1FF339BB2C38013F4004F05D1074A7A
:10233000B2F900201BB29A4203DA4FF00003837116
:10234000C3710846FFF70AFE08BD00BFAF7F00203B
:1023500070B44BF29023C2F200031C684BF280234E
:10236000C2F2000300F10A021B6803EB420113F8FA
:10237000123013F0010F40F0B58004EBC00303F5F9
:10238000906303F10C03B3F90450AEB22AB2002AF1
:1023900004DA4FF000021A715A7104E01EB105F11F
:1023A000FF359D809EE04D784BF2A822C2F20002DC
:1023B0001570B3F9006042F2E642C2F200021680E4
:1023C00048BB42F2A042C2F200021268B2F9D42124
:1023D000B61AB6B2B0B242F2E642C2F200021080C1
:1023E00094F8E72412F0010F15D0AD1BADB242F204
:1023F0007643C2F200031D8058B103B2642B08D0AB
:102400002DB2002DB8BF6D42374BB3F900309D425D
:1024100068DD487066E0354AB2F9002095420CDB71
:10242000334AB2F9002095420ADA324AB2F98140C1
:10243000E4B2B2F983209A8004E04FF0000401E096
:102440004FF000044BF2A822C2F200021078284A92
:10245000B2F90020904206DB264AB2F98740E4B286
:10246000B2F989209A8042F2E642C2F20002128852
:10247000801A80B242F27642C2F20002108002B2AA
:10248000002A07DD4B781B1B4B705CBB4FF0000331
:102490004B7027E010F4004F20D04A78A2184A7001
:1024A0001CB9124AB2F900204A7042F2E642C2F266
:1024B000000212884C78D0B2844213D393F90230D0
:1024C00083B14A704BF29023C2F200031B6893F869
:1024D000E72442F0010283F8E72403E04FF0000212
:1024E0001A715A7170BC7047737F0020677F00209B
:1024F0006D7F0020E87E002010B44BF28023C2F2F2
:1025000000031B6893F90D1093F90F208A18002A15
:102510000DDD4C4AB2F900204AB14BF29022C2F2D2
:10252000000212684FF0010182F8BC1408E04BF27F
:102530009022C2F2000212684FF0000182F8BC142F
:1025400042F2C542C2F200024FF00001117042F2A5
:10255000A042C2F20002126892F96D1049B193F9DB
:102560000D1093F90F30C918374BB3F90030994269
:1025700009DD4BF29023C2F200031B684FF000020A
:1025800083F876245CE04BF2CC23C2F200034FF0D8
:1025900000011980B2F9053099B299B1B2F902205F
:1025A000D31A9BB299B24BF2CC22C2F20002118034
:1025B00011F4004F06D04BF2CC22C2F20002C3F15C
:1025C0000003138042F2A043C2F200031A681F4BBB
:1025D000B3F90030A2F88A304BF2CC23C2F20003E8
:1025E0001888A2F88C004BF29023C2F200031B68FB
:1025F000B3F9CF148CB224B101F1FF31A3F8CF1499
:102600001EE093F9761449B1114AB2F90020A3F8FB
:10261000CF244FF0000283F8762411E0B2F98A103B
:1026200000B2814203DD92F96D20012A08D14FF0FA
:10263000010283F87624074AB2F90020A3F8CF24D8
:1026400010BC7047CB7E00209F7F00208B7F002036
:102650008F7F00208D7F00204BF2B843C2F2000331
:102660001B68B3F852304BB94BF29023C2F200030F
:102670001B684FF0000283F8D124704742F2A04358
:10268000C2F200031B68B3F90210B3F958003B4AC9
:10269000B2F90020821A91420ADA4BF29022C2F279
:1026A0000002126892F8D11441F0010182F8D114AD
:1026B000B3F90210B3F95800314AB2F90020821878
:1026C000914203DC2D4AB2F9002052B94BF290221C
:1026D000C2F20002126892F8D11421F0010182F8CE
:1026E000D11442F2E842C2F2000202F5B24101F115
:1026F000E301B1F9001088B202F5044202F165026B
:10270000B2F90020B3F95A3009B259188A420BDDE8
:1027100050B14BF29023C2F200031B6893F8D1240E
:1027200042F0020283F8D12442F2E843C2F20003ED
:1027300003F5B24202F1E302B2F9002090B203F5D0
:102740000443B3F9651042F2A043C2F200031B68D0
:10275000B3F95A3012B29A18A2F16402914200DB26
:1027600050B94BF29023C2F200031B6893F8D124B6
:1027700022F0020283F8D124704700BF917F00202D
:10278000937F00202DE9F0034BF29023C2F2000367
:102790001D684BF2B843C2F200031B6800F1080445
:1027A00003EB44039B88002B00F0158100EBC00471
:1027B00004F585642C1904F105074FEA40064BF235
:1027C0008023C2F200031B6803EB060C13F81030E1
:1027D00013F0010F04D04FF0000363717B70FAE037
:1027E00001B1C2B910280AD14FF0000385F87E3438
:1027F00085F87F34794BB3F90030A5F800354FF0F8
:10280000000363717B704BF28022C2F200021268F7
:1028100096197370DFE010283FD142F2A043C2F254
:1028200000031B68C2EB01081FFA88F8A3F8B48004
:10283000B8F1000F05D14FF0FF3883F8B48083F86A
:10284000B580C2EB0108664B93F95A3018EB030FC1
:1028500007D54FF0000385F87E3485F87F348CF877
:1028600001304BF29023C2F200031D68B5F900C598
:102870001FFA8CF80FFA8CF3002B06DA4FF00003E6
:1028800085F8003585F8013507E0B8F1000F04D070
:102890000CF1FF3CA5F800C59DE0891A42F26C439B
:1028A000C2F200031A6802EBC003B3F9023003FB63
:1028B00001F344F6D355C1F2620585FB03854FEA67
:1028C000E373C3EBA515ADB242F27643C2F2000347
:1028D0001D80B7F9003048F21F5CC5F2EB1C8CFB81
:1028E000038C4FEAE373C3EB6C1C1FFA8CFC4BF2B6
:1028F000CC23C2F20003A3F800C042F2E643C2F2C6
:1029000000034FF06408A3F800804BF2BC43C2F20E
:1029100000031B681B8D022B07D142F2E643C2F273
:1029200000034FF0C808A3F800800FFA8CFC42F2B5
:10293000E643C2F20003B3F800802BB20FFA88F925
:10294000C3EB0909CC4507DD4BF2CC23C2F20003EF
:10295000C5EB08051D801FE01CEB030F07D54BF2EC
:10296000CC23C2F20003C5F100051D8014E002EB88
:10297000C002B2F9043003FB01F144F6D353C1F2B3
:10298000620383FB01C34FEAE171C1EBA313B7F903
:102990000020D318A4F805304BF2CC22C2F200027A
:1029A00042F27643C2F2000312881B88D21892B218
:1029B0004BF29023C2F200031B68A3F87E2413B2EB
:1029C000642B4BF28023C2F200031B681E44C6BF77
:1029D000642373707270BDE8F0037047CF7E0020EF
:1029E000E87E002010B44BF29023C2F200031A6874
:1029F000B2F97E144BF2BC43C2F200031B681B8D7C
:102A0000002B57D0102855D109B2022B08BF6439CA
:102A100000EBC000121802F5846202F10D0221EAF7
:102A2000E1714BF2CC23C2F200034FF0000018809A
:102A300042F2C543C2F2000318701F4B93F959309C
:102A4000938009B9107150711B4890F9573090F973
:102A50005800181A01FB00F148F21F50C5F2EB10A4
:102A600080FB01404FEAE171C1EB60115B1A9BB240
:102A700098B25080B2F907108CB224B101F1FF3145
:102A8000A2F8071016E092F9061041B138B14FF0E4
:102A90000001917103F1FF33A2F807300AE0B2F9A7
:102AA000043099B231B14FF00101917103F1FF335C
:102AB000A2F8073010BC7047E87E002042F2A04325
:102AC000C2F200031B68B3F9622091B239B1B3F9C5
:102AD0000E0083B233B100B212B2801A70474FF0C9
:102AE000000070474FF00000704700BF42F298436B
:102AF000C2F200031B681A7C42F001021A744BF206
:102B00002C23C2F200031B684FF000029A731A7262
:102B10005A72704710B5044642F29843C2F200035D
:102B20001A684BF2BC43C2F200031B6833F9103041
:102B30005380032813D142F29843C2F2000319686C
:102B40004BF2BC42C2F200021268B2F91200888055
:102B5000B2F918200A801B68B3F90420DA8042F227
:102B60009843C2F200031868B0F904304BB94BF235
:102B7000D423C2F200031B6893F8303013F0010F26
:102B800003D0437C43F00403437400F1060042F297
:102B9000A043C2F200031B68B3F9583046F26761E4
:102BA000C6F2666181FB03214FEAE373C3EBA10127
:102BB00001F1140109B2FEF7B1FB42F29843C2F2EF
:102BC00000031B68B3F90220B3F9060011B2884272
:102BD000C8BFDA80042C40F09E8042F2A042C2F2CC
:102BE0000002126892F82E1011F0200F2BD1B2F9CA
:102BF0002C204949B1F9001014B208B2844222DAFB
:102C00004BF2CC20C2F200000280444AB2F900002C
:102C100009B2B3F90220A2F1FA024FF00003FEF765
:102C2000E7FB42F29843C2F200031B68B3F90210BB
:102C300042F2E642C2F2000212888A1ADA815A7C13
:102C400042F004025A74364B93F8983013F0020F96
:102C50002FD04BF2CC22C2F2000242F2E843C2F281
:102C6000000303F50441496E41F30F21118003F580
:102C7000B443B3F9110042F29844C2F2000422684E
:102C8000B2F90220B3F90730D21A4FF4C8714FF0ED
:102C90000003FEF7ADFB2368B3F9021042F2E642EF
:102CA000C2F2000212888A1ADA815A7C42F00402C7
:102CB0005A744BF29023C2F200031B6893F9F33469
:102CC0003BB942F2E843C2F2000393F83630092BD5
:102CD0000BD142F29843C2F200031B685A7C42F0C7
:102CE00004025A74B3F90220DA8142F29844C2F223
:102CF0000004236803F10E00B3F90610FEF70EFB83
:102D000023685A7C12F0040F05D14FF000029A7329
:102D1000DA739A70DA7010BDEB7E0020FB7E002023
:102D2000E8A80020F0B583B042F2A043C2F200034D
:102D3000186890F8682053B2012B09DD4BF29023FC
:102D4000C2F200031B6893F8D13413F0020F21D0B4
:102D500052B1B0F96C31A0F868314FF0060380F839
:102D6000783180F8903105E000F5B3704FF018012C
:102D7000FDF7D8FE4BF29023C2F200031B684FF020
:102D8000000283F8B02083F8B12083F8982083F8FC
:102D90009920B0E24FF0010380F8903180F878314B
:102DA000FFF78CFE4BF2CC25C2F20005288042F2E0
:102DB000E844C2F2000404F5B243B3F9F900B3F9F0
:102DC000FB1004F5B44696F901204FF00003FEF71E
:102DD0000FFB42F2A043C2F20003186800F5B67080
:102DE00042F2E647C2F20007B7F90010FEF796FA82
:102DF00004F50444636E43F30F232B80B6F95B00A4
:102E0000B6F95D1036F95F2FA2F57A724FF0000324
:102E1000FEF7EEFA4BF29023C2F200031B68B6F9FC
:102E200000103A888A1AA3F80A25B6F90020B2F5EC
:102E30007A7F07DA6FF0170283F80A254FF0030252
:102E400083F80B254BF2BC43C2F200031B68B3F9B5
:102E50000C300193454AB2F90020934212DD444BF5
:102E600093F9983073B142F2A043C2F200031B6899
:102E70004FF01A0283F8902183F878213B4BB3F985
:102E8000003001934BF2CC26C2F2000642F2E84435
:102E9000C2F2000404F504435B6E43F30F23338056
:102EA00004F5B447B7F9530000F5FA714FF0C802C2
:102EB0004FF00003FEF79CFA42F27643C2F20003A1
:102EC00042F2E645C2F200052A881A8094F83F30A3
:102ED00094F8402043EA02233380B7F94D10A1F55E
:102EE000FA704FF064024FF00003FEF781FA4BF2E4
:102EF0009023C2F200031B682A8893F9790411B267
:102F0000884207DA07F15101B1F9001083F8F11492
:102F100083F8792493F8F12451B200290ADD02F1F3
:102F2000FF3283F8F12442F2E642C2F2000293F942
:102F30007934138042F27643C2F200031B881AB23E
:102F4000642A17DD4BF2CC22C2F2000242F2E641C3
:102F5000C2F200010988C1F16401118042F2764297
:102F6000C2F20002A3F16403138015E03D7F00204C
:102F7000E8A800204BF2CC22C2F2000242F2E64165
:102F8000C2F2000109885B1A138042F27643C2F252
:102F900000034FF000021A804BF2CC24C2F200046E
:102FA00020464FF00001FEF7B9F9BDF904102046A4
:102FB000FEF7BAF942F2A043C2F200031B6822886E
:102FC000A3F868214BF2BC43C2F200031B68B3F9BB
:102FD0000E3002AD45F8043DFFF770FDC0F1000072
:102FE000208042F2E844C2F2000404F5B243B3F98F
:102FF000FD00B3F9FF1004F5B44494F902204FF03A
:103000000003FEF7F5F942F2E643C2F20003198825
:10301000C1F1640109B22846FEF786F9B4F95530CA
:10302000019A934205DA04F5285292F9982002B1E8
:1030300001934BF2CC22C2F2000242F2E843C2F208
:10304000000393F83F1093F8400041EA00211180FB
:1030500003F5B443B3F94B10A1F5FA704FF06402D5
:103060004FF00003FEF7C4F94BF29023C2F20003C5
:103070001B6842F2E642C2F20002128893F9780419
:1030800011B2884206DD9D49B1F9001083F8F214AF
:1030900083F8782493F8F22451B200290ADD02F172
:1030A000FF3283F8F22442F2E642C2F2000293F9C0
:1030B000783413804BF2CC24C2F2000442F2764200
:1030C000C2F2000242F2E643C2F2000312881B88F9
:1030D000D31A238020464FF00001FEF71FF9BDF9F7
:1030E00004102046FEF720F942F2A043C2F200038A
:1030F0001B682288A3F8802193F9901113292BDCF7
:103100004BF29021C2F200010968B1F9B00046F219
:103110006764C6F2666484FB00544FEAE070C0EB5B
:10312000A40012B200B2824204BF092283F89021A7
:10313000B1F9B02046F26761C6F2666181FB020117
:103140004FEAE272C2EBA102B3F9840112B29042DB
:1031500004BF0A2283F8902142F2A043C2F2000386
:103160001B6893F97821132A2CDC4BF29022C2F2CF
:1031700000021268B2F9981046F26760C6F2666003
:1031800080FB01404FEAE171C1EBA001B3F9684156
:1031900009B28C4204BF092183F87811B2F9982052
:1031A00046F26761C6F2666181FB02514FEAE27244
:1031B000C2EBA102B3F96C0112B2904204BF0A2221
:1031C00083F878214BF29023C2F200031B6842F28D
:1031D000E842C2F20002B2F9415029B201F10602FE
:1031E00002EB420003EBC00090F9130048B14BF230
:1031F0008020C2F20000006810F8120010F0010FE9
:103200001CD04FF0000483F8B04083F8B14042F284
:10321000A040C2F20000006880F8804180F881413F
:1032200080F8844180F8854190F88E4144F0010493
:1032300080F88E414FF0150480F89041C1F10701EC
:1032400001EB410003EBC00090F9130060B12DB217
:103250004BF28020C2F200000068C5F1070510F8AB
:10326000150010F0010F1CD042F2A040C2F2000085
:10327000006890F8764144F0010480F876414FF000
:10328000000483F8984083F8994080F8684180F8FA
:10329000694180F86C4180F86D414FF0150480F869
:1032A000784142F2A040C2F200000068B0F85040FD
:1032B00014F0010F05D04FF01E0480F8784180F81B
:1032C0009041C1EBC10401EB8401591891F8C01180
:1032D00011F0080F1CBF1F2180F87811C2EBC2014A
:1032E00002EB81029B1893F8C03113F0080F1CBF4A
:1032F0001F2380F8903103B0F0BD00BF397F00205C
:103300002DE9F041054642F29843C2F200031A68E3
:103310004FF0000393744BF22C23C2F200031968A0
:1033200091F913301BB9FFF7E1FBBDE8F0814BF2D7
:103330008D23C2F200034FF000001870B1F9143071
:1033400093812E464BF2BC43C2F200031B6833F953
:1033500015304BB94FF0190393744BF28D23C2F221
:1033600000034FF0010119704BF2D423C2F20003A5
:103370001B6893F8301011F0010F0DD093F9313024
:1033800053B94FF0150393744BF28D23C2F200032F
:103390001A7802F101021A704BF28D23C2F2000377
:1033A0001C781CB1FFF7A2FBBDE8F08142F2984304
:1033B000C2F200031B68B3F90C2052B94FF020028F
:1033C0009A741A7C42F002021A74FFF78FFBBDE870
:1033D000F0812846FFF79EFB4BF28D23C2F20003DB
:1033E0004FF000021A7006EB46064FEAC6064BF293
:1033F0002C28C2F2000840F24E2C624F42F2984054
:10340000C2F200004BF28D23C2F20003D8F8002074
:1034100092F90F200CFB026202F58C72A218D15DAA
:10342000026811551C7804F10104E4B21C70072CE9
:10343000ECD94BF22C23C2F200031A6842F2E843A3
:10344000C2F2000392F90F1005EB450040F22E5432
:1034500004FB01F101EBC0015B1803F5B443B3F9C0
:10346000FD10118193F803319373B2F908303BB129
:1034700042F29843C2F200031B684FF001019974B5
:1034800042F2E843C2F2000392F90F1005EB450542
:1034900040F24E2000FB01F101EBC5055B1993F8EA
:1034A000303113F0040F0BD042F29843C2F2000304
:1034B0001B684FF002019974597C41F00401597462
:1034C00042F29843C2F200031B68B2F9081046F2B8
:1034D0006760C6F2666080FB01404FEAE171C1EBB4
:1034E000A001B3F9024009B28C4204BF09219974CA
:1034F000B2F9082046F26761C6F2666181FB0201FB
:103500004FEAE272C2EBA102B3F9060012B2904296
:1035100004BF0A229A74B3F90E2012B14FF00602CA
:103520009A74B3F90610B3F90220A2F16402914231
:10353000C4BF18229A74B3F90C10B3F90220A2F197
:10354000320291420ADA4BF2D422C2F2000212682D
:1035500092F90120642A04BF14229A744BF2D423F6
:10356000C2F200031B681B7813F0010F07D042F270
:103570009843C2F200031B684FF015029A74BDE82D
:10358000F08100BFEF24002038B505464BF22C2314
:10359000C2F200031C6894F90E3013B9A371E371F1
:1035A00038BDB4F9083046F26762C6F2666282FB43
:1035B00003124FEAE373C3EBA202B4F91410521AD8
:1035C00092B291B242F27643C2F20003198002F144
:1035D00009039BB2082B04D902F1FF3292B2082AE8
:1035E0000CD842F27643C2F200034FF000021A8078
:1035F0004BF2C823C2F200031A6005E008B24BF296
:10360000C823C2F2000318604FF00003A371E371F6
:103610004BF2CC22C2F2000213804FF496704FF4AA
:103620007A714FF06402FDF7E3FE42F29843C2F272
:1036300000031A6842F2E643C2F200031B881372C9
:103640001BB2502B12DD4BF29023C2F2000319681B
:10365000C5EBC50305EB8303CB1893F8C03113F01A
:10366000010F03D0537C43F0100353744BF2CC236F
:10367000C2F200031A88C2F100021A804FF4967059
:103680004FF47A714FF064024FF00003FDF7B0FE83
:1036900042F29843C2F200031A6842F2E643C2F2D1
:1036A00000031B88117A591811721BB2502B12DDBE
:1036B0004BF29023C2F200031B68C5EBC50105EB7A
:1036C00081055D1995F8C03113F0010F03D0537CCB
:1036D00043F01003537438BDF8B506464BF22C2363
:1036E000C2F200031F6807EB40074BF22023C2F22F
:1036F00000031C6894F901504BF2CC23C2F2000382
:103700001D80FFF7DBF92DB2C0F1000000B200FB15
:1037100005F544F6D351C1F2620181FB05314FEA50
:10372000E575C5EBA11189B242F2E643C2F200038E
:10373000198042F27643C2F200034FF000021A8071
:1037400042F29843C2F200031A68B2F9003098B20C
:10375000E0B1B2F90E209B1A94F902004BF2CC2290
:10376000C2F20002108042F27642C2F2000200B2BF
:103770001BB203FB00F348F21F50C5F2EB1080FBB5
:1037800003504FEAE373C3EB6013138094F9000016
:1037900042F27642C2F20002B2F9003009B2C31816
:1037A0005B18012BB8BF0123C7F80230CEB94BF22A
:1037B0002023C2F200031B6893F90010C1F16401D9
:1037C000B2F90020891A42F2E643C2F20003B3F9CB
:1037D00000208B1AC7F80230002BDCBF0123C7F88A
:1037E0000230F8BD30B44BF2D423C2F200031B68A0
:1037F0001B7813F0010F08D042F29843C2F2000385
:103800001B685A7C42F002025A744BF22C23C2F21B
:1038100000031A6842F2E843C2F2000392F90F1063
:1038200040F2271404FB010103EB410393F93C121E
:103830004BF2CC23C2F20003198042F29843C2F249
:1038400000031B68B3F90E50B3F90240A5420CDA2D
:103850005C7C14F0020F08D192F90E202AB109B253
:103860006329DCBF44F020045C744BF22C23C2F2C9
:1038700000031B6893F90E20002A78D14BF29022A6
:10388000C2F200021268B2F99411002940F3B38029
:10389000032800F2B08042F2E841C2F2000101F5D3
:1038A000B440B1F93D40B0F91D108C4219DA42F232
:1038B000A041C2F200010968B1F95C4042F2E8415E
:1038C000C2F2000101F5044000F16500B0F900000A
:1038D000201A01F5B44101F11F01B1F9001088422D
:1038E00027DC42F2A041C2F200010968B1F90200EE
:1038F000B1F95810411A00297DDA4BF2BC41C2F2ED
:1039000000010968B1F91C1048F21F50C5F2EB1014
:1039100080FB01404FEAE174C4EB60104FF0640497
:1039200004FB101109B2592903DD92F9D3140029BF
:1039300061DD42F29841C2F200010968487C40F022
:103940000800487493F91610012907D1B2F9A02193
:1039500022B9B3F9042002F164029A804BF22C23BD
:10396000C2F200031B6893F90E30002B43D042F2E1
:103970009843C2F200031B68B3F90E10B3F9062096
:1039800091420EDD5A7C12F0020F0AD14BF2CC218B
:10399000C2F20001B1F900100029C4BF42F0400298
:1039A0005A7442F29843C2F200031B685A7C12F028
:1039B000440F20D14BF22C21C2F20001096891F989
:1039C0001710C1B94BF29021C2F200010968B1F998
:1039D000941100290FDA4BF2CC21C2F20001B1F9A7
:1039E000001041B91A49B1F90010B1F5FA7FC4BF0E
:1039F00042F008025A7442F29843C2F200031B6874
:103A00005A7C12F0400F0BD04BF29021C2F2000111
:103A10000968B1F994110029BCBF62F07F025A74A1
:103A200042F29843C2F200031B685A7C12F0200F46
:103A30000BD04BF29021C2F200010968B1F9941148
:103A40000029C4BF62F07F025A7430BC704700BFC7
:103A50004DA9002010B442F2C543C2F200034FF05A
:103A600000021A7042F29843C2F200031B685A7CAB
:103A700012F0280F08D14BF22C22C2F20002126879
:103A80004FF00004147154715B7C13F0480F08D19F
:103A90004BF22C23C2F200031B684FF000029A7015
:103AA000DA7042F29843C2F200031B685B7C13F0A9
:103AB000880F6FD013F0800F13D04BF22C23C2F27B
:103AC00000031B6893F91630012B0AD14BF29023A7
:103AD000C2F200031B6893F8022502F1010283F889
:103AE00002254BF22C23C2F200031A684BF29023FA
:103AF000C2F200031B6893F9033502EB4303B3F9E9
:103B000002300A689A4207DA0B604BF29023C2F245
:103B100000031B6883F86F044BF22C23C2F20003EE
:103B20001A684BF29023C2F200031B6893F9033525
:103B300002EB4303B3F902304A689A4209DA42F2CF
:103B40009842C2F200021268527C12F0080F08BFBD
:103B50004B604BF22C23C2F200031A684BF2902305
:103B6000C2F200031B6893F9033502EB4303B3F978
:103B70000230886898420DDA92F91620012A09D19C
:103B800042F29842C2F200021268527C12F0080F10
:103B900008BF8B6010BC70474BF29023C2F2000349
:103BA0001B68B3F99E212AB342F29842C2F2000286
:103BB0001268127C12F0400F1FD04FF0000283F801
:103BC000D224B3F99401B3F99E3190FBF3F04FF096
:103BD000320303FB00F04BF22023C2F200031B6808
:103BE00093F9043090FBF3F042F25843C2F2000321
:103BF000186070474FF0000070474FF000007047AA
:103C00004BF29023C2F200031968B1F9A02193B2DC
:103C100003B342F29843C2F200031B6893F91030D9
:103C2000002B1ADAB1F9940112B290FBF2F24FF0C4
:103C3000320000FB02F04BF22023C2F200031B68AB
:103C400093F9043090FBF3F042F25843C2F20003C0
:103C5000186070474FF0000070474FF00000704749
:103C60004BF29023C2F200031B68B3F992214FF08C
:103C7000640000FB02F248F21F50C5F2EB1080FB1B
:103C800002104FEAE272C2EB2010C0EB00104FEAC4
:103C90004000B3F90A3590FBF3F042F25843C2F208
:103CA00000031860704700BF4BF29022C2F200027E
:103CB0001368B3F90A3500FB03F048F68903C8F628
:103CC000880383FB00131B184FEAE070C0EB23103E
:103CD0004FF0320303FB00F342F25842C2F20002FB
:103CE000136048F21F52C5F2EB1282FB03124FEA37
:103CF000E373C3EB621070472DE9F04F83B042F2DB
:103D0000A043C2F200031B68B3F984210192B3F906
:103D10006C91B3F98061B3F968414BF29023C2F220
:103D20000003D3F80080D8F89A2092B24BF2CC234B
:103D3000C2F200031A8012F4004F06D04BF2CC23DB
:103D4000C2F200034FF000021A804BF2CC23C2F201
:103D50000003B3F800E0884991F84020154691F837
:103D60003F00C2EB0E0101FB00F189B2198011F492
:103D7000004F06D04BF2CC23C2F200034FF00001FB
:103D800019804BF2CC23C2F2000319880FFA81FC90
:103D9000794B93F842309F1ABC4507DC0FFA8EF737
:103DA000BA42D4BF0CEB0207674400E01F46DFF8BD
:103DB000C8E19EF841E06D18ED1A2DB20EFB05F535
:103DC00095FBF0F5ADB24BF2CC21C2F200010D80B3
:103DD00015F4004F06D04BF2CC21C2F200014FF097
:103DE00000050D804BF2CC21C2F200010D880FFAC4
:103DF00085FC614991F84410C3EB010AD445D4BF56
:103E000067440F46DFF870C19CF843C05D196D1A16
:103E10002DB20CFB05F595FBFEF5ADB24BF2CC2AAD
:103E2000C2F2000AAAF8005015F4004F04D055461B
:103E30004FF0000AA5F800A04BF2CC2AC2F2000A0B
:103E4000BAF90050EF194C4D95F90F50AAF80050EF
:103E50000FFA85FA574508DBCAEB070707EBD77758
:103E60004FEA67050AEB050701E04FF00005A7429E
:103E7000C4BFC4EB070A5544B542C4BFC6EB050A2C
:103E8000574406EB040AC1EB0A0B9BFBFCFCBCF19C
:103E9000000FBCBF51464FF0000CC91A91FBFEFE4B
:103EA0001EEB0C0C44BF53464FF0000C9B1A93FBC7
:103EB000F0F010EB0C0044BF524600208018FFF7D2
:103EC000F3FEA8F8A201019B9D42B8BF1D464F45D5
:103ED000B8BF4F46A742A8BF2746B542A8BF354640
:103EE00042F2A043C2F200031B68B3F90210B3F917
:103EF0005A20891A89B24BF2CC22C2F200021180F8
:103F0000BC4204D1AE4202D10AB2002A07DCB94554
:103F100011D1019AAA420ED111F4004F0BD04BF2ED
:103F20009022C2F20002126892F8D31401F101014A
:103F300082F8D31408E04BF29022C2F20002126819
:103F40004FF0000182F8D3144BF29022C2F200022B
:103F5000126892F9D3141429C4BF142182F8D3141F
:103F6000A2F89870A2F8B050A3F87471A3F88C511D
:103F700003B0BDE8F08F00BFE87E00204BF22023A5
:103F8000C2F200031B6893F9043000FB03F048F20F
:103F90001F53C5F2EB1383FB00234FEAE070C0EB25
:103FA00023107047F8B54FF000030B6042F29843BE
:103FB000C2F200031D686B7C13F0040F07D04BF2B4
:103FC0002C23C2F200031B684FF001029A734BF2DC
:103FD0002C23C2F200031C6894F90E3023B923721B
:103FE0006372AB73EB73F8BD94F91230002B40F0A1
:103FF00097804BF29023C2F200031B68B3F994013F
:10400000B4F90610FCF7BEFD00283BD16B7C13F021
:10401000100F37D0B4F90870B4F91430284620F8DE
:104020000E3FB5F90610FDF779F942F29844C2F255
:104030000004236803F10E00B3F90210FDF774F9D0
:104040002368B3F90E6006EB86064FEA46064BF28C
:104050002C23C2F200031C684FF00003A371E3712C
:104060004BF29023C2F200031D68B81BFFF786FFD6
:10407000D5F88E316FF0630202FB0030C5F88E0177
:104080002681F8BDB4F908303BB9B4F9003019B253
:1040900041F287329142D8BF23814BF22C23C2F2E6
:1040A00000031B68D3F80A20B3F90800801880B217
:1040B000188142F29842C2F20002126800B246F23F
:1040C0006761C6F2666181FB00414FEAE070C0EBB8
:1040D000A10189B2D181B2F9060009B2814204DCA2
:1040E00000EB80004FEA40001881B2F90210B2F9EB
:1040F0000E00884204DB01EB81014FEA4101198186
:10410000B3F9081046F26760C6F2666080FB0140B2
:104110004FEAE171C1EB9001D181B3F908201A8017
:10412000F8BD00BF2DE9F8434BF2A823C2F200030B
:104130004FF000061E7030464BF22C27C2F20007EB
:1041400041F2873942F2A045C2F200051C46FCF755
:10415000F7FF3B68B3F9080082B242B100B2FFF743
:104160000DFF2B68B3F95830C01A361814E0B3F9B4
:10417000000003B24B450FDC2B68B3F9588002B244
:104180000FFA88F39A4207DD1046FFF7F7FE0FFAA1
:1041900088F8C8EB00003618207800F10100C0B2A2
:1041A00020700328D3D93046BDE8F8832DE9F04FBD
:1041B00085B04FF000054BF29028C2F200082E4661
:1041C00042F2A047C2F200074BF2A824C2F2000458
:1041D0002846FCF7E7FCD8F8003083F80365B3F90C
:1041E0009421002AC4BF012283F803253B68B3F958
:1041F00058308BB126703046FCF7A2FF0BF03AFC2A
:104200002078FFF77DF8207800F10100C0B220701F
:104210000528F1D9FEF786FD05F10105EDB2082D5F
:10422000D6D14FF000084BF29026C2F2000642F2BF
:10423000E849C2F200094BF2A824C2F200045FFA76
:1042400088F0FCF7AFFC4FF000050395029501954F
:1042500033684FF0FF0283F86F240BF00BFC3368D8
:1042600083F8025540F24E2303FB0893B3F9A130C3
:10427000002B00F0D480284625704BF22C25C2F28A
:10428000000542F29847C2F20007FCF759FF207878
:10429000FFF77AF92B684FF000029A740BF0EAFBF3
:1042A0003B681A7C12F0010F42D1B3F90E2062B1C3
:1042B0002A684FF0010191739174B3F90E3003EB4A
:1042C000830303FA01F3138132E02A68B2F908206C
:1042D00046F26761C6F2666181FB02014FEAE27253
:1042E000C2EB9102DA810BF0C5FB4FF00000FFF743
:1042F000F3F94FF00100FFF7EFF90BF0BBFB20786B
:10430000FFF770FA207801A9FFF7A4FB33682A6849
:1043100093F9031502EB4102B2F902103A68518198
:10432000BDF80820A3F87024BDF80C20A3F872246F
:10433000207800F10100C0B220700528A5D93368AB
:10434000B3F90C2542F2A043C2F200031B68A3F8A4
:1043500066213568FFF784FCC5F89A00FFF7CCFCAE
:1043600033684FF0000083F89E0183F89F0183F8C3
:10437000A00183F8A101207042F29847C2F2000721
:104380004BF22C25C2F20005FCF7DAFE3B681A7CE2
:1043900012F0010F3CD13168B1F970041FFA80FCB2
:1043A000D5F800E091F903A50EEB4A0EBEF902E044
:1043B00000B286450BDBBCF1000F08D042F0400292
:1043C0001A74B1F99E3103F10103A1F89E312968F5
:1043D0003368B3F972241FFA82FE93F9030501EBE7
:1043E0004000B0F9020012B2904211DBBEF1000FA2
:1043F0000ED091F91620012A0AD13A68117C61F099
:104400007F011174B3F9A02102F10102A3F8A021E8
:10441000207800F10100C0B220700528B4D908F15D
:104420000108B8F1080F7FF40AAF42F2E843C2F284
:10443000000303F50442B3F9413082F88A304FF0AB
:10444000000442F2A045C2F200054BF29028C2F2ED
:10445000000842F2E849C2F200092046FCF7A2FB3C
:104460002B68B3F95820002A00F0B780D8F8002054
:1044700092F86F1411F0800F40F0AF8049B201EB59
:10448000410003EBC00090F8E70010F0080F00F0C7
:10449000A48001EB410103EBC10393F8E63013F074
:1044A000080F40F09A804BF28D21C2F200014FF0CC
:1044B00000030B7082F89E3182F89F3182F8A031A0
:1044C00082F8A131B2F99431002B3ADA4FF00007AB
:1044D0003E460BF0CFFAD8F8002092F96F3403EB88
:1044E000430102EBC10191F9131041FA06F111F0F9
:1044F000010F1ED003EB430340F24E2101FB06F1F6
:1045000001EBC3034B4493F8303113F0080F10D183
:1045100007EB090303F5BE4393F9F73013B192F9A2
:10452000023533B14BF28D23C2F200034FF001028A
:104530001A7006F1010607F5A46707F10E07082EA9
:10454000C7D14BF28D23C2F200031B78002B44D15C
:10455000D8F8001040F22E5E4FF0140740F24E26BD
:1045600091F96F2402EB420001EBC00090F91300B7
:1045700040FA03F010F0010F2BD04FEA420C0CEB85
:10458000020A0EFB03F000EBCA0ACA440AF5B44A59
:10459000624401EBC202927BC2F101028AF803215C
:1045A00091F96F2402EB420200EBC2024A4402F589
:1045B000B642177391F96F2402EB420206FB03F037
:1045C00000EBC2024A4492F82F0140F0080082F842
:1045D0002F0103F10103082BC2D104F10104E4B25D
:1045E000082C7FF43AAF0BF045FA4BF2A823C2F245
:1045F00000034FF000021A701E464BF29029C2F2DF
:104600000009C2E00BF036FA2046FCF7CBFA30780E
:10461000FCF796FDD9F800304FF0000283F8F4243F
:1046200083F8F52483F8F62483F8F7243A68127C9B
:1046300012F0010F1AD14BF22C22C2F200021268C2
:10464000917D83F80F1592F90F2042F2E843C2F2F0
:10465000000340F22E5808FB023808F5BE48D8F88F
:10466000E950FFF799FA2D18C8F8E95004F1010450
:10467000E4B2082CC6D14FF0000442F29845C2F2D1
:1046800000054BF22C282046FCF78CFA3078FCF71A
:1046900057FD2B681B7C13F0010F6AD14346C2F211
:1046A00000031B6893F91620012A62D093F90F20AA
:1046B00042F2E843C2F2000340F22E5101FB023302
:1046C00003F5BE43D3F8E91093F804214BF27D23A0
:1046D000C2F200031A7042F25843C2F2000391FB87
:1046E000F2F21A600BF0C6F9D9F80070B7F994A18C
:1046F000D34697F9023553B142F25843C2F2000350
:104700001868FFF73BFCC0EB0A0AA7F894A1B7F9B9
:1047100094115846FCF736FA28B94FF0000387F891
:10472000943187F895314346C2F200031A6842F289
:104730005843C2F200031B68C2F80A3030784BF2CB
:10474000CC21C2F20001FFF72DFC0BF093F942F2ED
:10475000A043C2F200031B682A68B2F90E20B3F925
:10476000DE0111B2884204DA3178052998BFA3F836
:10477000DE2104F10104E4B2082C84D1337803F182
:104780000103DBB23370052B06D84FF0000442F270
:104790009847C2F2000735E70BF06CF94FF00008BC
:1047A0004BF2A824C2F20004C14642F29845C2F27C
:1047B00000054BF2902AC2F2000A4046FCF7F2F9DB
:1047C00084F8009048464BF22C27C2F20007FCF711
:1047D000B7FC0BF04FF92B681B7C13F0010F21D1B4
:1047E0003E6896F91630012B1CD1FFF709FAC6F87E
:1047F0000A0020784BF2CC21C2F20001FFF7D2FB75
:1048000042F2A043C2F200031B682A68B2F90E20EC
:10481000B3F9DE0111B2884204DA2178052998BF84
:10482000A3F8DE21207800F10100C0B22070052835
:10483000CDD9DAF8003093F9022552B993F8D22491
:1048400002F10102D2B283F8D22452B2142A03DC5C
:1048500008E083F8D29405E0DAF800304FF0140253
:1048600083F8D22408F101085FFA88F8B8F1080F3C
:10487000A3D105B0BDE8F08F70B54FF000044BF246
:104880009025C2F2000542F2A046C2F20006204680
:10489000FCF788F92B68B3F98C3423B13368B3F98A
:1048A000D421A3F888204FF00000FDF751FD4FF010
:1048B0000100FDF74DFD4FF00200FDF749FD4FF0FF
:1048C0000300FDF745FD4FF00400FDF741FD4FF0FB
:1048D0000500FDF73DFD04F10104E4B2082CD6D13A
:1048E00070BD00BF2DE9F04F85B042F2E843C2F23F
:1048F0000003B3F94130DBB2C3F107028DF80C209D
:1049000003F106038DF80D304FF0000101914BF2D9
:10491000A824C2F2000442F2C54BC2F2000B019B74
:10492000D8B2FCF73FF94FF00602227042F2A045E0
:10493000C2F2000542F29847C2F200074BF29026FD
:10494000C2F200064BF22C28C2F2000840F2271AED
:10495000DDF804C00AFB0CFAA2F10603DBB28BF807
:10496000003002EB4202296801EBC20202F1D602DA
:104970003A6004A9CB1813F8043C03EB43003168F8
:1049800001EBC000C8F80000534403F58E7342F2F7
:10499000E84CC2F2000C0CEB430303F103014BF2B1
:1049A000D42CC2F2000CCCF80010B0F910C01FFAE1
:1049B0008CF9B9F1000F08D00CF1FF3C20F810CFB2
:1049C0004FF00001FCF7AAFC0EE0B2F90E001FFA4E
:1049D00080FC42F27642C2F200021080DB7813F0D3
:1049E000010F08BF81F801C0227802F10102D2B2A2
:1049F0002270072AB0D9019901F10101019108291A
:104A00008DD105B0BDE8F08F2DE9F0414BF2A82320
:104A1000C2F200034FF0000018704BF2D425C2F22E
:104A200000054BF22C26C2F200064FF014074FF09F
:104A300028081C46FCF784FB2B685B7803F1FF33E6
:104A4000DBB2622B08D83368DF75B3F90820B2F502
:104A50007A6FC8BF83F817803368DA7D51B20029B6
:104A6000CCBF02F1FF320022DA75207800F101009C
:104A7000C0B220700528DDD9BDE8F081F8B54BF251
:104A8000BC43C2F200031B685B8D002B00F0F48076
:104A900042F2A043C2F200031E684BF29023C2F21E
:104AA00000031F68B7F97434A6F88E30734B93F87F
:104AB0003740CCB14FF000031A4642F2E845C2F24B
:104AC0000005824207D0591901F5BF4191F9001044
:104AD000002940F0D18002F10102D2B203F5A463B3
:104AE00003F10E03A242ECD1B6F96930002B00F0BD
:104AF000C380B7F98834B3F5B46FBCBF0133A7F8EE
:104B0000883442F27643C2F200034FF000021A806A
:104B1000B6F90E309FB219B2B6F9622095B212B250
:104B20008C1A5748B0F90000844202DCB1F5165FD8
:104B300002DD002D40F0A080B6F95850B6F90260B1
:104B40003446C6EB050C4F48B0F90000844500F32D
:104B500093804D48B0F90000731B834209DA521A62
:104B60004A4BB3F900309A42C0F28680002F00F021
:104B700083804BF2CC27C2F20007751B3D80444C6A
:104B8000B4F99110254635F98F2FB4F99330D21A24
:104B90004FF00003FCF72CFC42F27643C2F2000314
:104BA000B5F9001042F2E645C2F200052A888A1AD9
:104BB0001A8042F2A046C2F200063368B3F96220BE
:104BC000B3F90E30D31A3B80B4F99700B4F99B10B7
:104BD000274637F9992FB4F99D30D21A4FF00003C8
:104BE000FCF706FCB7F900202B88D21A92B22A8073
:104BF0003368B3F90E1081B1B3F962306BB142F290
:104C00007643C2F20003B3F9001013B2994204DDF7
:104C100042F27643C2F200031A804BF29023C2F2B2
:104C200000031B6842F27642C2F20002B3F9881414
:104C3000B2F9002091421FDB42F2CC42C2F20002E4
:104C4000127812F0020F17D14FF0010283F88B2473
:104C500042F2A042C2F200021268B2F96910B3F93E
:104C600074248A18A3F874244FF0000283F888246F
:104C700083F8892483F88A24F8BD00BF685E002089
:104C8000877F00207D7F0020757F00207F7F0020B0
:104C9000E87E002010B44BF28023C2F200031B68B0
:104CA00093F8422012F0010F40F09D804FF0000277
:104CB00083F8432093F8442012F0010F40F09380D2
:104CC0004FF0000283F845204BF2BC42C2F20002D2
:104CD0001268528D042A94BFD0B204204BF2902265
:104CE000C2F20002116891F98B2402F1FF32032A0B
:104CF00079D8DFE802F040022A5B91F98A444FF04C
:104D00000302C8F200022240002A05DA02F1FF3253
:104D100062F0030202F1010252B24FF0010404FA00
:104D200002F292B242F27644C2F20004228083F888
:104D30004520B1F9FA3443B942F2A043C2F200036C
:104D40001B68B3F96930A1F8FA344BF29023C2F230
:104D500000031B68B3F9FA246AB94FF0060283F81E
:104D6000FA244FF0000283F8FB2493F88A2402F11E
:104D7000010283F88A244BF28023C2F200031B68ED
:104D80004FF0010283F843204BF29023C2F200035C
:104D90001B68B3F9FA148AB26AB94FF0050283F8B6
:104DA000FA244FF0000283F8FB241CE04FF00003CC
:104DB00081F88B3417E001F1FF3189B2A3F8FA14BE
:104DC00089B993F88B2451B2032908D193F98A1435
:104DD000814204DA4FF0020283F88B2403E002F1EF
:104DE000010283F88B2410BC704700BF10B422B1BD
:104DF00001B110B900FB03F01EE0091A89B242F2BA
:104E0000E642C2F20002118042F27642C2F2000291
:104E100014884BF2CC22C2F20002128812B900FBB5
:104E200003F009E009B224B201FB04F112B291FBD4
:104E3000F2F2801803FB00F010BC70472DE9F04F30
:104E400089B007900F4642F2E843C2F2000340F2F5
:104E50004E2101FB023202F14902039242F2A042CA
:104E6000C2F20002039E16604FF0000886F85680DA
:104E700086F85780B3F843300693079EF3181BB2A9
:104E800046F2B702CBF20B6282FB031A9A444FEA56
:104E9000E371C1EBAA2A4FF4B46C0CFB1A3A1FFA67
:104EA0008AFA42F2E643C2F20003A3F800A04146A8
:104EB0004346CDF80880CDF804C04FF0FF09CB463B
:104EC00042F2E840C2F200004FF0320507F101075C
:104ED0000FFA8AFADCB205FB030202F5884202F1FE
:104EE00008029288CAB10E1806F58846F67ABE42C4
:104EF00013D16245BCBF944604944245C4BF90465A
:104F00000594524504DB019EB242C0F23F8104E0A9
:104F1000029EB242C4BF0292A14603F1010301F115
:104F20003201282BD6D1BCF5B46F00F032814FFA94
:104F30008BF2049E3BEA220B28BFB3464FFA89F35B
:104F4000059E39EA230928BFB1464FFA89F24FF08E
:104F5000320101FB02F242F2E843C2F20003D4182C
:104F600004F5884404F10B044FFA8BFB01FB0BFBA7
:104F700003EB0B0505F5884505F10B059A1802F5BD
:104F80008842908906990E1AB6B2B1B242F27642C0
:104F9000C2F2000211805B4403F5884303F1080369
:104FA0009B88181A80B282B24BF2CC23C2F2000363
:104FB0001A8012F4004F06D04BF2CC23C2F2000349
:104FC00000F5B460188011F4004F06D042F2764329
:104FD000C2F2000306F5B4661E80079B43B3B4F823
:104FE0000500B5F805104FF001021346FFF7FEFE6D
:104FF000039EA6F85C00B4F8070018B9B4F80500E1
:1050000000F1640042F2A046C2F200063768B5F82B
:1050100007104FF001021346FFF7E8FEA7F85E0005
:105020003368A27E83F87120E27E83F87220B0E0BC
:10503000B4F80500B5F805104FF001021346FFF76C
:10504000D5FE039EA6F85600B4F8070018B9B4F8C8
:10505000050000F1640042F2A046C2F20006376883
:10506000B5F807104FF001021346FFF7BFFEA7F88F
:105070005A003768A38AA7F86930607F697F4FF0CC
:1050800001024FF06403FFF7B1FEA7F86000376834
:10509000B4F80900B5F809104FF001021346FFF704
:1050A000A5FEA7F864003768207C297C4FF0010238
:1050B0004FF00A03FFF79AFEA7F8DA003768607C22
:1050C000697C4FF001024FF00A03FFF78FFEA7F84B
:1050D000F2003768207F297F4FF001024FF00A036A
:1050E000FFF784FEA7F80A013768E07BE97B4FF001
:1050F00001024FF00A03FFF779FEA7F83A0137687B
:10510000E07AE97A4FF001024FF00A03FFF76EFEF2
:10511000A7F8D6003768207B297B4FF001024FF0BB
:105120000A03FFF763FEA7F8EE003768A07CA97CAE
:105130004FF000024FF00103FFF758FEA7F86A0195
:105140003768E37C87F86830A37D87F86E30E37DAD
:1051500087F86F30237E87F87030637E87F86D3074
:10516000607B697B4FF001024FF00A03FFF73EFEC0
:10517000A7F814013668A07BA97B4FF001024FF01D
:105180000A03FFF733FEA6F82C0102E00192A346C2
:10519000C3E609B0BDE8F08FF8B54BF2CC22C2F2FD
:1051A000000242F2E843C2F20003D96B41F30F213F
:1051B000118042F2A044C2F200042268B2F95610F3
:1051C000A2F8581003F5B243B3F9DB00B3F9DD10D0
:1051D000B3F9DF204FF00403FCF70AF980B242F282
:1051E0007643C2F200031880236893F855201043D9
:1051F00083F855000AF03EFC236842F2E642C2F210
:1052000000021288B3F958105118A3F85810B3F9D6
:105210005C105218A3F85C20B3F95A20F2B10E4B7F
:10522000B3F9DB00B3F9DD10B3F9E1204FF000036F
:10523000FCF7DEF8236842F2E642C2F2000212886E
:10524000B3F95A105118A3F85A10B3F95E10521856
:10525000A3F85E200EE000BFE87D0020B3F95820DF
:1052600002F16402A3F85A20B3F95C2002F164024F
:10527000A3F85E2042F2A043C2F200031B68B3F918
:10528000602091B231B3A3F86220D54BB3F9DB00B3
:10529000B3F9DD10B3F9E5204FF00803FCF7A8F8E7
:1052A00080B242F27643C2F20003188042F2A04379
:1052B000C2F200031B6893F85520104383F8550091
:1052C000B3F9621042F2E642C2F2000212888A1A70
:1052D000A3F8622042F2A043C2F200031B68B3F9B4
:1052E000642091B231B3A3F86620BD4BB3F9DB0063
:1052F000B3F9DD10B3F9EB204FF01003FCF778F8A9
:1053000080B242F27643C2F20003188042F2A04318
:10531000C2F200031B6893F85520104383F8550030
:1053200042F2E642C2F20002B3F9661012888A180D
:10533000A3F8662042F2A043C2F200031B68B3F94F
:10534000DA30002B3ED042F2E846C2F2000606F503
:10535000B243B3F9DB00B3F9DD10B3F9F1204FF03C
:105360000003FCF745F842F27647C2F200073880A6
:1053700042F2A045C2F200052B68B3F9DA1042F2FE
:10538000E644C2F2000422888A1AA3F8DC20FDF762
:1053900095FB4BF2CC23C2F20003188006F5B4460D
:1053A000B6F9CD00B6F9CF10B6F9D1204FF0000311
:1053B000FCF71EF838802B68B3F9DC1022888A18B5
:1053C000A3F8DC2042F2A043C2F200031A68B2F94B
:1053D000F230A2F8F4302BB3FDF770FB4BF2CC2384
:1053E000C2F2000318807F4BB3F9CD00B3F9CF10A0
:1053F000B3F9D3204FF00003FBF7FAFF42F27643F4
:10540000C2F20003188042F2A043C2F200031A68FD
:1054100042F2E643C2F20003B2F9F4101B88CB1843
:10542000A2F8F4304BF2CC23C2F2000342F2E8427D
:10543000C2F20002D26B42F30F221A8042F2A04362
:10544000C2F200031B68B3F90A31F3B1644BB3F93C
:10545000DB00B3F9DD10B3F9F5204FF00003FBF7E3
:10546000C7FF42F27643C2F20003188042F2A04323
:10547000C2F200031A68B2F90A1142F2E643C2F21C
:1054800000031B88CB1AA2F80C3142F2A043C2F2EF
:1054900000031B68B3F93A31F3B1514BB3F9DB00A8
:1054A000B3F9DD10B3F9F3204FF00003FBF7A0FFD1
:1054B00042F27643C2F20003188042F2A043C2F2E5
:1054C00000031A6842F2E643C2F20003B2F93A114D
:1054D0001B88CB18A2F83C3142F2A043C2F2000371
:1054E0001A684BF2BC43C2F200031B68B3F91430D4
:1054F000A2F86B30B2F96A3199B231B3A2F86C31CB
:10550000374BB3F9DB00B3F9DD10B3F9F7204FF0F7
:105510000003FBF76DFF80B242F27643C2F2000354
:10552000188042F2A043C2F200031B6893F8762170
:10553000104383F8760142F2E642C2F20002B3F968
:105540006C1112888A18A3F86C21FDF7B7FA4BF298
:10555000CC25C2F20005288042F2E843C2F20003E3
:1055600003F5B244B4F9F900B4F9FB1003F5B44300
:10557000B3F905204FF00003FBF73AFF42F2A046D3
:10558000C2F20006336842F2E647C2F200073A88E8
:10559000B3F95E10891AA3F85E10B3F95A108A1A8B
:1055A000A3F85A202B88C3F100032B80B4F9FD0027
:1055B000B4F9FF10B4F9EF204FF00003FBF718FF28
:1055C00033683A88B3F95E105118A3F85E10B3F946
:1055D0005A105218A3F85A200AF04CFAF8BD00BF2E
:1055E000E87D0020E87E002070B54BF2A823C2F2CF
:1055F00000034FF0000018704BF22C25C2F200059A
:105600004FF014061C46FBF79BFD2B68B3F91420E2
:1056100002EB82024FEA42021A81DE754FF001026C
:105620009A7320788018C0B220700528EBD970BD1D
:105630002DE9F84342F2A043C2F200031B68B3F91C
:105640005C30002B00F002844BF21043C2F20003E6
:105650001B560BB1FFF7C8FF4BF2B423C2F2000395
:105660001B684FF00002DA801A80DD4BB3F900307E
:105670009AB26AB14BF2B422C2F20002116842F24D
:10568000A042C2F200021268B2F95820D318CB80AF
:10569000D44BB3F900309AB26AB14BF2B422C2F2E1
:1056A0000002116842F2A042C2F200021268B2F98E
:1056B0005820D31A0B8042F2A043C2F200031B68A9
:1056C000B3F95C20B3F90210521AA3F8A620A3F88C
:1056D000741042F27642C2F20002B3F95800411A45
:1056E00011804BF2CC22C2F2000242F2E841C2F237
:1056F0000001C96B41F30F2111809A7D12F0010F57
:1057000008D14BF2CC22C2F20002197D5B7D41EA46
:105710000323138042F2E847C2F2000707F5B444BE
:10572000B4F92100B4F92310B4F925204FF0000397
:10573000FBF75EFE42F2A046C2F20006336842F278
:10574000E645C2F200052A88A3F8A8204BF2CC282F
:10575000C2F20008B3F95C20B3F92C30D31AA8F8D0
:105760000030B4F91500B4F91710B4F919204FF04E
:105770000003FBF73DFE33682A88A3F8AA200AF04D
:1057800079F997F83F3097F8402043EA0223A8F8C8
:105790000030B4F92D00B4F92F10B4F931204FF0D6
:1057A0000003FBF725FE3368B3F95C2007F50447D7
:1057B000B7F96530D31A2A889B1AA8F80030B4F9D3
:1057C0002700B4F92910B4F92B204FF00003FBF7A0
:1057D0000FFE3368B3F9AC102A888A18A3F8AC20FE
:1057E000B4F939104BF28022C2F20002126892F929
:1057F000252002FB01F148F21F52C5F2EB1282FB99
:1058000001024FEAE171C1EB621292B2A3F8AE203D
:10581000B3F9A800B3F9AA10411AB3F9AC00091AF8
:105820008A1892B2A3F8BE2097F9981031B104F10A
:105830003D01B1F90010521AA3F8BE204FF000024A
:1058400083F8B22083F8B3204BF2CC22C2F20002DC
:1058500042F2E841C2F20001C96B41F30F2111800D
:105860009A7D12F0010F08D14BF2CC22C2F2000255
:10587000197D5B7D41EA0323138042F2E845C2F2C1
:10588000000505F5B444B4F92100B4F9231005F579
:10589000B249B9F9E9204FF00003FBF7A9FD42F244
:1058A000A046C2F20006336842F2E647C2F20007A1
:1058B000B3F9B2103A888A18A3F8B2200AF0DAF8DD
:1058C0004BF2CC28C2F2000895F83F3095F8402002
:1058D00043EA0223A8F80030B4F92D00B4F92F10E0
:1058E000B4F975204FF00003FBF782FD3368B3F97C
:1058F0005C2005F50445B5F96530D31A3A889B1A42
:10590000A8F80030B4F92700B4F92910B9F9ED204E
:105910004FF00003FBF76CFD3368B3F9B2103A881F
:105920008A18A3F8B220B3F9A630A8F80030A27BF9
:1059300051B20A2915DD19B2002912DA51B21D2916
:105940000FDC1BB252B202FB03F346F26762C6F2EF
:10595000666282FB03424FEAE373C3EBA203A8F83B
:10596000003042F2A043C2F200031A684BF2BC437B
:10597000C2F2000319684BF2CC23C2F20003B3F960
:105980000030B1F91C0000FB03F348F21F50C5F2D0
:10599000EB1080FB03504FEAE373C3EB5013A2F804
:1059A000B8304BF29023C2F200031B6893F9D20483
:1059B000012819DCD3F88E51B2F9A600B1F91E40C6
:1059C00004FB00F046F26764C6F2666484FB006480
:1059D0004FEAE070C0EBA4002818C3F88E0103E082
:1059E0002F7F0020037F0020D3F88E4148F28040B3
:1059F000C0F21E00844210DD6FF07F0083F88E013C
:105A00006FF07B0083F88F014FF01E0083F8900148
:105A10004FF0000083F8910115E04FF4F740CFF606
:105A2000E17084420FDA6FF07F0083F88E014FF04F
:105A30007B0083F88F016FF01E0083F890014FF018
:105A4000FF3083F89101B1F91E1039B983F88E1136
:105A500083F88F1183F8901183F89111D3F88E0198
:105A600048F21F51C5F2EB1181FB00414FEAE07093
:105A7000C0EB611189B2A2F8B010B2F9B800B2F966
:105A8000BE20821A5118A3F89411FEF74BFB05466D
:105A90004BF29023C2F200031B68B3F99421121A4F
:105AA000A3F8942193F9D224042AC4BFD3F89A21ED
:105AB000C3F88E21D3F88E21C3F89A2193F9D2240A
:105AC000032A38DD4BF2CC22C2F20002128802F126
:105AD000630292B2C62A2ED8B3F99421962A12DD17
