:020000040800F2
:1000000064FF002069EC0008C5EC0008C5EC00089E
:10001000C5EC0008C5EC0008C5EC000800000000B5
:10002000000000000000000000000000C5EC000817
:10003000C5EC000800000000C5EC0008C5EC000895
:10004000C5EC0008C5EC0008C5EC00087199000873
:10005000C5EC0008C5EC0008C5EC0008C5EC0008BC
:10006000C5EC0008C5EC0008C5EC0008C5EC0008AC
:10007000C5EC0008C5EC0008C5EC0008C5EC00089C
:10008000C5EC0008C5EC0008C5EC0008C5EC00088C
:10009000C5EC0008C5EC0008C5EC000889C80008DC
:1000A000C5EC0008C5EC0008C5EC0008C5EC00086C
:1000B00081980008E9990008C5EC0008C5EC000823
:1000C000C5EC0008C5EC0008C5EC0008C5EC00084C
:1000D000C5EC000841E50008C5EC0008C5EC0008C7
:1000E000C5EC0008C5EC0008C5EC000800000000E5
:1000F0000000000000000000000000000000000000
:100100000000000000000000C5EC0008C5EC00087D
:10011000FDF00008C5EC0008C5EC0008C5EC0008BF
:10012000C5EC0008C5EC0008C5EC0008C5EC0008EB
:10013000C5EC0008C5EC0008C5EC0008C5EC0008DB
:10014000C5EC0008C5EC0008C5EC0008C5EC0008CB
:100150005FF808F141B14FF42053C4F200031A884C
:1001600092B21043188070474FF42053C4F200033A
:100170001A8892B222EA0000188070474FF4205388
:10018000C4F200039A8892B242F010029A8070473B
:100190004FF42052C4F20002938823F010034FEA78
:1001A00003434FEA13439380704700BF4FF420533B
:1001B000C4F20003988B80B21B8B40EA0340704767
:1001C00010B50446FFF7DAFF4FEA14424FF420530C
:1001D000C4F200031A83A4B29C83FFF7D9FF10BDB9
:1001E00010B50446FFF7CAFFC4F303424FF420538F
:1001F000C4F200031A81A4B29C81FFF7C9FF10BDAD
:100200004FF42052C4F20002938813F0200FFBD069
:10021000704700BF4FF42052C4F20002938823F0CD
:1002200008034FEA03434FEA134393804FF42052ED
:10023000C4F20002938813F0080FFBD0704700BF90
:100240004FF42053C4F200039A8892B21B881842DC
:1002500006D0024012F0FF0F0CBF002001207047B3
:100260004FF00000704700BF4FF42053C4F200036A
:100270009A8892B222EA0000988070478378A3F1AE
:100280000302D2B2072A11D80279C178891A182933
:1002900008DD12B94279012A04D9B3F10A0018BF66
:1002A00001207047D81E18BF012070474FF0000092
:1002B000704700BF70B448F68902C8F68802A2FBF6
:1002C00000434FEA5313C3EB0314A0EB8400C8713F
:1002D000A2FB03024FEA5212C2EB0210A3EB80030F
:1002E0008B714AF6AB23CAF6AA23A3FB02434FEA5B
:1002F000131303EB4300A2EBC0024A719BB203F15C
:10030000060242F29340C9F2492080FB0240801865
:100310004FEAA000C0EBC000121A0A714FF00104AE
:100320004FF0000240F26D154FF4B77612F0030F54
:100330000DD11AB1642A01D0C82A0AD104F1FF34C0
:10034000E4B2002C14BF28464FF4B77002E02846F0
:1003500000E03046834205D31B1A9BB202F1010232
:10036000D2B2E3E71C4602F5FA620A8010F0010FF0
:1003700003D03A2B84BF01339BB21E2B12D94FF00E
:100380001F004FF0010240F6B804C0F601041B1A2A
:100390009BB202F10102D2B2A01810F8010C9842EF
:1003A000F5D901E04FF001028A7003F10103CB702F
:1003B00070BC70472DE9F0410446FFF7F7FE054693
:1003C000FFF7F4FE8542F8D128462146FFF772FF79
:1003D00094F80580E6782579A7782046FFF74EFF48
:1003E00030B34FF00103237298445FFA88F8B8F1F4
:1003F000180F17D1ED18EDB2072D08BF002540F6F4
:10040000B803C0F60103DB1913F8013CB34204D171
:1004100007F10107FFB24FF0000606F10106F6B240
:100420004FF00008A77084F80580E670257102E09F
:100430004FF0000323724FF00000BDE8F08100BFD1
:10044000F0B585B0068840F26D1303FB06F39EB14C
:1004500006F1FF3206F1030548F21F51C5F2EB1118
:1004600081FB02414FEAE272C2EBE11404EBA50406
:10047000E318C2EB61129B1A4DF68B22CFF6F47291
:100480009A18877807F1FF34A4B264B14FF00003E3
:1004900040F6B805C0F60105E95C521803F1010306
:1004A000DBB29C42F8D848F21F53C5F2EB13A3FB12
:1004B00006134FEAD3134FF4C87101FB13639BB2C9
:1004C000A3B116F0030F0DD148F21F53C5F2EB1381
:1004D000A3FB06434FEA53134FF0640101FB13667D
:1004E000B6B21EB9012F88BF02F1FF32C379A3F55E
:1004F000A833A3F5C07341794FF4616404FB013163
:100500008379C3EB031301EB8301C47814194FF40F
:10051000A343C0F2010303FB0414204601A9FFF723
:10052000C9FE01A8FFF7AAFE08B1A4F561644FF067
:10053000010000F0C7F8FFF763FE2046FFF740FE1A
:10054000FFF75EFE4FF0000000F0BCF805B0F0BD14
:1005500082B04FF48053C4F202031A6842F00102E1
:100560001A6059684FF00002CFF2FF020A405A6049
:100570001A6822F0847222F480321A601A6822F417
:1005800080221A605A6822F4FE025A601A6822F029
:10059000A0521A604FF47F029A604FF00002DA62B4
:1005A000009201921A6842F480321A604FF480522D
:1005B000C4F20202136803F400330193009B03F1B9
:1005C00001030093019B1BB9009BB3F5A06FF1D110
:1005D0004FF48053C4F202031B6813F4003F14BFAE
:1005E000012300230193019B012B61D14FF40053A0
:1005F000C4F202031A6842F010021A601A6822F06C
:1006000003021A601A6842F002021A604FF4805323
:10061000C4F202035A685A605A685A605A6842F42F
:1006200080625A60D96A4FF47042CFF6FE720A4077
:10063000DA62DA6A42F4823242F41172DA621A68D9
:1006400042F080621A604FF48052C4F202021368D2
:1006500013F0006FFBD04FF48053C4F202035A68CA
:1006600022F47C125A605A6842F4E8125A601A68FE
:1006700042F080721A604FF48052C4F20202136892
:1006800013F0007FFBD04FF48053C4F202035A688A
:1006900022F003025A605A6842F002025A604FF494
:1006A0008052C4F20202536803F00C03082BFAD103
:1006B0004FF46D43CEF200034FF000629A6002B037
:1006C000704700BF4FF02003C4F20E23186070473C
:1006D0002DE9F003CB7803F00F0513F0100F1CBFCA
:1006E0008B781D430B782BB3D0F800C04FF000037C
:1006F0004FF001064FF00F0806FA03F20C88144081
:10070000944211D14FEA830708FA07F92CEA090C41
:1007100005FA07F74CEA070CCF78282F01D144617E
:1007200002E0482F08BF026103F10103082BE3D167
:10073000C0F800C00B88FF2B27D9D0F804C04FF0B9
:1007400000034FF001064FF00F0803F1080206FA0C
:1007500002F20C881440944211D14FEA830708FA40
:1007600007F92CEA090C05FA07F74CEA070CCF78D1
:10077000282F08BF4461CC78482C08BF026103F1E0
:100780000103082BE1D1C0F804C0BDE8F0037047B5
:100790004FF6FF7303804FF0020383704FF00403A2
:1007A000C3707047806880B2704700BFC06880B275
:1007B000704700BF0AB1016170474161704700BFD7
:1007C000C160704730B400284FF00003C4F2010349
:1007D000B4BFDB695B6884B200F44012B2F5401F1D
:1007E0000AD123F070634FF00002C4F20102556891
:1007F00025F07065556017E010F4801F0AD0C0F333
:1008000003424FF0030505FA02F223EA020343F024
:10081000706309E04FEA50524FEA021204FA02F202
:1008200023EA020343F0706331B14FEA50524FEABA
:10083000021204FA02F4234300284FF00002C4F22B
:100840000102B4BFD361536030BC704730B401F0D3
:1008500003024FEA82024FEA91014FF00003C4F213
:10086000010301F1020153F821504FF00F0404FA83
:1008700002F425EA040443F8214053F8214000FA29
:1008800002F2224343F8212030BC704782B001902D
:10089000019B33B1019B03F1FF330193019B002BBB
:1008A000F8D102B0704700BF70B584B04FF00900B6
:1008B0004FF001010EF094F94FF40076ADF80C60A2
:1008C0004FF004038DF80F304FF003038DF80E3016
:1008D0004FF44064C4F20104204603A9FFF7F8FE78
:1008E0004FF48073ADF80C304FF014038DF80F30D7
:1008F000204603A9FFF7ECFE4FF47063ADF80C300F
:100900004FF40060C4F2010003A9FFF7E1FE4FF4C9
:10091000E0600FF065FD4FF017038DF800304FF0E9
:1009200000058DF801508DF802504FF001048DF84C
:10093000034068460FF05EFD20464FF00901FFF7C7
:1009400085FF01968DF808504FF008038DF80930A7
:100950008DF80A4001A80EF0B7F904B070BD00BFD1
:1009600038B54BF2B824C2F200042B4D256040F29A
:10097000BF23A3800FF090FF05F5506303F1090337
:10098000C4F80930E3684FF4FA6262F31723E360B6
:100990000FF082FF05F50A5303F15903C4F8123032
:1009A0004FF48D73E38205F5D65303F11903C4F8B0
:1009B0001B306FF03F03E3774FF0010384F82030E2
:1009C00005F5E45303F1190363624FF4C86323850B
:1009D00005F5307303F10503C4F82D30236B4FF494
:1009E0001C6262F31723236305F5486303F10503D3
:1009F000C4F836304FF08403638705F5A65505F13A
:100A00001905C4F83F504FF0000384F843304FF00D
:100A1000060384F8443038BD6E5C0020F8B54BF214
:100A20000854C2F200043E4D256041F2CC27A78055
:100A300005F55A5606F17C06C4F8066040F2CA2352
:100A4000638105F5884303F10A03E3604FF4FA6319
:100A5000238205F5B24303F1DA03C4F812304FF4F0
:100A60008D73E38205F5A24303F1DA03A3614FF42A
:100A7000E073A38305F5A64303F19A03C4F81E307F
:100A80004FF4C863638405F5665303F1460363625C
:100A900040F64422228505F5864303F18603C4F817
:100AA0002A30E28505F5964303F1DA0323634FF418
:100AB000C063A3860FF0F0FE05F5044303F19A032B
:100AC000C4F836304FF4DB636387E563A4F8407005
:100AD00005F5B44505F1F405C4F8425042F6A613F5
:100AE000A4F8463042F26C54C2F2000404F55A53A2
:100AF0004FF0110232704FF01A0283F87E204FF04F
:100B0000180283F87F200FF0C7FE04F55C5304F54C
:100B1000665494F837201A704FF048025A70F8BDA6
:100B20006D25002008B529B14FF0000300F8013B06
:100B30000139FBD10FF0B0FE08BD00BFF0B4034691
:100B4000D9B14FF0000422464FF4887043F2C155EA
:100B5000C8F20E154FF6E8561C5D001980B2A5FBD1
:100B600000744FEAD43406FB140080B202F1010293
:100B700092B214468A42EFD301E04FF48870F0BC81
:100B8000704700BF10B442F22453C2F200031B6846
:100B900001EB41029A18127982B901EB41029B18CC
:100BA000B3F902404BF21032C2F2000200EB4000F7
:100BB00001EB400122F81140588812E001EB41029C
:100BC0009B18B3F9023053B14BF21033C2F2000359
:100BD00000EB400001EB400133F8110001E04FF061
:100BE000000000B210BC70472DE9F04F85B0804680
:100BF00042F26C53C2F200034FF0560202FB003384
:100C000003F55C5393F831B04FF00004A246A146BF
:100C100041F2883203920194264602944BF3050771
:100C200047FA04F313F0010F27D0E5B240462946F6
:100C3000FFF7A8FF08B340462946FFF7A3FF039A32
:100C400013B29842B8BF03469BB20393019A13B202
:100C50009842A8BF03469BB2019381441FFA89F9C9
:100C60000AF1010A5FFA8AFA46F3460606F12006FF
:100C7000F6B24FF00103029302E046F34606F6B2E5
:100C800004F10104062CCBD1029A002A3CD04BF38C
:100C9000811B5FFA8BFB5FFA8BF242F26C53C2F25C
:100CA000000340F24E2101FB083306EB821683F865
:100CB000E8610FFA89F999FBFAFAA3F8EBA112F0AF
:100CC000010F08D042F26C53C2F2000301FB08335B
:100CD000039AA3F8EB211BF0020F0AD042F26C53E7
:100CE000C2F2000340F24E2202FB0833019AA3F83D
:100CF000EB2142F26C53C2F2000340F24E2202FB9F
:100D00000838B8F9EB01FFE705B0BDE8F08F00BF88
:100D10002DE9F04F85B0804642F26C53C2F20003D9
:100D20004FF0560202FB003303F55C5393F830B0EA
:100D30004FF00004A246A14641F28832039201948A
:100D4000264602944BF3050747FA04F313F0010F0C
:100D500027D0E5B240462946FFF714FF08B34046C6
:100D60002946FFF70FFF039A13B29842B8BF034614
:100D70009BB20393019A13B29842A8BF03469BB259
:100D8000019381441FFA89F90AF1010A5FFA8AFA8C
:100D900046F3460606F12006F6B24FF00103029331
:100DA00002E046F34606F6B204F10104062CCBD16C
:100DB000029A002A3ED04BF3811B5FFA8BFB5FFA4D
:100DC0008BF242F26C53C2F2000340F24E2101FB5F
:100DD000083306EB821683F8E7610FFA89F94FFAB8
:100DE0008AFA99FBFAF9A3F8E99112F0010F08D0F9
:100DF00042F26C53C2F2000301FB0833039AA3F8DA
:100E0000E9211BF0020F0AD042F26C53C2F2000338
:100E100040F24E2202FB0833019AA3F8E92142F284
:100E20006C53C2F2000340F24E2202FB0838B8F9BC
:100E3000E901FFE705B0BDE8F08F00BF2DE9F04103
:100E4000804642F26C53C2F200034FF0560202FB9E
:100E5000003303F55C5393F931704FF000042646DC
:100E600047F3050747FA04F313F0010F0FD0E5B27B
:100E700040462946FFF786FE48B140462946FFF71F
:100E800081FE46F3460606F12006F6B202E046F37E
:100E90004606F6B204F10104062CE3D170B2BDE8B7
:100EA000F08100BF2DE9F041804642F26C53C2F25E
:100EB00000034FF0560202FB003303F55C5393F935
:100EC00030704FF00004264647F3050747FA04F355
:100ED00013F0010F0FD0E5B240462946FFF752FE4E
:100EE00048B140462946FFF74DFE46F3460606F157
:100EF0002006F6B202E046F34606F6B204F101041B
:100F0000062CE3D170B2BDE8F08100BF41F6A463C6
:100F1000C2F2000333F81000704700BF48B141F639
:100F2000A463C2F2000333F81120801823F81100E3
:100F3000704741F6A463C2F200034FF0000223F8A9
:100F40001120704741F6A463C2F2000303EB400393
:100F5000188A704748B141F6A463C2F2000303EB5C
:100F600041031A8A80181882704741F6A463C2F2BE
:100F7000000303EB41034FF000021A82704700BFE9
:100F800008B5014642F26C53C2F2000340F24E2211
:100F900002FB00334FF0010083F87A0241F6A463AC
:100FA000C2F2000303EB41031884FFF7B7FF08BD4B
:100FB00038B5044642F26C53C2F2000340F24E22AE
:100FC00002FB00334FF0000583F87A522846214691
:100FD000FFF7C0FF28462146FFF7A0FF4FF00100B2
:100FE0002146FFF79BFF41F6A463C2F2000303EB27
:100FF0004404258438BD00BFF8B54FF000042546F1
:1010000041F6A466C2F200062746A75306F1100374
:10101000E75206F12003E7522846FFF7C9FF05F122
:101020000105EDB204F10204082DEED1F8BD00BFB8
:1010300070B5254D4FF00004244E35F9023B012BCD
:101040001AD12046FFF77EFFB6F9DF3048F21F5273
:10105000C5F2EB1282FB03124FEAE373C3EB621398
:101060001BB2984203DB2046FFF7A2FF04E04FF0DB
:1010700001002146FFF76EFF35F9023CEBB920462F
:10108000FFF744FFB6F9E13048F21F52C5F2EB1208
:1010900082FB03124FEAE373C3EB62131BB2984265
:1010A00005DB4FF000002146FFF738FF05E020B1D7
:1010B0004FF001002146FFF731FF04F10104E4B2D3
:1010C000082CBAD170BD00BFC41E00206C7F002068
:1010D00070B504464BF20433C2F200031B6893F868
:1010E0003E3013F0010F59D1FFF712FE42F26C535C
:1010F000C2F2000340F24E2202FB0433B3F99F50C8
:10110000A84204DA2D1AAEB24FF0000501E0451BEB
:10111000ADB2002828DD224BB3F9003036B2B3421D
:1011200006DC2046FFF7F2FE10B92046FFF728FF45
:101130001C4BB3F900302DB2AB4215DC2046FFF753
:1011400001FF194BB3F9003048F21F52C5F2EB1200
:1011500082FB03124FEAE373C3EB62131BB29842A4
:1011600002DB2046FFF724FF42F26C53C2F2000379
:1011700040F24E2202FB043241F6A463C2F20003A5
:1011800003EB4404238A03EB830303EB83034FEA5B
:101190008303A2F8EF31238CA2F8ED3170BD00BFBC
:1011A000458000204780002049800020002801DD84
:1011B000002904DC002805DA4FEAD17070474FF0AF
:1011C000010070474FF00000704700BF10B442F2BA
:1011D0002452C2F2000240F24E2101FB00F142F221
:1011E0006C53C2F20003CC1804F1490414604BF2B2
:1011F0007432C2F2000240F22E5404FB003404F5B3
:10120000B44404F1F50414604BF2A452C2F200029B
:101210004FF0560404FB003404F55C5404F102045E
:1012200014604BF20432C2F20002C91801F50E71CB
:1012300001F10301116042F2EC42C2F2000200EB44
:10124000400103EB811101F5964101F1DB011160D1
:101250004BF2A052C2F200024FF0C80101FB003174
:1012600001F5A64101F19B0111604BF29832C2F2E7
:10127000000248F29B4159184FF0D00404FB0011C2
:10128000116042F21452C2F20002C0EBC00003F53A
:10129000A24303F1DB0303EBC003136010BC7047F0
:1012A000F0B583B04FF0000742F26C56C2F2000670
:1012B000F8B2FFF78BFF4FF000044FF0640505FB19
:1012C00007F52B1903F5285303F1020306EB43033B
:1012D000B3F807000DF107010EF0EEFB68B142F222
:1012E0002453C2F200031B684FF0010202FA04F219
:1012F000B3F950100A43A3F8502004F10104072C5D
:10130000DFD107F10107082FD2D103B0F0BD00BF34
:101310002DE9F84304460FF0BFFA4FF064000EF0D9
:10132000BBFF4BF2AE23C2F200034FF000021A7073
:10133000022C04D9D04841F2CC21FFF7F3FBCF4C6B
:10134000204641F6B631FFF7EDFB0FF0A5FA04F5A4
:10135000A65000F11E004FF46351FFF7E3FB04F5C4
:10136000A84000F176004FF4DB71FFF7DBFB0FF0D4
:1013700093FA42F26C52C2F200024FF0010182F87D
:101380004710536C40F2011060F3172353644FF081
:1013900000036FF01F0082F8430082F84410517878
:1013A00041F0200151704BF29452C2F200021370CE
:1013B00053709370D370137153719371D37113720F
:1013C000537293724BF28E52C2F2000213804BF2B0
:1013D0000832C2F20002138042F26C54C2F20004DE
:1013E00040F20000C2F2000003F5325202F16C023A
:1013F00003EB4301415A04EB4202A2F8031003F14C
:101400000103792BF0D142F2F643C2F200034FF010
:1014100079021A809A4B4FF0010283F832204FF084
:10142000C00183F833104FF0A80183F8341083F81B
:1014300035204FF0650183F836104FF0090183F82D
:1014400039104FF0040183F83A104FF0060183F889
:10145000371083F838204FF06F0283F83C204FF0AC
:10146000280283F83B20874F38464FF0000342F2B2
:101470006C5EC2F2000E40F20006C2F2000603EB00
:1014800043040EEB840404F5874403F11A01C1EB15
:10149000C105C1EBC5017118B1F99751A4F80D5000
:1014A000B1F99951A4F81150B1F99351A4F80B5026
:1014B000B1F99511A4F80F1090F8B715E17190F8F3
:1014C000B815617203F1010300F137000B2BD6D17F
:1014D0004BF28C33C2F200034FF000021A8042F24A
:1014E000F644C2F2000440F20006C2F2000606F51D
:1014F0001665D0B2FFF76AFE4FF0000323804BF26F
:101500007231C2F200019E469C46A1F800C07346AB
:1015100042F21450C2F200001BB2B4F90020D0F81D
:101520000080C2EBC202904403EB050919F80220C7
:1015300008F803200B8803F101039BB20B809AB2D9
:10154000062AE9D9238803F101039BB223801BB249
:10155000072BDADD4BF28C33C2F20003B3F9002023
:101560004BF2F843C2F200034FF0010199544BF2E1
:10157000A053C2F20003D3F800E04FF0B40303FB22
:10158000026202F5186202F116024FF000030EEB40
:10159000430132F8020F888203F101035A2BF6D17E
:1015A0004FF0000323804BF2A05EC2F2000E4BF21C
:1015B0008C30C2F20000DEF800101BB2B0F900203F
:1015C00002EB820203EB420206EB4202B2F8382F32
:1015D00021F81320238803F101039BB223801AB260
:1015E000092AE8DD4BF27433C2F20003D3F800801D
:1015F0004FF0000213464FF02C0C4FF0010EC2EBDF
:10160000C20102EB8101414481F8BCC181F8BDE116
:1016100081F8BE3181F8BF3181F8C13181F8C23122
:1016200081F8C33181F8C43102F10102182AE6D1F0
:101630004FF0000323804BF2A450C2F20000026876
:101640001BB206EB4301B1F8D81F22F81310238810
:1016500003F101039BB223809AB2162AEFD94FF00F
:101660000002228042F2EC41C2F2000141F2F80392
:10167000C2F2000308E000BF6D250020695C002075
:10168000EC5E00206C010020086812B233F8F0EC28
:1016900020F832E0D1F800E0228810B24FEAC00012
:1016A000864453F8E4CC8EF806C033F8ECCCAEF8A0
:1016B00002C0D1F800E0704433F8E8ECA0F804E090
:1016C00002F1010292B2228010B21728DCDD4BF247
:1016D0008C33C2F20003B3F90030264A4FF49C71F8
:1016E00001FB032338464FF00002C2EBC201C2EBFC
:1016F000C1017118B1F997E1A3F806E0B1F999E1D8
:10170000A3F80AE0B1F993E1A3F804E0B1F9951167
:10171000198190F82210997090F8211003F80C1B91
:1017200002F1010200F137001A2ADED14BF27233C6
:10173000C2F200031A804BF28C33C2F200031A8803
:1017400002F1010292B21A8013B2072B7FF7D1AED9
:101750000FF0A2F84BF2A823C2F200034FF01902D7
:101760001A7042F26C53C2F200034FF050021A702A
:10177000BDE8F883335F002010B442F21C53C2F27C
:10178000000342F22451C2F200014FEA4002141851
:10179000096801EBC40101F1D60119604BF2B023D5
:1017A000C2F200034BF27431C2F20001096801EB8E
:1017B000C40119604BF2B833C2F200034BF204319A
:1017C000C2F2000109688A181A604BF2A423C2F21F
:1017D000000342F21452C2F200024FEAC0010C1A96
:1017E000126812191A604BF27853C2F200034BF2DE
:1017F000A052C2F20002126802EB400000F1140095
:10180000186042F2F043C2F2000342F2EC42C2F22C
:10181000000212685118196010BC7047F0B442F20F
:101820006C53C2F2000303F50442B2F96750D2F8D8
:1018300086406419C2F88640D2F88C104FF448767E
:1018400006FB01F644F6D350C1F2620080FB06713C
:101850004FEAE676C6EBA1164FF0C80101FB056121
:10186000C2F88C1080FB01204FEAE171C1EB9011AE
:10187000A3F83D1003F5A84303F14F031B889BB168
:1018800042F26C53C2F2000304EB44044FEA4404F6
:1018900044F6D352C1F2620282FB04724FEAE4744E
:1018A000C4EB9214A3F82F4042F26C53C2F200032F
:1018B000B3F93F0003F5044202F16902B2F90020D6
:1018C0004FF0C80101FB02F14FF4487202FB001215
:1018D00044F6D351C1F2620181FB02014FEAE27288
:1018E000C2EB9112A3F83F20F0BC7047184B1B8845
:1018F000C3B142F26C53C2F2000303F5044202F199
:101900008602126802EB42024FEA420244F6D351C9
:10191000C1F2620181FB02014FEAE272C2EB911255
:10192000A3F82F2042F26C53C2F2000303F50442E5
:10193000D2F88C2044F6D351C1F2620181FB02013E
:101940004FEAE272C2EB9112A3F83D20704700BF4C
:10195000BB790020B0F900308B42B8BF01807047DE
:10196000B0F900308B42C8BF018070472DE9F0010B
:1019700005464BF2B023C2F20003D3F800C04FF08B
:1019800000038CF816304BF27853C2F200031C6847
:10199000238833B34FF00003184642F26C57C2F26B
:1019A00000074FF064064FF0010806FB035202F5F2
:1019B000265202F1540207EB4202B2F807102288C5
:1019C000914209D108FA03F21043C0B29CF81620E4
:1019D00002F101028CF8162003F10103082BE4D177
:1019E00001E04FF00000BDE8F001704710B404467C
:1019F0004BF2B023C2F200031B6893F9131011F0ED
:101A0000010F0DD14FF00103D8B241FA03F212F0E9
:101A1000010F07D103F10103082BF5D1204601E0A6
:101A20004FF0000010BC704730B404464BF2B035A4
:101A3000C2F20005B5F90050854201DD884207D1A8
:101A400042F26A52C2F200024FF00003138012E029
:101A50008D4205DD42F26A51C2F200010A800AE0BD
:101A600042F26A50C2F200002D1B02FB05F20C1B71
:101A700092FBF4F20280184630BC704710B442F278
:101A80006C53C2F20003B3F9411001F00101A3F855
:101A9000411003F5B443B3F9CB00B42808D142F2A6
:101AA0006C53C2F200031A6C6FF317221A6475E0CC
:101AB00042F26C53C2F2000303F5B442B3F93F4063
:101AC000B2F94F309C4269DB42F26C53C2F2000320
:101AD00003F5044202F16B02B2F90020101800B2C3
:101AE00046F2B702CBF20B6282FB004212184FEAB9
:101AF000E074C4EB22224FF4B47404FB120080B2F1
:101B000042F26A52C2F20002108003F5BE4383F82B
:101B1000E41051B903B25F2B07DDB3F5847F04DC19
:101B20004FF001021E4B83F8E42042F26C53C2F2E4
:101B30000003B3F9413073B142F26A53C2F20003B9
:101B40001B88A3F155039BB2BE2B04D94FF00002B2
:101B5000134B83F8E42042F26C53C2F2000303F506
:101B6000BE4292F9E420B3F9413011469A4210D0B6
:101B70000B4A92F8E53003F10103DBB282F8E5305D
:101B80005BB2042B0ADD42F26C53C2F20003A3F8ED
:101B900041104FF00002024B83F8E52010BC704763
:101BA0006C84002010B582B004460DF0DBFD38B126
:101BB0004FF0010021460DF107020DF029FE14E05F
:101BC0009CB104F1FF34A4B24F2C0ED84FEAD402DA
:101BD0004BF29453C2F2000304F007044FF00101EA
:101BE00001FA04F4995C0C439C5402B010BD00BF90
:101BF00010B582B004460DF0B5FD38B14FF00000CD
:101C000021460DF107020DF003FE13E094B104F13B
:101C1000FF34A4B24FEAD4024BF29453C2F2000351
:101C200004F007044FF0010101FA04F4995C21EA81
:101C300004049C5402B010BD10B582B004460DF0EF
:101C400091FD28B120460DF107010DF08FFE17E040
:101C5000A4B104F1FF34A4B204F007034FF0010271
:101C600002FA03F24BF29453C2F200034FEAD40497
:101C70001B5D1A420CBF0020012001E04FF0000064
:101C800002B010BD70B582B016461D4642F26C53CC
:101C9000C2F200034FF0640202FB001101F526516D
:101CA00001F1540103EB4103B3F8074074B320463C
:101CB0000DF058FD50B1D6F1010038BF00202C19AD
:101CC000A1B20DF106020DF0A3FD1FE004F1FF34F7
:101CD0006519ADB24FEAD50305F007054FF00102D3
:101CE00002FA05F5ADB20A2B10D846B14BF2945268
:101CF000C2F20002D15C21EA0505D55406E04BF2A0
:101D00009452C2F20002D15C0D43D55402B070BDB2
:101D10004BF20033C2F200031B78012B05D14BF2CA
:101D20009053C2F200031B6818704BF20033C2F2EA
:101D300000031B78022B05D14BF29053C2F2000333
:101D40001B681860704700BF194B93F938304BB1CE
:101D5000034601E0232A04D013F8012B002AF9D10D
:101D600000E0184603780BB3232B1FD041F6A46282
:101D7000C2F2000292F830204BF2C031C2F20001F0
:101D80008B5402F10102D2B210F8013F33B941F68F
:101D9000A463C2F2000383F830207047232BEFD1F5
:101DA00041F6A463C2F2000383F83020704700BFFD
:101DB000EC5E00202DE9F04105460C4642F25A53F4
:101DC000C2F200031B7893B94BF29053C2F20003A6
:101DD000186041F6A463C2F2000393F8302083F840
:101DE000312083F8321001F00F0283F833200EF017
:101DF00053FDA4F10403412B00F2C983DFE813F083
:101E00000102A401C703C7038D02C703C703C703A9
:101E1000C703C703C7037803C703CD00C703010285
:101E2000FB003502C7035401C703C703C703C70339
:101E3000C703C703C703C703C7034200C703C703DA
:101E4000C7038D02C703C703C703C703C703C7037D
:101E5000C703C703C703C703C703C703C703C70332
:101E6000C703F602C703C703C703C703C703C703F4
:101E7000C703C703C703C703C703C703C703C70312
:101E8000C70337032C8841F6A463C2F2000393F81A
:101E900030104BF2C032C2F200024FF03D005054FD
:101EA00001F1010183F830100EF0F6FC42F25A53B2
:101EB000C2F200031B7863B942F2E243C2F20003AC
:101EC0001C8041F6A463C2F2000393F8302083F82B
:101ED00031202046FFF7B0FE88B141F6A463C2F27C
:101EE000000393F830104BF2C032C2F200024FF000
:101EF0003100505401F1010183F8301010E041F637
:101F0000A463C2F2000393F830104BF2C032C2F265
:101F100000024FF03000505401F1010183F83010FD
:101F200041F6A461C2F2000191F830204CF6CD4098
:101F3000CCF6CC40A0FB02324FEA121202EB820236
:101F40004FEA8202D2B24BF2C033C2F2000302F176
:101F50001A05EDB24FF05B065E5502F11B05EDB2BE
:101F6000A0FB04604FEAD00000F130065E5502F19C
:101F70001C05EDB200EB8000A4EB400404F130043A
:101F80005C5502F11D00C0B24FF05D041C5402F11B
:101F90001E0281F83020BDE8F08142F25A53C2F2AD
:101FA00000031B784BB94BF28253C2F200034BF291
:101FB0008C32C2F2000212881A702A784BF28C33EB
:101FC000C2F20003B3F900301A4241F6A463C2F230
:101FD000000393F830104BF2C032C2F2000214BF7B
:101FE00031203020505401F1010183F830100EF0FF
:101FF00053FCBDE8F081B5F90030002B15DA41F64D
:10200000A463C2F2000393F830104BF2C032C2F264
:1020100000024FF02D00505401F1010183F83010FF
:102020002988C1F1000189B200E0298801F1050188
:1020300089B24CF6CD46CCF6CC46A6FB01714FEAF0
:10204000D10141F6A464C2F2000494F830204BF2AE
:10205000C035C2F20005AA18A6FB01834FEAD303DC
:1020600003EB8300A1EB400101F13001D1709BB281
:10207000A6FB03C64FEAD60606EB8601A3EB410397
:1020800003F1300353700EF007FC94F8303006F182
:102090003006EE54ED184FF02E02AA7003F104033F
:1020A00084F83030BDE8F0812E8841F6A464C2F295
:1020B000000494F830504BF2C031C2F200014B19C9
:1020C0004CF6CD42CCF6CC42A2FB06704FEAD000D3
:1020D00000EB8007A6EB470606F130069E7186B23C
:1020E000A2FB06804FEAD00000EB8007A6EB470674
:1020F00006F130065E7186B2A2FB06C04FEAD00040
:1021000000EB8007A6EB470606F13006DE7080B2D2
:10211000A2FB00624FEAD20202EB8206A0EB46006D
:1021200000F13000987002F130024A554FF02E0253
:102130005A701A710EF0B0FB94F8303003F10703B7
:1021400084F83030BDE8F0812D8841F6A463C2F2F6
:10215000000393F830004BF2C032C2F200021318B1
:102160004CF6CD44CCF6CC44A4FB05714FEAD1012A
:1021700001EB8106A5EB460505F130051D718DB219
:10218000A4FB05814FEAD10101EB8106A5EB4605D1
:1021900005F13005DD7089B2A4FB01C44FEAD40417
:1021A00004EB8405A1EB450101F130015970A4B2A3
:1021B00004F1300111544FF02E029A700EF06CFBB6
:1021C000092C12D941F6A463C2F2000393F830201F
:1021D0004BF2C033C2F200034FF0210199549B1817
:1021E0004FF030025A70DA701A7141F6A463C2F2ED
:1021F000000393F8302002F1050283F83020BDE897
:10220000F081298814F00F0422D041F6A463C2F2B1
:10221000000393F8302002F1FF3223464BF2C03620
:10222000C2F20006B6184CF6CD45CCF6CC45A5FB5F
:1022300001024FEAD20202EB8200A1EB400101F160
:102240003001F15491B203F1FF33DBB2002BEED138
:1022500041F6A463C2F2000393F83020A41883F877
:1022600030400EF019FBBDE8F0812E8842F2E843C1
:10227000C2F200031B7813F0010F0DD04BF2C033F4
:10228000C2F2000341F6A462C2F2000292F83020CA
:102290009B184FF03A029A7041F6A463C2F2000311
:1022A00093F830104BF2C032C2F2000254184CF6D0
:1022B000CD40CCF6CC40A0FB06754FEAD50505EB2A
:1022C0008507A6EB470606F130062671AEB24AF640
:1022D000AB25CAF6AA25A5FB06854FEA950505EBB1
:1022E0004507A6EB470606F13006E670ADB2A0FB47
:1022F00005C04FEAD00000EB8006A5EB460505F1CE
:102300003005657000F13000505401F1050183F88B
:1023100030100EF0C1FABDE8F0812F8841F6A463B9
:10232000C2F2000393F830004BF2C031C2F2000158
:102330000A184FF02F0595705FFA87FE4CF6CD45D1
:10234000CCF6CC45A5FB0E864FEAD60606EB860CEE
:10235000AEEB4C0E0EF1300E82F801E006F13006C5
:102360000E544FEA1726A5FB06C14FEAD10101EB37
:102370008105A6EB450606F13006167101F1300124
:10238000D17000F1050083F830000EF085FA082CBA
:1023900040F0328141F6A463C2F2000393F830109A
:1023A0004BF2C032C2F200024FF02F00505442F202
:1023B0006C50C2F2000090F8474052184CF6CD40E5
:1023C000CCF6CC40A0FB04504FEAD00000EB8005D7
:1023D000A4EB450404F13004947000F13000507017
:1023E00001F1030183F83010BDE8F0812E8841F639
:1023F000A463C2F2000393F830404BF2C032C2F241
:10240000000211194FF02E00C8704CF6CD40CCF6EA
:10241000CC40A0FB06754FEAD50505EB8507A6EB7A
:10242000470606F130060E71AEB2A0FB06854FEAF4
:10243000D50505EB8507A6EB470606F130068E703D
:10244000ADB2A0FB05C04FEAD00000EB8006A5EBC3
:10245000460505F130054D7000F13000105504F1CE
:10246000050483F830400EF017FABDE8F0812E889D
:1024700041F6A463C2F2000393F830404BF2C0323D
:10248000C2F2000211194FF02E0048704CF6CD40F8
:10249000CCF6CC40A0FB06754FEAD50505EB8507C9
:1024A000A6EB470606F130060E71AEB2A0FB06851C
:1024B0004FEAD50505EB8507A6EB470606F1300682
:1024C000CE70ADB2A0FB05C04FEAD00000EB800695
:1024D000A5EB460505F130058D7000F13000105573
:1024E00004F1050483F830400EF0D6F9BDE8F08120
:1024F00041F6A463C2F2000393F8301001F1020325
:102500004BF2C032C2F200029B1802F112077F1890
:102510004CF6CD40CCF6CC404FF02D0615F8011B03
:10252000A0FB01424FEAD20202EB8204A1EB44017C
:1025300001F130011970D1B2A0FB01824FEAD20241
:1025400002EB8204A1EB440101F1300103F8011C0C
:1025500002F1300203F8022C5E7003F10403BB4267
:10256000DCD141F6A463C2F2000393F8302002F1FB
:102570000F02D2B283F830204BF2C033C2F2000314
:102580004FF0200199540EF087F9BDE8F0812A78C8
:1025900014F00F0427D041F6A463C2F2000393F8AD
:1025A00030C00CF1FF3C23464BF2C037C2F20007AB
:1025B0004CF6CD45CCF6CC45FE18D1B2A5FB01803A
:1025C0004FEAD00000EB8000A1EB400101F13001A7
:1025D00006F80C10A5FB02024FEAD20203F1FF330A
:1025E000DBB2002BE8D141F6A463C2F2000393F8FA
:1025F0003020A41883F83040BDE8F0812DE9F8437D
:1026000088464BF27431C2F2000100F1910709686B
:1026100001EBC70707F10404B4F9069019F10009AA
:1026200018BF4FF0010942F22451C2F200010968BB
:102630000C2894BF0B1801F10C0393F86E3059B2BB
:10264000012905DCB9F1000F02D1A3704FF0010997
:102650001046FEF75DFB4BF2B033C2F2000342F2CC
:102660002452C2F200021268B2F95820801A18806F
:1026700042F26C56C2F2000606F5B445B5F9AD005B
:10268000B5F9AF10B5F9B1204FF00003FFF7CCF961
:10269000B5F9651042F26A53C2F20003B3F90020A3
:1026A000891A06F50446B6F9652006F165061A8012
:1026B000B8F1000F04D0B8F1010F40F00981C0E07B
:1026C000B9F1000F47D1A94BB3F9000013B29842FA
:1026D000C4BF0123A370A54BB3F9003098B212B266
:1026E0001BB203F1C8039A4200DC10B94FF000039B
:1026F000A3709F4BB3F900309AB262B142F26C52B0
:10270000C2F20002B2F93D201BB29A420ADD4FF03C
:102710000003A37006E042F22053C2F200031B78CC
:1027200003B9A37042F22453C2F200031B681B7961
:1027300013F0080F1CBF0123A3708E4BB3F90030B8
:102740004BB142F26C53C2F20003B3F93D309942EF
:10275000BCBF0123A37094F9022094F903309A427C
:1027600015D04BF27433C2F200031B6893F8E724D0
:1027700022F0010283F8E7247F4AB2F90020E280C8
:1027800094F902201AB97D4A127C83F8F324A378C5
:10279000E3704BF27433C2F200031A6892F8F33418
:1027A00003F1FF33DBB282F8F3345BB2002B00F3AA
:1027B000DB804FF0000382F8F3344BF2B032C2F208
:1027C000000242F22455C2F20005296891F82C005B
:1027D00091F82D1040EA01211180684AB2F93300C6
:1027E000B2F93510B2F93720FFF71EF92B6893F8CC
:1027F0002E3013F0200F0BD042F26A53C2F20003C6
:102800005E4A92F8371092F8382041EA02221A8084
:102810004BF2A453C2F200031B68B3F9242042F226
:102820006A53C2F20003B3F90010554BB3F90030FC
:10283000CB1AD31894F9022002FB03F3BB80BDE846
:10284000F883B9F1000F2BD14E4BB3F9000013B24E
:102850009842C4BF0123A3704BF27433C2F2000349
:102860001B6893F98E3453B1464BB3F9003098B2DC
:1028700012B21BB203F1C8039A4200DC10B94FF048
:102880000003A3703B4BB3F900304BB142F26C53E1
:10289000C2F20003B3F93D309942BCBF0123A370DB
:1028A000A37894F903105AB2914203D0324AB2F994
:1028B0000020E280E3704BF2A452C2F200021268E0
:1028C000B2F926205BB202FB03F3BB80BDE8F883BC
:1028D000B9F1000F35D14BF28C33C2F200034FF047
:1028E0000001198042F24A53C2F200031980264BBC
:1028F000B3F9001013B29942C4BF0123A370224B55
:10290000B3F9003099B212B21BB203F1C8039A4274
:1029100000DC11B94FF00003A37042F26C53C2F215
:10292000000303F5B44202F17102B2F9002091B242
:10293000B3F93D3012B2934203DD11B14FF0000301
:10294000A370A37894F903105AB2914203D00A4AB3
:10295000B2F90020E280E3705BB203EB830303EB88
:1029600083034FEA8303BB80BDE8F883D57F002053
:10297000D37F0020D17F0020338000206C7F002097
:10298000A37F0020D97F0020D77F002010B5034609
:102990000A464BF27431C2F200010C684BF2A051AE
:1029A000C2F20001096800F1120001EB40018988C0
:1029B000E1B104EBC30404F5906404F10C04B4F930
:1029C000061001F1FF3189B2E18011F4004F05D109
:1029D0000748B0F9000009B2884203DA4FF000015D
:1029E000A171E17118461946FFF708FE10BD00BF3E
:1029F00033800020F0B44BF27433C2F200031C6841
:102A00004BF20433C2F2000300F10A021B6803EB2D
:102A1000420113F8123013F0010F40F0D98004EB9B
:102A2000C00303F5906303F10C03B3F90450AEB295
:102A30002AB2002A04DA4FF000021A715A7104E037
:102A40001EB105F1FF359D80C2E04F783D464BF247
:102A50008C32C2F200021780B3F9006042F26A526F
:102A6000C2F20002168070BB42F22452C2F200028F
:102A70001268B2F9D4C1CCEB06061FFA86FC1FFA25
:102A80008CF642F26A52C2F20002168094F8E724F1
:102A900012F0010F17D0CCEB0707BFB242F2F6439A
:102AA000C2F200031F8066B133B2642B09D03FB27B
:102AB000002FB8BF7F42474BB3F900309F4240F32D
:102AC00087804E7084E0444AB2F900402AB29442B2
:102AD00018DC424AB2F900202DB2AA4215DD404A64
:102AE000B2F98140E4B2B2F983209A8093F90220CE
:102AF000012A0CD158B93B4AB2F9002004FB02F478
:102B0000E4B204E04FF0000401E04FF000044BF2A7
:102B10008C32C2F20002314DB5F90050B2F90020FA
:102B2000954211DC2E4AB2F98740E4B2B2F989200D
:102B30009A8093F90220012A06D128B9294AB2F9CC
:102B4000002004FB02F4E4B24BF28C30C2F200002D
:102B500042F26A52C2F2000200881288801A80B2E1
:102B600042F2F642C2F20002108002B2002A07DDF1
:102B70004B781B1B4B705CBB4FF000034B7027E086
:102B800010F4004F20D04A78A2184A701CB9124A9B
:102B9000B2F900204A7042F26A52C2F20002128870
:102BA0004C78D0B2844213D393F9023083B14A7087
:102BB0004BF27433C2F200031B6893F8E72442F02F
:102BC000010283F8E72403E04FF000021A715A7102
:102BD000F0BC7047F77F0020EB7F0020F17F0020E2
:102BE0006C7F00204380002010B54BF20433C2F20A
:102BF00000031B6893F90D1093F90F208A18002A1F
:102C00000DDD4F4AB2F900204AB14BF27432C2F2E4
:102C1000000212684FF0010182F8BC1408E04BF288
:102C20007432C2F2000212684FF0000182F8BC1444
:102C300042F24A52C2F200024FF00001118042F209
:102C40002452C2F20002126892F96D1049B193F950
:102C50000D1093F90F30C9183A4BB3F9003099426F
:102C600009DD4BF27433C2F200031B684FF000021F
:102C700083F8762410BD4BF2B033C2F200034FF05C
:102C800000011980B2F90530D3B1FDF7ADFF42F272
:102C90002453C2F200031B68B3F90530C01A80B296
:102CA00082B24BF2B033C2F200031A8012F4004F2A
:102CB00006D04BF2B033C2F20003C0F1000018801E
:102CC00042F22453C2F200031A681F4BB3F90030DA
:102CD000A2F88A304BF2B033C2F200031888A2F88F
:102CE0008C004BF27433C2F200031B68B3F9CF14AB
:102CF0008CB224B101F1FF31A3F8CF1410BD93F9C8
:102D0000761449B1114AB2F90020A3F8CF244FF04C
:102D1000000283F8762410BDB2F98A1000B2814215
:102D200003DD92F96D20012A08D14FF0010283F8EA
:102D30007624074AB2F90020A3F8CF2410BD00BFC3
:102D40004F7F0020238000200F8000201380002070
:102D50001180002010B50446FDF7DAFF42F224533B
:102D6000C2F200031B68B3F958203E4BB3F90030A0
:102D7000D31A98420ADA4BF27433C2F200031B688A
:102D800093F8D12442F0010283F8D1242046FDF7C4
:102D9000BFFF42F22453C2F200031968B1F9582070
:102DA000314BB3F90030D318984203DC2D4BB3F903
:102DB000003053B94BF27433C2F200031B6893F82E
:102DC000D12422F0010283F8D12442F26C53C2F2E2
:102DD000000303F5B24202F1E302B2F9002090B21F
:102DE00003F5044303F16503B3F90030B1F95A1058
:102DF00012B28A1893420BDD50B14BF27433C2F217
:102E000000031B6893F8D12442F0020283F8D12416
:102E100042F26C53C2F2000303F5B24202F1E30244
:102E2000B2F9002090B203F50443B3F9651042F201
:102E30002453C2F200031B68B3F95A3012B29A1835
:102E4000A2F16402914200DB50B94BF27433C2F23A
:102E500000031B6893F8D12422F0020283F8D124E6
:102E600010BD00BF15800020178000202DE9F00361
:102E70004BF27433C2F200031D684BF2A053C2F24E
:102E800000031B6800F1080403EB44039B88002B3C
:102E900000F0158100EBC00404F585642C1904F1E1
:102EA00005074FEA40064BF20433C2F200031B68E9
:102EB00003EB060C13F8103013F0010F04D04FF0A1
:102EC000000363717B70FAE001B1C2B910280AD126
:102ED0004FF0000385F87E3485F87F34794BB3F9E1
:102EE0000030A5F800354FF0000363717B704BF2A2
:102EF0000432C2F20002126896197370DFE01028E3
:102F00003FD142F22453C2F200031B68C2EB010816
:102F10001FFA88F8A3F8B480B8F1000F05D14FF07C
:102F2000FF3883F8B48083F8B580C2EB0108664BA4
:102F300093F95A3018EB030F07D54FF0000385F8CB
:102F40007E3485F87F348CF801304BF27433C2F252
:102F500000031D68B5F900C51FFA8CF80FFA8CF351
:102F6000002B06DA4FF0000385F8003585F80135AF
:102F700007E0B8F1000F04D00CF1FF3CA5F800C544
:102F80009DE0891A42F2EC43C2F200031A6802EB98
:102F9000C003B3F9023003FB01F344F6D355C1F289
:102FA000620585FB03854FEAE373C3EBA515ADB25C
:102FB00042F2F643C2F200031D80B7F9003048F236
:102FC0001F5CC5F2EB1C8CFB038C4FEAE373C3EB75
:102FD0006C1C1FFA8CFC4BF2B033C2F20003A3F856
:102FE00000C042F26A53C2F200034FF06408A3F833
:102FF00000804BF2A453C2F200031B681B8D022B0E
:1030000007D142F26A53C2F200034FF0C808A3F896
:1030100000800FFA8CFC42F26A53C2F20003B3F84C
:1030200000802BB20FFA88F9C3EB0909CC4507DD04
:103030004BF2B033C2F20003C5EB08051D801FE060
:103040001CEB030F07D54BF2B033C2F20003C5F1FE
:1030500000051D8014E002EBC002B2F9043003FB4E
:1030600001F144F6D353C1F2620383FB01C34FEA7B
:10307000E171C1EBA313B7F90020D318A4F8053010
:103080004BF2B032C2F2000242F2F643C2F2000347
:1030900012881B88D21892B24BF27433C2F200032A
:1030A0001B68A3F87E2413B2642B4BF20433C2F2E4
:1030B00000031B681E44C6BF642373707270BDE8B2
:1030C000F0037047537F00206C7F002010B44BF258
:1030D0007433C2F200031A68B2F97E144BF2A4539F
:1030E000C2F200031B681B8D002B57D0102855D14E
:1030F00009B2022B08BF643900EBC000121802F5B8
:10310000846202F10D0221EAE1714BF2B033C2F2A6
:1031100000034FF00000188042F24A53C2F200034D
:1031200018801F4B93F95930938009B91071507171
:103130001B4890F9573090F95800181A01FB00F11C
:1031400048F21F50C5F2EB1080FB01404FEAE171DD
:10315000C1EB60115B1A9BB298B25080B2F90710B4
:103160008CB224B101F1FF31A2F8071016E092F9F8
:10317000061041B138B14FF00001917103F1FF33F6
:10318000A2F807300AE0B2F9043099B231B14FF039
:103190000101917103F1FF33A2F8073010BC7047B1
:1031A0006C7F002042F22453C2F200031B68B3F983
:1031B000622091B239B1B3F90E0083B233B100B2DB
:1031C00012B2801A70474FF0000070474FF00000B5
:1031D000704700BF42F21C53C2F200031B681A7C06
:1031E00042F001021A744BF2B023C2F200031B68D2
:1031F0004FF000029A731A725A72704710B5044663
:1032000042F21C53C2F200031A684BF2A453C2F2FA
:1032100000031B6833F910305380032813D142F2A6
:103220001C53C2F2000319684BF2A452C2F200020E
:103230001268B2F912008880B2F918200A801B685F
:10324000B3F90420DA8042F21C53C2F2000318687A
:10325000B0F904304BB94BF2B833C2F200031B682B
:1032600093F8303013F0010F03D0437C43F0040394
:10327000437400F1060042F22453C2F200031B68BB
:10328000B3F9583046F26761C6F2666181FB0321EB
:103290004FEAE373C3EBA10101F1140109B2FEF798
:1032A00059FB42F21C53C2F200031B68B3F902201F
:1032B000B3F9060011B28842C8BFDA80042C40F08E
:1032C0009E8042F22452C2F20002126892F82E103E
:1032D00011F0200F2BD1B2F92C204949B1F900107F
:1032E00014B208B2844222DA4BF2B030C2F20000CB
:1032F0000280444AB2F9000009B2B3F90220A2F1F7
:10330000FA024FF00003FEF78FFB42F21C53C2F2A9
:1033100000031B68B3F9021042F26A52C2F20002C3
:1033200012888A1ADA815A7C42F004025A74364BA7
:1033300093F8983013F0020F2FD04BF2B032C2F254
:10334000000242F26C53C2F2000303F50441496EDD
:1033500041F30F21118003F5B443B3F9110042F298
:103360001C54C2F200042268B2F90220B3F90730FB
:10337000D21A4FF4C8714FF00003FEF755FB2368D3
:10338000B3F9021042F26A52C2F2000212888A1A9B
:10339000DA815A7C42F004025A744BF27433C2F25E
:1033A00000031B6893F9F3343BB942F26C53C2F249
:1033B000000393F83630092B0BD142F21C53C2F2B2
:1033C00000031B685A7C42F004025A74B3F90220CD
:1033D000DA8142F21C54C2F20004236803F10E00A9
:1033E000B3F90610FEF7B6FA23685A7C12F0040F00
:1033F00005D14FF000029A73DA739A70DA7010BD3B
:103400006F7F00207F7F00206CA90020F0B583B083
:1034100042F22453C2F20003186890F8682053B2B5
:10342000012B09DD4BF27433C2F200031B6893F8E1
:10343000D13413F0020F21D052B1B0F96C31A0F8A1
:1034400068314FF0060380F8783180F8903105E05C
:1034500000F5B3704FF01801FDF764FB4BF27433C5
:10346000C2F200031B684FF0000283F8B02083F81B
:10347000B12083F8982083F89920B0E24FF001033F
:1034800080F8903180F87831FFF78CFE4BF2B03540
:10349000C2F20005288042F26C54C2F2000404F526
:1034A000B243B3F9F900B3F9FB1004F5B44696F949
:1034B00001204FF00003FEF7B7FA42F22453C2F2A4
:1034C0000003186800F5B67042F26A57C2F20007AE
:1034D000B7F90010FEF73EFA04F50444636E43F3B7
:1034E0000F232B80B6F95B00B6F95D1036F95F2F1C
:1034F000A2F57A724FF00003FEF796FA4BF274339E
:10350000C2F200031B68B6F900103A888A1AA3F8C1
:103510000A25B6F90020B2F57A7F07DA6FF01702B4
:1035200083F80A254FF0030283F80B254BF2A453CE
:10353000C2F200031B68B3F90C300193454AB2F99B
:103540000020934212DD444B93F9983073B142F25C
:103550002453C2F200031B684FF01A0283F8902133
:1035600083F878213B4BB3F9003001934BF2B0362E
:10357000C2F2000642F26C54C2F2000404F50443A5
:103580005B6E43F30F23338004F5B447B7F9530060
:1035900000F5FA714FF0C8024FF00003FEF744FA4D
:1035A00042F2F643C2F2000342F26A55C2F200054B
:1035B0002A881A8094F83F3094F8402043EA022386
:1035C0003380B7F94D10A1F5FA704FF064024FF057
:1035D0000003FEF729FA4BF27433C2F200031B68B2
:1035E0002A8893F9790411B2884207DA07F1510168
:1035F000B1F9001083F8F11483F8792493F8F124D9
:1036000051B200290ADD02F1FF3283F8F12442F2BF
:103610006A52C2F2000293F97934138042F2F643FF
:10362000C2F200031B881AB2642A17DD4BF2B032D3
:10363000C2F2000242F26A51C2F200010988C1F1ED
:103640006401118042F2F642C2F20002A3F1640367
:10365000138015E0C17F00206CA900204BF2B0322E
:10366000C2F2000242F26A51C2F2000109885B1AFA
:10367000138042F2F643C2F200034FF000021A80B8
:103680004BF2B034C2F2000420464FF00001FEF7C6
:1036900061F9BDF904102046FEF762F942F22453A5
:1036A000C2F200031B682288A3F868214BF2A453DE
:1036B000C2F200031B68B3F90E3002AD45F8043DB9
:1036C000FFF770FDC0F10000208042F26C54C2F29E
:1036D000000404F5B243B3F9FD00B3F9FF1004F59B
:1036E000B44494F902204FF00003FEF79DF942F232
:1036F0006A53C2F200031988C1F1640109B2284675
:10370000FEF72EF9B4F95530019A934205DA04F523
:10371000285292F9982002B101934BF2B032C2F2D2
:10372000000242F26C53C2F2000393F83F1093F888
:10373000400041EA0021118003F5B443B3F94B1076
:10374000A1F5FA704FF064024FF00003FEF76CF938
:103750004BF27433C2F200031B6842F26A52C2F2A7
:103760000002128893F9780411B2884206DD9D495F
:10377000B1F9001083F8F21483F8782493F8F22456
:1037800051B200290ADD02F1FF3283F8F22442F23D
:103790006A52C2F2000293F9783413804BF2B034CB
:1037A000C2F2000442F2F642C2F2000242F26A534E
:1037B000C2F2000312881B88D31A238020464FF0E0
:1037C0000001FEF7C7F8BDF904102046FEF7C8F85F
:1037D00042F22453C2F200031B682288A3F880211E
:1037E00093F9901113292BDC4BF27431C2F20001D2
:1037F0000968B1F9B00046F26764C6F2666484FBFA
:1038000000544FEAE070C0EBA40012B200B2824252
:1038100004BF092283F89021B1F9B02046F2676114
:10382000C6F2666181FB02014FEAE272C2EBA102BD
:10383000B3F9840112B2904204BF0A2283F89021A6
:1038400042F22453C2F200031B6893F97821132A31
:103850002CDC4BF27432C2F200021268B2F99810FA
:1038600046F26760C6F2666080FB01404FEAE17194
:10387000C1EBA001B3F9684109B28C4204BF092130
:1038800083F87811B2F9982046F26761C6F2666152
:1038900081FB02514FEAE272C2EBA102B3F96C0163
:1038A00012B2904204BF0A2283F878214BF274339B
:1038B000C2F200031B6842F26C52C2F20002B2F97B
:1038C000415029B201F1060202EB420003EBC000B5
:1038D00090F9130048B14BF20430C2F200000068C6
:1038E00010F8120010F0010F1CD04FF0000483F804
:1038F000B04083F8B14042F22450C2F200000068A8
:1039000080F8804180F8814180F8844180F88541C9
:1039100090F88E4144F0010480F88E414FF0150478
:1039200080F89041C1F1070101EB410003EBC000B9
:1039300090F9130060B12DB24BF20430C2F20000D6
:103940000068C5F1070510F8150010F0010F1CD034
:1039500042F22450C2F20000006890F8764144F030
:10396000010480F876414FF0000483F8984083F812
:10397000994080F8684180F8694180F86C4180F88E
:103980006D414FF0150480F8784142F22450C2F2A4
:1039900000000068B0F8504014F0010F05D04FF05F
:1039A0001E0480F8784180F89041C1EBC10401EB1E
:1039B0008401591891F8C01111F0080F1CBF1F2184
:1039C00080F87811C2EBC20102EB81029B1893F8D8
:1039D000C03113F0080F1CBF1F2380F8903103B0D3
:1039E000F0BD00BFBD7F00202DE9F041054642F249
:1039F0001C53C2F200031A684FF0000393744BF299
:103A0000B023C2F20003196891F913301BB9FFF714
:103A1000E1FBBDE8F0814BF27233C2F200034FF0DC
:103A200000001880B1F9143093812E464BF2A45354
:103A3000C2F200031B6833F915304BB94FF019037C
:103A400093744BF27233C2F200034FF001011980FC
:103A50004BF2B833C2F200031B6893F8301011F038
:103A6000010F0DD093F9313053B94FF01503937412
:103A70004BF27233C2F200031A8802F101021A807B
:103A80004BF27233C2F200031C881CB1FFF7A2FB99
:103A9000BDE8F08142F21C53C2F200031B68B3F987
:103AA0000C2052B94FF020029A741A7C42F00202A4
:103AB0001A74FFF78FFBBDE8F0812846FFF79EFBE5
:103AC0004BF27233C2F200034FF000021A8006EB91
:103AD00046064FEAC6064BF2B02CC2F2000C40F28A
:103AE0004E27644842F21C51C2F200014BF272337D
:103AF000C2F2000324B2DCF8002092F90F2007FB89
:103B0000026202F58C72A21812F800800A6802F8AC
:103B100004801C8804F10104A4B21C8022B2072A8C
:103B2000E8DD4BF2B023C2F200031A6842F26C5394
:103B3000C2F2000392F90F1005EB450040F22E543B
:103B400004FB01F101EBC0015B1803F5B443B3F9C9
:103B5000FD10118193F803319373B2F908303BB132
:103B600042F21C53C2F200031B684FF0010199742A
:103B700042F26C53C2F2000392F90F1005EB4505B7
:103B800040F24E2000FB01F101EBC5055B1993F8F3
:103B9000303113F0040F0BD042F21C53C2F2000379
:103BA0001B684FF002019974597C41F0040159746B
:103BB00042F21C53C2F200031B68B2F9081046F22D
:103BC0006760C6F2666080FB01404FEAE171C1EBBD
:103BD000A001B3F9024009B28C4204BF09219974D3
:103BE000B2F9082046F26761C6F2666181FB020104
:103BF0004FEAE272C2EBA102B3F9060012B29042A0
:103C000004BF0A229A74B3F90E2012B14FF00602D3
:103C10009A74B3F90610B3F90220A2F1640291423A
:103C2000C4BF18229A74B3F90C10B3F90220A2F1A0
:103C3000320291420ADA4BF2B832C2F20002126842
:103C400092F90120642A04BF14229A744BF2B8330B
:103C5000C2F200031B681B7813F0010F07D042F279
:103C60001C53C2F200031B684FF015029A74BDE8A2
:103C7000F08100BF7325002038B505464BF2B02314
:103C8000C2F200031C6894F90E3013B9A371E371FA
:103C900038BDB4F9083046F26762C6F2666282FB4C
:103CA00003124FEAE373C3EBA202B4F91410521AE1
:103CB00092B291B242F2F643C2F20003198002F1CD
:103CC00009039BB2082B04D902F1FF3292B2082AF1
:103CD0000CD842F2F643C2F200034FF000021A8001
:103CE0004BF2AC33C2F200031A6005E008B24BF2AB
:103CF000AC33C2F2000318604FF00003A371E3710C
:103D00004BF2B032C2F2000213804FF496704FF4BF
:103D10007A714FF06402FDF787FE42F21C53C2F243
:103D200000031A6842F26A53C2F200031B8813723E
:103D30001BB2502B12DD4BF27433C2F20003196830
:103D4000C5EBC50305EB8303CB1893F8C03113F023
:103D5000010F03D0537C43F0100353744BF2B03384
:103D6000C2F200031A88C2F100021A804FF4967062
:103D70004FF47A714FF064024FF00003FDF754FEE8
:103D800042F21C53C2F200031A6842F26A53C2F2B2
:103D900000031B88117A591811721BB2502B12DDC7
:103DA0004BF27433C2F200031B68C5EBC50105EB8F
:103DB00081055D1995F8C03113F0010F03D0537CD4
:103DC00043F01003537438BDF8B506464BF2B023E8
:103DD000C2F200031F6807EB40074BF2A423C2F2B4
:103DE00000031C6894F901504BF2B033C2F2000397
:103DF0001D80FFF7D7F92DB2C0F1000000B200FB23
:103E000005F544F6D351C1F2620181FB05314FEA59
:103E1000E575C5EBA11189B242F26A53C2F2000303
:103E2000198042F2F643C2F200034FF000021A80FA
:103E300042F21C53C2F200031A68B2F9003098B281
:103E4000E0B1B2F90E209B1A94F902004BF2B032A5
:103E5000C2F20002108042F2F642C2F2000200B248
:103E60001BB203FB00F348F21F50C5F2EB1080FBBE
:103E700003504FEAE373C3EB6013138094F900001F
:103E800042F2F642C2F20002B2F9003009B2C3189F
:103E90005B18012BB8BF0123C7F80230CEB94BF233
:103EA000A423C2F200031B6893F90010C1F164015E
:103EB000B2F90020891A42F26A53C2F20003B3F940
:103EC00000208B1AC7F80230002BDCBF0123C7F893
:103ED0000230F8BD70B54BF2B833C2F200031B6874
:103EE0001B7813F0010F08D042F21C53C2F20003FA
:103EF0001B685A7C42F002025A744BF2B023C2F2A1
:103F000000031A6842F26C53C2F2000392F90F40A8
:103F100040F2271505FB040403EB440393F93C42EC
:103F20004BF2B033C2F200031C8042F21C53C2F2C7
:103F300000031B68B3F90E60B3F90250AE420CDA0D
:103F40005D7C15F0020F08D192F90E202AB124B23F
:103F5000632CDCBF45F020055D744BF2B023C2F248
:103F600000031B6893F90E30002B40F089804BF260
:103F70007433C2F200031B68B3F99431002B40F391
:103F8000C380032800F2C08042F26C53C2F20003E7
:103F900003F5B442B3F93D00B2F91D30984219DA85
:103FA00042F22453C2F200031B68B3F95C0042F2F0
:103FB0006C53C2F2000303F5044202F16502B2F948
:103FC0000020821A03F5B44303F11F03B3F9003054
:103FD0009A422DDC0846FCF79BFE42F22453C2F2C3
:103FE00000031B68B3F95830C01A00283FDA4BF2BF
:103FF000A453C2F200031B68B3F91C3048F21F52ED
:10400000C5F2EB1282FB03124FEAE371C1EB6212BD
:104010004FF0640101FB12331BB2592B08DD4BF248
:104020007433C2F200031B6893F9D334002B1EDDF6
:1040300042F21C53C2F200031B685A7C42F0080291
:104040005A744BF2B023C2F200031B6893F9162096
:10405000012A0CD14BF27432C2F200021268B2F99A
:10406000A02122B9B3F9042002F164029A804BF234
:10407000B023C2F200031B6893F90E30002B43D02B
:1040800042F21C53C2F200031B68B3F90E10B3F9DD
:10409000062091420EDD5A7C12F0020F0AD14BF23B
:1040A000B031C2F20001B1F900100029C4BF42F0E2
:1040B00040025A7442F21C53C2F200031B685A7C3D
:1040C00012F0440F20D14BF2B021C2F20001096876
:1040D00091F91710C1B94BF27431C2F200010968AD
:1040E000B1F9941100290FDA4BF2B031C2F200019C
:1040F000B1F9001041B91A49B1F90010B1F5FA7FD0
:10410000C4BF42F008025A7442F21C53C2F20003C8
:104110001B685A7C12F0400F0BD04BF27431C2F284
:1041200000010968B1F994110029BCBF62F07F0257
:104130005A7442F21C53C2F200031B685A7C12F0FC
:10414000200F0BD04BF27431C2F200010968B1F9B3
:1041500094110029C4BF62F07F025A7470BD00BF81
:10416000D1A9002010B442F24A53C2F200034FF02A
:1041700000021A8042F21C53C2F200031B685A7CF0
:1041800012F0280F08D14BF2B022C2F200021268DE
:104190004FF00004147154715B7C13F0480F08D188
:1041A0004BF2B023C2F200031B684FF000029A707A
:1041B000DA7042F21C53C2F200031B685B7C13F0FE
:1041C000880F6FD013F0800F13D04BF2B023C2F2E0
:1041D00000031B6893F91630012B0AD14BF274339C
:1041E000C2F200031B6893F8022502F1010283F872
:1041F00002254BF2B023C2F200031A684BF274336B
:10420000C2F200031B6893F9033502EB4303B3F9D1
:1042100002300A689A4207DA0B604BF27433C2F23A
:1042200000031B6883F86F044BF2B023C2F2000353
:104230001A684BF27433C2F200031B6893F903351A
:1042400002EB4303B3F902304A689A4209DA42F2B8
:104250001C52C2F200021268527C12F0080F08BF12
:104260004B604BF2B023C2F200031A684BF2743376
:10427000C2F200031B6893F9033502EB4303B3F961
:104280000230886898420DDA92F91620012A09D185
:1042900042F21C52C2F200021268527C12F0080F65
:1042A00008BF8B6010BC70474BF27433C2F200033E
:1042B0001B68B3F99E212AB342F21C52C2F20002DB
:1042C0001268127C12F0400F1FD04FF0000283F8EA
:1042D000D224B3F99401B3F99E3190FBF3F04FF07F
:1042E000320303FB00F04BF2A423C2F200031B686D
:1042F00093F9043090FBF3F042F2D843C2F200038A
:10430000186070474FF0000070474FF00000704792
:104310004BF27433C2F200031968B1F9A02193B2D1
:1043200003B342F21C53C2F200031B6893F910302E
:10433000002B1ADAB1F9940112B290FBF2F24FF0AD
:10434000320000FB02F04BF2A423C2F200031B6810
:1043500093F9043090FBF3F042F2D843C2F2000329
:10436000186070474FF0000070474FF00000704732
:104370004BF27433C2F200031B68B3F992214FF081
:10438000640000FB02F248F21F50C5F2EB1080FB04
:1043900002104FEAE272C2EB2010C0EB00104FEAAD
:1043A0004000B3F90A3590FBF3F042F2D843C2F271
:1043B00000031860704700BF4BF27432C2F2000273
:1043C0001368B3F90A3500FB03F048F68903C8F611
:1043D000880383FB00131B184FEAE070C0EB231027
:1043E0004FF0320303FB00F342F2D842C2F2000264
:1043F000136048F21F52C5F2EB1282FB03124FEA20
:10440000E373C3EB621070472DE9F04F83B0019066
:1044100042F22453C2F200031B68B3F984210092D4
:10442000B3F96C91B3F98071B3F968414BF274330D
:10443000C2F20003D3F80080D8F89A2092B24BF26F
:10444000B033C2F200031A8012F4004F06D04BF2D0
:10445000B033C2F200034FF000021A804BF2B033C7
:10446000C2F20003B3F800E0884890F840201146FB
:1044700090F83F00C2EB0E0505FB00F5ADB21D80C4
:1044800015F4004F06D04BF2B033C2F200034FF0E8
:1044900000051D804BF2B033C2F200031D880FFAF5
:1044A00085FC7A4B93F842309E1AB44507DC0FFA2C
:1044B0008EF6B242D4BF0CEB0206664400E01E4604
:1044C000DFF8C8E19EF841E04D19ED1A2DB20EFB60
:1044D00005F595FBF0F5ADB24BF2B031C2F200013B
:1044E0000D8015F4004F06D04BF2B031C2F200013E
:1044F0004FF000050D804BF2B031C2F200010D8883
:104500000FFA85FC614991F84410C3EB010AD445C8
:10451000D4BF66440E46DFF874C19CF843C05D19F1
:104520006D1A2DB20CFB05F595FBFEF5ADB24BF205
:10453000B03AC2F2000AAAF8005015F4004F04D0B5
:1045400055464FF0000AA5F800A04BF2B03AC2F26F
:10455000000ABAF90050AE194C4D95F90F50AAF85F
:1045600000500FFA85FA564508DBCAEB060606EB43
:10457000D6764FEA66050AEB050601E04FF0000526
:10458000A642C4BFC4EB060A5544BD42C4BFC7EB34
:10459000050A564407EB040AC1EB0A0B9BFBFCFC23
:1045A000BCF1000FBCBF51464FF0000CC91A91FB83
:1045B000FEF111EB0C0C44BF53464FF0000C9B1A5C
:1045C00093FBF0F010EB0C0044BF52460020801823
:1045D000FFF7F2FEA8F8A201009B9D42B8BF1D465E
:1045E0004E45B8BF4E46A642A8BF2646BD42A8BF0C
:1045F0003D460198FCF7F8FA42F22453C2F2000358
:104600001A68B2F95A30C01A80B24BF2B033C2F213
:1046100000031880B44204D1AF4202D103B2002B90
:1046200007DCB14511D1009BAB420ED110F4004F15
:104630000BD04BF27433C2F200031B6893F8D3140F
:1046400001F1010183F8D31408E04BF27433C2F294
:1046500000031B684FF0000183F8D3144BF274334E
:10466000C2F200031B6893F9D3141429C4BF1421A8
:1046700083F8D314A3F89860A3F8B050A2F874613B
:10468000A2F88C5103B0BDE8F08F00BF6C7F002012
:104690004BF2A423C2F200031B6893F9043000FB21
:1046A00003F048F21F53C5F2EB1383FB00234FEADC
:1046B000E070C0EB23107047F8B54FF000030B60BB
:1046C00042F21C53C2F200031D686B7C13F0040F0E
:1046D00007D04BF2B023C2F200031B684FF0010277
:1046E0009A734BF2B023C2F200031C6894F90E30A7
:1046F00023B923726372AB73EB73F8BD94F9123074
:10470000002B40F097804BF27433C2F200031B6819
:10471000B3F99401B4F90610FCF748FD00283BD129
:104720006B7C13F0100F37D0B4F90870B4F9143063
:10473000284620F80E3FB5F90610FDF70BF942F2B6
:104740001C54C2F20004236803F10E00B3F90210F6
:10475000FDF706F92368B3F90E6006EB86064FEA0B
:1047600046064BF2B023C2F200031C684FF0000370
:10477000A371E3714BF27433C2F200031D68B81BDE
:10478000FFF786FFD5F88E316FF0630202FB003031
:10479000C5F88E012681F8BDB4F908303BB9B4F9EB
:1047A000003019B241F287329142D8BF23814BF2D7
:1047B000B023C2F200031B68D3F80A20B3F9080043
:1047C000801880B2188142F21C52C2F200021268B4
:1047D00000B246F26761C6F2666181FB00414FEAB2
:1047E000E070C0EBA10189B2D181B2F9060009B233
:1047F000814204DC00EB80004FEA40001881B2F9EE
:104800000210B2F90E00884204DB01EB81014FEA8D
:1048100041011981B3F9081046F26760C6F266607B
:1048200080FB01404FEAE171C1EB9001D181B3F906
:1048300008201A80F8BD00BF2DE9F8434BF28C33F5
:10484000C2F200034FF000061E8030464BF2B02744
:10485000C2F2000741F2873942F22455C2F2000544
:104860001C46C0B2FCF788FF3B68B3F9080082B26F
:1048700042B100B2FFF70CFF2B68B3F95830C01AF1
:10488000361814E0B3F9000003B24B450FDC2B6877
:10489000B3F9588002B20FFA88F39A4207DD104646
:1048A000FFF7F6FE0FFA88F8C8EB000036182088EC
:1048B00000F1010080B2208003B2032BD1DD30462D
:1048C000BDE8F8832DE9F04F85B04FF000054BF2BD
:1048D0007438C2F200082E4642F22457C2F2000792
:1048E0004BF28C34C2F200042846FCF76FFCD8F877
:1048F000003083F80365B3F99421002AC4BF012274
:1049000083F803253B68B3F958309BB126803046C5
:10491000C0B2FCF731FF0BF0BFFF2078FFF764F85F
:10492000208800F1010080B2208003B2052BEFDD6A
:10493000FEF76CFD05F10105EDB2082DD4D14FF065
:1049400000084BF27436C2F2000642F26C5AC2F210
:10495000000A4BF28C34C2F200045FFA88F9484630
:10496000FCF734FC4FF00005039502950195336880
:104970004FF0FF0283F86F240BF08EFF336883F84B
:10498000025540F24E2303FB08A3B3F9A130002BDC
:1049900000F0DA80284625804BF2B025C2F20005EF
:1049A00042F21C57C2F20007C0B2FCF7E5FE2078C5
:1049B000FFF762F92B684FF000029A740BF06CFF5E
:1049C0003B681A7C12F0010F43D1B3F90E2062B19B
:1049D0002A684FF0010191739174B3F90E3003EB23
:1049E000830303FA01F3138133E02A68B2F9082044
:1049F00046F26761C6F2666181FB02014FEAE2722C
:104A0000C2EB9102DA810BF047FF4FF00000FFF795
:104A1000DBF94FF00100FFF7D7F90BF03DFF2078ED
:104A20004946FFF757FA207801A9FFF79BFB336847
:104A30002A6893F9031502EB4102B2F902103A68B1
:104A40005181BDF80820A3F87024BDF80C20A3F80C
:104A50007224208800F1010080B2208003B2052B6F
:104A6000A2DD3368B3F90C2542F22453C2F20003ED
:104A70001B68A3F866213568FFF77AFCC5F89A0031
:104A80004846FFF7C1FC33684FF0000083F89E01F1
:104A900083F89F0183F8A00183F8A101208042F2EE
:104AA0001C57C2F200074BF2B025C2F20005C0B29B
:104AB000FCF762FE3B681A7C12F0010F3CD13168B2
:104AC000B1F970041FFA80FCD5F800E091F9039564
:104AD0000EEB490EBEF902E000B286450BDBBCF1DD
:104AE000000F08D042F040021A74B1F99E3103F170
:104AF0000103A1F89E3129683368B3F972241FFAC3
:104B000082FE93F9030501EB4000B0F9020012B2F6
:104B1000904211DBBEF1000F0ED091F91620012A50
:104B20000AD13A68117C61F07F011174B3F9A021B8
:104B300002F10102A3F8A021208800F1010080B257
:104B4000208003B2052BB2DD08F10108B8F1080F8F
:104B50007FF403AF42F26C53C2F2000303F5044248
:104B6000B3F9413082F88A304FF0000442F2245504
:104B7000C2F200054BF27438C2F2000842F26C59DE
:104B8000C2F200092046FCF721FB2B68B3F958203C
:104B9000002A00F0B880D8F8002092F86F1411F0C5
:104BA000800F40F0B08049B201EB410003EBC00040
:104BB00090F8E70010F0080F00F0A58001EB41012C
:104BC00003EBC10393F8E63013F0080F40F09B802D
:104BD0004BF27231C2F200014FF000030B8082F8F9
:104BE0009E3182F89F3182F8A03182F8A131B2F96A
:104BF0009431002B3ADA4FF000073E460BF04CFEA2
:104C0000D8F8002092F96F3403EB430102EBC101A5
:104C100091F9131041FA06F111F0010F1ED003EBC8
:104C2000430340F24E2101FB06F101EBC3034B4469
:104C300093F8303113F0080F10D107EB090303F597
:104C4000BE4393F9F73013B192F9023533B14BF209
:104C50007233C2F200034FF001021A8006F101061E
:104C600007F5A46707F10E07082EC7D14BF2723380
:104C7000C2F20003B3F90030002B44D1D8F8001081
:104C800040F22E5E4FF0140740F24E2691F96F2449
:104C900002EB420001EBC00090F9130040FA03F070
:104CA00010F0010F2BD04FEA420C0CEB020A0EFB66
:104CB00003F000EBCA0ACA440AF5B44A624401EBA5
:104CC000C202927BC2F101028AF8032191F96F249A
:104CD00002EB420200EBC2024A4402F5B6421773ED
:104CE00091F96F2402EB420206FB03F000EBC202D3
:104CF0004A4492F82F0140F0080082F82F0103F196
:104D00000103082BC2D104F10104E4B2082C7FF4A2
:104D100039AF0BF0C1FD4BF28C33C2F200034FF000
:104D200000021A801E464BF27439C2F20009C5E037
:104D30000BF0B2FD2046FCF749FA3078FCF71CFD79
:104D4000D9F800304FF0000283F8F42483F8F524FA
:104D500083F8F62483F8F7243A68127C12F0010FE6
:104D60001AD14BF2B022C2F200021268917D83F890
:104D70000F1592F90F2042F26C53C2F2000340F279
:104D80002E5808FB023808F5BE48D8F8E950FFF75E
:104D90008BFA2D18C8F8E95004F10104E4B2082C8C
:104DA000C6D14FF0000442F21C55C2F200054BF28E
:104DB000B0282046FCF70AFA3078FCF7DDFC2B68B7
:104DC0001B7C13F0010F6CD14346C2F200031B6839
:104DD00093F91620012A64D093F90F2042F26C5304
:104DE000C2F2000340F22E5101FB023303F5BE4331
:104DF000D3F8E91093F904214BF20233C2F2000315
:104E00001A8042F2D843C2F2000312B291FBF2F2CE
:104E10001A600BF041FDD9F80070B7F994A1D346A0
:104E200097F9023553B142F2D843C2F20003186831
:104E3000FFF72EFCC0EB0A0AA7F894A1B7F994116A
:104E40005846FCF7B3F928B94FF0000387F89431BE
:104E500087F895314346C2F200031A6842F2D843FC
:104E6000C2F200031B68C2F80A3030784BF2B0314E
:104E7000C2F20001FFF720FC0BF00EFD42F22453BA
:104E8000C2F200031B682A68B2F90E20B3F9DE01F2
:104E900011B2884205DAB6F900100529D8BFA3F887
:104EA000DE2104F10104E4B2082C82D1338803F13D
:104EB00001039BB233801BB2052B06DC4FF00004CC
:104EC00042F21C57C2F2000732E70BF0E5FC4FF04C
:104ED00000084BF28C34C2F20004C14642F21C5569
:104EE000C2F200054BF2743AC2F2000A4046FCF7E7
:104EF0006DF9A4F8009048464BF2B027C2F20007C3
:104F0000C0B2FCF739FC0BF0C7FC2B681B7C13F01C
:104F1000010F22D13E6896F91630012B1DD1FFF703
:104F2000F7F9C6F80A0020784BF2B031C2F200015E
:104F3000FFF7C2FB42F22453C2F200031B682A6847
:104F4000B2F90E20B3F9DE0111B2884205DAB4F9E4
:104F500000100529D8BFA3F8DE21208800F1010048
:104F600080B2208003B2052BCADDDAF8003093F955
:104F7000022552B993F8D22402F10102D2B283F889
:104F8000D22452B2142A03DC08E083F8D29405E05C
:104F9000DAF800304FF0140283F8D22408F1010847
:104FA0005FFA88F8B8F1080FA0D105B0BDE8F08F1E
:104FB00070B54FF000044BF27435C2F2000542F2B6
:104FC0002456C2F200062046FCF700F92B68B3F91C
:104FD0008C3423B13368B3F9D421A3F888204FF07F
:104FE0000000FDF707FD4FF00100FDF703FD4FF056
:104FF0000200FDF7FFFC4FF00300FDF7FBFC4FF054
:105000000400FDF7F7FC4FF00500FDF7F3FC04F199
:105010000104E4B2082CD6D170BD00BF2DE9F04FD9
:1050200085B042F26C53C2F20003B3F94130DBB2F7
:10503000C3F107028DF80C2003F106038DF80D3043
:105040004FF0000101914BF28C34C2F2000442F2A5
:105050004A5BC2F2000B019BD8B2FCF7B7F84FF0E5
:105060000602228042F22455C2F2000542F21C5789
:10507000C2F200074BF27436C2F200064BF2B028BF
:10508000C2F2000840F2271ADDF804C00AFB0CFA4D
:10509000A2F106039BB2ABF8003012B202EB42025F
:1050A000296801EBC20202F1D6023A601BB204A9E0
:1050B000CB1813F8043C03EB4300316801EBC0004C
:1050C000C8F80000534403F58E7342F26C5CC2F2E0
:1050D000000C0CEB430303F103014BF2B83CC2F2AA
:1050E000000CCCF80010B0F910C01FFA8CF9B9F11F
:1050F000000F08D00CF1FF3C20F810CF4FF000015A
:10510000FCF728FC0EE0B2F90E001FFA80FC42F218
:10511000F642C2F200021080DB7813F0010F08BFE4
:1051200081F801C0228802F1010292B2228013B2FA
:10513000072BADDD019901F10101019108298AD107
:1051400005B0BDE8F08F00BF2DE9F0414BF28C3384
:10515000C2F200034FF0000018804BF2B835C2F2E3
:1051600000054BF2B026C2F200064FF014074FF0D4
:1051700028081C46C0B2FCF7FFFA2B685B7803F1E5
:10518000FF33DBB2622B08D83368DF75B3F9082030
:10519000B2F57A6FC8BF83F817803368DA7D51B2F1
:1051A0000029CCBF02F1FF320022DA75208800F11D
:1051B000010080B2208003B2052BDBDDBDE8F08169
:1051C000F8B504464BF2A453C2F200031B685B8D92
:1051D000002B00F00B8142F22453C2F200031E6840
:1051E0004BF27433C2F200031F68B7F97434A6F8A7
:1051F0008E307F4B93F83700C8B14FF000031A464A
:1052000042F26C55C2F20005A24207D0591901F5CD
:10521000BF4191F90010002940F0E88002F101023D
:10522000D2B203F5A46303F10E038242ECD1B6F9C6
:105230006930002B00F0DA80B7F98834B3F5B46F29
:10524000BCBF0133A7F8883442F2F643C2F2000330
:105250004FF000021A80B6F90E20B6F9623098B20B
:1052600011B21BB2CB1A6349B1F900108B4203DCB7
:1052700012B2B2F5165F02DD002840F0B780B6F931
:1052800058502046FBF744FD2D1A5B4BB3F9003014
:105290009D4200F3AB802046FBF73AFD42F22453D7
:1052A000C2F200031B68B3F95820811A534AB2F9BD
:1052B000002091420FDAB3F90E2091B2B3F96230B7
:1052C00012B29A1A4E4BB3F900309A42C0F28E8055
:1052D000002900F08B802046FBF71AFD4BF2B03717
:1052E000C2F2000742F22456C2F200063368B3F954
:1052F0005830C31A3B80434CB4F98D00B4F9911077
:10530000254635F98F2FB4F99330D21A4FF00003A8
:10531000FCF78AFB42F2F643C2F20003B5F9001033
:1053200042F26A55C2F200052A888A1A1A80336846
:10533000B3F96220B3F90E30D31A3B80B4F9970069
:10534000B4F99B10274637F9992FB4F99D30D21A3A
:105350004FF00003FCF768FBB7F900202B88D31A45
:105360009BB22B803268B2F90E1081B1B2F9622083
:105370006AB142F2F642C2F20002B2F900101AB269
:10538000914204DD42F2F642C2F2000213804BF277
:105390007433C2F200031A6842F2F643C2F2000309
:1053A000B2F98814B3F9003099421FDB42F250532E
:1053B000C2F200031B7813F0020F17D14FF0010364
:1053C00082F88B3442F22453C2F200031B68B3F913
:1053D0006910B2F97434CB18A2F874344FF000039A
:1053E00082F8883482F8893482F88A34F8BD00BFA4
:1053F000EC5E00200B80002001800020F97F00205F
:10540000038000206C7F002010B44BF20433C2F202
:1054100000031B6893F8422012F0010F40F09D80BA
:105420004FF0000283F8432093F8442012F0010F5C
:1054300040F093804FF0000283F845204BF2A452D5
:10544000C2F200021268528D042A94BFD0B2042026
:105450004BF27432C2F20002116891F98B2402F10E
:10546000FF32032A79D8DFE802F040022A5B91F983
:105470008A444FF00302C8F200022240002A05DAF3
:1054800002F1FF3262F0030202F1010252B24FF068
:10549000010404FA02F292B242F2F644C2F20004AB
:1054A000228083F84520B1F9FA3443B942F22453FB
:1054B000C2F200031B68B3F96930A1F8FA344BF269
:1054C0007433C2F200031B68B3F9FA246AB94FF0CF
:1054D000060283F8FA244FF0000283F8FB2493F8C5
:1054E0008A2402F1010283F88A244BF20433C2F2C7
:1054F00000031B684FF0010283F843204BF2743322
:10550000C2F200031B68B3F9FA148AB26AB94FF009
:10551000050283F8FA244FF0000283F8FB241CE014
:105520004FF0000381F88B3417E001F1FF3189B2AD
:10553000A3F8FA1489B993F88B2451B2032908D13E
:1055400093F98A14814204DA4FF0020283F88B2423
:1055500003E002F1010283F88B2410BC704700BF06
:1055600010B404283ED8DFE800F03E0308202500F0
:105570008B4237DB591A09B235E05A18B2F5B46FCD
:1055800010DD46F2B703CBF20B6383FB02018918EF
:105590004FEAE270C0EBA1214FF4B46303FB112189
:1055A00009B220E0591809B21DE091421ADC511AE3
:1055B00009B218E05318B3F5B46F10DD46F2B70224
:1055C000CBF20B6282FB0341C9184FEAE370C0EBD8
:1055D000A1214FF4B46202FB113109B203E051186A
:1055E00009B200E000E0084610BC704710B422B1D8
:1055F00001B110B900FB03F01EE0091A89B242F2B2
:105600006A52C2F20002118042F2F642C2F2000275
:1056100014884BF2B032C2F20002128812B900FBB9
:1056200003F009E009B224B201FB04F112B291FBCC
:10563000F2F2801803FB00F010BC70472DE9F04F28
:105640008BB009908B4642F26C51C2F2000140F2DD
:105650004E2303FB021202F1490242F22453C2F22A
:1056600000031A604FF0000382F8563082F857307A
:1056700042F26A50C2F20000B1F84320099CA2181D
:1056800012B246F2B701CBF20B6181FB02418918DD
:105690004FEAE274C4EBA1244FF4B46101FB14227D
:1056A00002801C4606930591009101934FF0FF0084
:1056B0000290049042F26C56C2F200064BF2C048CF
:1056C000C2F2000842F20659C2F200094BF2AA2ABD
:1056D000C2F2000A42F26A53C2F200030393E7B235
:1056E0004FF0320303FB046303F5884303F10B031C
:1056F000C8F80030D878B3F90110B9F90020BAF928
:105700000030FFF72DFF05460BF0C6F82DB34FF024
:10571000320303FB046303F58843DA7A0BF10103D8
:105720009A421AD100998D42BCBF00950797019A01
:105730009542C4BF019508970BF0AEF80398B0F9F5
:105740000030AB4204DC05998D42C0F2658104E073
:10575000069A9542C4BF0695029704F10104282CCD
:10576000BDD1029B009CB4F5B46F00F05881049C3D
:1057700062B2079834EA220428BF044604945BB25C
:10578000029C089834EA230428BF0446029464B2B9
:105790004FF0320342F26C56C2F2000603FB04647F
:1057A00004F5884404F10B0404994DB203FB05632E
:1057B00003F5884505F10B050BF06EF842F2065231
:1057C000C2F200024BF2AA23C2F20003E078B4F95D
:1057D0000110B2F90070B3F900803A464346FFF772
:1057E000BFFE81464BF2C043C2F200031D60E87861
:1057F000B5F901103A464346FFF7B2FE1FFA89F9A0
:1058000042F2F643C2F20003B6F84320C9EB0202AB
:105810001A804BF2B036C2F20006C9EB0009A6F8B6
:1058200000900BF039F8338813F4004F02D003F5E1
:10583000B463338042F2F643C2F200031B8813F4D0
:10584000004F06D042F2F642C2F2000203F5B46302
:105850001380099A62B342F22453C2F200031E6815
:10586000B4F80500B5F805104FF001021346FFF734
:10587000BDFEA6F85C00B4F8070018B9B4F805003E
:1058800000F1640042F22456C2F200063768B5F80F
:1058900007104FF001021346FFF7A8FEA7F85E00BD
:1058A0003368A27E83F87120E27E83F87220B6E02E
:1058B0000AF0F2FF42F22453C2F200031E68B4F869
:1058C0000500B5F805104FF001021346FFF78EFEF4
:1058D000A6F85600B4F8070018B9B4F8050000F1AE
:1058E000640042F22456C2F200063768B5F8071089
:1058F0004FF001021346FFF779FEA7F85A00376808
:10590000A38AA7F86930607F697F4FF001024FF0EA
:105910006403FFF76BFEA7F860003768B4F809006E
:10592000B5F809104FF001021346FFF75FFEA7F824
:1059300064003768207C297C4FF001024FF00A0395
:10594000FFF754FEA7F8DA003768607C697C4FF0F7
:1059500001024FF00A03FFF749FEA7F8F20037688B
:10596000207F297F4FF001024FF00A03FFF73EFE30
:10597000A7F80A013768E07BE97B4FF001024FF09E
:105980000A03FFF733FEA7F83A013768E07AE97AAD
:105990004FF001024FF00A03FFF728FEA7F8D600E8
:1059A0003768207B297B4FF001024FF00A03FFF795
:1059B0001DFEA7F8EE003768A07CA97C4FF000021E
:1059C0004FF00103FFF712FEA7F86A013768E37C86
:1059D00087F86830A37D87F86E30E37D87F86F30F5
:1059E000237E87F87030637E87F86D30607B697B3B
:1059F0004FF001024FF00A03FFF7F8FDA7F814017A
:105A00003668A07BA97B4FF001024FF00A03FFF735
:105A1000EDFDA6F82C0102E0059504979DE60BB07C
:105A2000BDE8F08FF8B54BF2B032C2F2000242F29C
:105A30006C53C2F20003D96B41F30F21118042F283
:105A40002454C2F200042268B2F95610A2F8581089
:105A500003F5B243B3F9DB00B3F9DD10B3F9DF208E
:105A60004FF00403FBF7E0FF80B242F2F643C2F2CC
:105A700000031880236893F85520104383F85500DD
:105A80000AF00AFF236842F26A52C2F20002128848
:105A9000B3F958105118A3F85810B3F95C10521804
:105AA000A3F85C20B3F95A20F2B10E4BB3F9DB0036
:105AB000B3F9DD10B3F9E1204FF00003FBF7B4FFB9
:105AC000236842F26A52C2F200021288B3F95A10F5
:105AD0005118A3F85A10B3F95E105218A3F85E20BB
