:020000040800F2
:10000000C4FF0020B1F300080DF400080DF400084F
:100010000DF400080DF400080DF4000800000000C5
:100020000000000000000000000000000DF40008C7
:100030000DF40008000000000DF400080DF40008A5
:100040000DF400080DF400080DF40008599F000895
:100050000DF400080DF400080DF400080DF400087C
:100060000DF400080DF400080DF400080DF400086C
:100070000DF400080DF400080DF400080DF400085C
:100080000DF400080DF400080DF400080DF400084C
:100090000DF400080DF400080DF40008A9CE0008C6
:1000A0000DF400080DF400080DF400080DF400082C
:1000B000699E0008D19F00080DF400080DF40008A7
:1000C0000DF400080DF400080DF400080DF400080C
:1000D0000DF4000889EC00080DF400080DF4000888
:1000E0000DF400080DF400080DF4000800000000F5
:1000F0000000000000000000000000000000000000
:1001000000000000000000000DF400080DF40008DD
:1001100045F800080DF400080DF400080DF400087F
:100120000DF400080DF400080DF400080DF40008AB
:100130000DF400080DF400080DF400080DF400089B
:100140000DF400080DF400080DF400080DF400088B
:100150005FF808F141B14FF42053C4F200031A884C
:1001600092B21043188070474FF42053C4F200033A
:100170001A8892B222EA0000188070474FF4205388
:10018000C4F200039A8892B242F010029A8070473B
:100190004FF42052C4F20002938823F010034FEA78
:1001A00003434FEA13439380704700BF4FF420533B
:1001B000C4F20003988B80B21B8B40EA0340704767
:1001C00010B50446FFF7DAFF4FEA14424FF420530C
:1001D000C4F200031A83A4B29C83FFF7D9FF10BDB9
:1001E00010B50446FFF7CAFFC4F303424FF420538F
:1001F000C4F200031A81A4B29C81FFF7C9FF10BDAD
:100200004FF42052C4F20002938813F0200FFBD069
:10021000704700BF4FF42052C4F20002938823F0CD
:1002200008034FEA03434FEA134393804FF42052ED
:10023000C4F20002938813F0080FFBD0704700BF90
:100240004FF42053C4F200039A8892B21B881842DC
:1002500006D0024012F0FF0F0CBF002001207047B3
:100260004FF00000704700BF4FF42053C4F200036A
:100270009A8892B222EA0000988070478378A3F1AE
:100280000302D2B2072A11D80279C178891A182933
:1002900008DD12B94279012A04D9B3F10A0018BF66
:1002A00001207047D81E18BF012070474FF0000092
:1002B000704700BF70B448F68902C8F68802A2FBF6
:1002C00000434FEA5313C3EB0314A0EB8400C8713F
:1002D000A2FB03024FEA5212C2EB0210A3EB80030F
:1002E0008B714AF6AB23CAF6AA23A3FB02434FEA5B
:1002F000131303EB4300A2EBC0024A719BB203F15C
:10030000060242F29340C9F2492080FB0240801865
:100310004FEAA000C0EBC000121A0A714FF00104AE
:100320004FF0000240F26D154FF4B77612F0030F54
:100330000DD11AB1642A01D0C82A0AD104F1FF34C0
:10034000E4B2002C14BF28464FF4B77002E02846F0
:1003500000E03046834205D31B1A9BB202F1010232
:10036000D2B2E3E71C4602F5FA620A8010F0010FF0
:1003700003D03A2B84BF01339BB21E2B12D94FF00E
:100380001F004FF0010241F20004C0F601041B1AE5
:100390009BB202F10102D2B2A01810F8010C9842EF
:1003A000F5D901E04FF001028A7003F10103CB702F
:1003B00070BC70472DE9F0410446FFF7F7FE054693
:1003C000FFF7F4FE8542F8D128462146FFF772FF79
:1003D00094F80580E6782579A7782046FFF74EFF48
:1003E00030B34FF00103237298445FFA88F8B8F1F4
:1003F000180F17D1ED18EDB2072D08BF002541F2F7
:100400000003C0F60103DB1913F8013CB34204D129
:1004100007F10107FFB24FF0000606F10106F6B240
:100420004FF00008A77084F80580E670257102E09F
:100430004FF0000323724FF00000BDE8F08100BFD1
:10044000F0B585B0068840F26D1303FB06F39EB14C
:1004500006F1FF3206F1030548F21F51C5F2EB1118
:1004600081FB02414FEAE272C2EBE11404EBA50406
:10047000E318C2EB61129B1A4DF68B22CFF6F47291
:100480009A18877807F1FF34A4B264B14FF00003E3
:1004900041F20005C0F60105E95C521803F10103C1
:1004A000DBB29C42F8D848F21F53C5F2EB13A3FB12
:1004B00006134FEAD3134FF4C87101FB13639BB2C9
:1004C000A3B116F0030F0DD148F21F53C5F2EB1381
:1004D000A3FB06434FEA53134FF0640101FB13667D
:1004E000B6B21EB9012F88BF02F1FF32C379A3F55E
:1004F000A833A3F5C07341794FF4616404FB013163
:100500008379C3EB031301EB8301C47814194FF40F
:10051000A343C0F2010303FB0414204601A9FFF723
:10052000C9FE01A8FFF7AAFE08B1A4F561644FF067
:10053000010000F0C7F8FFF763FE2046FFF740FE1A
:10054000FFF75EFE4FF0000000F0BCF805B0F0BD14
:1005500082B04FF48053C4F202031A6842F00102E1
:100560001A6059684FF00002CFF2FF020A405A6049
:100570001A6822F0847222F480321A601A6822F417
:1005800080221A605A6822F4FE025A601A6822F029
:10059000A0521A604FF47F029A604FF00002DA62B4
:1005A000009201921A6842F480321A604FF480522D
:1005B000C4F20202136803F400330193009B03F1B9
:1005C00001030093019B1BB9009BB3F5A06FF1D110
:1005D0004FF48053C4F202031B6813F4003F14BFAE
:1005E000012300230193019B012B61D14FF40053A0
:1005F000C4F202031A6842F010021A601A6822F06C
:1006000003021A601A6842F002021A604FF4805323
:10061000C4F202035A685A605A685A605A6842F42F
:1006200080625A60D96A4FF47042CFF6FE720A4077
:10063000DA62DA6A42F4823242F41172DA621A68D9
:1006400042F080621A604FF48052C4F202021368D2
:1006500013F0006FFBD04FF48053C4F202035A68CA
:1006600022F47C125A605A6842F4E8125A601A68FE
:1006700042F080721A604FF48052C4F20202136892
:1006800013F0007FFBD04FF48053C4F202035A688A
:1006900022F003025A605A6842F002025A604FF494
:1006A0008052C4F20202536803F00C03082BFAD103
:1006B0004FF46D43CEF200034FF000629A6002B037
:1006C000704700BF4FF02003C4F20E23186070473C
:1006D0002DE9F003CB7803F00F0513F0100F1CBFCA
:1006E0008B781D430B782BB3D0F800C04FF000037C
:1006F0004FF001064FF00F0806FA03F20C88144081
:10070000944211D14FEA830708FA07F92CEA090C41
:1007100005FA07F74CEA070CCF78282F01D144617E
:1007200002E0482F08BF026103F10103082BE3D167
:10073000C0F800C00B88FF2B27D9D0F804C04FF0B9
:1007400000034FF001064FF00F0803F1080206FA0C
:1007500002F20C881440944211D14FEA830708FA40
:1007600007F92CEA090C05FA07F74CEA070CCF78D1
:10077000282F08BF4461CC78482C08BF026103F1E0
:100780000103082BE1D1C0F804C0BDE8F0037047B5
:100790004FF6FF7303804FF0020383704FF00403A2
:1007A000C3707047806880B2704700BFC06880B275
:1007B000704700BF0AB1016170474161704700BFD7
:1007C000C160704730B400284FF00003C4F2010349
:1007D000B4BFDB695B6884B200F44012B2F5401F1D
:1007E0000AD123F070634FF00002C4F20102556891
:1007F00025F07065556017E010F4801F0AD0C0F333
:1008000003424FF0030505FA02F223EA020343F024
:10081000706309E04FEA50524FEA021204FA02F202
:1008200023EA020343F0706331B14FEA50524FEABA
:10083000021204FA02F4234300284FF00002C4F22B
:100840000102B4BFD361536030BC704730B401F0D3
:1008500003024FEA82024FEA91014FF00003C4F213
:10086000010301F1020153F821504FF00F0404FA83
:1008700002F425EA040443F8214053F8214000FA29
:1008800002F2224343F8212030BC704782B001902D
:10089000019B33B1019B03F1FF330193019B002BBB
:1008A000F8D102B0704700BF70B584B04FF00900B6
:1008B0004FF001010EF038FD4FF40076ADF80C60FA
:1008C0004FF004038DF80F304FF003038DF80E3016
:1008D0004FF44064C4F20104204603A9FFF7F8FE78
:1008E0004FF48073ADF80C304FF014038DF80F30D7
:1008F000204603A9FFF7ECFE4FF47063ADF80C300F
:100900004FF40060C4F2010003A9FFF7E1FE4FF4C9
:10091000E06010F009F94FF017038DF800304FF048
:1009200000058DF801508DF802504FF001048DF84C
:100930000340684610F002F920464FF00901FFF726
:1009400085FF01968DF808504FF008038DF80930A7
:100950008DF80A4001A80EF05BFD04B070BD00BF29
:1009600038B54BF21834C2F200042B4D256040F22A
:10097000BF23A38010F034FB05F5506303F1090396
:10098000C4F80930E3684FF4FA6262F31723E360B6
:1009900010F026FB05F50A5303F15903C4F8123091
:1009A00040F21713E38205F5D65303F11903C4F897
:1009B0001B306FF03F03E3774FF0010384F82030E2
:1009C00005F5E45303F1190363624FF4C86323850B
:1009D00005F5307303F10503C4F82D30236B4FF494
:1009E0001C6262F31723236305F5486303F10503D3
:1009F000C4F836304FF08403638705F5A65505F13A
:100A00001905C4F83F504FF0000384F843304FF00D
:100A1000060384F8443038BDCE5C0020F8B54BF2B4
:100A20006854C2F200043C4D256041F2DC27A780E7
:100A300005F55C5606F10C06C4F8066040F2CA23C0
:100A4000638105F5884303F11A03E3604FF4FA6309
:100A5000238205F5B24303F1EA03C4F8123040F2F1
:100A60001713E38205F5A24303F1EA03A3614FF4F0
:100A7000E073A38305F5A64303F1AA03C4F81E306F
:100A80004FF4C863638405F5665303F1560363624C
:100A900040F64422228505F5864303F19603C4F807
:100AA0002A30E28505F5964303F1EA0323634FF408
:100AB000C063A38610F094FA48F2A743EB18C4F879
:100AC00036304FF4DB636387E563A4F8407005F5C7
:100AD000B64505F10105C4F8425042F6A613A4F844
:100AE000463042F2BC55C2F2000505F55C544FF0A9
:100AF000110333704FF01A03A3734FF01803E3731D
:100B000010F06EFA05F5665595F8473023744FF0EE
:100B100048036374F8BD00BFBD25002008B529B1A6
:100B20004FF0000300F8013B0139FBD110F058FAF7
:100B300008BD00BFF0B40346D9B14FF0000422460F
:100B40004FF4887043F2C155C8F20E154FF6E856BF
:100B50001C5D001980B2A5FB00744FEAD43406FB7B
:100B6000140080B202F1010292B214468A42EFD31D
:100B700001E04FF48870F0BC704700BF10B442F23F
:100B80006C53C2F200031B6801EB41029A18127900
:100B900082B901EB41029B18B3F902404BF270326B
:100BA000C2F2000200EB400001EB400122F81140CC
:100BB000588812E001EB41029B18B3F9023053B19F
:100BC0004BF27033C2F2000300EB400001EB400136
:100BD00033F8110001E04FF0000000B210BC704784
:100BE0002DE9F04F85B0804642F2BC53C2F20003BB
:100BF0004FF0560202FB003303F55C5393F841B00B
:100C00004FF00004A246A14641F2883203920294BA
:100C1000264601944BF3050747FA04F313F0010F3E
:100C200027D0E5B240462946FFF7A8FF08B3404663
:100C30002946FFF7A3FF039A13B29842B8BF0346B1
:100C40009BB20393029A13B29842A8BF03469BB289
:100C5000029381441FFA89F90AF1010A5FFA8AFABC
:100C600046F3460606F12006F6B24FF00103019363
:100C700002E046F34606F6B204F10104062CCBD19D
:100C8000019A002A3CD04BF3811B5FFA8BFB5FFA81
:100C90008BF242F2BC53C2F200034FF4147101FB19
:100CA000083306EB821683F8E8610FFA89F999FB9D
:100CB000FAFAA3F8EBA112F0010F08D042F2BC53EC
:100CC000C2F2000301FB0833039AA3F8EB211BF0E7
:100CD000020F0AD042F2BC53C2F200034FF4147266
:100CE00002FB0833029AA3F8EB2142F2BC53C2F292
:100CF00000034FF4147202FB0838B8F8EB010FE060
:100D000042F2BC53C2F200034FF4147202FB0838E3
:100D10004FF0000088F8E80188F8EB0188F8EC0152
:100D200000B205B0BDE8F08F2DE9F04F85B08046E8
:100D300042F2BC53C2F200034FF0560202FB0033F2
:100D400003F55C5393F840B04FF00004A246A1466F
:100D500041F2883203920294264601944BF3050730
:100D600047FA04F313F0010F27D0E5B240462946B5
:100D7000FFF704FF08B340462946FFF7FFFE039A3A
:100D800013B29842B8BF03469BB20393029A13B2C0
:100D90009842A8BF03469BB2029381441FFA89F987
:100DA0000AF1010A5FFA8AFA46F3460606F12006BE
:100DB000F6B24FF00103019302E046F34606F6B2A5
:100DC00004F10104062CCBD1019A002A3ED04BF34A
:100DD000811B5FFA8BFB5FFA8BF242F2BC53C2F2CB
:100DE00000034FF4147101FB083306EB821683F8FD
:100DF000E7610FFA89F94FFA8AFA99FBFAF9A3F831
:100E0000E99112F0010F08D042F2BC53C2F2000384
:100E100001FB0833039AA3F8E9211BF0020F0AD063
:100E200042F2BC53C2F200034FF4147202FB0833C7
:100E3000029AA3F8E92142F2BC53C2F200034FF434
:100E4000147202FB0838B8F8E90111E042F2BC5311
:100E5000C2F200034FF4147202FB08384FF0000096
:100E600088F8E701D8F8E83160F31723C8F8E831CB
:100E700000B205B0BDE8F08F2DE9F041804642F2A6
:100E8000BC53C2F200034FF0560202FB003303F5DD
:100E90005C5393F941704FF00004264647F3050771
:100EA00047FA04F313F0010F0FD0E5B2404629468C
:100EB000FFF764FE48B140462946FFF75FFE46F360
:100EC000460606F12006F6B202E046F34606F6B202
:100ED00004F10104062CE3D170B2BDE8F08100BF3B
:100EE0002DE9F041804642F2BC53C2F200034FF0BC
:100EF000560202FB003303F55C5393F940704FF048
:100F00000004264647F3050747FA04F313F0010FE0
:100F10000FD0E5B240462946FFF730FE48B14046C3
:100F20002946FFF72BFE46F3460606F12006F6B2E9
:100F300002E046F34606F6B204F10104062CE3D1C2
:100F400070B2BDE8F08100BF41F62C13C2F200037D
:100F500033F81000704700BF48B141F62C13C2F2BD
:100F6000000333F81120801823F81100704741F670
:100F70002C13C2F200034FF0000223F81120704737
:100F800041F62C13C2F2000303EB4003188A7047AA
:100F900048B141F62C13C2F2000303EB41031A8A55
:100FA00080181882704741F62C13C2F2000303EB3D
:100FB00041034FF000021A82704700BF08B5014696
:100FC00042F2BC53C2F200034FF4147202FB00332E
:100FD0004FF0010083F87C0241F62C13C2F20003AB
:100FE00003EB41031884FFF7B7FF08BD38B504468B
:100FF00042F2BC53C2F200034FF4147202FB0033FE
:101000004FF0000583F87C5228462146FFF7C0FFC9
:1010100028462146FFF7A0FF4FF001002146FFF7C9
:101020009BFF41F62C13C2F2000303EB440425841A
:1010300038BD00BFF8B54FF00004254641F62C1628
:10104000C2F200062746A75306F11003E75206F145
:101050002003E7522846FFF7C9FF05F10105EDB26D
:1010600004F10204082DEED1F8BD00BF70B5254D86
:101070004FF00004244E35F9023B012B1AD12046D3
:10108000FFF77EFFB6F9EF3048F21F52C5F2EB12C0
:1010900082FB03124FEAE373C3EB62131BB2984265
:1010A00003DB2046FFF7A2FF04E04FF001002146DA
:1010B000FFF76EFF35F9023CEBB92046FFF744FF1E
:1010C000B6F9F13048F21F52C5F2EB1282FB03125F
:1010D0004FEAE373C3EB62131BB2984205DB4FF098
:1010E00000002146FFF738FF05E020B14FF0010076
:1010F0002146FFF731FF04F10104E4B2082CBAD114
:1011000070BD00BF4C190020BC7F002070B50446A4
:101110004BF26433C2F200031B6893F83E3013F0C5
:10112000010F59D1FFF700FE42F2BC53C2F2000397
:101130004FF4147202FB0433B3F99F50A84204DA4F
:101140002D1AAEB24FF0000501E0451BADB20028EC
:1011500028DD224BB3F9003036B2B34206DC20461C
:10116000FFF7F2FE10B92046FFF728FF1C4BB3F93A
:1011700000302DB2AB4215DC2046FFF701FF194BC2
:10118000B3F9003048F21F52C5F2EB1282FB031292
:101190004FEAE373C3EB62131BB2984202DB2046B3
:1011A000FFF724FF42F2BC53C2F200034FF4147263
:1011B00002FB043241F62C13C2F2000303EB440499
:1011C000238A03EB830303EB83034FEA8303A2F831
:1011D000EF31238CA2F8ED3170BD00BFA580002057
:1011E000A7800020A9800020002801DD002904DC60
:1011F000002805DA4FEAD17070474FF001007047C0
:101200004FF00000704700BF10B442F26C52C2F2BF
:1012100000024FF4147101FB00F142F2BC53C2F220
:101220000003CC1804F1490414604BF2D432C2F22A
:10123000000240F22E5404FB003404F5B64404F1DD
:10124000020414604BF20462C2F200024FF0560432
:1012500004FB003404F55C5404F1120414604BF2F6
:101260006432C2F20002C91801F50E7101F10501E4
:10127000116042F21452C2F2000200EB400103EB93
:10128000811101F5964101F1EB0111604BF2006211
:10129000C2F200024FF0C80101FB003101F5A64186
:1012A00001F1AB0111604BF2F832C2F2000203F51A
:1012B000044101F1A8014FF0D00404FB00111160BA
:1012C00042F25C52C2F20002C0EBC00003F5A2433E
:1012D00003F1EB0303EBC003136010BC704700BFC6
:1012E000F0B583B04FF0000742F2BC56C2F20006E0
:1012F000F8B2FFF789FF4FF000044FF0640505FBDB
:1013000007F52B1903F5285303F10A0306EB4303F2
:10131000B3F807000DF107010EF072FF68B142F259
:101320006C53C2F200031B684FF0010202FA04F290
:10133000B3F950100A43A3F8502004F10104072C1C
:10134000DFD107F10107082FD2D103B0F0BD00BFF4
:101350002DE9F84304460FF043FE4FF064000FF010
:101360003FFB4BF20E33C2F200034FF000021A7043
:10137000022C04D9D34841F2DC21FFF7CFFBD24C39
:10138000204641F6B631FFF7C9FB0FF029FE04F500
:10139000A65000F11E0043F6BD01FFF7BFFB04F5A8
:1013A000A84000F173004FF4DB71FFF7B7FB0FF0BB
:1013B00017FE42F2BC52C2F2000202F588414FF021
:1013C00000036FF0550081F84B0081F84C304FF06E
:1013D000010182F84710506C40F2011464F31720A9
:1013E00050646FF01F0082F8430082F84410517877
:1013F00041F0200151704BF2F452C2F2000213701E
:1014000053709370D370137153719371D3711372BE
:10141000537293724BF2EE52C2F2000213804BF2FF
:101420006832C2F20002138042F2BC54C2F20004DD
:1014300040F20000C2F2000003F5325202F17402E1
:1014400003EB4301415A04EB4202A2F8031003F1FB
:101450000103792BF0D142F21E53C2F200034FF088
:1014600079021A80994B4FF0010283F842204FF025
:10147000C00183F843104FF0A80183F8441083F8AB
:1014800045204FF0650183F846104FF0090183F8BD
:1014900049104FF0040183F84A104FF0060183F819
:1014A000471083F848204FF06F0283F84C204FF02C
:1014B000280283F84B20864F3C464FF0000342F24F
:1014C000BC5EC2F2000E40F20006C2F2000603EB60
:1014D00043010EEB810101F5864101F1970203F111
:1014E0001A00C0EBC005C0EBC5003018B0F9975129
:1014F000A1F89D50B0F99951A1F8A150B0F99351BC
:10150000A1F89B50B0F99501A1F89F0094F8B70598
:1015100081F8970094F8B815917003F1010304F174
:1015200037040B2BD3D14BF2EC33C2F200034FF054
:1015300000021A8042F21E54C2F2000440F200057A
:10154000C2F2000505F51666D0B2FFF75DFE4FF05A
:10155000000323804BF2D231C2F200019E469C462A
:10156000A1F800C0734642F25C50C2F200001BB208
:10157000B4F90020D0F80080C2EBC202904403EB23
:10158000060919F8022008F803200B8803F101036B
:101590009BB20B809AB2062AE9D9238803F1010392
:1015A0009BB223801BB2072BDADD4BF2EC33C2F285
:1015B0000003B3F900204BF25853C2F200034FF07E
:1015C000010199544BF20063C2F20003D3F800E02A
:1015D0004FF0B4013F4B01FB0232A2F102024FF087
:1015E00000030EEB430132F8020F888203F101037E
:1015F0005A2BF6D14FF0000323804BF2006EC2F25B
:10160000000E4BF2EC30C2F20000DEF800101BB20C
:10161000B0F9002002EB820203EB420205EB42022A
:10162000B2F8982921F81320238803F101039BB213
:1016300023801AB2092AE8DD4BF2D433C2F2000348
:10164000D3F800804FF0000213464FF02C0C4FF0FF
:10165000010EC2EBC20102EB8101414481F8BCC121
:1016600081F8BDE181F8BE3181F8BF3181F8C13127
:1016700081F8C23181F8C33181F8C43102F101022D
:10168000182AE6D14FF0000323804BF20460C2F227
:10169000000002681BB205EB4301B1F8381A22F8CA
:1016A0001310238803F101039BB223809AB22A2AE4
:1016B000EFD94FF00003238042F21452C2F200022D
:1016C0000AE000BFBD250020C95C00203C5F00206F
:1016D0006C0100205C19002011681BB2B5F8900A5B
:1016E00021F833001068238819B24FEAC10140186D
:1016F000D5F89CEA80F806E0B5F894EAA0F802E094
:1017000010684118B5F8980A888003F101039BB26C
:10171000238019B21729DFDD4BF2EC33C2F200034C
:10172000B3F90030264A4FF49C7101FB032338467D
:101730004FF00002C2EBC201C2EBC1016918B1F95E
:1017400097E1A3F806E0B1F999E1A3F80AE0B1F94D
:1017500093E1A3F804E0B1F99511198190F82210F2
:10176000997090F8211003F80C1B02F1010200F1AE
:1017700037001A2ADED14BF2D233C2F200031A80AC
:101780004BF2EC33C2F200031A8802F1010292B26A
:101790001A8013B2072B7FF7D7AE0FF021FC4BF264
:1017A0000833C2F200034FF019021A7042F2BC5320
:1017B000C2F200034FF050021A70BDE8F88300BF78
:1017C000935F002010B442F26453C2F2000342F26D
:1017D0006C51C2F200014FEA40021418096801EB93
:1017E000C40101F1D60119604BF21033C2F20003BB
:1017F0004BF2D431C2F20001096801EBC401196057
:101800004BF21843C2F200034BF26431C2F2000102
:1018100009688A181A604BF20433C2F2000342F2DC
:101820005C52C2F200024FEAC0010C1A126812198F
:101830001A604BF2D853C2F200034BF20062C2F2BC
:101840000002126802EB400000F11400186042F23E
:101850001853C2F2000342F21452C2F2000212689C
:101860005118196010BC7047F0B442F2BC53C2F278
:10187000000303F50442B2F9745048F293429858B9
:101880004019985048F299441A594FF4487606FB8B
:1018900002F644F6D351C1F2620181FB06724FEAAF
:1018A000E676C6EBA2164FF0C80202FB05621A519B
:1018B00081FB02414FEAE272C2EB9112A3F83D2094
:1018C00003F5A84303F15F031B889BB142F2BC53AD
:1018D000C2F2000300EB40004FEA400044F6D3524E
:1018E000C1F2620282FB00724FEAE070C0EB92101C
:1018F000A3F82F0042F2BC53C2F20003B3F93F0039
:1019000003F50442B2F976204FF0C80101FB02F161
:101910004FF4487202FB001244F6D351C1F2620147
:1019200081FB02014FEAE272C2EB9112A3F83F2061
:10193000F0BC7047174B1B88BBB142F2BC53C2F2DC
:10194000000348F293429A18126802EB42024FEAEF
:10195000420244F6D351C1F2620181FB02014FEA17
:10196000E272C2EB9112A3F82F2042F2BC53C2F2F2
:10197000000348F299429A18126844F6D351C1F212
:10198000620181FB02014FEAE272C2EB9112A3F8FD
:101990003D2070471B7A0020B0F900308B42B8BF61
:1019A00001807047B0F900308B42C8BF018070479A
:1019B0002DE9F00105464BF21033C2F20003D3F8D3
:1019C00000C04FF000038CF816304BF2D853C2F22F
:1019D00000031C68238833B34FF00003184642F21B
:1019E000BC57C2F200074FF064064FF0010806FB37
:1019F000035202F5265202F15C0207EB4202B2F8F2
:101A000007102288914209D108FA03F21043C0B2AC
:101A10009CF8162002F101028CF8162003F1010354
:101A2000082BE4D101E04FF00000BDE8F001704761
:101A300010B404464BF21033C2F200031B6893F952
:101A4000131011F0010F0DD14FF00103D8B241FA7C
:101A500003F212F0010F07D103F10103082BF5D1B6
:101A6000204601E04FF0000010BC704730B404463F
:101A70004BF21045C2F20005B5F90050854201DD78
:101A8000884207D142F2B652C2F200024FF0000380
:101A9000138012E08D4205DD42F2B651C2F2000120
:101AA0000A800AE042F2B650C2F200002D1B02FB8F
:101AB00005F20C1B92FBF4F20280184630BC704712
:101AC00010B442F2BC53C2F20003B3F9411001F06A
:101AD0000101A3F8411003F5B443B3F9DB00B428C6
:101AE00008D142F2BC53C2F200031A6C6FF3172202
:101AF0001A6473E042F2BC53C2F2000303F5B4422D
:101B0000B3F93F40B2F95F309C4267DB42F2BC530D
:101B1000C2F2000303F50442B2F87820801800B244
:101B200046F2B702CBF20B6282FB004212184FEA78
:101B3000E074C4EB22224FF4B47404FB120080B2B0
:101B400042F2B652C2F20002108003F5BE4383F89F
:101B5000F11051B903B25F2B07DDB3F5847F04DCCC
:101B60004FF001021E4B83F8F12042F2BC53C2F247
:101B70000003B3F9413073B142F2B653C2F200032D
:101B80001B88A3F155039BB2BE2B04D94FF0000272
:101B9000134B83F8F12042F2BC53C2F2000303F569
:101BA000BE4292F9F120B3F9413011469A4210D069
:101BB0000B4A92F8F23003F10103DBB282F8F23003
:101BC0005BB2042B0ADD42F2BC53C2F20003A3F85D
:101BD00041104FF00002024B83F8F22010BC704716
:101BE000BC84002010B582B004460EF05FF938B115
:101BF0004FF0010021460DF107020EF0ADF914E09F
:101C00009CB104F1FF34A4B24F2C0ED84FEAD40299
:101C10004BF2F453C2F2000304F007044FF0010149
:101C200001FA04F4995C0C439C5402B010BD00BF4F
:101C300010B582B004460EF039F938B14FF000000B
:101C400021460DF107020EF087F913E094B104F17B
:101C5000FF34A4B24FEAD4024BF2F453C2F20003B1
:101C600004F007044FF0010101FA04F4995C21EA41
:101C700004049C5402B010BD10B582B004460EF0AE
:101C800015F928B120460DF107010EF013FA17E0FF
:101C9000A4B104F1FF34A4B204F007034FF0010231
:101CA00002FA03F24BF2F453C2F200034FEAD404F7
:101CB0001B5D1A420CBF0020012001E04FF0000024
:101CC00002B010BD70B582B016461D4642F2BC533C
:101CD000C2F200034FF0640202FB001101F526512D
:101CE00001F15C0103EB4103B3F8074074B32046F4
:101CF0000EF0DCF850B1D6F1010038BF00202C19ED
:101D0000A1B20DF106020EF027F91FE004F1FF3435
:101D10006519ADB24FEAD50305F007054FF0010292
:101D200002FA05F5ADB20A2B10D846B14BF2F452C7
:101D3000C2F20002D15C21EA0505D55406E04BF25F
:101D4000F452C2F20002D15C0D43D55402B070BD12
:101D50004BF26033C2F200031B78012B05D14BF22A
:101D6000F053C2F200031B6818704BF26033C2F2EA
:101D700000031B78022B05D14BF2F053C2F2000393
:101D80001B681860704700BF194B93F948304BB17E
:101D9000034601E0232A04D013F8012B002AF9D1CD
:101DA00000E0184603780BB3232B1FD041F62C120A
:101DB000C2F2000292F8D0254BF22041C2F200019B
:101DC0008B5402F10102D2B210F8013F33B941F64F
:101DD0002C13C2F2000383F8D0257047232BEFD1D8
:101DE00041F62C13C2F2000383F8D025704700BFE0
:101DF0003C5F00202DE9F04105460C4642F2A65317
:101E0000C2F200031B7893B94BF2F053C2F2000305
:101E1000186041F62C13C2F2000393F8D02583F822
:101E2000D12583F8D21501F00F0283F8D3250FF0E6
:101E3000D7F8A4F10403412B00F2C983DFE813F0C3
:101E40000102A401C703C7038D02C703C703C70369
:101E5000C703C703C7037803C703CD00C703010245
:101E6000FB003502C7035401C703C703C703C703F9
:101E7000C703C703C703C703C7034200C703C7039A
:101E8000C7038D02C703C703C703C703C703C7033D
:101E9000C703C703C703C703C703C703C703C703F2
:101EA000C703F602C703C703C703C703C703C703B4
:101EB000C703C703C703C703C703C703C703C703D2
:101EC000C70337032C8841F62C13C2F2000393F8A2
:101ED000D0154BF22042C2F200024FF03D005054A8
:101EE00001F1010183F8D0150FF07AF842F2A65300
:101EF000C2F200031B7863B942F20A53C2F2000334
:101F00001C8041F62C13C2F2000393F8D02583F80D
:101F1000D1252046FFF7B0FE88B141F62C13C2F25E
:101F2000000393F8D0154BF22042C2F200024FF0AA
:101F30003100505401F1010183F8D01510E041F651
:101F40002C13C2F2000393F8D0154BF22042C2F2D8
:101F500000024FF03000505401F1010183F8D01518
:101F600041F62C11C2F2000191F8D0254CF6CD407B
:101F7000CCF6CC40A0FB02324FEA121202EB8202F6
:101F80004FEA8202D2B24BF22043C2F2000302F1C6
:101F90001A05EDB24FF05B065E5502F11B05EDB27E
:101FA000A0FB04604FEAD00000F130065E5502F15C
:101FB0001C05EDB200EB8000A4EB400404F13004FA
:101FC0005C5502F11D00C0B24FF05D041C5402F1DB
:101FD0001E0281F8D025BDE8F08142F2A653C2F27C
:101FE00000031B784BB94BF2E253C2F200034BF2F1
:101FF000EC32C2F2000212881A702A784BF2EC33EB
:10200000C2F20003B3F900301A4241F62C13C2F2B7
:10201000000393F8D0154BF22042C2F2000214BF25
:1020200031203020505401F1010183F8D0150EF019
:10203000D7FFBDE8F081B5F90030002B15DA41F685
:102040002C13C2F2000393F8D0154BF22042C2F2D7
:1020500000024FF02D00505401F1010183F8D0151A
:102060002988C1F1000189B200E0298801F1050148
:1020700089B24CF6CD46CCF6CC46A6FB01714FEAB0
:10208000D10141F62C14C2F2000494F8D0254BF291
:102090002045C2F20005AA18A6FB01834FEAD3032C
:1020A00003EB8300A1EB400101F13001D1709BB241
:1020B000A6FB03C64FEAD60606EB8601A3EB410357
:1020C00003F1300353700EF08BFF94F8D03506F116
:1020D0003006EE54ED184FF02E02AA7003F10403FF
:1020E00084F8D035BDE8F0812E8841F62C14C2F278
:1020F000000494F8D0554BF22041C2F200014B1974
:102100004CF6CD42CCF6CC42A2FB06704FEAD00092
:1021100000EB8007A6EB470606F130069E7186B2FB
:10212000A2FB06804FEAD00000EB8007A6EB470633
:1021300006F130065E7186B2A2FB06C04FEAD000FF
:1021400000EB8007A6EB470606F13006DE7080B292
:10215000A2FB00624FEAD20202EB8206A0EB46002D
:1021600000F13000987002F130024A554FF02E0213
:102170005A701A710EF034FF94F8D03503F107034A
:1021800084F8D035BDE8F0812D8841F62C13C2F2D9
:10219000000393F8D0054BF22042C2F2000213185C
:1021A0004CF6CD44CCF6CC44A4FB05714FEAD101EA
:1021B00001EB8106A5EB460505F130051D718DB2D9
:1021C000A4FB05814FEAD10101EB8106A5EB460591
:1021D00005F13005DD7089B2A4FB01C44FEAD404D7
:1021E00004EB8405A1EB450101F130015970A4B263
:1021F00004F1300111544FF02E029A700EF0F0FEEF
:10220000092C12D941F62C13C2F2000393F8D02501
:102210004BF22043C2F200034FF0210199549B1866
:102220004FF030025A70DA701A7141F62C13C2F274
:10223000000393F8D02502F1050283F8D025BDE80C
:10224000F081298814F00F0422D041F62C13C2F239
:10225000000393F8D02502F1FF3223464BF22046CB
:10226000C2F20006B6184CF6CD45CCF6CC45A5FB1F
:1022700001024FEAD20202EB8200A1EB400101F120
:102280003001F15491B203F1FF33DBB2002BEED1F8
:1022900041F62C13C2F2000393F8D025A41883F85A
:1022A000D0450EF09DFEBDE8F0812E8842F210531D
:1022B000C2F200031B7813F0010F0DD04BF2204344
:1022C000C2F2000341F62C12C2F2000292F8D025AD
:1022D0009B184FF03A029A7041F62C13C2F2000399
:1022E00093F8D0154BF22042C2F2000254184CF67B
:1022F000CD40CCF6CC40A0FB06754FEAD50505EBEA
:102300008507A6EB470606F130062671AEB24AF6FF
:10231000AB25CAF6AA25A5FB06854FEA950505EB70
:102320004507A6EB470606F13006E670ADB2A0FB06
:1023300005C04FEAD00000EB8006A5EB460505F18D
:102340003005657000F13000505401F1050183F84B
:10235000D0150EF045FEBDE8F0812F8841F62C1314
:10236000C2F2000393F8D0054BF22041C2F2000103
:102370000A184FF02F0595705FFA87FE4CF6CD4591
:10238000CCF6CC45A5FB0E864FEAD60606EB860CAE
:10239000AEEB4C0E0EF1300E82F801E006F1300685
:1023A0000E544FEA1726A5FB06C14FEAD10101EBF7
:1023B0008105A6EB450606F13006167101F13001E4
:1023C000D17000F1050083F8D0050EF009FE082C4D
:1023D00040F0328141F62C13C2F2000393F8D0157D
:1023E0004BF22042C2F200024FF02F00505442F252
:1023F000BC50C2F2000090F8474052184CF6CD4055
:10240000CCF6CC40A0FB04504FEAD00000EB800596
:10241000A4EB450404F13004947000F130005070D6
:1024200001F1030183F8D015BDE8F0812E8841F653
:102430002C13C2F2000393F8D0454BF22042C2F2B3
:10244000000211194FF02E00C8704CF6CD40CCF6AA
:10245000CC40A0FB06754FEAD50505EB8507A6EB3A
:10246000470606F130060E71AEB2A0FB06854FEAB4
:10247000D50505EB8507A6EB470606F130068E70FD
:10248000ADB2A0FB05C04FEAD00000EB8006A5EB83
:10249000460505F130054D7000F13000105504F18E
:1024A000050483F8D0450EF09BFDBDE8F0812E8831
:1024B00041F62C13C2F2000393F8D0454BF22042B0
:1024C000C2F2000211194FF02E0048704CF6CD40B8
:1024D000CCF6CC40A0FB06754FEAD50505EB850789
:1024E000A6EB470606F130060E71AEB2A0FB0685DC
:1024F0004FEAD50505EB8507A6EB470606F1300642
:10250000CE70ADB2A0FB05C04FEAD00000EB800654
:10251000A5EB460505F130058D7000F13000105532
:1025200004F1050483F8D0450EF05AFDBDE8F081B2
:1025300041F62C13C2F2000393F8D01501F1020307
:102540004BF22042C2F200029B1802F112077F18E0
:102550004CF6CD40CCF6CC404FF02D0615F8011BC3
:10256000A0FB01424FEAD20202EB8204A1EB44013C
:1025700001F130011970D1B2A0FB01824FEAD20201
:1025800002EB8204A1EB440101F1300103F8011CCC
:1025900002F1300203F8022C5E7003F10403BB4227
:1025A000DCD141F62C13C2F2000393F8D02502F1DE
:1025B0000F02D2B283F8D0254BF22043C2F20003BF
:1025C0004FF0200199540EF00BFDBDE8F0812A7800
:1025D00014F00F0427D041F62C13C2F2000393F835
:1025E000D0C50CF1FF3C23464BF22047C2F2000756
:1025F0004CF6CD45CCF6CC45FE18D1B2A5FB0180FA
:102600004FEAD00000EB8000A1EB400101F1300166
:1026100006F80C10A5FB02024FEAD20203F1FF33C9
:10262000DBB2002BE8D141F62C13C2F2000393F881
:10263000D025A41883F8D045BDE8F0812DE9F04FEE
:1026400097B0894690464BF2D433C2F2000300F1B2
:1026500091071B6803EBC70707F10404B4F906A050
:102660001AF1000A18BF4FF0010A42F26C53C2F28D
:1026700000031B680C2894BF181803F10C0090F895
:102680006E305AB2012A05DCBAF1000F02D1A370F4
:102690004FF0010A42F26C55C2F200052B68B3F903
:1026A00058B04046FEF740FB009042F2BC56C2F2E2
:1026B0000006B6F93D3015934046FEF735FB4BF268
:1026C0001043C2F200032A68B2F95820801A188019
:1026D00006F5B445B5F9BD00B5F9BF10B5F9C1208F
:1026E0004FF00003FFF7C2F942F2B653C2F2000303
:1026F0001B881AB2B5F97500801A06F50446B6F9BA
:1027000072101491B9F1000F04D0B9F1010F40F02B
:102710000982C2E1BAF1000F1CD1A64BB3F9003017
:102720009AB272B1159A1BB2934203DA4FF00003CA
:10273000A37006E042F26853C2F200031B7803B9AB
:10274000A3709D4BB3F9003023B1159B9842BCBFD9
:102750000123A370994AB2F94310ADF83810B2F9C9
:1027600045A0B2F947300193ADF8183092F8FB302C
:10277000099392F8FC10039192F9FD90B2F98F3011
:10278000ADF81030B2F97910ADF8281092F9FE309A
:1027900003EB83034FEA4303139342F26C53C2F2F9
:1027A00000031B68D9890291B2F8C9100891B2F8E8
:1027B000CB100C91B2F8CD100D91B2F97750B2F95F
:1027C00075600FFA8BFB009A93450BDBB3F958B099
:1027D0004046FEF7A9FAC0EB0B0011904FF0000342
:1027E00012930EE04FF0000311934046FEF79CFA5F
:1027F00042F26C53C2F200031B68B3F95830C01A9E
:102800001290159B9D421DDD42F26853C2F20003F7
:102810001B7863B1149ABDF92830934207DA4FF060
:102820000103A3704FF000033B7163700AE04FF0A7
:102830000003A3704BF20463C2F200031B68B3F9F8
:102840002430BB80159B159AAB4208DDB24206DAF4
:102850004FF00103A3704FF000033B716370159BB1
:102860009E4231DA4FF00003A3704BF20463C2F2D0
:1028700000031B68B3F92430BB80139B23B3139B65
:102880009E4221DA159B9E4216DA159A139B9A42B4
:1028900012DA159B13999A1B4BF20463C2F20003E0
:1028A0001B68B3F9243003FB02F28B1B92FBF3F39A
:1028B0001093109BBB8007E04BF20463C2F200034D
:1028C0001B68B3F92430BB80BAF1000F42D0BDF9C8
:1028D0001830002B3ED0B4F900104BF20462C2F263
:1028E00000021268B2F924200846914232D1129AAD
:1028F000002A2FDDBDF93850129A95421BDA129A40
:10290000924518DD554509DA129A521B03FB02F66F
:10291000C5EB0A0296FBF2F2109205E0129A03FB55
:1029200002F292FBFAF21092109D02B2AA4202DD6C
:10293000109A8A1ABA80129A92450BDA4BF2046204
:10294000C2F200021268B2F92420934202DA019B1B
:10295000D21ABA80B9F1000F60DD03994BB24FF083
:10296000640202FB03F3002B58DD119A002A55DDA7
:1029700009994AB24FF0640101FB02F211998A42AF
:1029800005DD4FF00101A170BDF81010B980BDF94F
:102990001010119882422CDA1198834229DD9A4254
:1029A0000EDA119809FB00F09A1A90FBF2F21092DD
:1029B0000CE000BF3380002031800020BC7F00206D
:1029C000119A09FB02F292FBF3F210924FF000020F
:1029D000A270109ABA8009EB01004BF20462C2F2B5
:1029E00000021268B2F924209042C4BFBDF8102042
:1029F000BA80119A934211DC4FF00003A370A7F83C
:102A0000049089444BF20463C2F200031B68B3F9DB
:102A100024309945C4BFBDF81030BB80029900290D
:102A200000F0CB80089A002A00F0C7800C9B002B96
:102A300000F0C3800D99002900F0BF8042F26C5570
:102A4000C2F200052A684BF21043C2F20003B2F949
:102A50000E10B2F962208A1A1A80594BB3F9C900D4
:102A6000B3F9CB10B3F9CD204FF00003FEF7FEFF12
:102A70002B68B3F9623033B942F2B653C2F20003A5
:102A80004FF000021A80B4F9002042F2B653C2F2AD
:102A900000031B88D31ABB808FE0BAF1000F2AD144
:102AA0004849B1F900101BB29942C4BF0123A37079
:102AB0004BF2D433C2F200031B6893F98E344BB14E
:102AC000404BB3F9003099B21BB203F1C8039A42EC
:102AD00000DC11B94FF00003A3703B4BB3F9003099
:102AE0004BB142F2BC53C2F20003B3F93D309842FD
:102AF000BCBF0123A370A37894F903105AB291428A
:102B000003D0324AB2F90020E280E3704BF2046253
:102B1000C2F200021268B2F926205BB202FB03F394
:102B2000BB804AE0BAF1000F34D14BF2EC31C2F273
:102B300000014FF00000088042F29251C2F2000101
:102B400008802349B1F900101BB29942C4BF012388
:102B5000A3701F4BB3F9003099B21BB203F1C80345
:102B60009A4200DC11B94FF00003A37042F2BC534B
:102B7000C2F2000303F5B44202F18102B2F900206F
:102B800091B2B3F93D3012B2934203DD11B14FF06F
:102B90000003A370A37894F903105AB2914203D0B2
:102BA0000A4AB2F90020E280E3705BB203EB8303D0
:102BB00003EB83034FEA8303BB8017B0BDE8F08FBC
:102BC000BC7F0020398000203180002093800020CD
:102BD0003780002010B503460A464BF2D431C2F2CA
:102BE00000010C684BF20061C2F20001096800F1BB
:102BF000120001EB40018988E1B104EBC30404F544
:102C0000906404F10C04B4F9061001F1FF3189B2AB
:102C1000E18011F4004F05D10748B0F9000009B276
:102C2000884203DA4FF00001A171E171184619469C
:102C3000FFF704FD10BD00BF93800020F0B44BF2FD
:102C4000D433C2F200031C684BF26433C2F20003B7
:102C500000F10A021B6803EB420113F8123013F073
:102C6000010F40F0D98004EBC00303F5906303F13A
:102C70000C03B3F90450AEB22AB2002A04DA4FF0C2
:102C800000021A715A7104E01EB105F1FF359D80F2
:102C9000C2E04D784BF2EC32C2F200021580B3F97B
:102CA000006042F2B652C2F20002168050BB42F2FD
:102CB0006C52C2F200021268B2F9D421B61AB6B24E
:102CC000B0B242F2B652C2F20002108094F8E72489
:102CD00012F0010F16D0AD1BADB242F21E53C2F27C
:102CE00000031D8060B103B2642B09D02DB2002D0A
:102CF000B8BF6D42494BB3F900309D4240F38C8020
:102D0000487089E0464AB2F90020AA421BDC454AD5
:102D1000B2F90020AA4219DD434AB2F90040E4B2F8
:102D20002819B3F90020904208DD4BF20462C2F288
:102D300000021268B2F92440641BE4B23B4AB2F9C3
:102D400000209A8004E04FF0000401E04FF00004FE
:102D50004BF2EC32C2F2000212883248B0F9005055
:102D600010B2854219DCB3F9000087B216B205B281
:102D7000AE420CDA2E4CB4F90050ACB22DB275193B
:102D800000B28542C8BFC2EB0704E4B201E0D41B25
:102D9000E4B22848B0F90000988042F2B650C2F27E
:102DA00000000088121A92B242F21E50C2F20000D5
:102DB000028010B2002807DD4B781B1B4B705CBBF8
:102DC0004FF000034B7027E012F4004F20D04A78F8
:102DD000A2184A701CB9124AB2F900204A7042F295
:102DE000B652C2F2000212884C78D0B2844213D399
:102DF00093F9023083B14A704BF2D433C2F200032C
:102E00001B6893F8E72442F0010283F8E72403E00B
:102E10004FF000021A715A71F0BC704757800020C1
:102E20004B800020518000204D8000204F800020EA
:102E3000538000205580002010B44BF26433C2F25E
:102E400000031B6893F90D1093F90F208A18002ACC
:102E50000DDD4C4AB2F900204AB14BF2D432C2F235
:102E6000000212684FF0010182F8BC1408E04BF236
:102E7000D432C2F2000212684FF0000182F8BC1492
:102E800042F29252C2F200024FF00001118042F26F
:102E90006C52C2F20002126892F96D1049B193F9B6
:102EA0000D1093F90F30C918374BB3F90030994220
:102EB00009DD4BF2D433C2F200031B684FF000026D
:102EC00083F876245CE04BF21043C2F200034FF02B
:102ED00000011980B2F9053099B299B1B2F9022016
:102EE000D31A9BB299B24BF21042C2F20002118087
:102EF00011F4004F06D04BF21042C2F20002C3F1AF
:102F00000003138042F26C53C2F200031A681F4B95
:102F1000B3F90030A2F88A304BF21043C2F200033A
:102F20001888A2F88C004BF2D433C2F200031B685D
:102F3000B3F9CF148CB224B101F1FF31A3F8CF144F
:102F40001EE093F9761449B1114AB2F90020A3F8B2
:102F5000CF244FF0000283F8762411E0B2F98A10F2
:102F600000B2814203DD92F96D20012A08D14FF0B1
:102F7000010283F87624074AB2F90020A3F8CF248F
:102F800010BC7047AF7F0020838000206F8000203E
:102F9000738000207180002010B50446FDF7C4FE48
:102FA00042F26C53C2F200031B68B3F958203D4B48
:102FB000B3F90030D31A98420ADA4BF2D433C2F292
:102FC00000031B6893F8D12442F0010283F8D12456
:102FD0002046FDF7A9FE42F26C53C2F200031968C5
:102FE000B1F95820304BB3F90030D318984203DCC4
:102FF0002C4BB3F9003053B94BF2D433C2F2000377
:103000001B6893F8D12422F0010283F8D12442F204
:10301000BC53C2F2000303F5B24202F1F302B2F96B
:10302000002090B203F50443B3F97230B1F95A109D
:1030300012B28A1893420BDD50B14BF2D433C2F274
:1030400000031B6893F8D12442F0020283F8D124D4
:1030500042F2BC53C2F2000303F5B24202F1F302A2
:10306000B2F9002090B203F50443B3F9721042F2B2
:103070006C53C2F200031B68B3F95A3012B29A18AB
:10308000A2F16402914200DB50B94BF2D433C2F298
:1030900000031B6893F8D12422F0020283F8D124A4
:1030A00010BD00BF75800020778000202DE9F0035F
:1030B0004BF2D433C2F200031D684BF20063C2F23C
:1030C00000031B6800F1080403EB44039B88002BFA
:1030D00000F0288100EBC00404F585642C1904F18C
:1030E00005074FEA40064BF26433C2F200031B6847
:1030F00003EB060C13F8103013F0010F04D04FF05F
:10310000000363717B700DE101B1C2B910280AD1CF
:103110004FF0000385F87E3485F87F34834BB3F994
:103120000030A5F800354FF0000363717B704BF25F
:103130006432C2F20002126896197370F2E010282D
:1031400052D1914209DD42F26C53C2F200031B6876
:10315000C2EB0108A3F8B4800AE042F26C53C2F259
:1031600000031B684FF0000883F8B48083F8B58033
:1031700042F26C53C2F200031B68B3F9B480B8F199
:10318000000F05D14FF0FF3883F8B48083F8B58085
:10319000C2EB0108664B93F96A3018EB030F07D5B1
:1031A0004FF0000385F87E3485F87F348CF80130C9
:1031B0004BF2D433C2F200031D68B5F900C51FFA03
:1031C0008CF80FFA8CF3002B06DA4FF0000385F829
:1031D000003585F8013507E0B8F1000F04D00CF197
:1031E000FF3CA5F800C59DE0891A42F21453C2F2D3
:1031F00000031A6802EBC003B3F9023003FB01F3CA
:1032000044F6D355C1F2620585FB03854FEAE373AB
:10321000C3EBA515ADB242F21E53C2F200031D80EE
:10322000B7F9003048F21F5CC5F2EB1C8CFB038C35
:103230004FEAE373C3EB6C1C1FFA8CFC4BF2104398
:10324000C2F20003A3F800C042F2B653C2F2000378
:103250004FF06408A3F800804BF20463C2F200034D
:103260001B681B8D012B07D942F2B653C2F2000333
:103270004FF0C808A3F800800FFA8CFC42F2B65356
:10328000C2F20003B3F800802BB20FFA88F9C3EB47
:103290000909CC4507DD4BF21043C2F20003C5EB30
:1032A00008051D801FE01CEB030F07D54BF21043F0
:1032B000C2F20003C5F100051D8014E002EBC0025C
:1032C000B2F9043003FB01F144F6D353C1F26203B7
:1032D00083FB01C34FEAE171C1EBA313B7F90020EF
:1032E000D318A4F805304BF21042C2F2000242F2A9
:1032F0001E53C2F2000312881B88D21892B24BF2FE
:10330000D433C2F200031B68A3F87E2413B2642BEB
:103310004BF26433C2F200031B681E44C6BF642331
:1033200073707270BDE8F003704700BFB37F002078
:10333000BC7F00202DE9F0014BF2D433C2F2000330
:103340001A68B2F97E144BF20463C2F200031B68E0
:103350001B8D002B00F0AF80102840F0AC8009B22C
:10336000012B88BF643900EBC000121802F584629B
:1033700002F10D024BF21040C2F200004FF00004C7
:10338000048042F29250C2F200000480032B4DD11F
:1033900042F26C53C2F200031B68B3F966004BF2B1
:1033A0006434C2F20004256895F90D6095F90F4068
:1033B0003419424DB5F9006035B2AC421BDB404FC9
:1033C000B7F900700FFA87FC644519DCDFF8F48068
:1033D000B8F90080404517DD2E4667466545B4BF05
:1033E000C5EB0C0C4FF0000C641B04FB08F494FBC1
:1033F000FCF4001B08E0324DB5F90050AC4203DD8F
:10340000304CB4F90040001B4FF0000483F8A84191
:1034100083F8A941B3F91740A04249DD001BA3F886
:10342000A801294BB3F90030984241DB21EAE17150
:10343000264B93F96930938019B94FF0000313714B
:103440005371224890F9673090F96800181A01FB0F
:1034500000F148F21F50C5F2EB1080FB01404FEA2B
:10346000E171C1EB60115B1A9BB298B25080B2F966
:1034700007108CB224B101F1FF31A2F807101AE055
:1034800092F9061041B138B14FF00001917103F18A
:10349000FF33A2F807300EE0B2F9043099B251B10F
:1034A0004FF00101917103F1FF33A2F8073002E000
:1034B0004FF00001C1E7BDE8F0017047B180002086
:1034C000B3800020B5800020AF800020BC7F0020AA
:1034D00042F26C53C2F200031B68B3F9622091B24E
:1034E00039B1B3F90E0083B233B100B212B2801A0F
:1034F00070474FF0000070474FF00000704700BF6A
:1035000042F26453C2F200031B681A7C42F00102CB
:103510001A744BF21033C2F200031B684FF0000222
:103520009A731A725A72704710B5044642F2645385
:10353000C2F200031A684BF20463C2F200031B6874
:1035400033F910305380032813D142F26453C2F28E
:10355000000319684BF20462C2F200021268B2F969
:1035600012008880B2F918200A801B68B3F9042081
:10357000DA8042F26453C2F200031868B0F90430F2
:103580004BB94BF21843C2F200031B6893F830307A
:1035900013F0010F03D0437C43F00403437400F1A4
:1035A000060042F26C53C2F200031B68B3F95830B4
:1035B00046F26761C6F2666181FB03214FEAE3735D
:1035C000C3EBA10101F1140109B2FEF7E5F942F2E2
:1035D0006453C2F200031B68B3F90220B3F906007A
:1035E00011B28842C8BFDA80042C40F0A18042F2B8
:1035F0006C52C2F20002126892F82E1011F0200FE5
:103600002BD1B2F92C204B49B1F9001014B208B2F9
:10361000844222DA4BF21040C2F200000280464A95
:10362000B2F9000009B2B3F90220A2F1FA024FF098
:103630000003FEF71BFA42F26453C2F200031B6858
:10364000B3F9021042F2B652C2F2000212888A1A8C
:10365000DA815A7C42F004025A7442F2BC53C2F23C
:10366000000348F2A5429B5C13F0020F2ED04BF2F0
:103670001042C2F2000242F2BC53C2F2000303F550
:103680000441B1F87210118003F5B443B3F921007D
:1036900042F26454C2F200042268B2F90220B3F983
:1036A0001730D21A4FF4C8714FF00003FEF7DEF95D
:1036B0002368B3F9021042F2B652C2F20002128835
:1036C0008A1ADA815A7C42F004025A744BF2D433DB
:1036D000C2F200031B6893F9F3343BB942F2BC53C6
:1036E000C2F2000393F83630092B0BD142F2645337
:1036F000C2F200031B685A7C42F004025A74B3F908
:103700000220DA8142F26454C2F20004236803F119
:103710000E00B3F90610FEF73FF923685A7C12F049
:10372000040F05D14FF000029A73DA739A70DA70C1
:1037300010BD00BFCF7F0020DF7F0020F0B583B039
:1037400042F26C53C2F20003186890F8682053B23A
:10375000012B09DD4BF2D433C2F200031B6893F84E
:10376000D13413F0020F21D052B1B0F96C31A0F86E
:1037700068314FF0060380F8783180F8903105E029
:1037800000F5B3704FF01801FDF7C8F94BF2D433D0
:10379000C2F200031B684FF0000283F8B02083F8E8
:1037A000B12083F8982083F89920AAE24FF0010312
:1037B00080F8903180F87831FFF78AFE4BF210469E
:1037C000C2F20006308042F2BC55C2F2000505F597
:1037D000B444B4F90900B4F90B1094F911204FF076
:1037E0000003FEF743F942F26C53C2F2000318687B
:1037F00000F5B67042F2B657C2F20007B7F90010F2
:10380000FEF7CAF805F50445B5F872303380B4F90F
:103810006B00B4F96D1034F96F2FA2F57A724FF086
:103820000003FEF723F94BF2D433C2F200031B6806
:10383000B4F900103A888A1AA3F80A25B4F90020CE
:10384000B2F57A7F07DA6FF0170283F80A254FF096
:10385000030283F80B254BF20463C2F200031B68DA
:10386000B3F90C300193474AB2F90020934216DDB8
:1038700042F2BC53C2F2000348F2A5429B5673B118
:1038800042F26C53C2F200031B684FF01A0283F835
:10389000902183F878213B4BB3F9003001934BF230
:1038A0001046C2F2000642F2BC54C2F2000404F513
:1038B0000443B3F87230338004F5B447B7F96300BA
:1038C00000F5FA714FF0C8024FF00003FEF7CEF892
:1038D00042F21E53C2F2000342F2B655C2F2000594
:1038E0002A881A8094F83F3094F8402043EA022353
:1038F0003380B7F95D10A1F5FA704FF064024FF014
:103900000003FEF7B3F84BF2D433C2F200031B6896
:103910002A8893F9790411B2884207DA07F1610124
:10392000B1F9001083F8F11483F8792493F8F124A5
:1039300051B200290ADD02F1FF3283F8F12442F28C
:10394000B652C2F2000293F97934138042F21E5348
:10395000C2F200031B881AB2642A15DD4BF2104232
:10396000C2F2000242F2B651C2F200010988C1F16E
:103970006401118042F21E52C2F20002A3F16403FC
:10398000138013E0218000204BF21042C2F20002AB
:1039900042F2B651C2F2000109885B1A138042F26A
:1039A0001E53C2F200034FF000021A804BF2104483
:1039B000C2F2000420464FF00001FDF7EDFFBDF913
:1039C00004102046FDF7EEFF42F26C53C2F20003F2
:1039D0001B682288A3F868214BF20463C2F200033B
:1039E0001B68B3F90E3002AD45F8043DFFF770FDDA
:1039F000C0F100002080C44CB4F90D00B4F90F10E0
:103A000094F912204FF00003FEF730F842F2B6535B
:103A1000C2F200031988C1F1640109B22846FDF71A
:103A2000C1FFB4F96530019A934208DA42F2BC5200
:103A3000C2F2000248F2A541525602B101934BF284
:103A40001042C2F2000242F2BC53C2F2000393F8E9
:103A50003F1093F8400041EA0021118003F5B44380
:103A6000B3F95B10A1F5FA704FF064024FF0000358
:103A7000FDF7FCFF4BF2D433C2F200031B6842F2A5
:103A8000B652C2F20002128893F9780411B2884249
:103A900006DD9E49B1F9001083F8F21483F878240A
:103AA00093F8F22451B200290ADD02F1FF3283F8C3
:103AB000F22442F2B652C2F2000293F97834138033
:103AC0004BF21044C2F2000442F21E52C2F2000253
:103AD00042F2B653C2F2000312881B88D31A238025
:103AE00020464FF00001FDF757FFBDF904102046B6
:103AF000FDF758FF42F26C53C2F200031B682288A4
:103B0000A3F8802193F9901113292BDC4BF2D431C7
:103B1000C2F200010968B1F9B00046F26764C6F26A
:103B2000666484FB00544FEAE070C0EBA40012B25C
:103B300000B2824204BF092283F89021B1F9B0207B
:103B400046F26761C6F2666181FB02014FEAE272EA
:103B5000C2EBA102B3F9840112B2904204BF0A225F
:103B600083F8902142F26C53C2F200031B6893F970
:103B70007821132A2CDC4BF2D432C2F200021268F4
:103B8000B2F9981046F26760C6F2666080FB0140A9
:103B90004FEAE171C1EBA001B3F9684109B28C426F
:103BA00004BF092183F87811B2F9982046F26761C1
:103BB000C6F2666181FB02514FEAE272C2EBA102DA
:103BC000B3F96C0112B2904204BF0A2283F8782143
:103BD0004BF2D433C2F200031B6842F2BC52C2F271
:103BE0000002B2F9415029B201F1060202EB420093
:103BF00003EBC00090F9130048B14BF26430C2F2FD
:103C00000000006810F8120010F0010F1CD04FF0F7
:103C1000000483F8B04083F8B14042F26C50C2F225
:103C20000000006880F8804180F8814180F884417C
:103C300080F8854190F88E4144F0010480F88E416F
:103C40004FF0150480F89041C1F1070101EB4100EC
:103C500003EBC00090F9130060B12DB24BF2643059
:103C6000C2F200000068C5F1070510F8150010F059
:103C7000010F1CD042F26C50C2F20000006890F8B4
:103C8000764144F0010480F876414FF0000483F857
:103C9000984083F8994080F8684180F8694180F83D
:103CA0006C4180F86D414FF0150480F8784142F284
:103CB0006C50C2F200000068B0F8504014F0010FE0
:103CC00005D04FF01E0480F8784180F89041C1EB98
:103CD000C10401EB8401591891F8C01111F0080FCB
:103CE0001CBF1F2180F87811C2EBC20102EB8102D8
:103CF0009B1893F8C03113F0080F1CBF1F2380F8E6
:103D0000903103B0F0BD00BFBC7F00201D800020BB
:103D10002DE9F041054642F26453C2F200031A68ED
:103D20004FF0000393744BF21033C2F20003196892
:103D300091F913301BB9FFF7E3FBBDE8F0814BF2BB
:103D4000D233C2F200034FF000001880B1F91430F2
:103D500093812E464BF20463C2F200031B6833F9D1
:103D600015304BB94FF0190393744BF2D233C2F2B2
:103D700000034FF0010119804BF21843C2F2000317
:103D80001B6893F8301011F0010F0DD093F931300A
:103D900053B94FF0150393744BF2D233C2F20003C0
:103DA0001A8802F101021A804BF2D233C2F20003E8
:103DB0001C881CB1FFF7A4FBBDE8F08142F26453FC
:103DC000C2F200031B68B3F90C2052B94FF0200275
:103DD0009A741A7C42F002021A74FFF791FBBDE854
:103DE000F0812846FFF7A0FB4BF2D233C2F200036A
:103DF0004FF000021A8006EB46064FEAC6064BF269
:103E0000103CC2F2000C4FF41477644842F2645143
:103E1000C2F200014BF2D233C2F2000324B2DCF84A
:103E2000002092F90F2007FB026202F58C72A218A3
:103E300012F800800A6802F804801C8804F101046A
:103E4000A4B21C8022B2072AE8DD4BF21033C2F282
:103E500000031A6842F2BC51C2F2000192F90F301D
:103E600005EB450040F22E5404FB03F303EBC003C3
:103E7000CB1803F5B643598903F1080311811B7A66
:103E80009373B2F908303BB142F26453C2F20003BB
:103E90001B684FF00101997442F2BC53C2F2000357
:103EA00092F90F1005EB45054FF4147000FB01F17A
:103EB00001EBC5055B1993F8303113F0040F0BD0FB
:103EC00042F26453C2F200031B684FF0020199747E
:103ED000597C41F00401597442F26453C2F2000368
:103EE0001B68B2F9081046F26760C6F2666080FB94
:103EF00001404FEAE171C1EBA001B3F9024009B200
:103F00008C4204BF09219974B2F9082046F2676116
:103F1000C6F2666181FB02014FEAE272C2EBA102C6
:103F2000B3F9060012B2904204BF0A229A74B3F9A0
:103F30000E2012B14FF006029A74B3F90610B3F9CD
:103F40000220A2F164029142C4BF18229A74B3F90C
:103F50000C10B3F90220A2F1320291420ADA4BF2BC
:103F60001842C2F20002126892F90120642A04BFCA
:103F700014229A744BF21843C2F200031B681B7898
:103F800013F0010F07D042F26453C2F200031B6822
:103F90004FF015029A74BDE8F08100BFC3250020E0
:103FA00038B505464BF21033C2F200031C6894F991
:103FB0000E3013B9A371E37138BDB4F9083046F27D
:103FC0006762C6F2666282FB03124FEAE373C3EBD9
:103FD000A202B4F91410521A92B291B242F21E53D4
:103FE000C2F20003198002F109039BB2082B04D925
:103FF00002F1FF3292B2082A0CD842F21E53C2F2EA
:1040000000034FF000021A804BF20C43C2F200038F
:104010001A6005E008B24BF20C43C2F200031860CC
:104020004FF00003A371E3714BF21042C2F20002A1
:1040300013804FF496704FF47A714FF06402FDF7DD
:1040400015FD42F26453C2F200031A6842F2B653FD
:10405000C2F200031B8813721BB2502B12DD4BF20D
:10406000D433C2F200031968C5EBC50305EB830323
:10407000CB1893F8C03113F0010F03D0537C43F0F9
:10408000100353744BF21043C2F200031A88C2F1BA
:1040900000021A804FF496704FF47A714FF0640268
:1040A0004FF00003FDF7E2FC42F26453C2F200035A
:1040B0001A6842F2B653C2F200031B88117A5918EB
:1040C00011721BB2502B12DD4BF2D433C2F200033B
:1040D0001B68C5EBC50105EB81055D1995F8C0317D
:1040E00013F0010F03D0537C43F01003537438BD19
:1040F000F8B506464BF21033C2F200031F6807EB17
:1041000040074BF20433C2F200031C6894F90150DB
:104110004BF21043C2F200031D80FFF7D9F92DB214
:10412000C0F1000000B200FB05F544F6D351C1F226
:10413000620181FB05314FEAE575C5EBA11189B23A
:1041400042F2B653C2F20003198042F21E53C2F289
:1041500000034FF000021A8042F26453C2F20003DF
:104160001A68B2F9003098B2E0B1B2F90E209B1A89
:1041700094F902004BF21042C2F20002108042F2A7
:104180001E52C2F2000200B21BB203FB00F348F25F
:104190001F50C5F2EB1080FB03504FEAE373C3EBF3
:1041A0006013138094F9000042F21E52C2F2000222
:1041B000B2F9003009B2C3185B18012BB8BF012354
:1041C000C7F80230CEB94BF20433C2F200031B68C9
:1041D00093F90010C1F16401B2F90020891A42F28A
:1041E000B653C2F20003B3F900208B1AC7F80230AD
:1041F000002BDCBF0123C7F80230F8BD70B54BF2CD
:104200001843C2F200031B681B7813F0010F08D09B
:1042100042F26453C2F200031B685A7C42F002026D
:104220005A744BF21033C2F200031A6842F2BC53C4
:10423000C2F2000392F90F404FF4947505FB040499
:1042400003EB440393F93E424BF21043C2F20003E6
:104250001C8042F26453C2F200031B68B3F90E6083
:10426000B3F90250AE420CDA5D7C15F0020F08D1B2
:1042700092F90E202AB124B2632CDCBF45F0200550
:104280005D744BF21033C2F200031B6893F90E30D9
:10429000002B40F087804BF2D433C2F200031B683E
:1042A000B3F99431002B40F3C180032800F2BE80A3
:1042B00042F2BC53C2F2000303F5B442B3F93D002D
:1042C000B2F92D30984217DA42F26C53C2F2000371
:1042D0001B68B3F95C0042F2BC53C2F2000303F561
:1042E0000442B2F97220821A03F5B44303F12F039A
:1042F000B3F900309A422DDC0846FCF715FD42F276
:104300006C53C2F200031B68B3F95830C01A00287E
:104310003FDA4BF20463C2F200031B68B3F91C30AE
:1043200048F21F52C5F2EB1282FB03124FEAE3710F
:10433000C1EB62124FF0640101FB12331BB2592B27
:1043400008DD4BF2D433C2F200031B6893F9D33477
:10435000002B1EDD42F26453C2F200031B685A7C3C
:1043600042F008025A744BF21033C2F200031B6889
:1043700093F91620012A0CD14BF2D432C2F200027A
:104380001268B2F9A02122B9B3F9042002F1640243
:104390009A804BF21033C2F200031B6893F90E307F
:1043A000002B43D042F26453C2F200031B68B3F9FE
:1043B0000E10B3F9062091420EDD5A7C12F0020F66
:1043C0000AD14BF21041C2F20001B1F900100029EC
:1043D000C4BF42F040025A7442F26453C2F2000376
:1043E0001B685A7C12F0440F20D14BF21031C2F2FC
:1043F0000001096891F91710C1B94BF2D431C2F22A
:1044000000010968B1F9941100290FDA4BF210414B
:10441000C2F20001B1F9001041B91A49B1F97210A4
:10442000B1F5FA7FC4BF42F008025A7442F26453F5
:10443000C2F200031B685A7C12F0400F0BD04BF203
:10444000D431C2F200010968B1F994110029BCBF4E
:1044500062F07F025A7442F26453C2F200031B6896
:104460005A7C12F0200F0BD04BF2D431C2F2000173
:104470000968B1F994110029C4BF62F07F025A742F
:1044800070BD00BFBCA9002010B442F29253C2F22A
:1044900000034FF000021A8042F26453C2F200039C
:1044A0001B685A7C12F0280F08D14BF21032C2F26E
:1044B000000212684FF00004147154715B7C13F019
:1044C000480F08D14BF21033C2F200031B684FF0C3
:1044D00000029A70DA7042F26453C2F200031B6861
:1044E0005B7C13F0880F6FD013F0800F13D04BF26A
:1044F0001033C2F200031B6893F91630012B0AD166
:104500004BF2D433C2F200031B6893F8022502F188
:10451000010283F802254BF21033C2F200031A683D
:104520004BF2D433C2F200031B6893F9033502EB5C
:104530004303B3F902300A689A4207DA0B604BF280
:10454000D433C2F200031B6883F86F044BF21033BC
:10455000C2F200031A684BF2D433C2F200031B68A4
:1045600093F9033502EB4303B3F902304A689A42E8
:1045700009DA42F26452C2F200021268527C12F06E
:10458000080F08BF4B604BF21033C2F200031A68E9
:104590004BF2D433C2F200031B6893F9033502EBEC
:1045A0004303B3F90230886898420DDA92F9162075
:1045B000012A09D142F26452C2F200021268527C0E
:1045C00012F0080F08BF8B6010BC70474BF2D43359
:1045D000C2F200031B68B3F99E212AB342F264526F
:1045E000C2F200021268127C12F0400F1FD04FF08E
:1045F000000283F8D224B3F99401B3F99E3190FB01
:10460000F3F04FF0320303FB00F04BF20433C2F23D
:1046100000031B6893F9043090FBF3F042F200535F
:10462000C2F20003186070474FF0000070474FF06F
:10463000000070474BF2D433C2F200031968B1F99D
:10464000A02193B203B342F26453C2F200031B6889
:1046500093F91030002B1ADAB1F9940112B290FBE1
:10466000F2F24FF0320000FB02F04BF20433C2F2E0
:1046700000031B6893F9043090FBF3F042F20053FF
:10468000C2F20003186070474FF0000070474FF00F
:10469000000070474BF2D433C2F200031B68B3F939
:1046A00092214FF0640000FB02F248F21F50C5F265
:1046B000EB1080FB02104FEAE272C2EB2010C0EB5D
:1046C00000104FEA4000B3F90A3590FBF3F042F2D4
:1046D0000053C2F200031860704700BF4BF2D4329F
:1046E000C2F200021368B3F90A3500FB03F048F682
:1046F0008903C8F6880383FB00131B184FEAE07098
:10470000C0EB23104FF0320303FB00F342F20052E0
:10471000C2F20002136048F21F52C5F2EB1282FB94
:1047200003124FEAE373C3EB621070472DE9F04FB9
:1047300083B0009042F26C53C2F200031B68B3F9DD
:1047400084210192B3F96C91B3F98071B3F9684196
:104750004BF2D433C2F20003D3F80080D8F89A2089
:1047600092B24BF21043C2F200031A8012F4004FCF
:1047700006D04BF21043C2F200034FF000021A8041
:104780004BF21043C2F20003B3F800E0984890F8EF
:104790005020114690F84F00C2EB0E0505FB00F5C6
:1047A000ADB21D8015F4004F06D04BF21043C2F29B
:1047B00000034FF000051D804BF21043C2F20003CE
:1047C0001D880FFA85FC8A4B93F852309E1AB44527
:1047D00007DC0FFA8EF6B242D4BF0CEB0206664439
:1047E00000E01E46DFF808E29EF851E04D19ED1A90
:1047F0002DB20EFB05F595FBF0F5ADB24BF2104175
:10480000C2F200010D8015F4004F06D04BF21041AA
:10481000C2F200014FF000050D804BF21041C2F2D0
:1048200000010D880FFA85FC714991F85410C3EB13
:10483000010AD445D4BF66440E46DFF8B4C19CF8E3
:1048400053C05D196D1A2DB20CFB05F595FBFEF5F5
:10485000ADB24BF2104AC2F2000AAAF8005015F4A9
:10486000004F04D055464FF0000AA5F800A04BF2C7
:10487000104AC2F2000ABAF90050AE195C4D95F91F
:104880001F50AAF800500FFA85FA564508DBCAEB0C
:10489000060606EBD6764FEA66050AEB050601E04A
:1048A0004FF00005A642C4BFC4EB060A5544BD4202
:1048B000C4BFC7EB050A564407EB040AC1EB0A0B59
:1048C0009BFBFCFCBCF1000FBCBF51464FF0000C41
:1048D000C91A91FBFEF111EB0C0C44BF53464FF08B
:1048E000000C9B1A93FBF0F010EB0C0044BF5246F7
:1048F00000208018FFF7F2FEA8F8A201019B9D425C
:10490000B8BF1D464E45B8BF4E46A642A8BF264674
:10491000BD42A8BF3D464BF21043C2F200034FF028
:1049200000021A800098FCF75BF938B94BF210438B
:10493000C2F200034FF000021A800FE00098FCF76B
:104940004FF94BF21043C2F2000342F26C52C2F232
:1049500000021268B2F95A20801A1880B44209D1B4
:10496000AF4207D14BF21043C2F20003B3F900305B
:10497000002B0CDCB14516D1019AAA4213D14BF29F
:104980001043C2F20003B3F90030002B0BDA4BF2F4
:10499000D433C2F200031B6893F8D32402F101025E
:1049A00083F8D32408E04BF2D433C2F200031B682F
:1049B0004FF0000283F8D3244BF2D433C2F2000349
:1049C0001B6893F9D324142AC4BF142283F8D32478
:1049D000A3F89860A3F8B05042F26C53C2F20003FF
:1049E0001B68A3F87461A3F88C5103B0BDE8F08F85
:1049F000BC7F00204BF20433C2F200031B6893F922
:104A0000043000FB03F048F21F53C5F2EB1383FBA5
:104A100000234FEAE070C0EB23107047F8B54FF069
:104A200000030B6042F26453C2F200031D686B7C0A
:104A300013F0040F07D04BF21033C2F200031B68CF
:104A40004FF001029A734BF21033C2F200031C685C
:104A500094F90E3023B923726372AB73EB73F8BD14
:104A600094F91230002B40F097804BF2D433C2F20D
:104A700000031B68B3F99401B4F90610FCF7B4FB0A
:104A800000283BD16B7C13F0100F37D0B4F90870BD
:104A9000B4F91430284620F80E3FB5F90610FCF79B
:104AA0007BFF42F26454C2F20004236803F10E005B
:104AB000B3F90210FCF776FF2368B3F90E6006EB3A
:104AC00086064FEA46064BF21033C2F200031C681A
:104AD0004FF00003A371E3714BF2D433C2F2000331
:104AE0001D68B81BFFF786FFD5F88E316FF06302A3
:104AF00002FB0030C5F88E012681F8BDB4F90830FC
:104B00003BB9B4F9003019B241F287329142D8BFB3
:104B100023814BF21033C2F200031B68D3F80A2042
:104B2000B3F90800801880B2188142F26452C2F2D0
:104B30000002126800B246F26761C6F2666181FB4C
:104B400000414FEAE070C0EBA10189B2D181B2F916
:104B5000060009B2814204DC00EB80004FEA40000D
:104B60001881B2F90210B2F90E00884204DB01EBA1
:104B700081014FEA41011981B3F9081046F26760DB
:104B8000C6F2666080FB01404FEAE171C1EB900123
:104B9000D181B3F908201A80F8BD00BF2DE9F84390
:104BA0004BF2EC33C2F200034FF000061E80304699
:104BB0004BF21037C2F2000741F2873942F26C55CE
:104BC000C2F200051C46C0B2FCF7FCFD3B68B3F91D
:104BD000080082B242B100B2FFF70CFF2B68B3F9B4
:104BE0005830C01A361814E0B3F9000003B24B4530
:104BF0000FDC2B68B3F9588002B20FFA88F39A429F
:104C000007DD1046FFF7F6FE0FFA88F8C8EB000044
:104C10003618208800F1010080B2208003B2032BF7
:104C2000D1DD3046BDE8F8832DE9F04F85B04FF077
:104C300000054BF2D438C2F200082E4642F26C57FF
:104C4000C2F200074BF2EC34C2F200042846FCF733
:104C5000DBFAD8F8003083F80365B3F99421002A11
:104C6000C4BF012283F803253B68B3F958309BB1D8
:104C700026803046C0B2FCF7A5FD0CF0B1F92078D3
:104C8000FFF746F8208800F1010080B2208003B2CF
:104C9000052BEFDDFEF752FD05F10105EDB2082D04
:104CA000D4D14FF000084BF2D436C2F2000642F2E3
:104CB000BC5AC2F2000A4BF2EC34C2F200045FFAB2
:104CC00088F94846FCF7A0FA4FF0000503950295D5
:104CD000019533684FF0FF0283F86F240CF080F9E0
:104CE000336883F802554FF4147303FB08A3B3F938
:104CF000A130002B00F0DA80284625804BF21035D9
:104D0000C2F2000542F26457C2F20007C0B2FCF7DB
:104D100059FD2078FFF744F92B684FF000029A7490
:104D20000CF05EF93B681A7C12F0010F43D1B3F925
:104D30000E2062B12A684FF0010191739174B3F9AA
:104D40000E3003EB830303FA01F3138133E02A6887
:104D5000B2F9082046F26761C6F2666181FB020182
:104D60004FEAE272C2EB9102DA810CF039F94FF0AE
:104D70000000FFF7BDF94FF00100FFF7B9F90CF0A3
:104D80002FF920784946FFF739FA207801A9FFF773
:104D90007BFB33682A6893F9031502EB4102B2F9F1
:104DA00002103A685181BDF80820A3F87024BDF8BC
:104DB0000C20A3F87224208800F1010080B220802A
:104DC00003B2052BA2DD3368B3F90C2542F26C5314
:104DD000C2F200031B68A3F866213568FFF75AFC8E
:104DE000C5F89A004846FFF7A1FC33684FF0000071
:104DF00083F89E0183F89F0183F8A00183F8A10145
:104E0000208042F26457C2F200074BF21035C2F222
:104E10000005C0B2FCF7D6FC3B681A7C12F0010F0B
:104E20003CD13168B1F970041FFA80FCD5F800E07C
:104E300091F903950EEB490EBEF902E000B28645EA
:104E40000BDBBCF1000F08D042F040021A74B1F93C
:104E50009E3103F10103A1F89E3129683368B3F94B
:104E600072241FFA82FE93F9030501EB4000B0F9AA
:104E7000020012B2904211DBBEF1000F0ED091F988
:104E80001620012A0AD13A68117C61F07F01117461
:104E9000B3F9A02102F10102A3F8A021208800F1BA
:104EA000010080B2208003B2052BB2DD08F10108B9
:104EB000B8F1080F7FF403AF42F2BC53C2F2000313
:104EC000B3F9411048F2974299544FF0000442F26E
:104ED0006C55C2F200054BF2D438C2F20008994674
:104EE0002046FCF791F92B68B3F95820002A00F00E
:104EF000B780D8F8002092F86F1411F0800F40F0BE
:104F0000AF8049B201EB410003EBC00090F8E7002D
:104F100010F0080F00F0A48001EB410103EBC10386
:104F200093F8E63013F0080F40F09A804BF2D2313C
:104F3000C2F200014FF000030B8082F89E3182F82C
:104F40009F3182F8A03182F8A131B2F99431002B5F
:104F50003ADA4FF000073E460CF042F8D8F800204D
:104F600092F96F3403EB430102EBC10191F9131085
:104F700041FA06F111F0010F1ED003EB43034FF489
:104F8000147101FB06F101EBC3034B4493F830317C
:104F900013F0080F10D107EB090303F5C04393F991
:104FA000043013B192F9023533B14BF2D233C2F26D
:104FB00000034FF001021A8006F1010607F5A4670D
:104FC00007F10E07082EC7D14BF2D233C2F200030D
:104FD000B3F90030002B43D1D8F8001040F22E5E18
:104FE0004FF014074FF4147691F96F2402EB42004E
:104FF00001EBC00090F9130040FA03F010F0010F2C
:105000002AD04FEA420A0AEB02000EFB03FC0CEB2B
:10501000C000484400F5B640524401EBC202927B06
:10502000C2F10102027491F96F2402EB42020CEB0F
:10503000C2024A4402F5B642577691F96F2402EB58
:10504000420206FB03F000EBC2024A4492F82F0131
:1050500040F0080082F82F0103F10103082BC3D1AF
:1050600004F10104E4B2082C7FF43AAF0BF0B8FF6E
:105070004BF2EC33C2F200034FF000021A801E46DE
:105080004BF2D439C2F20009C7E00BF0A9FF204669
:10509000FCF7BAF83078FCF795FBD9F800304FF000
:1050A000000283F8F42483F8F52483F8F62483F8C7
:1050B000F7243A68127C12F0010F1AD14BF2103229
:1050C000C2F200021268917D83F80F1592F90F2049
:1050D00042F2BC53C2F2000340F22E5808FB0238E1
:1050E00008F5BE48D8F8F650FFF770FA2D18C8F842
:1050F000F65004F10104E4B2082CC6D14FF00004CC
:1051000042F26455C2F200054BF210382046FCF71B
:105110007BF83078FCF756FB2B681B7C13F0010FF3
:105120006ED14346C2F200031B6893F91620012A90
:1051300066D093F90F3042F2BC52C2F2000240F244
:105140002E5101FB032303F5BE42D2F8F61003F5FE
:10515000C04393F911204BF26233C2F200031A806C
:1051600042F20053C2F2000312B291FBF2F21A6053
:105170000BF036FFD9F80070B7F994A1D34697F930
:10518000023553B142F20053C2F200031868FFF730
:1051900031FCC0EB0A0AA7F894A1B7F9941158465C
:1051A000FCF722F828B94FF0000387F8943187F80C
:1051B00095314346C2F200031A6842F20053C2F22C
:1051C00000031B68C2F80A3030784BF21041C2F27B
:1051D0000001FFF723FC0BF003FF42F26C53C2F215
:1051E00000031B682A68B2F90E20B3F9E00111B27E
:1051F000884205DAB6F900100529D8BFA3F8E021E6
:1052000004F10104E4B2082C80D1338803F10103D6
:105210009BB233801BB2052B06DC4FF0000442F238
:105220006457C2F2000730E70BF0DAFE4FF00008D7
:105230004BF2EC34C2F20004C14642F26455C2F2B1
:1052400000054BF2D43AC2F2000A4046FBF7DCFFFD
:10525000A4F8009048464BF21037C2F20007C0B2E3
:10526000FCF7B0FA0BF0BCFE2B681B7C13F0010FAF
:1052700022D13E6896F91630012B1DD1FFF7DAF9DD
:10528000C6F80A0020784BF21041C2F20001FFF785
:10529000C5FB42F26C53C2F200031B682A68B2F9E4
:1052A0000E20B3F9E00111B2884205DAB4F900101A
:1052B0000529D8BFA3F8E021208800F1010080B2C1
:1052C000208003B2052BCADDDAF8003093F90225FD
:1052D00052B993F8D22402F10102D2B283F8D22457
:1052E00052B2142A03DC08E083F8D29405E0DAF81D
:1052F00000304FF0140283F8D22408F101085FFA5D
:1053000088F8B8F1080FA0D105B0BDE8F08F00BF54
:1053100070B54FF000044BF2D435C2F2000542F2F2
:105320006C56C2F200062046FBF76EFF2B68B3F9FD
:105330008C3423B13368B3F9D421A3F888204FF01B
:105340000000FDF77BFC4FF00100FDF777FC4FF00C
:105350000200FDF773FC4FF00300FDF76FFC4FF008
:105360000400FDF76BFC4FF00500FDF767FC04F14E
:105370000104E4B2082CD6D170BD00BF2DE9F04F76
:1053800085B042F2BC53C2F20003B3F94130DBB244
:10539000C3F107028DF80C2003F106038DF80D30E0
:1053A0004FF0000101914BF2EC34C2F2000442F2E2
:1053B000925BC2F2000B019BD8B2FBF725FF4FF0C6
:1053C0000602228042F26C55C2F2000542F2645796
:1053D000C2F200074BF2D436C2F200064BF210388C
:1053E000C2F200084FF4947ADDF804C00AFB0CFA0C
:1053F000A2F106039BB2ABF8003012B202EB4202FC
:10540000296801EBC20202F1D6023A601BB204A97C
:10541000CB1813F8043C03EB4300316801EBC000E8
:10542000C8F80000534403F58E7342F2BC5CC2F22C
:10543000000C0CEB430303F105014BF2184CC2F2D4
:10544000000CCCF80010B0F910C01FFA8CF9B9F1BB
:10545000000F08D00CF1FF3C20F810CF4FF00001F6
:10546000FCF79AFA0EE0B2F90E001FFA80FC42F245
:105470001E52C2F2000210805B7913F0010F08BFC8
:1054800081F801C0228802F1010292B2228013B297
:10549000072BADDD019901F10101019108298AD1A4
:1054A00005B0BDE8F08F00BF2DE9F0414BF2EC33C1
:1054B000C2F200034FF0000018804BF21845C2F210
:1054C00000054BF21036C2F200064FF014074FF001
:1054D00028081C46C0B2FCF775F92B685B7803F10D
:1054E000FF33DBB2622B08D83368DF75B3F90820CD
:1054F000B2F57A6FC8BF83F817803368DA7D51B28E
:105500000029CCBF02F1FF320022DA75208800F1B9
:10551000010080B2208003B2052BDBDDBDE8F08105
:1055200030B40D4B93F8471099B14FF0000342F29D
:10553000BC55C2F2000540F22E54184604FB03523B
:1055400002F5BE42A2F88A0003F10103DAB28A42F0
:10555000F4D330BC704700BF3C5F00202DE9F04120
:1055600082B004464BF20463C2F200031B685B8DF9
:10557000002B00F0308142F26C53C2F200031F682E
:105580004BF2D433C2F20003D3F800C0BCF9743438
:10559000A7F88E304FF000038DF807308F4B93F84B
:1055A00047209DF807309A4235D942F2BC51C2F2E9
:1055B00000014FF0C80000FB041505F5A64540F2B8
:1055C0002E569DF80730A3421AD09DF8073000FBF5
:1055D000031303F5A64303F1FA03B5F80181B3F809
:1055E000073098450CD19DF8073006FB031303F5EF
:1055F000BE4303F1880393F90530002B40F0EB80A4
:105600009DF8073003F10103DBB28DF807309DF8F8
:1056100007309342D5D3B7F96930002B00F0DB8017
:10562000BCF9883403F10103ACF8883442F21E530C
:10563000C2F200034FF000021A80B7F90E20B7F94A
:10564000623098B211B21BB2CB1A6549B1F90010A1
:105650008B4203DC12B2B2F5165F02DD002840F087
:10566000BA80B7F958502046FBF75EFB2D1A5D4B08
:10567000B3F900309D4200F3AE802046FBF754FBA7
:1056800042F26C53C2F200031B68B3F95820811A2E
:10569000554AB2F9002091420FDAB3F90E2091B2C7
:1056A000B3F9623012B29A1A504BB3F900309A42F1
:1056B000C0F29180002900F08E802046FBF734FB79
:1056C0004BF21047C2F2000742F26C56C2F20006DB
:1056D0003368B3F95830C31A3B80454CB4F99D0088
:1056E000B4F9A110254635F99F2FB4F9A330D21A89
:1056F0004FF00003FCF7BAF942F21E53C2F2000366
:10570000B5F9001042F2B655C2F200052A888A1A8D
:105710001A803368B3F96220B3F90E30D31A3B8094
:10572000B4F9A700B4F9AB10274637F9A92FB4F99B
:10573000AD30D21A4FF00003FCF798F9B7F900200A
:105740002B88D31A9BB22B803268B2F90E1081B12C
:10575000B2F962206AB142F21E52C2F20002B2F9FC
:1057600000101AB2914204DD42F21E52C2F200024F
:1057700013804BF2D433C2F200031A68B2F98814D2
:1057800042F21E53C2F20003B3F90030C3EB03131D
:10579000B1EB830F1FDB42F29C53C2F200031B7874
:1057A00013F0020F17D14FF0010382F88B3442F24D
:1057B0006C53C2F200031B68B3F96910B2F9743478
:1057C000CB18A2F874344FF0000382F8883482F8C2
:1057D000893482F88A3402B0BDE8F0813C5F002051
:1057E0006B800020618000205980002063800020B1
:1057F000BC7F002010B44BF26433C2F200031B687C
:1058000093F8442012F0010F40F095804FF0000211
:1058100083F845204BF20462C2F200021268528DF6
:10582000042A94BFD0B204204BF2D432C2F2000258
:10583000116891F98B2402F1FF32032A7BD8DFE84B
:1058400002F040022A5B91F98A444FF00302C8F249
:1058500000022240002A05DA02F1FF3262F0030260
:1058600002F1010252B24FF0010404FA02F292B2C4
:1058700042F21E54C2F20004228083F84520B1F99E
:10588000FA3443B942F26C53C2F200031B68B3F915
:105890006930A1F8FA344BF2D433C2F200031B682A
:1058A000B3F9FA246AB94FF0060283F8FA244FF0EC
:1058B000000283F8FB2493F88A2402F1010283F8A2
:1058C0008A244BF26433C2F200031B684FF00102DA
:1058D00083F843204BF2D433C2F200031B68B3F9C0
:1058E000FA148AB27AB94FF0050283F8FA244FF01D
:1058F000000283F8FB241EE04FF0000281F88B24A5
:1059000083F8432017E001F1FF3189B2A3F8FA14BC
:1059100089B993F88B2451B2032908D193F98A14D9
:10592000814204DA4FF0020283F88B2403E002F193
:10593000010283F88B2410BC704700BF10B4042808
:105940003ED8DFE800F03E03082025008B4237DB1D
:10595000591A09B235E05A18B2F5B46F10DD46F2A3
:10596000B703CBF20B6383FB020189184FEAE270A5
:10597000C0EBA1214FF4B46303FB112109B220E075
:10598000591809B21DE091421ADC511A09B218E007
:105990005318B3F5B46F10DD46F2B702CBF20B62C9
:1059A00082FB0341C9184FEAE370C0EBA1214FF419
:1059B000B46202FB113109B203E0511809B200E0F0
:1059C00000E0084610BC704710B422B101B110B914
:1059D00000FB03F01EE0091A89B242F2B652C2F28D
:1059E0000002118042F21E52C2F2000214884BF2F1
:1059F0001042C2F20002128812B900FB03F009E063
:105A000009B224B201FB04F112B291FBF2F2801848
:105A100003FB00F010BC70472DE9F04F8BB00990EC
:105A20008B4642F2BC51C2F200014FF4147303FBE7
:105A3000021202F1490242F26C53C2F200031A60F0
:105A40004FF0000382F8563082F8573042F2B650D9
:105A5000C2F20000B1F84320099CA21812B246F22B
:105A6000B701CBF20B6181FB024189184FEAE27466
:105A7000C4EBA1244FF4B46101FB142202801C4644
:105A800006930591009101934FF0FF00029004905E
:105A900042F2BC56C2F200064BF22058C2F2000895
:105AA00042F22E59C2F200094BF20A3AC2F2000A3F
:105AB00042F2B653C2F200030393E7B24FF032034F
:105AC00003FB046303F5884303F11B03C8F80030AC
:105AD000D878B3F90110B9F90020BAF90030FFF70E
