:020000040800F2
:1000000084FE002061D80008BDD80008BDD80008D3
:10001000BDD80008BDD80008BDD800080000000009
:10002000000000000000000000000000BDD8000833
:10003000BDD8000800000000BDD80008BDD80008E9
:10004000BDD80008BDD80008BDD8000865860008E6
:10005000BDD80008BDD80008BDD80008BDD800082C
:10006000BDD80008BDD80008BDD80008BDD800081C
:10007000BDD80008BDD80008BDD80008BDD800080C
:10008000BDD80008BDD80008BDD80008BDD80008FC
:10009000BDD80008BDD80008BDD8000811B40008BC
:1000A000BDD80008BDD80008BDD80008BDD80008DC
:1000B00075850008DD860008BDD80008BDD8000899
:1000C000BDD80008BDD80008BDD80008BDD80008BC
:1000D000BDD8000839D10008BDD80008BDD8000837
:1000E000BDD80008BDD80008BDD800080000000039
:1000F0000000000000000000000000000000000000
:100100000000000000000000BDD80008BDD80008B5
:10011000F5DC0008BDD80008BDD80008BDD800082F
:10012000BDD80008BDD80008BDD80008BDD800085B
:10013000BDD80008BDD80008BDD80008BDD800084B
:10014000BDD80008BDD80008BDD80008BDD800083B
:100150005FF808F141B14FF42053C4F200031A884C
:1001600092B21043188070474FF42053C4F200033A
:100170001A8892B222EA0000188070474FF4205388
:10018000C4F200039A8892B242F010029A8070473B
:100190004FF42052C4F20002938823F010034FEA78
:1001A00003434FEA13439380704700BF4FF420533B
:1001B000C4F20003988B80B21B8B40EA0340704767
:1001C00010B50446FFF7DAFF4FEA14424FF420530C
:1001D000C4F200031A83A4B29C83FFF7D9FF10BDB9
:1001E00010B50446FFF7CAFFC4F303424FF420538F
:1001F000C4F200031A81A4B29C81FFF7C9FF10BDAD
:100200004FF42052C4F20002938813F0200FFBD069
:10021000704700BF4FF42052C4F20002938823F0CD
:1002200008034FEA03434FEA134393804FF42052ED
:10023000C4F20002938813F0080FFBD0704700BF90
:100240004FF42053C4F200039A8892B21B881842DC
:1002500006D0024012F0FF0F0CBF002001207047B3
:100260004FF00000704700BF4FF42053C4F200036A
:100270009A8892B222EA0000988070478378A3F1AE
:100280000302D2B2072A11D80279C178891A182933
:1002900008DD12B94279012A04D9B3F10A0018BF66
:1002A00001207047D81E18BF012070474FF0000092
:1002B000704700BF70B448F68902C8F68802A2FBF6
:1002C00000434FEA5313C3EB0314A0EB8400C8713F
:1002D000A2FB03024FEA5212C2EB0210A3EB80030F
:1002E0008B714AF6AB23CAF6AA23A3FB02434FEA5B
:1002F000131303EB4300A2EBC0024A719BB203F15C
:10030000060242F29340C9F2492080FB0240801865
:100310004FEAA000C0EBC000121A0A714FF00104AE
:100320004FF0000240F26D154FF4B77612F0030F54
:100330000DD11AB1642A01D0C82A0AD104F1FF34C0
:10034000E4B2002C14BF28464FF4B77002E02846F0
:1003500000E03046834205D31B1A9BB202F1010232
:10036000D2B2E3E71C4602F5FA620A8010F0010FF0
:1003700003D03A2B84BF01339BB21E2B12D94FF00E
:100380001F004FF001024FF2F034C0F600041B1AB8
:100390009BB202F10102D2B2A01810F8010C9842EF
:1003A000F5D901E04FF001028A7003F10103CB702F
:1003B00070BC70472DE9F0410446FFF7F7FE054693
:1003C000FFF7F4FE8542F8D128462146FFF772FF79
:1003D00094F80580E6782579A7782046FFF74EFF48
:1003E00030B34FF00103237298445FFA88F8B8F1F4
:1003F000180F17D1ED18EDB2072D08BF00254FF2E9
:10040000F033C0F60003DB1913F8013CB34204D10A
:1004100007F10107FFB24FF0000606F10106F6B240
:100420004FF00008A77084F80580E670257102E09F
:100430004FF0000323724FF00000BDE8F08100BFD1
:10044000F0B585B0068840F26D1303FB06F39EB14C
:1004500006F1FF3206F1030548F21F51C5F2EB1118
:1004600081FB02414FEAE272C2EBE11404EBA50406
:10047000E318C2EB61129B1A4DF68B22CFF6F47291
:100480009A18877807F1FF34A4B264B14FF00003E3
:100490004FF2F035C0F60005E95C521803F1010394
:1004A000DBB29C42F8D848F21F53C5F2EB13A3FB12
:1004B00006134FEAD3134FF4C87101FB13639BB2C9
:1004C000A3B116F0030F0DD148F21F53C5F2EB1381
:1004D000A3FB06434FEA53134FF0640101FB13667D
:1004E000B6B21EB9012F88BF02F1FF32C379A3F55E
:1004F000A833A3F5C07341794FF4616404FB013163
:100500008379C3EB031301EB8301C47814194FF40F
:10051000A343C0F2010303FB0414204601A9FFF723
:10052000C9FE01A8FFF7AAFE08B1A4F561644FF067
:10053000010000F0C7F8FFF763FE2046FFF740FE1A
:10054000FFF75EFE4FF0000000F0BCF805B0F0BD14
:1005500082B04FF48053C4F202031A6842F00102E1
:100560001A6059684FF00002CFF2FF020A405A6049
:100570001A6822F0847222F480321A601A6822F417
:1005800080221A605A6822F4FE025A601A6822F029
:10059000A0521A604FF47F029A604FF00002DA62B4
:1005A000009201921A6842F480321A604FF480522D
:1005B000C4F20202136803F400330193009B03F1B9
:1005C00001030093019B1BB9009BB3F5A06FF1D110
:1005D0004FF48053C4F202031B6813F4003F14BFAE
:1005E000012300230193019B012B61D14FF40053A0
:1005F000C4F202031A6842F010021A601A6822F06C
:1006000003021A601A6842F002021A604FF4805323
:10061000C4F202035A685A605A685A605A6842F42F
:1006200080625A60D96A4FF47042CFF6FE720A4077
:10063000DA62DA6A42F4823242F41172DA621A68D9
:1006400042F080621A604FF48052C4F202021368D2
:1006500013F0006FFBD04FF48053C4F202035A68CA
:1006600022F47C125A605A6842F4E8125A601A68FE
:1006700042F080721A604FF48052C4F20202136892
:1006800013F0007FFBD04FF48053C4F202035A688A
:1006900022F003025A605A6842F002025A604FF494
:1006A0008052C4F20202536803F00C03082BFAD103
:1006B0004FF46D43CEF200034FF000629A6002B037
:1006C000704700BF4FF02003C4F20E23186070473C
:1006D0002DE9F003CB7803F00F0513F0100F1CBFCA
:1006E0008B781D430B782BB3D0F800C04FF000037C
:1006F0004FF001064FF00F0806FA03F20C88144081
:10070000944211D14FEA830708FA07F92CEA090C41
:1007100005FA07F74CEA070CCF78282F01D144617E
:1007200002E0482F08BF026103F10103082BE3D167
:10073000C0F800C00B88FF2B27D9D0F804C04FF0B9
:1007400000034FF001064FF00F0803F1080206FA0C
:1007500002F20C881440944211D14FEA830708FA40
:1007600007F92CEA090C05FA07F74CEA070CCF78D1
:10077000282F08BF4461CC78482C08BF026103F1E0
:100780000103082BE1D1C0F804C0BDE8F0037047B5
:100790004FF6FF7303804FF0020383704FF00403A2
:1007A000C3707047806880B2704700BFC06880B275
:1007B000704700BF0AB1016170474161704700BFD7
:1007C000C160704730B400284FF00003C4F2010349
:1007D000B4BFDB695B6884B200F44012B2F5401F1D
:1007E0000AD123F070634FF00002C4F20102556891
:1007F00025F07065556017E010F4801F0AD0C0F333
:1008000003424FF0030505FA02F223EA020343F024
:10081000706309E04FEA50524FEA021204FA02F202
:1008200023EA020343F0706331B14FEA50524FEABA
:10083000021204FA02F4234300284FF00002C4F22B
:100840000102B4BFD361536030BC704730B401F0D3
:1008500003024FEA82024FEA91014FF00003C4F213
:10086000010301F1020153F821504FF00F0404FA83
:1008700002F425EA040443F8214053F8214000FA29
:1008800002F2224343F8212030BC704782B001902D
:10089000019B33B1019B03F1FF330193019B002BBB
:1008A000F8D102B0704700BF70B584B04FF00900B6
:1008B0004FF001010CF090FF4FF40076ADF80C60A2
:1008C0004FF004038DF80F304FF003038DF80E3016
:1008D0004FF44064C4F20104204603A9FFF7F8FE78
:1008E0004FF48073ADF80C304FF014038DF80F30D7
:1008F000204603A9FFF7ECFE4FF47063ADF80C300F
:100900004FF40060C4F2010003A9FFF7E1FE4FF4C9
:10091000E0600EF009FB4FF017038DF800304FF048
:1009200000058DF801508DF802504FF001048DF84C
:10093000034068460EF002FB20464FF00901FFF726
:1009400085FF01968DF808504FF008038DF80930A7
:100950008DF80A4001A80CF0B3FF04B070BD00BFD1
:1009600038B54BF23824C2F200042B4D256040F21A
:10097000BF23A3800EF034FD05F5506303F1090396
:10098000C4F80930E3684FF4FA6262F31723E360B6
:100990000EF026FD05F50A5303F15903C4F8123091
:1009A0004FF48D73E38205F5D65303F11903C4F8B0
:1009B0001B306FF03F03E3774FF0010384F82030E2
:1009C00005F5E45303F1190363624FF4C86323850B
:1009D00005F5307303F10503C4F82D30236B4FF494
:1009E0001C6262F31723236305F5486303F10503D3
:1009F000C4F836304FF08403638705F5A65505F13A
:100A00001905C4F83F504FF0000384F843304FF00D
:100A1000060384F8443038BDEE5B0020F8B54BF295
:100A20002844C2F200043E4D256041F2CC27A78045
:100A300005F55A5606F17C06C4F8066040F2CA2352
:100A4000638105F5884303F10A03E3604FF4FA6319
:100A5000238205F5B24303F1DA03C4F812304FF4F0
:100A60008D73E38205F5A24303F1DA03A3614FF42A
:100A7000E073A38305F5A64303F19A03C4F81E307F
:100A80004FF4C863638405F5665303F1460363625C
:100A900040F64422228505F5864303F18603C4F817
:100AA0002A30E28505F5964303F1DA0323634FF418
:100AB000C063A3860EF094FC05F5044303F19A038A
:100AC000C4F836304FF4DB636387E563A4F8407005
:100AD00005F5B44505F1F405C4F8425042F6A613F5
:100AE000A4F8463042F2EC44C2F2000404F55A5332
:100AF0004FF0110232704FF01A0283F87E204FF04F
:100B0000180283F87F200EF06BFC04F55C5304F5AB
:100B1000665494F837201A704FF045025A70F8BDA9
:100B2000ED24002008B529B14FF0000300F8013B87
:100B30000139FBD10EF054FC08BD00BFF0B40346F0
:100B4000D9B14FF0000422464FF4887043F2C155EA
:100B5000C8F20E154FF6E8561C5D001980B2A5FBD1
:100B600000744FEAD43406FB140080B202F1010293
:100B700092B214468A42EFD301E04FF48870F0BC81
:100B8000704700BF002801DD002904DC002805DAD9
:100B90004FEAD17070474FF0010070474FF00000EE
:100BA000704700BF10B442F2A442C2F2000240F209
:100BB0004E2101FB00F142F2EC43C2F20003CC18DB
:100BC00004F1490414604BF29422C2F2000240F294
:100BD0002E5404FB003404F5B44404F1F50414600D
:100BE0004BF2C442C2F200024FF0560404FB003440
:100BF00004F55C5404F1020414604BF28422C2F246
:100C00000002C91801F50E7101F10301116042F2F1
:100C10006C42C2F2000200EB400103EB811101F5CE
:100C2000964101F1DB0111604BF2C042C2F20002B9
:100C30004FF0C80101FB003101F5A64101F19B0114
:100C400011604BF2B822C2F2000248F29B415918DF
:100C50004FF0D00404FB0011116042F29442C2F242
:100C60000002C0EBC00003F5A24303F1DB0303EB7A
:100C7000C003136010BC7047F0B583B04FF000079D
:100C800042F2EC46C2F20006F8B2FFF78BFF4FF0DB
:100C900000044FF0640505FB07F52B1903F52853F5
:100CA00003F1020306EB4303B3F807000DF107015C
:100CB0000DF0A6FC68B142F2A443C2F200031B6827
:100CC0004FF0010202FA04F2B3F950100A43A3F8FC
:100CD000502004F10104072CDFD107F10107082F90
:100CE000D2D103B0F0BD00BF2DE9F84304460EF0A9
:100CF00077FB4FF064000EF073F84BF22E23C2F234
:100D000000034FF000021A70022C04D9D04841F2BF
:100D1000CC21FFF707FFCF4C204641F6B631FFF755
:100D200001FF0EF05DFB04F5A65000F11E004FF42C
:100D30006351FFF7F7FE04F5A84000F176004FF489
:100D4000DB71FFF7EFFE0EF04BFB42F2EC42C2F21A
:100D500000024FF0010182F84710536C40F201107D
:100D600060F3172353644FF000036FF01F0082F805
:100D7000430082F84410517841F0200151704BF249
:100D8000B442C2F20002137053709370D3701371A7
:100D900053719371D3711372537293724BF2AE42CB
:100DA000C2F2000213804BF28822C2F200021380CA
:100DB00042F2EC44C2F2000440F20000C2F2000031
:100DC00003F5325202F16C0203EB4301415A04EB8A
:100DD0004202A2F8031003F10103792BF0D142F291
:100DE0007643C2F200034FF079021A809A4B4FF01B
:100DF000010283F832204FF0C00183F833104FF026
:100E0000A80183F8341083F835204FF0650183F88A
:100E100036104FF0090183F839104FF0040183F8C0
:100E20003A104FF0060183F8371083F838204FF05E
:100E30006F0283F83C204FF0280283F83B20874F55
:100E400038464FF0000342F2EC4EC2F2000E40F280
:100E50000006C2F2000603EB43040EEB840404F523
:100E6000874403F11A01C1EBC105C1EBC50171183B
:100E7000B1F99751A4F80D50B1F99951A4F8115056
:100E8000B1F99351A4F80B50B1F99511A4F80F10D2
:100E900090F8B715E17190F8B815617203F101038C
:100EA00000F137000B2BD6D14BF2AC23C2F200037A
:100EB0004FF000021A8042F27644C2F2000440F27F
:100EC0000006C2F2000606F51665D0B2FFF76AFE0C
:100ED0004FF0000323804BF29221C2F200019E46A4
:100EE0009C46A1F800C0734642F29440C2F2000052
:100EF0001BB2B4F90020D0F80080C2EBC2029044CB
:100F000003EB050919F8022008F803200B8803F108
:100F100001039BB20B809AB2062AE9D9238803F118
:100F200001039BB223801BB2072BDADD4BF2AC230B
:100F3000C2F20003B3F900204BF21843C2F20003DF
:100F40004FF0010199544BF2C043C2F20003D3F8B1
:100F500000E04FF0B40303FB026202F5186202F1F5
:100F600016024FF000030EEB430132F8020F8882A5
:100F700003F101035A2BF6D14FF0000323804BF20B
:100F8000C04EC2F2000E4BF2AC20C2F20000DEF8FE
:100F900000101BB2B0F9002002EB820203EB420208
:100FA00006EB4202B2F8382F21F81320238803F110
:100FB00001039BB223801AB2092AE8DD4BF2942385
:100FC000C2F20003D3F800804FF0000213464FF046
:100FD0002C0C4FF0010EC2EBC20102EB8101414427
:100FE00081F8BCC181F8BDE181F8BE3181F8BF3123
:100FF00081F8C13181F8C23181F8C33181F8C4313F
:1010000002F10102182AE6D14FF0000323804BF2CF
:10101000C440C2F2000002681BB206EB4301B1F803
:10102000D81F22F81310238803F101039BB22380F9
:101030009AB2162AEFD94FF00002228042F26C4198
:10104000C2F2000141F2F803C2F2000308E000BF5F
:10105000ED240020E95B00206C5E00206C01002084
:10106000086812B233F8F0EC20F832E0D1F800E072
:10107000228810B24FEAC000864453F8E4CC8EF8C0
:1010800006C033F8ECCCAEF802C0D1F800E07044F2
:1010900033F8E8ECA0F804E002F1010292B22280F9
:1010A00010B21728DCDD4BF2AC23C2F20003B3F917
:1010B0000030264A4FF49C7101FB032338464FF061
:1010C0000002C2EBC201C2EBC1017118B1F997E194
:1010D000A3F806E0B1F999E1A3F80AE0B1F993E1C8
:1010E000A3F804E0B1F99511198190F822109970D4
:1010F00090F8211003F80C1B02F1010200F13700F7
:101100001A2ADED14BF29223C2F200031A804BF26C
:10111000AC23C2F200031A8802F1010292B21A80D3
:1011200013B2072B7FF7D1AE0EF05AF94BF22823FA
:10113000C2F200034FF019021A7042F2EC43C2F2FD
:1011400000034FF050021A70BDE8F883B35E002030
:1011500010B442F29C43C2F2000342F2A441C2F234
:1011600000014FEA40021418096801EBC40101F1C3
:10117000D60119604BF23023C2F200034BF29421E6
:10118000C2F20001096801EBC40119604BF2D823D7
:10119000C2F200034BF28421C2F2000109688A18EE
:1011A0001A604BF22423C2F2000342F29442C2F2CC
:1011B00000024FEAC0010C1A126812191A604BF2B1
:1011C0009843C2F200034BF2C042C2F2000212681E
:1011D00002EB400000F11400186042F27043C2F2CA
:1011E000000342F26C42C2F2000212685118196008
:1011F00010BC7047F0B442F2EC43C2F2000303F5B6
:101200000442B2F96750D2F886406419C2F88640A9
:10121000D2F88C104FF4487606FB01F644F6D35012
:10122000C1F2620080FB06714FEAE676C6EBA116BA
:101230004FF0C80101FB0561C2F88C1080FB012052
:101240004FEAE171C1EB9011A3F83D1003F5A843FB
:1012500003F14F031B889BB142F2EC43C2F200033F
:1012600004EB44044FEA440444F6D352C1F2620250
:1012700082FB04724FEAE474C4EB9214A3F82F408B
:1012800042F2EC43C2F20003B3F93F0003F504421B
:1012900002F16902B2F900204FF0C80101FB02F12E
:1012A0004FF4487202FB001244F6D351C1F26201BE
:1012B00081FB02014FEAE272C2EB9112A3F83F20D8
:1012C000F0BC7047184B1B88C3B142F2EC43C2F22A
:1012D000000303F5044202F18602126802EB4202A7
:1012E0004FEA420244F6D351C1F2620181FB02018E
:1012F0004FEAE272C2EB9112A3F82F2042F2EC43C4
:10130000C2F2000303F50442D2F88C2044F6D35114
:10131000C1F2620181FB02014FEAE272C2EB91125B
:10132000A3F83D20704700BF3B790020B0F90030A2
:101330008B42B8BF01807047B0F900308B42C8BF04
:10134000018070472DE9F00105464BF23023C2F2CF
:101350000003D3F800C04FF000038CF816304BF2B6
:101360009843C2F200031C68238833B34FF0000394
:10137000184642F2EC47C2F200074FF064064FF005
:10138000010806FB035202F5265202F1540207EB54
:101390004202B2F807102288914209D108FA03F2FA
:1013A0001043C0B29CF8162002F101028CF81620FE
:1013B00003F10103082BE4D101E04FF00000BDE888
:1013C000F001704710B404464BF23023C2F2000320
:1013D0001B6893F9131011F0010F0DD14FF00103A9
:1013E000D8B241FA03F212F0010F07D103F1010361
:1013F000082BF5D1204601E04FF0000010BC7047EB
:1014000030B404464BF2D025C2F20005B5F90050C5
:10141000854201DD884207D142F2EA42C2F200026F
:101420004FF00003138012E08D4205DD42F2EA41E5
:10143000C2F200010A800AE042F2EA40C2F2000071
:101440002D1B02FB05F20C1B92FBF4F202801846E6
:1014500030BC704710B442F2EC43C2F20003B3F95F
:10146000411001F00101A3F8411003F5B443B3F9B1
:10147000CB00B42808D142F2EC43C2F200031A6C4C
:101480006FF317221A6475E042F2EC43C2F20003D4
:1014900003F5B442B3F93F40B2F94F309C4269DBE7
:1014A00042F2EC43C2F2000303F5044202F16B0284
:1014B000B2F90020101800B246F2B702CBF20B626C
:1014C00082FB004212184FEAE074C4EB22224FF470
:1014D000B47404FB120080B242F2EA42C2F200028B
:1014E000108003F5BE4383F8E41051B903B25F2BBB
:1014F00007DDB3F5847F04DC4FF001021E4B83F857
:10150000E42042F2EC43C2F20003B3F9413073B17C
:1015100042F2EA43C2F200031B88A3F155039BB2D7
:10152000BE2B04D94FF00002134B83F8E42042F2A3
:10153000EC43C2F2000303F5BE4292F9E420B3F992
:10154000413011469A4210D00B4A92F8E53003F12F
:101550000103DBB282F8E5305BB2042B0ADD42F214
:10156000EC43C2F20003A3F841104FF00002024B1B
:1015700083F8E52010BC7047EC83002010B582B0E2
:1015800004460CF0EBFE38B14FF0010021460DF19E
:1015900007020CF031FF14E09CB104F1FF34A4B257
:1015A0004F2C0ED84FEAD4024BF2B443C2F20003E0
:1015B00004F007044FF0010101FA04F4995C0C43B4
:1015C0009C5402B010BD00BF10B582B004460CF0B0
:1015D000C5FE38B14FF0000021460DF107020CF0B6
:1015E0000BFF13E094B104F1FF34A4B24FEAD4022C
:1015F0004BF2B443C2F2000304F007044FF00101C0
:1016000001FA04F4995C21EA04049C5402B010BD70
:1016100010B582B004460CF0A1FE28B120460DF1B1
:1016200007010CF047FF17E0A4B104F1FF34A4B2A6
:1016300004F007034FF0010202FA03F24BF2B44345
:10164000C2F200034FEAD4041B5D1A420CBF002013
:10165000012001E04FF0000002B010BD4BF28023EA
:10166000C2F200031B78012B05D14BF2B043C2F24A
:1016700000031B6818704BF28023C2F200031B7832
:10168000022B05D14BF2B043C2F200031B68186075
:10169000704700BF174B93F938304BB1034601E058
:1016A000232A04D013F8012B002AF9D100E01846B0
:1016B0000378F3B1232B1CD041F65062C2F2000232
:1016C00012784BF2E021C2F200018B5402F10102C8
:1016D000D2B210F8013F2BB941F65063C2F20003B9
:1016E0001A707047232BF0D141F65063C2F2000309
:1016F0001A7070476C5E00202DE9F04105460C46DB
:1017000042F2DA43C2F200031B7873B94BF2B043E2
:10171000C2F20003186041F65063C2F200031A7867
:101720005A70997001F00F02DA700DF059FEA4F1B1
:101730000403412B00F2A083DFE813F0E9019001DC
:101740009E039E036F029E039E039E039E039E03C1
:101750009E0352039E03C3009E03E901EF001A0299
:101760009E0343019E039E039E039E039E039E03CE
:101770009E039E039E0342009E039E039E036F02F0
:101780009E039E039E039E039E039E039E039E0351
:101790009E039E039E039E039E039E039E03D4020C
:1017A0009E039E039E039E039E039E039E039E0331
:1017B0009E039E039E039E039E039E039E031303AC
:1017C0002C8841F65063C2F2000319784BF2E022F4
:1017D000C2F200024FF03D00505401F101011970B6
:1017E0000DF0FEFD42F2DA43C2F200031B7853B95A
:1017F00042F26243C2F200031C8041F65063C2F21F
:1018000000031A785A702046FFF702FF78B141F6BC
:101810005063C2F2000319784BF2E022C2F20002D8
:101820004FF03100505401F1010119700EE041F602
:101830005063C2F2000319784BF2E022C2F20002B8
:101840004FF03000505401F10101197041F6506120
:10185000C2F200010A784CF6CD40CCF6CC40A0FB99
:1018600002324FEA121202EB82024FEA8202D2B235
:101870004BF2E023C2F2000302F11A05EDB24FF081
:101880005B065E5502F11B05EDB2A0FB04604FEA5A
:10189000D00000F130065E5502F11C05EDB200EB00
:1018A0008000A4EB400404F130045C5502F11D00FB
:1018B000C0B24FF05D041C5402F11E020A70BDE874
:1018C000F08142F2DA43C2F200031B784BB94BF2CB
:1018D000A243C2F200034BF2AC22C2F20002128811
:1018E0001A702A784BF2AC23C2F20003B3F900302D
:1018F0001A4241F65063C2F2000319784BF2E0221B
:10190000C2F2000214BF31203020505401F1010115
:1019100019700DF065FDBDE8F081B5F90030002BC0
:1019200013DA41F65063C2F2000319784BF2E02259
:10193000C2F200024FF02D00505401F10101197064
:101940002988C1F1000189B200E0298801F105016F
:1019500089B24CF6CD46CCF6CC46A6FB01714FEAD7
:10196000D10141F65064C2F2000422784BF2E02526
:10197000C2F20005AA18A6FB01834FEAD30303EBCA
:101980008300A1EB400101F13001D1709BB2A6FBB5
:1019900003C64FEAD60606EB8601A3EB410303F12B
:1019A000300353700DF01CFD237806F13006EE5421
:1019B000ED184FF02E02AA7003F104032370BDE866
:1019C000F0812E8841F65064C2F2000425784BF273
:1019D000E021C2F200014B194CF6CD42CCF6CC42CC
:1019E000A2FB06704FEAD00000EB8007A6EB47068B
:1019F00006F130069E7186B2A2FB06804FEAD00047
:101A000000EB8007A6EB470606F130065E7186B252
:101A1000A2FB06C04FEAD00000EB8007A6EB47060A
:101A200006F13006DE7080B2A2FB00624FEAD202FD
:101A300002EB8206A0EB460000F13000987002F144
:101A400030024A554FF02E025A701A710DF0C8FC40
:101A5000237803F107032370BDE8F0812D8841F658
:101A60005063C2F2000318784BF2E022C2F2000287
:101A700013184CF6CD44CCF6CC44A4FB05714FEAC8
:101A8000D10101EB8106A5EB460505F130051D717D
:101A90008DB2A4FB05814FEAD10101EB8106A5EBD4
:101AA000460505F13005DD7089B2A4FB01C44FEA9B
:101AB000D40404EB8405A1EB450101F13001597018
:101AC000A4B204F1300111544FF02E029A700DF0BF
:101AD00087FC092C11D941F65063C2F200031A7831
:101AE0004BF2E023C2F200034FF0210199549B18FE
:101AF0004FF030025A70DA701A7141F65063C2F238
:101B000000031A7802F105021A70BDE8F0812988F5
:101B100014F00F0421D041F65063C2F200031A788A
:101B200002F1FF3223464BF2E026C2F20006B6185D
:101B30004CF6CD45CCF6CC45A5FB01024FEAD202CE
:101B400002EB8200A1EB400101F13001F15491B2AE
:101B500003F1FF33DBB2002BEED141F65063C2F24A
:101B600000031A78A4181C700DF03AFCBDE8F0814F
:101B70002E8842F26843C2F200031B7813F0010F73
:101B80000CD04BF2E023C2F2000341F65062C2F2E5
:101B9000000212789B184FF03A029A7041F6506397
:101BA000C2F2000319784BF2E022C2F2000254188C
:101BB0004CF6CD40CCF6CC40A0FB06754FEAD505DF
:101BC00005EB8507A6EB470606F130062671AEB297
:101BD0004AF6AB25CAF6AA25A5FB06854FEA950568
:101BE00005EB4507A6EB470606F13006E670ADB2F9
:101BF000A0FB05C04FEAD00000EB8006A5EB460530
:101C000005F13005657000F13000505401F1050117
:101C100019700DF0E5FBBDE8F0812F8841F65063A7
:101C2000C2F2000318784BF2E021C2F200010A1858
:101C30004FF02F0595705FFA87FE4CF6CD45CCF638
:101C4000CC45A5FB0E864FEAD60606EB860CAEEB1E
:101C50004C0E0EF1300E82F801E006F130060E5403
:101C60004FEA1726A5FB06C14FEAD10101EB81051A
:101C7000A6EB450606F13006167101F13001D17070
:101C800000F1050018700DF0ABFB082C40F0278127
:101C900041F65063C2F2000319784BF2E022C2F21F
:101CA00000024FF02F00505442F2EC40C2F200000C
:101CB00090F8474052184CF6CD40CCF6CC40A0FBF3
:101CC00004504FEAD00000EB8005A4EB450404F17A
:101CD0003004947000F13000507001F1030119706C
:101CE000BDE8F0812E8841F65063C2F200031C78F3
:101CF0004BF2E022C2F2000211194FF02E00C87020
:101D00004CF6CD40CCF6CC40A0FB06754FEAD5058D
:101D100005EB8507A6EB470606F130060E71AEB25D
:101D2000A0FB06854FEAD50505EB8507A6EB470620
:101D300006F130068E70ADB2A0FB05C04FEAD000B0
:101D400000EB8006A5EB460505F130054D7000F16E
:101D50003000105504F105041C700DF041FBBDE886
:101D6000F0812E8841F65063C2F200031C784BF2DA
:101D7000E022C2F2000211194FF02E0048704CF61A
:101D8000CD40CCF6CC40A0FB06754FEAD50505EB5F
:101D90008507A6EB470606F130060E71AEB2A0FB32
:101DA00006854FEAD50505EB8507A6EB470606F144
:101DB0003006CE70ADB2A0FB05C04FEAD00000EBFC
:101DC0008006A5EB460505F130058D7000F1300069
:101DD000105504F105041C700DF002FBBDE8F08104
:101DE00041F65063C2F20003197801F102034BF28D
:101DF000E022C2F200029B1802F112077F184CF693
:101E0000CD40CCF6CC404FF02D0615F8011BA0FBC1
:101E100001424FEAD20202EB8204A1EB440101F13C
:101E200030011970D1B2A0FB01824FEAD20202EB5D
:101E30008204A1EB440101F1300103F8011C02F11D
:101E4000300203F8022C5E7003F10403BB42DCD1C4
:101E500041F65063C2F200031A7802F10F02D2B2C7
:101E60001A704BF2E023C2F200034FF020019954A4
:101E70000DF0B6FABDE8F0812A7814F00F0427D0EF
:101E800041F65063C2F2000393F800C00CF1FF3C2E
:101E900023464BF2E027C2F200074CF6CD45CCF6C4
:101EA000CC45FE18D1B2A5FB01804FEAD00000EB73
:101EB0008000A1EB400101F1300106F80C10A5FBF8
:101EC00002024FEAD20203F1FF33DBB2002BE8D16A
:101ED00041F65063C2F200031A78A4181C70BDE8E2
:101EE000F08100BF4BF2C443C2F200031B6893F9B8
:101EF0002F30062B67D8DFE803F0040B12192038C7
:101F0000500042F2A443C2F200031B6858885AE012
:101F100042F2A443C2F200031B68588853E042F225
:101F2000A443C2F200031B6858884CE042F2A44369
:101F3000C2F200031B68588845E042F2A443C2F293
:101F400000031B68B3F90500B3F902209042A8BF53
:101F50001046B3F90820B3F90B309042A8BF1046E1
:101F60008342B8BF184680B22DE042F2A443C2F2C9
:101F700000031B68B3F90500B3F902209042B8BF13
:101F80001046B3F90820B3F90B309042B8BF1046A1
:101F90008342A8BF184680B215E042F2A443C2F2C1
:101FA00000031B68B3F90200B3F905208018B3F9E8
:101FB00008208018B3F90B30C01800B20028B8BF51
:101FC0000330C0F38F0000B2704700BF4BF2C44330
:101FD000C2F200031B6893F92E30062B67D8DFE8A6
:101FE00003F0040B12192038500042F2A443C2F24D
:101FF00000031B6858885AE042F2A443C2F200036F
:102000001B68588853E042F2A443C2F200031B68E5
:1020100058884CE042F2A443C2F200031B6858887F
:1020200045E042F2A443C2F200031B68B3F9050085
:10203000B3F902209042A8BF1046B3F90820B3F9C3
:102040000B309042A8BF10468342B8BF184680B2FA
:102050002DE042F2A443C2F200031B68B3F905006D
:10206000B3F902209042B8BF1046B3F90820B3F983
:102070000B309042B8BF10468342A8BF184680B2CA
:1020800015E042F2A443C2F200031B68B3F9020058
:10209000B3F905208018B3F908208018B3F90B3084
:1020A000C01800B20028B8BF0330C0F38F0000B2E0
:1020B000704700BF2DE9F84388464BF29423C2F2E3
:1020C000000300F191071B6803EBC70707F1040445
:1020D000B4F9069019F1000918BF4FF0010942F256
:1020E000A443C2F200031B680C2894BF181803F124
:1020F0000C0090F86E305AB2012A05DCB9F1000FDD
:1021000002D1A3704FF00109FFF760FF4BF2D0231B
:10211000C2F2000342F2A442C2F200021268B2F913
:102120005820801A188042F2EC46C2F2000606F5EA
:10213000B445B5F9AD00B5F9AF10B5F9B1204FF020
:102140000003FFF75DF9B5F9651042F2EA43C2F208
:102150000003B3F90020891A06F50446B6F9652094
:1021600006F165061A80B8F1000F04D0B8F1010F2E
:1021700040F00981C0E0B9F1000F47D1A94BB3F994
:10218000000013B29842C4BF0123A370A54BB3F95A
:10219000003098B212B21BB203F1C8039A4200DCBD
:1021A00010B94FF00003A3709F4BB3F900309AB2FF
:1021B00062B142F2EC42C2F20002B2F93D201BB21F
:1021C0009A420ADD4FF00003A37006E042F2A043FA
:1021D000C2F200031B7803B9A37042F2A443C2F217
:1021E00000031B681B7913F0080F1CBF0123A370A9
:1021F0008E4BB3F900304BB142F2EC43C2F2000314
:10220000B3F93D309942BCBF0123A37094F9022079
:1022100094F903309A4215D04BF29423C2F2000392
:102220001B6893F8E72422F0010283F8E724804A30
:10223000B2F90020E28094F902201AB97D4A127C9A
:1022400083F8F324A378E3704BF29423C2F20003E3
:102250001A6892F8F33403F1FF33DBB282F8F334F7
:102260005BB2002B00F3DB804FF0000382F8F33405
:102270004BF2D022C2F2000242F2A445C2F20005A3
:10228000296891F82C0091F82D1040EA0121118065
:10229000684AB2F93300B2F93510B2F93720FFF7C6
:1022A000AFF82B6893F82E3013F0200F0BD042F2CA
:1022B000EA43C2F200035F4A92F8371092F83820DE
:1022C00041EA02221A804BF2C443C2F200031B68A7
:1022D000B3F9242042F2EA43C2F20003B3F900103A
:1022E000554BB3F90030CB1AD31894F9022002FBF6
:1022F00003F3BB80BDE8F883B9F1000F2BD14F4B3E
:10230000B3F9000013B29842C4BF0123A3704BF28B
:102310009423C2F200031B6893F98E3453B1474BE8
:10232000B3F9003098B212B21BB203F1C8039A425B
:1023300000DC10B94FF00003A3703C4BB3F9003040
:102340004BB142F2EC43C2F20003B3F93D30994283
:10235000BCBF0123A370A37894F903105AB2914231
:1023600003D0334AB2F90020E280E3704BF2C4425A
:10237000C2F200021268B2F926205BB202FB03F33C
:10238000BB80BDE8F883B9F1000F35D14BF2AC2327
:10239000C2F200034FF00001198042F2CA43C2F2B8
:1023A00000031980264BB3F9001013B29942C4BF41
:1023B0000123A370224BB3F9003099B212B21BB2C1
:1023C00003F1C8039A4200DC11B94FF00003A37077
:1023D00042F2EC43C2F2000303F5B44202F171028F
:1023E000B2F9002091B2B3F93D3012B2934203DD4D
:1023F00011B14FF00003A370A37894F903105AB2FF
:10240000914203D00A4AB2F90020E280E3705BB245
:1024100003EB830303EB83034FEA8303BB80BDE835
:10242000F88300BF557F0020537F0020517F00209C
:10243000B37F0020EC7E0020237F0020597F002006
:10244000577F002008B501464BF29423C2F20003E7
:1024500018684BF2C043C2F200031B6801F112027C
:1024600003EB42039B88DBB100EBC10000F59060F9
:1024700000F10C00B0F9063003F1FF339BB2C380CA
:1024800013F4004F05D1074AB2F900201BB29A425B
:1024900003DA4FF000038371C3710846FFF70AFEA9
:1024A00008BD00BFB37F0020F0B44BF29423C2F20A
:1024B00000031C684BF28423C2F2000300F10A02FD
:1024C0001B6803EB420113F8123013F0010F40F0C8
:1024D000D98004EBC00303F5906303F10C03B3F957
:1024E0000450AEB22AB2002A04DA4FF000021A7188
:1024F0005A7104E01EB105F1FF359D80C2E04F78AE
:102500003D464BF2AC22C2F200021780B3F90060E4
:1025100042F2EA42C2F20002168070BB42F2A442CA
:10252000C2F200021268B2F9D4C1CCEB06061FFA5F
:1025300086FC1FFA8CF642F2EA42C2F200021680D2
:1025400094F8E72412F0010F17D0CCEB0707BFB2C5
:1025500042F27643C2F200031F8066B133B2642BAD
:1025600009D03FB2002FB8BF7F42474BB3F90030CC
:102570009F4240F387804E7084E0444AB2F90040A5
:102580002AB2944218DC424AB2F900202DB2AA4283
:1025900015DD404AB2F98140E4B2B2F983209A8055
:1025A00093F90220012A0CD158B93B4AB2F9002014
:1025B00004FB02F4E4B204E04FF0000401E04FF049
:1025C00000044BF2AC22C2F20002314DB5F90050CA
:1025D000B2F90020954211DC2E4AB2F98740E4B2EC
:1025E000B2F989209A8093F90220012A06D128B9EC
:1025F000294AB2F9002004FB02F4E4B24BF2AC2009
:10260000C2F2000042F2EA42C2F2000200881288DE
:10261000801A80B242F27642C2F20002108002B208
:10262000002A07DD4B781B1B4B705CBB4FF000038F
:102630004B7027E010F4004F20D04A78A2184A705F
:102640001CB9124AB2F900204A7042F2EA42C2F2C0
:10265000000212884C78D0B2844213D393F902302E
:1026600083B14A704BF29423C2F200031B6893F8C3
:10267000E72442F0010283F8E72403E04FF0000270
:102680001A715A71F0BC7047777F00206B7F002071
:10269000717F0020EC7E0020C37F002010B54BF23C
:1026A0008423C2F200031B6893F90D1093F90F20E5
:1026B0008A18002A0DDD4C4AB2F900204AB14BF2CB
:1026C0009422C2F2000212684FF0010182F8BC1499
:1026D00008E04BF29422C2F2000212684FF00001AF
:1026E00082F8BC1442F2CA42C2F200024FF000016A
:1026F000118042F2A442C2F20002126892F96D10F7
:1027000049B193F90D1093F90F30C918374BB3F94C
:102710000030994209DD4BF29423C2F200031B689A
:102720004FF0000283F8762410BD4BF2D023C2F2A2
:1027300000034FF000011980B2F90540A3B29BB12C
:10274000FFF7D0FB041BA4B2A2B24BF2D023C2F21B
:1027500000031A8012F4004F06D04BF2D023C2F2CD
:102760000003C4F100041C8042F2A443C2F200033F
:102770001A681F4BB3F90030A2F88A304BF2D0230D
:10278000C2F200031888A2F88C004BF29423C2F224
:1027900000031B68B3F9CF148CB224B101F1FF31EF
:1027A000A3F8CF1410BD93F9761449B1114AB2F9C8
:1027B0000020A3F8CF244FF0000283F8762410BD48
:1027C000B2F98A1000B2814203DD92F96D20012A2C
:1027D00008D14FF0010283F87624074AB2F90020AD
:1027E000A3F8CF2410BD00BFCF7E0020A37F002020
:1027F0008F7F0020937F0020917F002010B54BF247
:10280000C043C2F200031B68B3F852304BB94BF21D
:102810009423C2F200031B684FF0000283F8D12416
:1028200010BDFFF7D3FB42F2A443C2F200031C68C1
:10283000B4F958203A4BB3F90030D31A98420ADA67
:102840004BF29423C2F200031B6893F8D12442F0A8
:10285000010283F8D124FFF7B9FBB4F95820314BBA
:10286000B3F90030D318984203DC2D4BB3F9003094
:1028700053B94BF29423C2F200031B6893F8D1249E
:1028800022F0010283F8D12442F2EC43C2F20003A9
:1028900003F5B24202F1E302B2F9002090B203F56F
:1028A000044303F16503B3F90030B4F95A1012B2CE
:1028B0008A1893420BDD50B14BF29423C2F200030D
:1028C0001B6893F8D12442F0020283F8D12442F22B
:1028D000EC43C2F2000303F5B24202F1E302B2F9A3
:1028E000002090B203F50443B3F9651042F2A4430B
:1028F000C2F200031B68B3F95A3012B29A18A2F15F
:102900006402914200DB50B94BF29423C2F20003FF
:102910001B6893F8D12422F0020283F8D12410BD61
:10292000957F0020977F00202DE9F0034BF2942340
:10293000C2F200031D684BF2C043C2F200031B68E1
:1029400000F1080403EB44039B88002B00F0158181
:1029500000EBC00404F585642C1904F105074FEA67
:1029600040064BF28423C2F200031B6803EB060C03
:1029700013F8103013F0010F04D04FF0000363710F
:102980007B70FAE001B1C2B910280AD14FF0000300
:1029900085F87E3485F87F34794BB3F90030A5F89B
:1029A00000354FF0000363717B704BF28422C2F25A
:1029B0000002126896197370DFE010283FD142F2CE
:1029C000A443C2F200031B68C2EB01081FFA88F897
:1029D000A3F8B480B8F1000F05D14FF0FF3883F8A9
:1029E000B48083F8B580C2EB0108664B93F95A3086
:1029F00018EB030F07D54FF0000385F87E3485F8F8
:102A00007F348CF801304BF29423C2F200031D682E
:102A1000B5F900C51FFA8CF80FFA8CF3002B06DA13
:102A20004FF0000385F8003585F8013507E0B8F16F
:102A3000000F04D00CF1FF3CA5F800C59DE0891AF9
:102A400042F26C43C2F200031A6802EBC003B3F90E
:102A5000023003FB01F344F6D355C1F2620585FB56
:102A600003854FEAE373C3EBA515ADB242F276439B
:102A7000C2F200031D80B7F9003048F21F5CC5F2B6
:102A8000EB1C8CFB038C4FEAE373C3EB6C1C1FFA4B
:102A90008CFC4BF2D023C2F20003A3F800C042F238
:102AA000EA43C2F200034FF06408A3F800804BF23F
:102AB000C443C2F200031B681B8D022B07D142F2F4
:102AC000EA43C2F200034FF0C808A3F800800FFAEF
:102AD0008CFC42F2EA43C2F20003B3F800802BB24E
:102AE0000FFA88F9C3EB0909CC4507DD4BF2D02377
:102AF000C2F20003C5EB08051D801FE01CEB030FAD
:102B000007D54BF2D023C2F20003C5F100051D80AA
:102B100014E002EBC002B2F9043003FB01F144F609
:102B2000D353C1F2620383FB01C34FEAE171C1EBEE
:102B3000A313B7F90020D318A4F805304BF2D02224
:102B4000C2F2000242F27643C2F2000312881B88EE
:102B5000D21892B24BF29423C2F200031B68A3F87E
:102B60007E2413B2642B4BF28423C2F200031B6851
:102B70001E44C6BF642373707270BDE8F0037047D3
:102B8000D37E0020EC7E00204BF2C443C2F200034F
:102B90001B6893F92F30062B67D8DFE803F0040B8E
:102BA00012192038500042F2A443C2F200031B68FD
:102BB00058885AE042F2A443C2F200031B685888C6
:102BC00053E042F2A443C2F200031B6858884CE071
:102BD00042F2A443C2F200031B68588845E042F267
:102BE000A443C2F200031B68B3F90500B3F9022045
:102BF0009042A8BF1046B3F90820B3F90B309042B9
:102C0000A8BF10468342B8BF184680B22DE042F2FA
:102C1000A443C2F200031B68B3F90500B3F9022014
:102C20009042B8BF1046B3F90820B3F90B30904278
:102C3000B8BF10468342A8BF184680B215E042F2E2
:102C4000A443C2F200031B68B3F90200B3F90520E4
:102C50008018B3F908208018B3F90B30C01800B2FF
:102C60000028B8BF0330C0F38F0000B2704700BF28
:102C70004BF2C443C2F200031B6893F92E30062BBB
:102C800067D8DFE803F0040B12192038500042F235
:102C9000A443C2F200031B6858885AE042F2A443DE
:102CA000C2F200031B68588853E042F2A443C2F208
:102CB00000031B6858884CE042F2A443C2F20003B0
:102CC0001B68588845E042F2A443C2F200031B6827
:102CD000B3F90500B3F902209042A8BF1046B3F93A
:102CE0000820B3F90B309042A8BF10468342B8BF0A
:102CF000184680B22DE042F2A443C2F200031B68E2
:102D0000B3F90500B3F902209042B8BF1046B3F9F9
:102D10000820B3F90B309042B8BF10468342A8BFD9
:102D2000184680B215E042F2A443C2F200031B68C9
:102D3000B3F90200B3F905208018B3F90820801810
:102D4000B3F90B30C01800B20028B8BF0330C0F38D
:102D50008F0000B2704700BF42F2A443C2F20003EA
:102D60001B68B3F9622091B239B1B3F90E0083B296
:102D700033B100B212B2801A70474FF000007047B2
:102D80004FF00000704700BF42F29C43C2F20003C4
:102D90001B681A7C42F001021A744BF23023C2F213
:102DA00000031B684FF000029A731A725A72704740
:102DB00010B5044642F29C43C2F200031A684BF27B
:102DC000C443C2F200031B6833F910305380032858
:102DD00013D142F29C43C2F2000319684BF2C44281
:102DE000C2F200021268B2F912008880B2F918200B
:102DF0000A801B68B3F90420DA8042F29C43C2F2D5
:102E000000031868B0F904304BB94BF2D823C2F272
:102E100000031B6893F8303013F0010F03D0437C9C
:102E200043F00403437400F1060042F2A443C2F2EB
:102E300000031B68B3F9583046F26761C6F2666159
:102E400081FB03214FEAE373C3EBA10101F11401FC
:102E500009B2FEF76BFA42F29C43C2F200031B6810
:102E6000B3F90220B3F9060011B28842C8BFDA8074
:102E7000042C40F09E8042F2A442C2F2000212688A
:102E800092F82E1011F0200F2BD1B2F92C204949C5
:102E9000B1F9001014B208B2844222DA4BF2D02009
:102EA000C2F200000280444AB2F9000009B2B3F94C
:102EB0000220A2F1FA024FF00003FEF7A1FA42F25B
:102EC0009C43C2F200031B68B3F9021042F2EA42CB
:102ED000C2F2000212888A1ADA815A7C42F0040295
:102EE0005A74364B93F8983013F0020F2FD04BF2F0
:102EF000D022C2F2000242F2EC43C2F2000303F518
:102F00000441496E41F30F21118003F5B443B3F935
:102F1000110042F29C44C2F200042268B2F902207D
:102F2000B3F90730D21A4FF4C8714FF00003FEF71F
:102F300067FA2368B3F9021042F2EA42C2F20002D1
:102F400012888A1ADA815A7C42F004025A744BF2CF
:102F50009423C2F200031B6893F9F3343BB942F2A5
:102F6000EC43C2F2000393F83630092B0BD142F246
:102F70009C43C2F200031B685A7C42F004025A745C
:102F8000B3F90220DA8142F29C44C2F200042368C1
:102F900003F10E00B3F90610FEF7C8F923685A7C56
:102FA00012F0040F05D14FF000029A73DA739A7091
:102FB000DA7010BDEF7E0020FF7E0020ECA800201C
:102FC000F0B583B042F2A443C2F20003186890F84F
:102FD000682053B2012B09DD4BF29423C2F20003A7
:102FE0001B6893F8D13413F0020F21D052B1B0F91D
:102FF0006C31A0F868314FF0060380F8783180F822
:10300000903105E000F5B3704FF01801FDF78AFD2F
:103010004BF29423C2F200031B684FF0000283F8C6
:10302000B02083F8B12083F8982083F89920B0E28B
:103030004FF0010380F8903180F87831FFF78CFE73
:103040004BF2D025C2F20005288042F2EC44C2F2D5
:10305000000404F5B243B3F9F900B3F9FB1004F529
:10306000B44696F901204FF00003FEF7C9F942F289
:10307000A443C2F20003186800F5B67042F2EA47B2
:10308000C2F20007B7F90010FEF750F904F5044446
:10309000636E43F30F232B80B6F95B00B6F95D1026
:1030A00036F95F2FA2F57A724FF00003FEF7A8F908
:1030B0004BF29423C2F200031B68B6F900103A8861
:1030C0008A1AA3F80A25B6F90020B2F57A7F07DA42
:1030D0006FF0170283F80A254FF0030283F80B25DF
:1030E0004BF2C443C2F200031B68B3F90C300193E6
:1030F000454AB2F90020934212DD444B93F99830CF
:1031000073B142F2A443C2F200031B684FF01A02EB
:1031100083F8902183F878213B4BB3F90030019379
:103120004BF2D026C2F2000642F2EC44C2F2000496
:1031300004F504435B6E43F30F23338004F5B44777
:10314000B7F9530000F5FA714FF0C8024FF00003D1
:10315000FEF756F942F27643C2F2000342F2EA4524
:10316000C2F200052A881A8094F83F3094F8402073
:1031700043EA02233380B7F94D10A1F5FA704FF0FE
:1031800064024FF00003FEF73BF94BF29423C2F2C6
:1031900000031B682A8893F9790411B2884207DA80
:1031A00007F15101B1F9001083F8F11483F8792483
:1031B00093F8F12451B200290ADD02F1FF3283F8BD
:1031C000F12442F2EA42C2F2000293F97934138008
:1031D00042F27643C2F200031B881AB2642A17DD5A
:1031E0004BF2D022C2F2000242F2EA41C2F20001E6
:1031F0000988C1F16401118042F27642C2F20002F4
:10320000A3F16403138015E0417F0020ECA80020A7
:103210004BF2D022C2F2000242F2EA41C2F20001B5
:1032200009885B1A138042F27643C2F200034FF022
:1032300000021A804BF2D024C2F2000420464FF064
:103240000001FEF773F8BDF904102046FEF774F88C
:1032500042F2A443C2F200031B682288A3F868214B
:103260004BF2C443C2F200031B68B3F90E3002AD47
:1032700045F8043DFFF770FDC0F10000208042F2E8
:10328000EC44C2F2000404F5B243B3F9FD00B3F913
:10329000FF1004F5B44494F902204FF00003FEF748
:1032A000AFF842F2EA43C2F200031988C1F16401A7
:1032B00009B22846FEF740F8B4F95530019A934216
:1032C00005DA04F5285292F9982002B101934BF2E5
:1032D000D022C2F2000242F2EC43C2F2000393F8A1
:1032E0003F1093F8400041EA0021118003F5B443F8
:1032F000B3F94B10A1F5FA704FF064024FF00003E0
:10330000FEF77EF84BF29423C2F200031B6842F2F0
:10331000EA42C2F20002128893F9780411B288429C
:1033200006DD9D49B1F9001083F8F21483F8782482
:1033300093F8F22451B200290ADD02F1FF3283F83A
:10334000F22442F2EA42C2F2000293F97834138086
:103350004BF2D024C2F2000442F27642C2F20002E2
:1033600042F2EA43C2F2000312881B88D31A238078
:1033700020464FF00001FDF7D9FFBDF904102046AB
:10338000FDF7DAFF42F2A443C2F200031B68228871
:10339000A3F8802193F9901113292BDC4BF294218F
:1033A000C2F200010968B1F9B00046F26764C6F2E2
:1033B000666484FB00544FEAE070C0EBA40012B2D4
:1033C00000B2824204BF092283F89021B1F9B020F3
:1033D00046F26761C6F2666181FB02014FEAE27262
:1033E000C2EBA102B3F9840112B2904204BF0A22D7
:1033F00083F8902142F2A443C2F200031B6893F9C0
:103400007821132A2CDC4BF29422C2F200021268BB
:10341000B2F9981046F26760C6F2666080FB014020
:103420004FEAE171C1EBA001B3F9684109B28C42E6
:1034300004BF092183F87811B2F9982046F2676138
:10344000C6F2666181FB02514FEAE272C2EBA10251
:10345000B3F96C0112B2904204BF0A2283F87821BA
:103460004BF29423C2F200031B6842F2EC42C2F218
:103470000002B2F9415029B201F1060202EB42000A
:1034800003EBC00090F9130048B14BF28420C2F264
:103490000000006810F8120010F0010F1CD04FF06F
:1034A000000483F8B04083F8B14042F2A440C2F275
:1034B0000000006880F8804180F8814180F88441F4
:1034C00080F8854190F88E4144F0010480F88E41E7
:1034D0004FF0150480F89041C1F1070101EB410064
:1034E00003EBC00090F9130060B12DB24BF28420C1
:1034F000C2F200000068C5F1070510F8150010F0D1
:10350000010F1CD042F2A440C2F20000006890F803
:10351000764144F0010480F876414FF0000483F8CE
:10352000984083F8994080F8684180F8694180F8B4
:103530006C4180F86D414FF0150480F8784142F2FB
:10354000A440C2F200000068B0F8504014F0010F2F
:1035500005D04FF01E0480F8784180F89041C1EB0F
:10356000C10401EB8401591891F8C01111F0080F42
:103570001CBF1F2180F87811C2EBC20102EB81024F
:103580009B1893F8C03113F0080F1CBF1F2380F85D
:10359000903103B0F0BD00BF3D7F00202DE9F04128
:1035A000054642F29C43C2F200031A684FF0000342
:1035B00093744BF23023C2F20003196891F913306F
:1035C0001BB9FFF7E1FBBDE8F0814BF29223C2F299
:1035D00000034FF000001880B1F9143093812E469B
:1035E0004BF2C443C2F200031B6833F915304BB9E8
:1035F0004FF0190393744BF29223C2F200034FF081
:10360000010119804BF2D823C2F200031B6893F822
:10361000301011F0010F0DD093F9313053B94FF044
:10362000150393744BF29223C2F200031A8802F13D
:1036300001021A804BF29223C2F200031C881CB1D3
:10364000FFF7A2FBBDE8F08142F29C43C2F2000307
:103650001B68B3F90C2052B94FF020029A741A7CFF
:1036600042F002021A74FFF78FFBBDE8F081284692
:10367000FFF79EFB4BF29223C2F200034FF00002D1
:103680001A8006EB46064FEAC6064BF2302CC2F211
:10369000000C40F24E27644842F29C41C2F2000105
:1036A0004BF29223C2F2000324B2DCF8002092F91C
:1036B0000F2007FB026202F58C72A21812F800803C
:1036C0000A6802F804801C8804F10104A4B21C807A
:1036D00022B2072AE8DD4BF23023C2F200031A6857
:1036E00042F2EC43C2F2000392F90F1005EB4500E1
:1036F00040F22E5404FB01F101EBC0015B1803F50D
:10370000B443B3F9FD10118193F803319373B2F907
:1037100008303BB142F29C43C2F200031B684FF0F9
:103720000101997442F2EC43C2F2000392F90F10C6
:1037300005EB450540F24E2000FB01F101EBC5050C
:103740005B1993F8303113F0040F0BD042F29C4315
:10375000C2F200031B684FF002019974597C41F0DA
:103760000401597442F29C43C2F200031B68B2F98F
:10377000081046F26760C6F2666080FB01404FEABF
:10378000E171C1EBA001B3F9024009B28C4204BF60
:1037900009219974B2F9082046F26761C6F26661A0
:1037A00081FB02014FEAE272C2EBA102B3F906000B
:1037B00012B2904204BF0A229A74B3F90E2012B1D9
:1037C0004FF006029A74B3F90610B3F90220A2F181
:1037D00064029142C4BF18229A74B3F90C10B3F971
:1037E0000220A2F1320291420ADA4BF2D822C2F24E
:1037F0000002126892F90120642A04BF14229A740C
:103800004BF2D823C2F200031B681B7813F0010FA0
:1038100007D042F29C43C2F200031B684FF015022E
:103820009A74BDE8F08100BFF324002038B5054646
:103830004BF23023C2F200031C6894F90E3013B926
:10384000A371E37138BDB4F9083046F26762C6F27D
:10385000666282FB03124FEAE373C3EBA202B4F980
:103860001410521A92B291B242F27643C2F200039D
:10387000198002F109039BB2082B04D902F1FF322F
:1038800092B2082A0CD842F27643C2F200034FF0FB
:1038900000021A804BF2CC23C2F200031A6005E04A
:1038A00008B24BF2CC23C2F2000318604FF00003C1
:1038B000A371E3714BF2D022C2F2000213804FF4E5
:1038C00096704FF47A714FF06402FDF799FD42F261
:1038D0009C43C2F200031A6842F2EA43C2F20003B8
:1038E0001B8813721BB2502B12DD4BF29423C2F2D1
:1038F00000031968C5EBC50305EB8303CB1893F8E8
:10390000C03113F0010F03D0537C43F01003537404
:103910004BF2D023C2F200031A88C2F100021A80CF
:103920004FF496704FF47A714FF064024FF0000339
:10393000FDF766FD42F29C43C2F200031A6842F2B0
:10394000EA43C2F200031B88117A591811721BB2A4
:10395000502B12DD4BF29423C2F200031B68C5EB1F
:10396000C50105EB81055D1995F8C03113F0010F14
:1039700003D0537C43F01003537438BDF8B50646AA
:103980004BF23023C2F200031F6807EB40074BF2F3
:103990002423C2F200031C6894F901504BF2D02397
:1039A000C2F200031D80FFF7D7F92DB2C0F100006D
:1039B00000B200FB05F544F6D351C1F2620181FB70
:1039C00005314FEAE575C5EBA11189B242F2EA4330
:1039D000C2F20003198042F27643C2F200034FF0B4
:1039E00000021A8042F29C43C2F200031A68B2F944
:1039F000003098B2E0B1B2F90E209B1A94F902009F
:103A00004BF2D022C2F20002108042F27642C2F2A1
:103A1000000200B21BB203FB00F348F21F50C5F2D4
:103A2000EB1080FB03504FEAE373C3EB601313808A
:103A300094F9000042F27642C2F20002B2F900307C
:103A400009B2C3185B18012BB8BF0123C7F80230B5
:103A5000CEB94BF22423C2F200031B6893F9001085
:103A6000C1F16401B2F90020891A42F2EA43C2F2BC
:103A70000003B3F900208B1AC7F80230002BDCBF1B
:103A80000123C7F80230F8BD38B54BF2D823C2F293
:103A900000031B681B7813F0010F08D042F29C430F
:103AA000C2F200031B685A7C42F002025A744BF2C5
:103AB0003023C2F200031A6842F2EC43C2F2000360
:103AC00092F90F1040F2271404FB010103EB4103AC
:103AD00093F93C124BF2D023C2F20003198042F258
:103AE0009C43C2F200031B68B3F90E50B3F90240C5
:103AF000A5420CDA5C7C14F0020F08D192F90E207A
:103B00002AB109B26329DCBF44F020045C744BF293
:103B10003023C2F200031C6894F90E30002B78D1D8
:103B20004BF29423C2F200031D68B5F99431002BC7
:103B300040F3B380032800F2B08042F2EC43C2F2BB
:103B4000000303F5B442B3F93D10B2F91D309942B8
:103B500019DA42F2A443C2F200031B68B3F95C1005
:103B600042F2EC43C2F2000303F5044202F16502A3
:103B7000B2F900208A1A03F5B44303F11F03B3F925
:103B800000309A4227DCFFF773F842F2A443C2F2F6
:103B900000031B68B3F95830C01A00287DDA4BF2D5
:103BA000C443C2F200031B68B3F91C3048F21F5231
:103BB000C5F2EB1282FB03124FEAE371C1EB621212
:103BC0004FF0640101FB12331BB2592B03DD95F951
:103BD000D334002B61DD42F29C43C2F200031B6828
:103BE0005A7C42F008025A7494F91630012B07D11E
:103BF000B5F9A03123B9B4F9043003F16403A3800B
:103C00004BF23023C2F200031B6893F90E30002BF5
:103C100043D042F29C43C2F200031B68B3F90E107A
:103C2000B3F9062091420EDD5A7C12F0020F0AD140
:103C30004BF2D021C2F20001B1F900100029C4BF3B
:103C400042F040025A7442F29C43C2F200031B68E5
:103C50005A7C12F0440F20D14BF23021C2F2000105
:103C6000096891F91710C1B94BF29421C2F2000111
:103C70000968B1F9941100290FDA4BF2D021C2F290
:103C80000001B1F9001041B91949B1F90010B1F5BD
:103C9000FA7FC4BF42F008025A7442F29C43C2F257
:103CA00000031B685A7C12F0400F0BD04BF294219A
:103CB000C2F200010968B1F994110029BCBF62F099
:103CC0007F025A7442F29C43C2F200031B685A7C82
:103CD00012F0200F0BD04BF29421C2F200010968C0
:103CE000B1F994110029C4BF62F07F025A7438BD43
:103CF00051A9002010B442F2CA43C2F200034FF0AF
:103D000000021A8042F29C43C2F200031B685A7CF4
:103D100012F0280F08D14BF23022C2F200021268D2
:103D20004FF00004147154715B7C13F0480F08D1FC
:103D30004BF23023C2F200031B684FF000029A706E
:103D4000DA7042F29C43C2F200031B685B7C13F002
:103D5000880F6FD013F0800F13D04BF23023C2F2D4
:103D600000031B6893F91630012B0AD14BF2942300
:103D7000C2F200031B6893F8022502F1010283F8E6
:103D800002254BF23023C2F200031A684BF294234F
:103D9000C2F200031B6893F9033502EB4303B3F946
:103DA00002300A689A4207DA0B604BF29423C2F29F
:103DB00000031B6883F86F044BF23023C2F2000348
:103DC0001A684BF29423C2F200031B6893F903357F
:103DD00002EB4303B3F902304A689A4209DA42F22D
:103DE0009C42C2F200021268527C12F0080F08BF17
:103DF0004B604BF23023C2F200031A684BF294235B
:103E0000C2F200031B6893F9033502EB4303B3F9D5
:103E10000230886898420DDA92F91620012A09D1F9
:103E200042F29C42C2F200021268527C12F0080F69
:103E300008BF8B6010BC70474BF29423C2F20003A2
:103E40001B68B3F99E212AB342F29C42C2F20002DF
:103E50001268127C12F0400F1FD04FF0000283F85E
:103E6000D224B3F99401B3F99E3190FBF3F04FF0F3
:103E7000320303FB00F04BF22423C2F200031B6861
:103E800093F9043090FBF3F042F25843C2F200037E
:103E9000186070474FF0000070474FF00000704707
:103EA0004BF29423C2F200031968B1F9A02193B236
:103EB00003B342F29C43C2F200031B6893F9103033
:103EC000002B1ADAB1F9940112B290FBF2F24FF022
:103ED000320000FB02F04BF22423C2F200031B6805
:103EE00093F9043090FBF3F042F25843C2F200031E
:103EF000186070474FF0000070474FF000007047A7
:103F00004BF29423C2F200031B68B3F992214FF0E5
:103F1000640000FB02F248F21F50C5F2EB1080FB78
:103F200002104FEAE272C2EB2010C0EB00104FEA21
:103F30004000B3F90A3590FBF3F042F25843C2F265
:103F400000031860704700BF4BF29422C2F20002D7
:103F50001368B3F90A3500FB03F048F68903C8F685
:103F6000880383FB00131B184FEAE070C0EB23109B
:103F70004FF0320303FB00F342F25842C2F2000258
:103F8000136048F21F52C5F2EB1282FB03124FEA94
:103F9000E373C3EB621070472DE9F04F83B042F238
:103FA000A443C2F200031B68B3F984210192B3F960
:103FB0006C91B3F98071B3F968414BF29423C2F26A
:103FC0000003D3F80080D8F89A2092B24BF2D023A5
:103FD000C2F200031A8012F4004F06D04BF2D02335
:103FE000C2F200034FF000021A804BF2D023C2F25B
:103FF0000003B3F800E0884991F84020154691F895
:104000003F00C2EB0E0101FB00F189B2198011F4EF
:10401000004F06D04BF2D023C2F200034FF0000154
:1040200019804BF2D023C2F2000319880FFA81FCE9
:10403000794B93F842309E1AB44507DC0FFA8EF69E
:10404000B242D4BF0CEB0206664400E01E46DFF825
:10405000C8E19EF841E06D18ED1A2DB20EFB05F592
:1040600095FBF0F5ADB24BF2D021C2F200010D800C
:1040700015F4004F06D04BF2D021C2F200014FF0F0
:1040800000050D804BF2D021C2F200010D880FFA1D
:1040900085FC614991F84410C3EB010AD445D4BFB3
:1040A00066440E46DFF870C19CF843C05D196D1A76
:1040B0002DB20CFB05F595FBFEF5ADB24BF2D02A07
:1040C000C2F2000AAAF8005015F4004F04D0554679
:1040D0004FF0000AA5F800A04BF2D02AC2F2000A65
:1040E000BAF90050AE194C4D95F90F50AAF800508E
:1040F0000FFA85FA564508DBCAEB060606EBD676BC
:104100004FEA66050AEB050601E04FF00005A642FE
:10411000C4BFC4EB060A5544BD42C4BFC7EB050A81
:10412000564407EB040AC1EB0A0B9BFBFCFCBCF1F9
:10413000000FBCBF51464FF0000CC91A91FBFEFEA8
:104140001EEB0C0C44BF53464FF0000C9B1A93FB24
:10415000F0F010EB0C0044BF524600208018FFF72F
:10416000F3FEA8F8A201019B9D42B8BF1D464E4533
:10417000B8BF4E46A642A8BF2646BD42A8BF3D4690
:10418000FEF702FD42F2A443C2F200031A68B2F93C
:104190005A30C01A80B24BF2D023C2F2000318800A
:1041A000B44204D1AF4202D103B2002B07DCB145C7
:1041B00011D1019BAB420ED110F4004F0BD04BF24A
:1041C0009423C2F200031B6893F8D31401F1010198
:1041D00083F8D31408E04BF29423C2F200031B6867
:1041E0004FF0000183F8D3144BF29423C2F2000382
:1041F0001B6893F9D3141429C4BF142183F8D31472
:10420000A3F89860A3F8B050A2F87461A2F88C519A
:1042100003B0BDE8F08F00BFEC7E00204BF22423FA
:10422000C2F200031B6893F9043000FB03F048F26C
:104230001F53C5F2EB1383FB00234FEAE070C0EB82
:1042400023107047F8B54FF000030B6042F29C4317
:10425000C2F200031D686B7C13F0040F07D04BF211
:104260003023C2F200031B684FF001029A734BF235
:104270003023C2F200031C6894F90E3023B9237274
:104280006372AB73EB73F8BD94F91230002B40F0FE
:1042900097804BF29423C2F200031B68B3F9940198
:1042A000B4F90610FCF76EFC00283BD16B7C13F0D0
:1042B000100F37D0B4F90870B4F91430284620F83C
:1042C0000E3FB5F90610FDF731F842F29C44C2F2F8
:1042D0000004236803F10E00B3F90210FDF72CF877
:1042E0002368B3F90E6006EB86064FEA46064BF2EA
:1042F0003023C2F200031C684FF00003A371E37186
:104300004BF29423C2F200031D68B81BFFF786FF2F
:10431000D5F88E316FF0630202FB0030C5F88E01D4
:104320002681F8BDB4F908303BB9B4F9003019B2B0
:1043300041F287329142D8BF23814BF23023C2F23F
:1043400000031B68D3F80A20B3F90800801880B274
:10435000188142F29C42C2F20002126800B246F298
:104360006761C6F2666181FB00414FEAE070C0EB15
:10437000A10189B2D181B2F9060009B2814204DCFF
:1043800000EB80004FEA40001881B2F90210B2F948
:104390000E00884204DB01EB81014FEA41011981E3
:1043A000B3F9081046F26760C6F2666080FB014010
:1043B0004FEAE171C1EB9001D181B3F908201A8075
:1043C000F8BD00BF2DE9F8434BF2AC23C2F2000365
:1043D0004FF000061E8030464BF23027C2F2000735
:1043E00041F2873942F2A445C2F200051C46C0B230
:1043F000FCF7AEFE3B68B3F9080082B242B100B2EE
:10440000FFF70CFF2B68B3F95830C01A361814E0C8
:10441000B3F9000003B24B450FDC2B68B3F95880A9
:1044200002B20FFA88F39A4207DD1046FFF7F6FE54
:104430000FFA88F8C8EB00003618208800F1010058
:1044400080B2208003B2032BD1DD3046BDE8F88373
:104450002DE9F04F85B04FF000054BF29428C2F2E1
:1044600000082E4642F2A447C2F200074BF2AC24E9
:10447000C2F200042846FCF795FBD8F8003083F818
:104480000365B3F99421002AC4BF012283F80325F0
:104490003B68B3F958309BB126803046C0B2FCF778
:1044A00057FE0AF09DFF2078FFF778F8208800F18A
:1044B000010080B2208003B2052BEFDDFEF780FD06
:1044C00005F10105EDB2082DD4D14FF000084BF2F3
:1044D0009426C2F2000642F2EC49C2F200094BF205
:1044E000AC24C2F200045FFA88F0FCF75BFB4FF0EB
:1044F000000503950295019533684FF0FF0283F89C
:104500006F240AF06DFF336883F8025540F24E23A2
:1045100003FB0893B3F9A130002B00F0D8802846A4
:1045200025804BF23025C2F2000542F29C47C2F2D0
:104530000007C0B2FCF70CFE2078FFF777F92B6874
:104540004FF000029A740AF04BFF3B681A7C12F09D
:10455000010F42D1B3F90E2062B12A684FF0010178
:1045600091739174B3F90E3003EB830303FA01F3F3
:10457000138132E02A68B2F9082046F26761C6F278
:10458000666181FB02014FEAE272C2EB9102DA81BD
:104590000AF026FF4FF00000FFF7F0F94FF001009E
:1045A000FFF7ECF90AF01CFF2078FFF76DFA20788E
:1045B00001A9FFF79FFB33682A6893F9031502EB03
:1045C0004102B2F902103A685181BDF80820A3F8FF
:1045D0007024BDF80C20A3F87224208800F101009B
:1045E00080B2208003B2052BA3DD3368B3F90C251C
:1045F00042F2A443C2F200031B68A3F866213568A7
:10460000FFF77EFCC5F89A00FFF7C6FC33684FF051
:10461000000083F89E0183F89F0183F8A00183F8CE
:10462000A101208042F29C47C2F200074BF23025E4
:10463000C2F20005C0B2FCF78BFD3B681A7C12F099
:10464000010F3CD13168B1F970041FFA80FCD5F834
:1046500000E091F903A50EEB4A0EBEF902E000B2AC
:1046600086450BDBBCF1000F08D042F040021A7403
:10467000B1F99E3103F10103A1F89E312968336835
:10468000B3F972241FFA82FE93F9030501EB40008F
:10469000B0F9020012B2904211DBBEF1000F0ED051
:1046A00091F91620012A0AD13A68117C61F07F0144
:1046B0001174B3F9A02102F10102A3F8A02120880E
:1046C00000F1010080B2208003B2052BB2DD08F1B9
:1046D0000108B8F1080F7FF406AF42F2EC43C2F2D2
:1046E000000303F50442B3F9413082F88A304FF0F9
:1046F000000442F2A445C2F200054BF29428C2F233
:10470000000842F2EC49C2F200092046FCF74AFADE
:104710002B68B3F95820002A00F0B880D8F80020A0
:1047200092F86F1411F0800F40F0B08049B201EBA5
:10473000410003EBC00090F8E70010F0080F00F014
:10474000A58001EB410103EBC10393F8E63013F0C0
:10475000080F40F09B804BF29221C2F200014FF013
:1047600000030B8082F89E3182F89F3182F8A031DD
:1047700082F8A131B2F99431002B3ADA4FF00007F8
:104780003E460AF02DFED8F8002092F96F3403EB74
:10479000430102EBC10191F9131041FA06F111F046
:1047A000010F1ED003EB430340F24E2101FB06F143
:1047B00001EBC3034B4493F8303113F0080F10D1D1
:1047C00007EB090303F5BE4393F9F73013B192F9F0
:1047D000023533B14BF29223C2F200034FF00102D3
:1047E0001A8006F1010607F5A46707F10E07082EE7
:1047F000C7D14BF29223C2F20003B3F90030002B71
:1048000044D1D8F8001040F22E5E4FF0140740F269
:104810004E2691F96F2402EB420001EBC00090F9A3
:10482000130040FA03F010F0010F2BD04FEA420CB6
:104830000CEB020A0EFB03F000EBCA0ACA440AF5AD
:10484000B44A624401EBC202927BC2F101028AF8CF
:10485000032191F96F2402EB420200EBC2024A44A9
:1048600002F5B642177391F96F2402EB420206FB80
:1048700003F000EBC2024A4492F82F0140F0080016
:1048800082F82F0103F10103082BC2D104F10104C6
:10489000E4B2082C7FF439AF0AF0A2FD4BF2AC234E
:1048A000C2F200034FF000021A801E464BF2942918
:1048B000C2F20009C5E00AF093FD2046FCF772F948
:1048C0003078FCF745FCD9F800304FF0000283F84F
:1048D000F42483F8F52483F8F62483F8F7243A685F
:1048E000127C12F0010F1AD14BF23022C2F20002F8
:1048F0001268917D83F80F1592F90F2042F2EC4374
:10490000C2F2000340F22E5808FB023808F5BE48F8
:10491000D8F8E950FFF790FA2D18C8F8E95004F1DB
:104920000104E4B2082CC6D14FF0000442F29C45C9
:10493000C2F200054BF230282046FCF733F93078FC
:10494000FCF706FC2B681B7C13F0010F6CD143466F
:10495000C2F200031B6893F91620012A64D093F970
:104960000F2042F2EC43C2F2000340F22E5101FB51
:10497000023303F5BE43D3F8E91093F904214BF257
:104980008223C2F200031A8042F25843C2F20003AB
:1049900012B291FBF2F21A600AF022FDD9F800700F
:1049A000B7F994A1D34697F9023553B142F258436F
:1049B000C2F200031868FFF731FCC0EB0A0AA7F83F
:1049C00094A1B7F994115846FCF7DCF828B94FF0D8
:1049D000000387F8943187F895314346C2F200030B
:1049E0001A6842F25843C2F200031B68C2F80A3048
:1049F00030784BF2D021C2F20001FFF723FC0AF01D
:104A0000EFFC42F2A443C2F200031B682A68B2F929
:104A10000E20B3F9DE0111B2884205DAB6F90010B2
:104A20000529D8BFA3F8DE2104F10104E4B2082C63
:104A300082D1338803F101039BB233801BB2052B73
:104A400006DC4FF0000442F29C47C2F2000732E756
:104A50000AF0C6FC4FF000084BF2AC24C2F200048E
:104A6000C14642F29C45C2F200054BF2942AC2F2C2
:104A7000000A4046FCF796F8A4F8009048464BF22E
:104A80003027C2F20007C0B2FCF762FB0AF0A8FCB4
:104A90002B681B7C13F0010F22D13E6896F916306B
:104AA000012B1DD1FFF7FCF9C6F80A0020784BF264
:104AB000D021C2F20001FFF7C5FB42F2A443C2F2CB
:104AC00000031B682A68B2F90E20B3F9DE0111B2A7
:104AD000884205DAB4F900100529D8BFA3F8DE2111
:104AE000208800F1010080B2208003B2052BCADDCE
:104AF000DAF8003093F9022552B993F8D22402F182
:104B00000102D2B283F8D22452B2142A03DC08E0A4
:104B100083F8D29405E0DAF800304FF0140283F8FD
:104B2000D22408F101085FFA88F8B8F1080FA0D183
:104B300005B0BDE8F08F00BF70B54FF000044BF238
:104B40009425C2F2000542F2A446C2F200062046B5
:104B5000FCF728F82B68B3F98C3423B13368B3F928
:104B6000D421A3F888204FF00000FDF79DFC4FF002
:104B70000100FDF799FC4FF00200FDF795FC4FF0A6
:104B80000300FDF791FC4FF00400FDF78DFC4FF0A2
:104B90000500FDF789FC04F10104E4B2082CD6D12C
:104BA00070BD00BF2DE9F04F85B042F2EC43C2F278
:104BB0000003B3F94130DBB2C3F107028DF80C20DA
:104BC00003F106038DF80D304FF0000101914BF217
:104BD000AC24C2F2000442F2CA4BC2F2000B019BA9
:104BE000D8B2FBF7DFFF4FF00602228042F2A44565
:104BF000C2F2000542F29C47C2F200074BF2942633
:104C0000C2F200064BF23028C2F2000840F2271A26
:104C1000DDF804C00AFB0CFAA2F106039BB2ABF864
:104C2000003012B202EB4202296801EBC20202F12B
:104C3000D6023A601BB204A9CB1813F8043C03EB6C
:104C40004300316801EBC000C8F80000534403F58D
:104C50008E7342F2EC4CC2F2000C0CEB430303F1F6
:104C600003014BF2D82CC2F2000CCCF80010B0F9C2
:104C700010C01FFA8CF9B9F1000F08D00CF1FF3CFD
:104C800020F810CF4FF00001FCF750FB0EE0B2F916
:104C90000E001FFA80FC42F27642C2F2000210803F
:104CA000DB7813F0010F08BF81F801C0228802F100
:104CB000010292B2228013B2072BADDD019901F1FE
:104CC0000101019108298AD105B0BDE8F08F00BF2C
:104CD0002DE9F0414BF2AC23C2F200034FF000008B
:104CE00018804BF2D825C2F200054BF23026C2F2F2
:104CF00000064FF014074FF028081C46C0B2FCF71E
:104D000027FA2B685B7803F1FF33DBB2622B08D8FC
:104D10003368DF75B3F90820B2F57A6FC8BF83F83E
:104D200017803368DA7D51B20029CCBF02F1FF321F
:104D30000022DA75208800F1010080B2208003B2E1
:104D4000052BDBDDBDE8F0814BF2C443C2F200036A
:104D50001B6893F92E30062B67D8DFE803F0040BAD
:104D600012192038500042F2A443C2F200031B681B
:104D700058885AE042F2A443C2F200031B685888E4
:104D800053E042F2A443C2F200031B6858884CE08F
:104D900042F2A443C2F200031B68588845E042F285
:104DA000A443C2F200031B68B3F90500B3F9022063
:104DB0009042A8BF1046B3F90820B3F90B309042D7
:104DC000A8BF10468342B8BF184680B22DE042F219
:104DD000A443C2F200031B68B3F90500B3F9022033
:104DE0009042B8BF1046B3F90820B3F90B30904297
:104DF000B8BF10468342A8BF184680B215E042F201
:104E0000A443C2F200031B68B3F90200B3F9052002
:104E10008018B3F908208018B3F90B30C01800B21D
:104E20000028B8BF0330C0F38F0000B2704700BF46
:104E30002DE9F0414BF2C443C2F200031B685B8DC5
:104E4000002B00F0F88042F2A443C2F200031E6877
:104E50004BF29423C2F200031F68B7F97434A6F82A
:104E60008E30764B93F83740CCB14FF000031A46A2
:104E700042F2EC45C2F20005824207D0591901F511
:104E8000BF4191F90010002940F0D58002F10102E4
:104E9000D2B203F5A46303F10E03A242ECD1B6F93A
:104EA0006930002B00F0C780B7F98834B3F5B46FD0
:104EB000BCBF0133A7F8883442F27643C2F2000344
:104EC0004FF000021A80B6F90E301FFA83F81CB2B8
:104ED000B6F96250A8B22DB2611B594AB2F900204E
:104EE000914202DCB4F5165F02DD002840F0A38099
:104EF000B6F958703E46FFF727FF3A1A514BB3F9FF
:104F000000309A4200F397804F4BB3F90030C61B34
:104F10009E420ADA2C1B4D4AB2F900209442C0F29C
:104F20008A80B8F1000F00F086804BF2D028C2F2E0
:104F30000008C01BA8F80000454CB4F991102546A4
:104F400035F98F0FB4F99320821A18464FF00003F9
:104F5000FCF756FA42F27643C2F20003B5F90010AC
:104F600042F2EA45C2F200052A888A1A1A8042F201
:104F7000A446C2F200063368B3F96220B3F90E30DA
:104F8000D31AA8F80030B4F99700B4F99B1027465B
:104F900037F9992FB4F99D30D21A4FF00003FCF77E
:104FA0002FFAB7F900202B88D21A92B22A803368E0
:104FB000B3F90E1081B1B3F962306BB142F27643AE
:104FC000C2F20003B3F9001013B2994204DD42F2B9
:104FD0007643C2F200031A804BF29423C2F200031C
:104FE0001B6842F27642C2F20002B3F98814B2F9A9
:104FF000002091421FDB42F2D042C2F2000212783E
:1050000012F0020F17D14FF0010283F88B2442F205
:10501000A442C2F200021268B2F96910B3F9742412
:105020008A18A3F874244FF0000283F8882483F8C8
:10503000892483F88A24BDE8F08100BF6C5E0020DB
:105040008B7F0020817F0020797F0020837F0020DC
:10505000EC7E00204BF2C443C2F200031B6893F9BC
:105060002F30062B67D8DFE803F0040B1219203825
:10507000500042F2A443C2F200031B6858885AE071
:1050800042F2A443C2F200031B68588853E042F284
:10509000A443C2F200031B6858884CE042F2A443C8
:1050A000C2F200031B68588845E042F2A443C2F2F2
:1050B00000031B68B3F90500B3F902209042A8BFB2
:1050C0001046B3F90820B3F90B309042A8BF104640
:1050D0008342B8BF184680B22DE042F2A443C2F228
:1050E00000031B68B3F90500B3F902209042B8BF72
:1050F0001046B3F90820B3F90B309042B8BF104600
:105100008342A8BF184680B215E042F2A443C2F21F
:1051100000031B68B3F90200B3F905208018B3F946
:1051200008208018B3F90B30C01800B20028B8BFAF
:105130000330C0F38F0000B2704700BF4BF2C4438E
:10514000C2F200031B6893F92E30062B67D8DFE804
:1051500003F0040B12192038500042F2A443C2F2AB
:1051600000031B6858885AE042F2A443C2F20003CD
:105170001B68588853E042F2A443C2F200031B6844
:1051800058884CE042F2A443C2F200031B685888DE
:1051900045E042F2A443C2F200031B68B3F90500E4
:1051A000B3F902209042A8BF1046B3F90820B3F922
:1051B0000B309042A8BF10468342B8BF184680B259
:1051C0002DE042F2A443C2F200031B68B3F90500CC
:1051D000B3F902209042B8BF1046B3F90820B3F9E2
:1051E0000B309042B8BF10468342A8BF184680B229
:1051F00015E042F2A443C2F200031B68B3F90200B7
:10520000B3F905208018B3F908208018B3F90B30E2
:10521000C01800B20028B8BF0330C0F38F0000B23E
:10522000704700BF10B404283ED8DFE800F03E030A
:10523000082025008B4237DB591A09B235E05A188D
:10524000B2F5B46F10DD46F2B703CBF20B6383FB0C
:10525000020189184FEAE270C0EBA1214FF4B46358
:1052600003FB112109B220E0591809B21DE0914257
:105270001ADC511A09B218E05318B3F5B46F10DDF7
:1052800046F2B702CBF20B6282FB0341C9184FEA28
:10529000E370C0EBA1214FF4B46202FB113109B2FB
:1052A00003E0511809B200E000E0084610BC704766
:1052B00010B422B101B110B900FB03F01EE0091ACD
:1052C00089B242F2EA42C2F20002118042F2764210
:1052D000C2F2000214884BF2D022C2F200021288FD
:1052E00012B900FB03F009E009B224B201FB04F19A
:1052F00012B291FBF2F2801803FB00F010BC704771
:105300002DE9F04F8BB009908B4642F2EC41C2F28E
:10531000000140F24E2303FB021202F1490242F265
:10532000A443C2F200031A604FF0000382F8563023
:1053300082F8573042F2EA40C2F20000B1F843204E
:10534000099CA21812B246F2B701CBF20B6181FBA5
:10535000024189184FEAE274C4EBA1244FF4B4610E
:1053600001FB142202801C460693059100910193D3
:105370004FF0FF000290049042F2EC46C2F20006A9
:105380004BF2E038C2F2000842F28649C2F200094C
:105390004BF22A2AC2F2000A42F2EA43C2F20003A6
:1053A0000393E7B24FF0320303FB046303F5884332
:1053B00003F10B03C8F80030D878B3F90110B9F93C
:1053C0000020BAF90030FFF72DFF05460AF008F873
:1053D0002DB34FF0320303FB046303F58843DA7AFD
:1053E0000BF101039A421AD100998D42BCBF00957E
:1053F0000797019A9542C4BF0195089709F0F0FFFD
:105400000398B0F90030AB4204DC05998D42C0F23C
:10541000658104E0069A9542C4BF0695029704F19F
:105420000104282CBDD1029B009CB4F5B46F00F0A0
:105430005881049C62B2079834EA220428BF0446CB
:1054400004945BB2029C089834EA230428BF044603
:10545000029464B24FF0320342F2EC46C2F200060C
:1054600003FB046404F5884404F10B0404994DB271
:1054700003FB056303F5884505F10B0509F0B0FF53
:1054800042F28642C2F200024BF22A23C2F2000329
:10549000E078B4F90110B2F90070B3F900803A462F
:1054A0004346FFF7BFFE81464BF2E033C2F20003F2
:1054B0001D60E878B5F901103A464346FFF7B2FEA1
:1054C0001FFA89F942F27643C2F20003B6F843208C
:1054D000C9EB02021A804BF2D026C2F20006C9EBD9
:1054E0000009A6F8009009F07BFF338813F4004F01
:1054F00002D003F5B463338042F27643C2F2000374
:105500001B8813F4004F06D042F27642C2F200022A
:1055100003F5B4631380099A62B342F2A443C2F262
:1055200000031E68B4F80500B5F805104FF001023D
:105530001346FFF7BDFEA6F85C00B4F8070018B9E3
:10554000B4F8050000F1640042F2A446C2F200067D
:105550003768B5F807104FF001021346FFF7A8FEB1
:10556000A7F85E003368A27E83F87120E27E83F89C
:105570007220B6E009F034FF42F2A443C2F2000305
:105580001E68B4F80500B5F805104FF00102134687
:10559000FFF78EFEA6F85600B4F8070018B9B4F865
:1055A000050000F1640042F2A446C2F2000637682A
:1055B000B5F807104FF001021346FFF779FEA7F880
:1055C0005A003768A38AA7F86930607F697F4FF077
:1055D00001024FF06403FFF76BFEA7F86000376825
:1055E000B4F80900B5F809104FF001021346FFF7AF
:1055F0005FFEA7F864003768207C297C4FF0010229
:105600004FF00A03FFF754FEA7F8DA003768607C12
:10561000697C4FF001024FF00A03FFF749FEA7F83B
:10562000F2003768207F297F4FF001024FF00A0314
:10563000FFF73EFEA7F80A013768E07BE97B4FF0F1
:1056400001024FF00A03FFF733FEA7F83A0137686B
:10565000E07AE97A4FF001024FF00A03FFF728FEE3
:10566000A7F8D6003768207B297B4FF001024FF066
:105670000A03FFF71DFEA7F8EE003768A07CA97C9F
:105680004FF000024FF00103FFF712FEA7F86A0186
:105690003768E37C87F86830A37D87F86E30E37D58
:1056A00087F86F30237E87F87030637E87F86D301F
:1056B000607B697B4FF001024FF00A03FFF7F8FDB2
:1056C000A7F814013668A07BA97B4FF001024FF0C8
:1056D0000A03FFF7EDFDA6F82C0102E005950497FB
:1056E0009DE60BB0BDE8F08FF8B54BF2D022C2F2C8
:1056F000000242F2EC43C2F20003D96B41F30F21E6
:10570000118042F2A444C2F200042268B2F9561099
:10571000A2F8581003F5B243B3F9DB00B3F9DD107A
:10572000B3F9DF204FF00403FBF76AFE80B242F2C8
:105730007643C2F200031880236893F85520104383
:1057400083F8550009F04CFE236842F2EA42C2F2A7
:1057500000021288B3F958105118A3F85810B3F981
:105760005C105218A3F85C20B3F95A20F2B10E4B2A
:10577000B3F9DB00B3F9DD10B3F9E1204FF000031A
:10578000FBF73EFE236842F2EA42C2F200021288B0
:10579000B3F95A105118A3F85A10B3F95E10521801
:1057A000A3F85E200EE000BFEC7D0020B3F9582086
:1057B00002F16402A3F85A20B3F95C2002F16402FA
:1057C000A3F85E2042F2A443C2F200031B68B3F9BF
:1057D000602091B231B3A3F86220D54BB3F9DB005E
:1057E000B3F9DD10B3F9E5204FF00803FBF708FE2D
:1057F00080B242F27643C2F20003188042F2A44320
:10580000C2F200031B6893F85520104383F855003B
:10581000B3F9621042F2EA42C2F2000212888A1A16
:10582000A3F8622042F2A443C2F200031B68B3F95A
:10583000642091B231B3A3F86620BD4BB3F9DB000D
:10584000B3F9DD10B3F9EB204FF01003FBF7D8FDEF
:1058500080B242F27643C2F20003188042F2A443BF
:10586000C2F200031B6893F85520104383F85500DB
:1058700042F2EA42C2F20002B3F9661012888A18B4
:10588000A3F8662042F2A443C2F200031B68B3F9F6
:10589000DA30002B3ED042F2EC46C2F2000606F5AA
:1058A000B243B3F9DB00B3F9DD10B3F9F1204FF0E7
:1058B0000003FBF7A5FD42F27647C2F200073880ED
:1058C00042F2A445C2F200052B68B3F9DA1042F2A5
:1058D000EA44C2F2000422888A1AA3F8DC20FDF709
:1058E0003BFA4BF2D023C2F20003188006F5B4460F
:1058F000B6F9CD00B6F9CF10B6F9D1204FF00003BC
:10590000FBF77EFD38802B68B3F9DC1022888A18FB
:10591000A3F8DC2042F2A443C2F200031A68B2F9F1
:10592000F230A2F8F4302BB3FDF716FA4BF2D02385
:10593000C2F2000318807F4BB3F9CD00B3F9CF104A
:10594000B3F9D3204FF00003FBF75AFD42F2764340
:10595000C2F20003188042F2A443C2F200031A68A4
:1059600042F2EA43C2F20003B2F9F4101B88CB18EA
:10597000A2F8F4304BF2D023C2F2000342F2EC4220
:10598000C2F20002D26B42F30F221A8042F2A44309
:10599000C2F200031B68B3F90A31F3B1644BB3F9E7
:1059A000DB00B3F9DD10B3F9F5204FF00003FBF78E
:1059B00027FD42F27643C2F20003188042F2A4436C
:1059C000C2F200031A68B2F90A1142F2EA43C2F2C3
:1059D00000031B88CB1AA2F80C3142F2A443C2F296
:1059E00000031B68B3F93A31F3B1514BB3F9DB0053
:1059F000B3F9DD10B3F9F3204FF00003FBF700FD1E
:105A000042F27643C2F20003188042F2A443C2F28B
:105A100000031A6842F2EA43C2F20003B2F93A11F3
:105A20001B88CB18A2F83C3142F2A443C2F2000317
:105A30001A684BF2C443C2F200031B68B3F9143076
:105A4000A2F86B30B2F96A3199B231B3A2F86C3175
:105A5000374BB3F9DB00B3F9DD10B3F9F7204FF0A2
:105A60000003FBF7CDFC80B242F27643C2F20003A2
:105A7000188042F2A443C2F200031B6893F8762117
:105A8000104383F8760142F2EA42C2F20002B3F90F
:105A90006C1112888A18A3F86C21FDF75DF94BF29E
:105AA000D025C2F20005288042F2EC43C2F2000386
:105AB00003F5B244B4F9F900B4F9FB1003F5B443AB
:105AC000B3F905204FF00003FBF79AFC42F2A4461D
:105AD000C2F20006336842F2EA47C2F200073A888F
